{
  "_format": "hh-sol-artifact-1",
  "contractName": "FractionalNFTMarketplace",
  "sourceName": "contracts/FractionalNFTMarketplace.sol",
  "abi": [
    {
      "inputs": [
        {
          "internalType": "uint256",
          "name": "_initialVerificationFee",
          "type": "uint256"
        }
      ],
      "stateMutability": "nonpayable",
      "type": "constructor"
    },
    {
      "inputs": [],
      "name": "ERC721EnumerableForbiddenBatchMint",
      "type": "error"
    },
    {
      "inputs": [
        {
          "internalType": "address",
          "name": "sender",
          "type": "address"
        },
        {
          "internalType": "uint256",
          "name": "tokenId",
          "type": "uint256"
        },
        {
          "internalType": "address",
          "name": "owner",
          "type": "address"
        }
      ],
      "name": "ERC721IncorrectOwner",
      "type": "error"
    },
    {
      "inputs": [
        {
          "internalType": "address",
          "name": "operator",
          "type": "address"
        },
        {
          "internalType": "uint256",
          "name": "tokenId",
          "type": "uint256"
        }
      ],
      "name": "ERC721InsufficientApproval",
      "type": "error"
    },
    {
      "inputs": [
        {
          "internalType": "address",
          "name": "approver",
          "type": "address"
        }
      ],
      "name": "ERC721InvalidApprover",
      "type": "error"
    },
    {
      "inputs": [
        {
          "internalType": "address",
          "name": "operator",
          "type": "address"
        }
      ],
      "name": "ERC721InvalidOperator",
      "type": "error"
    },
    {
      "inputs": [
        {
          "internalType": "address",
          "name": "owner",
          "type": "address"
        }
      ],
      "name": "ERC721InvalidOwner",
      "type": "error"
    },
    {
      "inputs": [
        {
          "internalType": "address",
          "name": "receiver",
          "type": "address"
        }
      ],
      "name": "ERC721InvalidReceiver",
      "type": "error"
    },
    {
      "inputs": [
        {
          "internalType": "address",
          "name": "sender",
          "type": "address"
        }
      ],
      "name": "ERC721InvalidSender",
      "type": "error"
    },
    {
      "inputs": [
        {
          "internalType": "uint256",
          "name": "tokenId",
          "type": "uint256"
        }
      ],
      "name": "ERC721NonexistentToken",
      "type": "error"
    },
    {
      "inputs": [
        {
          "internalType": "address",
          "name": "owner",
          "type": "address"
        },
        {
          "internalType": "uint256",
          "name": "index",
          "type": "uint256"
        }
      ],
      "name": "ERC721OutOfBoundsIndex",
      "type": "error"
    },
    {
      "inputs": [
        {
          "internalType": "address",
          "name": "owner",
          "type": "address"
        }
      ],
      "name": "OwnableInvalidOwner",
      "type": "error"
    },
    {
      "inputs": [
        {
          "internalType": "address",
          "name": "account",
          "type": "address"
        }
      ],
      "name": "OwnableUnauthorizedAccount",
      "type": "error"
    },
    {
      "inputs": [],
      "name": "ReentrancyGuardReentrantCall",
      "type": "error"
    },
    {
      "anonymous": false,
      "inputs": [
        {
          "indexed": true,
          "internalType": "address",
          "name": "owner",
          "type": "address"
        },
        {
          "indexed": true,
          "internalType": "address",
          "name": "approved",
          "type": "address"
        },
        {
          "indexed": true,
          "internalType": "uint256",
          "name": "tokenId",
          "type": "uint256"
        }
      ],
      "name": "Approval",
      "type": "event"
    },
    {
      "anonymous": false,
      "inputs": [
        {
          "indexed": true,
          "internalType": "address",
          "name": "owner",
          "type": "address"
        },
        {
          "indexed": true,
          "internalType": "address",
          "name": "operator",
          "type": "address"
        },
        {
          "indexed": false,
          "internalType": "bool",
          "name": "approved",
          "type": "bool"
        }
      ],
      "name": "ApprovalForAll",
      "type": "event"
    },
    {
      "anonymous": false,
      "inputs": [
        {
          "indexed": true,
          "internalType": "uint256",
          "name": "tokenId",
          "type": "uint256"
        },
        {
          "indexed": true,
          "internalType": "address",
          "name": "buyer",
          "type": "address"
        },
        {
          "indexed": false,
          "internalType": "uint256",
          "name": "fractions",
          "type": "uint256"
        },
        {
          "indexed": false,
          "internalType": "uint256",
          "name": "totalCost",
          "type": "uint256"
        }
      ],
      "name": "FractionBought",
      "type": "event"
    },
    {
      "anonymous": false,
      "inputs": [
        {
          "indexed": true,
          "internalType": "uint256",
          "name": "tokenId",
          "type": "uint256"
        },
        {
          "indexed": true,
          "internalType": "address",
          "name": "seller",
          "type": "address"
        },
        {
          "indexed": false,
          "internalType": "uint256",
          "name": "fractions",
          "type": "uint256"
        },
        {
          "indexed": false,
          "internalType": "uint256",
          "name": "amountReceived",
          "type": "uint256"
        }
      ],
      "name": "FractionSold",
      "type": "event"
    },
    {
      "anonymous": false,
      "inputs": [
        {
          "indexed": true,
          "internalType": "address",
          "name": "previousOwner",
          "type": "address"
        },
        {
          "indexed": true,
          "internalType": "address",
          "name": "newOwner",
          "type": "address"
        }
      ],
      "name": "OwnershipTransferred",
      "type": "event"
    },
    {
      "anonymous": false,
      "inputs": [
        {
          "indexed": true,
          "internalType": "uint256",
          "name": "tokenId",
          "type": "uint256"
        }
      ],
      "name": "PropertyRejected",
      "type": "event"
    },
    {
      "anonymous": false,
      "inputs": [
        {
          "indexed": true,
          "internalType": "uint256",
          "name": "tokenId",
          "type": "uint256"
        },
        {
          "indexed": true,
          "internalType": "address",
          "name": "owner",
          "type": "address"
        },
        {
          "indexed": false,
          "internalType": "uint256",
          "name": "totalFractions",
          "type": "uint256"
        },
        {
          "indexed": false,
          "internalType": "uint256",
          "name": "pricePerFraction",
          "type": "uint256"
        }
      ],
      "name": "PropertySubmitted",
      "type": "event"
    },
    {
      "anonymous": false,
      "inputs": [
        {
          "indexed": true,
          "internalType": "uint256",
          "name": "tokenId",
          "type": "uint256"
        }
      ],
      "name": "PropertyVerified",
      "type": "event"
    },
    {
      "anonymous": false,
      "inputs": [
        {
          "indexed": true,
          "internalType": "address",
          "name": "from",
          "type": "address"
        },
        {
          "indexed": true,
          "internalType": "address",
          "name": "to",
          "type": "address"
        },
        {
          "indexed": true,
          "internalType": "uint256",
          "name": "tokenId",
          "type": "uint256"
        }
      ],
      "name": "Transfer",
      "type": "event"
    },
    {
      "anonymous": false,
      "inputs": [
        {
          "indexed": false,
          "internalType": "uint256",
          "name": "newFee",
          "type": "uint256"
        }
      ],
      "name": "VerificationFeeUpdated",
      "type": "event"
    },
    {
      "anonymous": false,
      "inputs": [
        {
          "indexed": true,
          "internalType": "address",
          "name": "newVerifier",
          "type": "address"
        }
      ],
      "name": "VerifierUpdated",
      "type": "event"
    },
    {
      "inputs": [
        {
          "internalType": "address",
          "name": "to",
          "type": "address"
        },
        {
          "internalType": "uint256",
          "name": "tokenId",
          "type": "uint256"
        }
      ],
      "name": "approve",
      "outputs": [],
      "stateMutability": "nonpayable",
      "type": "function"
    },
    {
      "inputs": [
        {
          "internalType": "address",
          "name": "owner",
          "type": "address"
        }
      ],
      "name": "balanceOf",
      "outputs": [
        {
          "internalType": "uint256",
          "name": "",
          "type": "uint256"
        }
      ],
      "stateMutability": "view",
      "type": "function"
    },
    {
      "inputs": [
        {
          "internalType": "uint256",
          "name": "_tokenId",
          "type": "uint256"
        },
        {
          "internalType": "uint256",
          "name": "_fractions",
          "type": "uint256"
        }
      ],
      "name": "buyFraction",
      "outputs": [],
      "stateMutability": "payable",
      "type": "function"
    },
    {
      "inputs": [],
      "name": "getAllListings",
      "outputs": [
        {
          "components": [
            {
              "internalType": "uint256",
              "name": "tokenId",
              "type": "uint256"
            },
            {
              "internalType": "address",
              "name": "owner",
              "type": "address"
            },
            {
              "internalType": "uint256",
              "name": "totalFractions",
              "type": "uint256"
            },
            {
              "internalType": "uint256",
              "name": "pricePerFraction",
              "type": "uint256"
            },
            {
              "internalType": "uint256",
              "name": "availableFractions",
              "type": "uint256"
            },
            {
              "internalType": "enum FractionalNFTMarketplace.VerificationStatus",
              "name": "status",
              "type": "uint8"
            }
          ],
          "internalType": "struct FractionalNFTMarketplace.Property[]",
          "name": "",
          "type": "tuple[]"
        }
      ],
      "stateMutability": "view",
      "type": "function"
    },
    {
      "inputs": [
        {
          "internalType": "uint256",
          "name": "tokenId",
          "type": "uint256"
        }
      ],
      "name": "getApproved",
      "outputs": [
        {
          "internalType": "address",
          "name": "",
          "type": "address"
        }
      ],
      "stateMutability": "view",
      "type": "function"
    },
    {
      "inputs": [
        {
          "internalType": "address",
          "name": "owner",
          "type": "address"
        },
        {
          "internalType": "address",
          "name": "operator",
          "type": "address"
        }
      ],
      "name": "isApprovedForAll",
      "outputs": [
        {
          "internalType": "bool",
          "name": "",
          "type": "bool"
        }
      ],
      "stateMutability": "view",
      "type": "function"
    },
    {
      "inputs": [],
      "name": "name",
      "outputs": [
        {
          "internalType": "string",
          "name": "",
          "type": "string"
        }
      ],
      "stateMutability": "view",
      "type": "function"
    },
    {
      "inputs": [],
      "name": "nextTokenId",
      "outputs": [
        {
          "internalType": "uint256",
          "name": "",
          "type": "uint256"
        }
      ],
      "stateMutability": "view",
      "type": "function"
    },
    {
      "inputs": [],
      "name": "owner",
      "outputs": [
        {
          "internalType": "address",
          "name": "",
          "type": "address"
        }
      ],
      "stateMutability": "view",
      "type": "function"
    },
    {
      "inputs": [
        {
          "internalType": "uint256",
          "name": "tokenId",
          "type": "uint256"
        }
      ],
      "name": "ownerOf",
      "outputs": [
        {
          "internalType": "address",
          "name": "",
          "type": "address"
        }
      ],
      "stateMutability": "view",
      "type": "function"
    },
    {
      "inputs": [
        {
          "internalType": "uint256",
          "name": "",
          "type": "uint256"
        }
      ],
      "name": "properties",
      "outputs": [
        {
          "internalType": "uint256",
          "name": "tokenId",
          "type": "uint256"
        },
        {
          "internalType": "address",
          "name": "owner",
          "type": "address"
        },
        {
          "internalType": "uint256",
          "name": "totalFractions",
          "type": "uint256"
        },
        {
          "internalType": "uint256",
          "name": "pricePerFraction",
          "type": "uint256"
        },
        {
          "internalType": "uint256",
          "name": "availableFractions",
          "type": "uint256"
        },
        {
          "internalType": "enum FractionalNFTMarketplace.VerificationStatus",
          "name": "status",
          "type": "uint8"
        }
      ],
      "stateMutability": "view",
      "type": "function"
    },
    {
      "inputs": [],
      "name": "renounceOwnership",
      "outputs": [],
      "stateMutability": "nonpayable",
      "type": "function"
    },
    {
      "inputs": [
        {
          "internalType": "address",
          "name": "from",
          "type": "address"
        },
        {
          "internalType": "address",
          "name": "to",
          "type": "address"
        },
        {
          "internalType": "uint256",
          "name": "tokenId",
          "type": "uint256"
        }
      ],
      "name": "safeTransferFrom",
      "outputs": [],
      "stateMutability": "nonpayable",
      "type": "function"
    },
    {
      "inputs": [
        {
          "internalType": "address",
          "name": "from",
          "type": "address"
        },
        {
          "internalType": "address",
          "name": "to",
          "type": "address"
        },
        {
          "internalType": "uint256",
          "name": "tokenId",
          "type": "uint256"
        },
        {
          "internalType": "bytes",
          "name": "data",
          "type": "bytes"
        }
      ],
      "name": "safeTransferFrom",
      "outputs": [],
      "stateMutability": "nonpayable",
      "type": "function"
    },
    {
      "inputs": [
        {
          "internalType": "address",
          "name": "operator",
          "type": "address"
        },
        {
          "internalType": "bool",
          "name": "approved",
          "type": "bool"
        }
      ],
      "name": "setApprovalForAll",
      "outputs": [],
      "stateMutability": "nonpayable",
      "type": "function"
    },
    {
      "inputs": [
        {
          "internalType": "uint256",
          "name": "_newFee",
          "type": "uint256"
        }
      ],
      "name": "setVerificationFee",
      "outputs": [],
      "stateMutability": "nonpayable",
      "type": "function"
    },
    {
      "inputs": [
        {
          "internalType": "address",
          "name": "_newVerifier",
          "type": "address"
        }
      ],
      "name": "setVerifier",
      "outputs": [],
      "stateMutability": "nonpayable",
      "type": "function"
    },
    {
      "inputs": [
        {
          "internalType": "uint256",
          "name": "_totalFractions",
          "type": "uint256"
        },
        {
          "internalType": "uint256",
          "name": "_pricePerFraction",
          "type": "uint256"
        }
      ],
      "name": "submitPropertyForVerification",
      "outputs": [],
      "stateMutability": "payable",
      "type": "function"
    },
    {
      "inputs": [
        {
          "internalType": "bytes4",
          "name": "interfaceId",
          "type": "bytes4"
        }
      ],
      "name": "supportsInterface",
      "outputs": [
        {
          "internalType": "bool",
          "name": "",
          "type": "bool"
        }
      ],
      "stateMutability": "view",
      "type": "function"
    },
    {
      "inputs": [],
      "name": "symbol",
      "outputs": [
        {
          "internalType": "string",
          "name": "",
          "type": "string"
        }
      ],
      "stateMutability": "view",
      "type": "function"
    },
    {
      "inputs": [
        {
          "internalType": "uint256",
          "name": "index",
          "type": "uint256"
        }
      ],
      "name": "tokenByIndex",
      "outputs": [
        {
          "internalType": "uint256",
          "name": "",
          "type": "uint256"
        }
      ],
      "stateMutability": "view",
      "type": "function"
    },
    {
      "inputs": [
        {
          "internalType": "address",
          "name": "owner",
          "type": "address"
        },
        {
          "internalType": "uint256",
          "name": "index",
          "type": "uint256"
        }
      ],
      "name": "tokenOfOwnerByIndex",
      "outputs": [
        {
          "internalType": "uint256",
          "name": "",
          "type": "uint256"
        }
      ],
      "stateMutability": "view",
      "type": "function"
    },
    {
      "inputs": [
        {
          "internalType": "uint256",
          "name": "tokenId",
          "type": "uint256"
        }
      ],
      "name": "tokenURI",
      "outputs": [
        {
          "internalType": "string",
          "name": "",
          "type": "string"
        }
      ],
      "stateMutability": "view",
      "type": "function"
    },
    {
      "inputs": [],
      "name": "totalSupply",
      "outputs": [
        {
          "internalType": "uint256",
          "name": "",
          "type": "uint256"
        }
      ],
      "stateMutability": "view",
      "type": "function"
    },
    {
      "inputs": [
        {
          "internalType": "address",
          "name": "from",
          "type": "address"
        },
        {
          "internalType": "address",
          "name": "to",
          "type": "address"
        },
        {
          "internalType": "uint256",
          "name": "tokenId",
          "type": "uint256"
        }
      ],
      "name": "transferFrom",
      "outputs": [],
      "stateMutability": "nonpayable",
      "type": "function"
    },
    {
      "inputs": [
        {
          "internalType": "address",
          "name": "newOwner",
          "type": "address"
        }
      ],
      "name": "transferOwnership",
      "outputs": [],
      "stateMutability": "nonpayable",
      "type": "function"
    },
    {
      "inputs": [],
      "name": "verificationFee",
      "outputs": [
        {
          "internalType": "uint256",
          "name": "",
          "type": "uint256"
        }
      ],
      "stateMutability": "view",
      "type": "function"
    },
    {
      "inputs": [],
      "name": "verifier",
      "outputs": [
        {
          "internalType": "address",
          "name": "",
          "type": "address"
        }
      ],
      "stateMutability": "view",
      "type": "function"
    },
    {
      "inputs": [
        {
          "internalType": "uint256",
          "name": "_tokenId",
          "type": "uint256"
        },
        {
          "internalType": "bool",
          "name": "_approve",
          "type": "bool"
        }
      ],
      "name": "verifyProperty",
      "outputs": [],
      "stateMutability": "nonpayable",
      "type": "function"
    }
  ],
  "bytecode": "0x608060405234801561001057600080fd5b5060405161486b38038061486b83398181016040528101906100329190610314565b336040518060400160405280600d81526020017f4672616374696f6e616c4e4654000000000000000000000000000000000000008152506040518060400160405280600481526020017f664e46540000000000000000000000000000000000000000000000000000000081525081600090816100ae9190610587565b5080600190816100be9190610587565b505050600073ffffffffffffffffffffffffffffffffffffffff168173ffffffffffffffffffffffffffffffffffffffff16036101335760006040517f1e4fbdf700000000000000000000000000000000000000000000000000000000815260040161012a919061069a565b60405180910390fd5b6101428161021360201b60201c565b506001600b8190555033600e60006101000a81548173ffffffffffffffffffffffffffffffffffffffff021916908373ffffffffffffffffffffffffffffffffffffffff16021790555080600f819055503373ffffffffffffffffffffffffffffffffffffffff167fd24015cc99cc1700cafca3042840a1d8ac1e3964fd2e0e37ea29c654056ee32760405160405180910390a27fb28e93ba12cfe6381facd1fb8bbd27a52d11b825c1801eb744c14f070365486a8160405161020591906106c4565b60405180910390a1506106df565b6000600a60009054906101000a900473ffffffffffffffffffffffffffffffffffffffff16905081600a60006101000a81548173ffffffffffffffffffffffffffffffffffffffff021916908373ffffffffffffffffffffffffffffffffffffffff1602179055508173ffffffffffffffffffffffffffffffffffffffff168173ffffffffffffffffffffffffffffffffffffffff167f8be0079c531659141344cd1fd0a4f28419497f9722a3daafe3b4186f6b6457e060405160405180910390a35050565b600080fd5b6000819050919050565b6102f1816102de565b81146102fc57600080fd5b50565b60008151905061030e816102e8565b92915050565b60006020828403121561032a576103296102d9565b5b6000610338848285016102ff565b91505092915050565b600081519050919050565b7f4e487b7100000000000000000000000000000000000000000000000000000000600052604160045260246000fd5b7f4e487b7100000000000000000000000000000000000000000000000000000000600052602260045260246000fd5b600060028204905060018216806103c257607f821691505b6020821081036103d5576103d461037b565b5b50919050565b60008190508160005260206000209050919050565b60006020601f8301049050919050565b600082821b905092915050565b60006008830261043d7fffffffffffffffffffffffffffffffffffffffffffffffffffffffffffffffff82610400565b6104478683610400565b95508019841693508086168417925050509392505050565b6000819050919050565b600061048461047f61047a846102de565b61045f565b6102de565b9050919050565b6000819050919050565b61049e83610469565b6104b26104aa8261048b565b84845461040d565b825550505050565b600090565b6104c76104ba565b6104d2818484610495565b505050565b5b818110156104f6576104eb6000826104bf565b6001810190506104d8565b5050565b601f82111561053b5761050c816103db565b610515846103f0565b81016020851015610524578190505b610538610530856103f0565b8301826104d7565b50505b505050565b600082821c905092915050565b600061055e60001984600802610540565b1980831691505092915050565b6000610577838361054d565b9150826002028217905092915050565b61059082610341565b67ffffffffffffffff8111156105a9576105a861034c565b5b6105b382546103aa565b6105be8282856104fa565b600060209050601f8311600181146105f157600084156105df578287015190505b6105e9858261056b565b865550610651565b601f1984166105ff866103db565b60005b8281101561062757848901518255600182019150602085019450602081019050610602565b868310156106445784890151610640601f89168261054d565b8355505b6001600288020188555050505b505050505050565b600073ffffffffffffffffffffffffffffffffffffffff82169050919050565b600061068482610659565b9050919050565b61069481610679565b82525050565b60006020820190506106af600083018461068b565b92915050565b6106be816102de565b82525050565b60006020820190506106d960008301846106b5565b92915050565b61417d806106ee6000396000f3fe6080604052600436106101c25760003560e01c806370a08231116100f7578063aae9d5f211610095578063d40b021411610064578063d40b021414610645578063e985e9c514610661578063f2fde38b1461069e578063f7b10808146106c7576101c2565b8063aae9d5f21461058b578063ae73ccec146105b4578063b88d4fde146105df578063c87b56dd14610608576101c2565b80638da5cb5b116100d15780638da5cb5b146104e157806395d89b411461050c578063a22cb46514610537578063a8c278a214610560576101c2565b806370a0823114610462578063715018a61461049f57806375794a3c146104b6576101c2565b80632f745c59116101645780634f6ccce71161013e5780634f6ccce7146103a35780635338561b146103e05780635437988d146103fc5780636352211e14610425576101c2565b80632f745c5914610314578063322bb1161461035157806342842e0e1461037a576101c2565b8063095ea7b3116101a0578063095ea7b31461026c57806318160ddd1461029557806323b872dd146102c05780632b7ac3f3146102e9576101c2565b806301ffc9a7146101c757806306fdde0314610204578063081812fc1461022f575b600080fd5b3480156101d357600080fd5b506101ee60048036038101906101e99190612eb0565b610709565b6040516101fb9190612ef8565b60405180910390f35b34801561021057600080fd5b50610219610783565b6040516102269190612fa3565b60405180910390f35b34801561023b57600080fd5b5061025660048036038101906102519190612ffb565b610815565b6040516102639190613069565b60405180910390f35b34801561027857600080fd5b50610293600480360381019061028e91906130b0565b610831565b005b3480156102a157600080fd5b506102aa610847565b6040516102b791906130ff565b60405180910390f35b3480156102cc57600080fd5b506102e760048036038101906102e2919061311a565b610854565b005b3480156102f557600080fd5b506102fe610956565b60405161030b9190613069565b60405180910390f35b34801561032057600080fd5b5061033b600480360381019061033691906130b0565b61097c565b60405161034891906130ff565b60405180910390f35b34801561035d57600080fd5b5061037860048036038101906103739190613199565b610a25565b005b34801561038657600080fd5b506103a1600480360381019061039c919061311a565b610deb565b005b3480156103af57600080fd5b506103ca60048036038101906103c59190612ffb565b610e0b565b6040516103d791906130ff565b60405180910390f35b6103fa60048036038101906103f591906131d9565b610e81565b005b34801561040857600080fd5b50610423600480360381019061041e9190613219565b6110d7565b005b34801561043157600080fd5b5061044c60048036038101906104479190612ffb565b6111d5565b6040516104599190613069565b60405180910390f35b34801561046e57600080fd5b5061048960048036038101906104849190613219565b6111e7565b60405161049691906130ff565b60405180910390f35b3480156104ab57600080fd5b506104b46112a1565b005b3480156104c257600080fd5b506104cb6112b5565b6040516104d891906130ff565b60405180910390f35b3480156104ed57600080fd5b506104f66112bb565b6040516105039190613069565b60405180910390f35b34801561051857600080fd5b506105216112e5565b60405161052e9190612fa3565b60405180910390f35b34801561054357600080fd5b5061055e60048036038101906105599190613246565b611377565b005b34801561056c57600080fd5b5061057561138d565b60405161058291906130ff565b60405180910390f35b34801561059757600080fd5b506105b260048036038101906105ad9190612ffb565b611393565b005b3480156105c057600080fd5b506105c96113dc565b6040516105d69190613445565b60405180910390f35b3480156105eb57600080fd5b506106066004803603810190610601919061359c565b611628565b005b34801561061457600080fd5b5061062f600480360381019061062a9190612ffb565b61164d565b60405161063c9190612fa3565b60405180910390f35b61065f600480360381019061065a91906131d9565b6116b6565b005b34801561066d57600080fd5b506106886004803603810190610683919061361f565b6118fc565b6040516106959190612ef8565b60405180910390f35b3480156106aa57600080fd5b506106c560048036038101906106c09190613219565b611990565b005b3480156106d357600080fd5b506106ee60048036038101906106e99190612ffb565b611a16565b6040516107009695949392919061366e565b60405180910390f35b60007f780e9d63000000000000000000000000000000000000000000000000000000007bffffffffffffffffffffffffffffffffffffffffffffffffffffffff1916827bffffffffffffffffffffffffffffffffffffffffffffffffffffffff1916148061077c575061077b82611a7f565b5b9050919050565b606060008054610792906136fe565b80601f01602080910402602001604051908101604052809291908181526020018280546107be906136fe565b801561080b5780601f106107e05761010080835404028352916020019161080b565b820191906000526020600020905b8154815290600101906020018083116107ee57829003601f168201915b5050505050905090565b600061082082611b61565b5061082a82611be9565b9050919050565b610843828261083e611c26565b611c2e565b5050565b6000600880549050905090565b600073ffffffffffffffffffffffffffffffffffffffff168273ffffffffffffffffffffffffffffffffffffffff16036108c65760006040517f64a0ae920000000000000000000000000000000000000000000000000000000081526004016108bd9190613069565b60405180910390fd5b60006108da83836108d5611c26565b611c40565b90508373ffffffffffffffffffffffffffffffffffffffff168173ffffffffffffffffffffffffffffffffffffffff1614610950578382826040517f64283d7b0000000000000000000000000000000000000000000000000000000081526004016109479392919061372f565b60405180910390fd5b50505050565b600e60009054906101000a900473ffffffffffffffffffffffffffffffffffffffff1681565b6000610987836111e7565b82106109cc5782826040517fa57d13dc0000000000000000000000000000000000000000000000000000000081526004016109c3929190613766565b60405180910390fd5b600660008473ffffffffffffffffffffffffffffffffffffffff1673ffffffffffffffffffffffffffffffffffffffff168152602001908152602001600020600083815260200190815260200160002054905092915050565b600e60009054906101000a900473ffffffffffffffffffffffffffffffffffffffff1673ffffffffffffffffffffffffffffffffffffffff163373ffffffffffffffffffffffffffffffffffffffff1614610ab5576040517f08c379a0000000000000000000000000000000000000000000000000000000008152600401610aac90613801565b60405180910390fd5b610abd611d5d565b6000600d6000848152602001908152602001600020905060006002811115610ae857610ae76132d0565b5b8160050160009054906101000a900460ff166002811115610b0c57610b0b6132d0565b5b14610b4c576040517f08c379a0000000000000000000000000000000000000000000000000000000008152600401610b4390613893565b60405180910390fd5b8115610cb05760018160050160006101000a81548160ff02191690836002811115610b7a57610b796132d0565b5b0217905550610bad8160010160009054906101000a900473ffffffffffffffffffffffffffffffffffffffff1684611da3565b6000600e60009054906101000a900473ffffffffffffffffffffffffffffffffffffffff1673ffffffffffffffffffffffffffffffffffffffff16600f54604051610bf7906138e4565b60006040518083038185875af1925050503d8060008114610c34576040519150601f19603f3d011682016040523d82523d6000602084013e610c39565b606091505b5050905080610c7d576040517f08c379a0000000000000000000000000000000000000000000000000000000008152600401610c7490613945565b60405180910390fd5b837f251541517e7fdfbb2cb6b8c70a4fdaa5055dd01495174bcb394e5c6934ae634160405160405180910390a250610dde565b60028160050160006101000a81548160ff02191690836002811115610cd857610cd76132d0565b5b021790555060008160010160009054906101000a900473ffffffffffffffffffffffffffffffffffffffff1673ffffffffffffffffffffffffffffffffffffffff16600f54604051610d29906138e4565b60006040518083038185875af1925050503d8060008114610d66576040519150601f19603f3d011682016040523d82523d6000602084013e610d6b565b606091505b5050905080610daf576040517f08c379a0000000000000000000000000000000000000000000000000000000008152600401610da6906139b1565b60405180910390fd5b837f2633babb73bc64ab969a0264c45b1cd034b86f5b1890c80ba6b1287f248df2a560405160405180910390a2505b50610de7611e9c565b5050565b610e0683838360405180602001604052806000815250611628565b505050565b6000610e15610847565b8210610e5b576000826040517fa57d13dc000000000000000000000000000000000000000000000000000000008152600401610e52929190613766565b60405180910390fd5b60088281548110610e6f57610e6e6139d1565b5b90600052602060002001549050919050565b610e89611d5d565b600f543414610ecd576040517f08c379a0000000000000000000000000000000000000000000000000000000008152600401610ec490613a72565b60405180910390fd5b60008211610f10576040517f08c379a0000000000000000000000000000000000000000000000000000000008152600401610f0790613b04565b60405180910390fd5b60008111610f53576040517f08c379a0000000000000000000000000000000000000000000000000000000008152600401610f4a90613b96565b60405180910390fd5b6000600c6000815480929190610f6890613be5565b9190505590506040518060c001604052808281526020013373ffffffffffffffffffffffffffffffffffffffff16815260200184815260200183815260200184815260200160006002811115610fc157610fc06132d0565b5b815250600d60008381526020019081526020016000206000820151816000015560208201518160010160006101000a81548173ffffffffffffffffffffffffffffffffffffffff021916908373ffffffffffffffffffffffffffffffffffffffff16021790555060408201518160020155606082015181600301556080820151816004015560a08201518160050160006101000a81548160ff02191690836002811115611071576110706132d0565b5b02179055509050503373ffffffffffffffffffffffffffffffffffffffff16817fa4d4c049da5aca00279e99b7c1346c0401c69e406553aa868f2872e74aacb3c385856040516110c2929190613c2d565b60405180910390a3506110d3611e9c565b5050565b6110df611ea6565b600073ffffffffffffffffffffffffffffffffffffffff168173ffffffffffffffffffffffffffffffffffffffff160361114e576040517f08c379a000000000000000000000000000000000000000000000000000000000815260040161114590613cc8565b60405180910390fd5b80600e60006101000a81548173ffffffffffffffffffffffffffffffffffffffff021916908373ffffffffffffffffffffffffffffffffffffffff1602179055508073ffffffffffffffffffffffffffffffffffffffff167fd24015cc99cc1700cafca3042840a1d8ac1e3964fd2e0e37ea29c654056ee32760405160405180910390a250565b60006111e082611b61565b9050919050565b60008073ffffffffffffffffffffffffffffffffffffffff168273ffffffffffffffffffffffffffffffffffffffff160361125a5760006040517f89c62b640000000000000000000000000000000000000000000000000000000081526004016112519190613069565b60405180910390fd5b600360008373ffffffffffffffffffffffffffffffffffffffff1673ffffffffffffffffffffffffffffffffffffffff168152602001908152602001600020549050919050565b6112a9611ea6565b6112b36000611f2d565b565b600c5481565b6000600a60009054906101000a900473ffffffffffffffffffffffffffffffffffffffff16905090565b6060600180546112f4906136fe565b80601f0160208091040260200160405190810160405280929190818152602001828054611320906136fe565b801561136d5780601f106113425761010080835404028352916020019161136d565b820191906000526020600020905b81548152906001019060200180831161135057829003601f168201915b5050505050905090565b611389611382611c26565b8383611ff3565b5050565b600f5481565b61139b611ea6565b80600f819055507fb28e93ba12cfe6381facd1fb8bbd27a52d11b825c1801eb744c14f070365486a816040516113d191906130ff565b60405180910390a150565b60606000805b600c548110156114575760016002811115611400576113ff6132d0565b5b600d600083815260200190815260200160002060050160009054906101000a900460ff166002811115611436576114356132d0565b5b0361144a57818061144690613be5565b9250505b80806001019150506113e2565b5060008167ffffffffffffffff81111561147457611473613471565b5b6040519080825280602002602001820160405280156114ad57816020015b61149a612de6565b8152602001906001900390816114925790505b5090506000805b600c5481101561161e57600160028111156114d2576114d16132d0565b5b600d600083815260200190815260200160002060050160009054906101000a900460ff166002811115611508576115076132d0565b5b0361161157600d60008281526020019081526020016000206040518060c0016040529081600082015481526020016001820160009054906101000a900473ffffffffffffffffffffffffffffffffffffffff1673ffffffffffffffffffffffffffffffffffffffff1673ffffffffffffffffffffffffffffffffffffffff1681526020016002820154815260200160038201548152602001600482015481526020016005820160009054906101000a900460ff1660028111156115ce576115cd6132d0565b5b60028111156115e0576115df6132d0565b5b815250508383815181106115f7576115f66139d1565b5b6020026020010181905250818061160d90613be5565b9250505b80806001019150506114b4565b5081935050505090565b611633848484610854565b61164761163e611c26565b85858585612162565b50505050565b606061165882611b61565b506000611663612313565b9050600081511161168357604051806020016040528060008152506116ae565b8061168d8461232a565b60405160200161169e929190613d24565b6040516020818303038152906040525b915050919050565b6116be611d5d565b6000600d60008481526020019081526020016000209050600160028111156116e9576116e86132d0565b5b8160050160009054906101000a900460ff16600281111561170d5761170c6132d0565b5b1461174d576040517f08c379a000000000000000000000000000000000000000000000000000000000815260040161174490613dba565b60405180910390fd5b60008211611790576040517f08c379a000000000000000000000000000000000000000000000000000000000815260040161178790613e4c565b60405180910390fd5b80600401548211156117d7576040517f08c379a00000000000000000000000000000000000000000000000000000000081526004016117ce90613ede565b60405180910390fd5b60008160030154836117e99190613efe565b905080341461182d576040517f08c379a000000000000000000000000000000000000000000000000000000000815260040161182490613fb2565b60405180910390fd5b6000611838856111d5565b90508073ffffffffffffffffffffffffffffffffffffffff166108fc839081150290604051600060405180830381858888f19350505050158015611880573d6000803e3d6000fd5b50838360040160008282546118959190613fd2565b925050819055503373ffffffffffffffffffffffffffffffffffffffff16857f80c4f3b1904f05c8c1907de32bb02dd69685a584a2e41a75414ace634b4292f786856040516118e5929190613c2d565b60405180910390a35050506118f8611e9c565b5050565b6000600560008473ffffffffffffffffffffffffffffffffffffffff1673ffffffffffffffffffffffffffffffffffffffff16815260200190815260200160002060008373ffffffffffffffffffffffffffffffffffffffff1673ffffffffffffffffffffffffffffffffffffffff16815260200190815260200160002060009054906101000a900460ff16905092915050565b611998611ea6565b600073ffffffffffffffffffffffffffffffffffffffff168173ffffffffffffffffffffffffffffffffffffffff1603611a0a5760006040517f1e4fbdf7000000000000000000000000000000000000000000000000000000008152600401611a019190613069565b60405180910390fd5b611a1381611f2d565b50565b600d6020528060005260406000206000915090508060000154908060010160009054906101000a900473ffffffffffffffffffffffffffffffffffffffff16908060020154908060030154908060040154908060050160009054906101000a900460ff16905086565b60007f80ac58cd000000000000000000000000000000000000000000000000000000007bffffffffffffffffffffffffffffffffffffffffffffffffffffffff1916827bffffffffffffffffffffffffffffffffffffffffffffffffffffffff19161480611b4a57507f5b5e139f000000000000000000000000000000000000000000000000000000007bffffffffffffffffffffffffffffffffffffffffffffffffffffffff1916827bffffffffffffffffffffffffffffffffffffffffffffffffffffffff1916145b80611b5a5750611b59826123f8565b5b9050919050565b600080611b6d83612462565b9050600073ffffffffffffffffffffffffffffffffffffffff168173ffffffffffffffffffffffffffffffffffffffff1603611be057826040517f7e273289000000000000000000000000000000000000000000000000000000008152600401611bd791906130ff565b60405180910390fd5b80915050919050565b60006004600083815260200190815260200160002060009054906101000a900473ffffffffffffffffffffffffffffffffffffffff169050919050565b600033905090565b611c3b838383600161249f565b505050565b600080611c4e858585612664565b9050600073ffffffffffffffffffffffffffffffffffffffff168173ffffffffffffffffffffffffffffffffffffffff1603611c9257611c8d8461287e565b611cd1565b8473ffffffffffffffffffffffffffffffffffffffff168173ffffffffffffffffffffffffffffffffffffffff1614611cd057611ccf81856128c7565b5b5b600073ffffffffffffffffffffffffffffffffffffffff168573ffffffffffffffffffffffffffffffffffffffff1603611d1357611d0e846129b2565b611d52565b8473ffffffffffffffffffffffffffffffffffffffff168173ffffffffffffffffffffffffffffffffffffffff1614611d5157611d508585612a83565b5b5b809150509392505050565b6002600b5403611d99576040517f3ee5aeb500000000000000000000000000000000000000000000000000000000815260040160405180910390fd5b6002600b81905550565b600073ffffffffffffffffffffffffffffffffffffffff168273ffffffffffffffffffffffffffffffffffffffff1603611e155760006040517f64a0ae92000000000000000000000000000000000000000000000000000000008152600401611e0c9190613069565b60405180910390fd5b6000611e2383836000611c40565b9050600073ffffffffffffffffffffffffffffffffffffffff168173ffffffffffffffffffffffffffffffffffffffff1614611e975760006040517f73c6ac6e000000000000000000000000000000000000000000000000000000008152600401611e8e9190613069565b60405180910390fd5b505050565b6001600b81905550565b611eae611c26565b73ffffffffffffffffffffffffffffffffffffffff16611ecc6112bb565b73ffffffffffffffffffffffffffffffffffffffff1614611f2b57611eef611c26565b6040517f118cdaa7000000000000000000000000000000000000000000000000000000008152600401611f229190613069565b60405180910390fd5b565b6000600a60009054906101000a900473ffffffffffffffffffffffffffffffffffffffff16905081600a60006101000a81548173ffffffffffffffffffffffffffffffffffffffff021916908373ffffffffffffffffffffffffffffffffffffffff1602179055508173ffffffffffffffffffffffffffffffffffffffff168173ffffffffffffffffffffffffffffffffffffffff167f8be0079c531659141344cd1fd0a4f28419497f9722a3daafe3b4186f6b6457e060405160405180910390a35050565b600073ffffffffffffffffffffffffffffffffffffffff168273ffffffffffffffffffffffffffffffffffffffff160361206457816040517f5b08ba1800000000000000000000000000000000000000000000000000000000815260040161205b9190613069565b60405180910390fd5b80600560008573ffffffffffffffffffffffffffffffffffffffff1673ffffffffffffffffffffffffffffffffffffffff16815260200190815260200160002060008473ffffffffffffffffffffffffffffffffffffffff1673ffffffffffffffffffffffffffffffffffffffff16815260200190815260200160002060006101000a81548160ff0219169083151502179055508173ffffffffffffffffffffffffffffffffffffffff168373ffffffffffffffffffffffffffffffffffffffff167f17307eab39ab6107e8899845ad3d59bd9653f200f220920489ca2b5937696c31836040516121559190612ef8565b60405180910390a3505050565b60008373ffffffffffffffffffffffffffffffffffffffff163b111561230c578273ffffffffffffffffffffffffffffffffffffffff1663150b7a02868685856040518563ffffffff1660e01b81526004016121c1949392919061405b565b6020604051808303816000875af19250505080156121fd57506040513d601f19601f820116820180604052508101906121fa91906140bc565b60015b612281573d806000811461222d576040519150601f19603f3d011682016040523d82523d6000602084013e612232565b606091505b50600081510361227957836040517f64a0ae920000000000000000000000000000000000000000000000000000000081526004016122709190613069565b60405180910390fd5b805181602001fd5b63150b7a0260e01b7bffffffffffffffffffffffffffffffffffffffffffffffffffffffff1916817bffffffffffffffffffffffffffffffffffffffffffffffffffffffff19161461230a57836040517f64a0ae920000000000000000000000000000000000000000000000000000000081526004016123019190613069565b60405180910390fd5b505b5050505050565b606060405180602001604052806000815250905090565b60606000600161233984612b0e565b01905060008167ffffffffffffffff81111561235857612357613471565b5b6040519080825280601f01601f19166020018201604052801561238a5781602001600182028036833780820191505090505b509050600082602001820190505b6001156123ed578080600190039150507f3031323334353637383961626364656600000000000000000000000000000000600a86061a8153600a85816123e1576123e06140e9565b5b04945060008503612398575b819350505050919050565b60007f01ffc9a7000000000000000000000000000000000000000000000000000000007bffffffffffffffffffffffffffffffffffffffffffffffffffffffff1916827bffffffffffffffffffffffffffffffffffffffffffffffffffffffff1916149050919050565b60006002600083815260200190815260200160002060009054906101000a900473ffffffffffffffffffffffffffffffffffffffff169050919050565b80806124d85750600073ffffffffffffffffffffffffffffffffffffffff168273ffffffffffffffffffffffffffffffffffffffff1614155b1561260c5760006124e884611b61565b9050600073ffffffffffffffffffffffffffffffffffffffff168373ffffffffffffffffffffffffffffffffffffffff161415801561255357508273ffffffffffffffffffffffffffffffffffffffff168173ffffffffffffffffffffffffffffffffffffffff1614155b8015612566575061256481846118fc565b155b156125a857826040517fa9fbf51f00000000000000000000000000000000000000000000000000000000815260040161259f9190613069565b60405180910390fd5b811561260a57838573ffffffffffffffffffffffffffffffffffffffff168273ffffffffffffffffffffffffffffffffffffffff167f8c5be1e5ebec7d5bd14f71427d1e84f3dd0314c0f7b2291e5b200ac8c7c3b92560405160405180910390a45b505b836004600085815260200190815260200160002060006101000a81548173ffffffffffffffffffffffffffffffffffffffff021916908373ffffffffffffffffffffffffffffffffffffffff16021790555050505050565b60008061267084612462565b9050600073ffffffffffffffffffffffffffffffffffffffff168373ffffffffffffffffffffffffffffffffffffffff16146126b2576126b1818486612c61565b5b600073ffffffffffffffffffffffffffffffffffffffff168173ffffffffffffffffffffffffffffffffffffffff1614612743576126f460008560008061249f565b6001600360008373ffffffffffffffffffffffffffffffffffffffff1673ffffffffffffffffffffffffffffffffffffffff168152602001908152602001600020600082825403925050819055505b600073ffffffffffffffffffffffffffffffffffffffff168573ffffffffffffffffffffffffffffffffffffffff16146127c6576001600360008773ffffffffffffffffffffffffffffffffffffffff1673ffffffffffffffffffffffffffffffffffffffff168152602001908152602001600020600082825401925050819055505b846002600086815260200190815260200160002060006101000a81548173ffffffffffffffffffffffffffffffffffffffff021916908373ffffffffffffffffffffffffffffffffffffffff160217905550838573ffffffffffffffffffffffffffffffffffffffff168273ffffffffffffffffffffffffffffffffffffffff167fddf252ad1be2c89b69c2b068fc378daa952ba7f163c4a11628f55a4df523b3ef60405160405180910390a4809150509392505050565b6008805490506009600083815260200190815260200160002081905550600881908060018154018082558091505060019003906000526020600020016000909190919091505550565b60006128d2836111e7565b90506000600760008481526020019081526020016000205490506000600660008673ffffffffffffffffffffffffffffffffffffffff1673ffffffffffffffffffffffffffffffffffffffff168152602001908152602001600020905082821461297e5760008160008581526020019081526020016000205490508082600085815260200190815260200160002081905550826007600083815260200190815260200160002081905550505b6007600085815260200190815260200160002060009055806000848152602001908152602001600020600090555050505050565b600060016008805490506129c69190613fd2565b90506000600960008481526020019081526020016000205490506000600883815481106129f6576129f56139d1565b5b906000526020600020015490508060088381548110612a1857612a176139d1565b5b906000526020600020018190555081600960008381526020019081526020016000208190555060096000858152602001908152602001600020600090556008805480612a6757612a66614118565b5b6001900381819060005260206000200160009055905550505050565b60006001612a90846111e7565b612a9a9190613fd2565b905081600660008573ffffffffffffffffffffffffffffffffffffffff1673ffffffffffffffffffffffffffffffffffffffff168152602001908152602001600020600083815260200190815260200160002081905550806007600084815260200190815260200160002081905550505050565b600080600090507a184f03e93ff9f4daa797ed6e38ed64bf6a1f0100000000000000008310612b6c577a184f03e93ff9f4daa797ed6e38ed64bf6a1f0100000000000000008381612b6257612b616140e9565b5b0492506040810190505b6d04ee2d6d415b85acef81000000008310612ba9576d04ee2d6d415b85acef81000000008381612b9f57612b9e6140e9565b5b0492506020810190505b662386f26fc100008310612bd857662386f26fc100008381612bce57612bcd6140e9565b5b0492506010810190505b6305f5e1008310612c01576305f5e1008381612bf757612bf66140e9565b5b0492506008810190505b6127108310612c26576127108381612c1c57612c1b6140e9565b5b0492506004810190505b60648310612c495760648381612c3f57612c3e6140e9565b5b0492506002810190505b600a8310612c58576001810190505b80915050919050565b612c6c838383612d25565b612d2057600073ffffffffffffffffffffffffffffffffffffffff168373ffffffffffffffffffffffffffffffffffffffff1603612ce157806040517f7e273289000000000000000000000000000000000000000000000000000000008152600401612cd891906130ff565b60405180910390fd5b81816040517f177e802f000000000000000000000000000000000000000000000000000000008152600401612d17929190613766565b60405180910390fd5b505050565b60008073ffffffffffffffffffffffffffffffffffffffff168373ffffffffffffffffffffffffffffffffffffffff1614158015612ddd57508273ffffffffffffffffffffffffffffffffffffffff168473ffffffffffffffffffffffffffffffffffffffff161480612d9e5750612d9d84846118fc565b5b80612ddc57508273ffffffffffffffffffffffffffffffffffffffff16612dc483611be9565b73ffffffffffffffffffffffffffffffffffffffff16145b5b90509392505050565b6040518060c0016040528060008152602001600073ffffffffffffffffffffffffffffffffffffffff16815260200160008152602001600081526020016000815260200160006002811115612e3e57612e3d6132d0565b5b81525090565b6000604051905090565b600080fd5b600080fd5b60007fffffffff0000000000000000000000000000000000000000000000000000000082169050919050565b612e8d81612e58565b8114612e9857600080fd5b50565b600081359050612eaa81612e84565b92915050565b600060208284031215612ec657612ec5612e4e565b5b6000612ed484828501612e9b565b91505092915050565b60008115159050919050565b612ef281612edd565b82525050565b6000602082019050612f0d6000830184612ee9565b92915050565b600081519050919050565b600082825260208201905092915050565b60005b83811015612f4d578082015181840152602081019050612f32565b60008484015250505050565b6000601f19601f8301169050919050565b6000612f7582612f13565b612f7f8185612f1e565b9350612f8f818560208601612f2f565b612f9881612f59565b840191505092915050565b60006020820190508181036000830152612fbd8184612f6a565b905092915050565b6000819050919050565b612fd881612fc5565b8114612fe357600080fd5b50565b600081359050612ff581612fcf565b92915050565b60006020828403121561301157613010612e4e565b5b600061301f84828501612fe6565b91505092915050565b600073ffffffffffffffffffffffffffffffffffffffff82169050919050565b600061305382613028565b9050919050565b61306381613048565b82525050565b600060208201905061307e600083018461305a565b92915050565b61308d81613048565b811461309857600080fd5b50565b6000813590506130aa81613084565b92915050565b600080604083850312156130c7576130c6612e4e565b5b60006130d58582860161309b565b92505060206130e685828601612fe6565b9150509250929050565b6130f981612fc5565b82525050565b600060208201905061311460008301846130f0565b92915050565b60008060006060848603121561313357613132612e4e565b5b60006131418682870161309b565b93505060206131528682870161309b565b925050604061316386828701612fe6565b9150509250925092565b61317681612edd565b811461318157600080fd5b50565b6000813590506131938161316d565b92915050565b600080604083850312156131b0576131af612e4e565b5b60006131be85828601612fe6565b92505060206131cf85828601613184565b9150509250929050565b600080604083850312156131f0576131ef612e4e565b5b60006131fe85828601612fe6565b925050602061320f85828601612fe6565b9150509250929050565b60006020828403121561322f5761322e612e4e565b5b600061323d8482850161309b565b91505092915050565b6000806040838503121561325d5761325c612e4e565b5b600061326b8582860161309b565b925050602061327c85828601613184565b9150509250929050565b600081519050919050565b600082825260208201905092915050565b6000819050602082019050919050565b6132bb81612fc5565b82525050565b6132ca81613048565b82525050565b7f4e487b7100000000000000000000000000000000000000000000000000000000600052602160045260246000fd5b600381106133105761330f6132d0565b5b50565b6000819050613321826132ff565b919050565b600061333182613313565b9050919050565b61334181613326565b82525050565b60c08201600082015161335d60008501826132b2565b50602082015161337060208501826132c1565b50604082015161338360408501826132b2565b50606082015161339660608501826132b2565b5060808201516133a960808501826132b2565b5060a08201516133bc60a0850182613338565b50505050565b60006133ce8383613347565b60c08301905092915050565b6000602082019050919050565b60006133f282613286565b6133fc8185613291565b9350613407836132a2565b8060005b8381101561343857815161341f88826133c2565b975061342a836133da565b92505060018101905061340b565b5085935050505092915050565b6000602082019050818103600083015261345f81846133e7565b905092915050565b600080fd5b600080fd5b7f4e487b7100000000000000000000000000000000000000000000000000000000600052604160045260246000fd5b6134a982612f59565b810181811067ffffffffffffffff821117156134c8576134c7613471565b5b80604052505050565b60006134db612e44565b90506134e782826134a0565b919050565b600067ffffffffffffffff82111561350757613506613471565b5b61351082612f59565b9050602081019050919050565b82818337600083830152505050565b600061353f61353a846134ec565b6134d1565b90508281526020810184848401111561355b5761355a61346c565b5b61356684828561351d565b509392505050565b600082601f83011261358357613582613467565b5b813561359384826020860161352c565b91505092915050565b600080600080608085870312156135b6576135b5612e4e565b5b60006135c48782880161309b565b94505060206135d58782880161309b565b93505060406135e687828801612fe6565b925050606085013567ffffffffffffffff81111561360757613606612e53565b5b6136138782880161356e565b91505092959194509250565b6000806040838503121561363657613635612e4e565b5b60006136448582860161309b565b92505060206136558582860161309b565b9150509250929050565b61366881613326565b82525050565b600060c08201905061368360008301896130f0565b613690602083018861305a565b61369d60408301876130f0565b6136aa60608301866130f0565b6136b760808301856130f0565b6136c460a083018461365f565b979650505050505050565b7f4e487b7100000000000000000000000000000000000000000000000000000000600052602260045260246000fd5b6000600282049050600182168061371657607f821691505b602082108103613729576137286136cf565b5b50919050565b6000606082019050613744600083018661305a565b61375160208301856130f0565b61375e604083018461305a565b949350505050565b600060408201905061377b600083018561305a565b61378860208301846130f0565b9392505050565b7f4d61726b6574706c6163653a2043616c6c6572206973206e6f7420746865207660008201527f6572696669657200000000000000000000000000000000000000000000000000602082015250565b60006137eb602783612f1e565b91506137f68261378f565b604082019050919050565b6000602082019050818103600083015261381a816137de565b9050919050565b7f4d61726b6574706c6163653a2050726f7065727479206e6f742070656e64696e60008201527f6720766572696669636174696f6e000000000000000000000000000000000000602082015250565b600061387d602e83612f1e565b915061388882613821565b604082019050919050565b600060208201905081810360008301526138ac81613870565b9050919050565b600081905092915050565b50565b60006138ce6000836138b3565b91506138d9826138be565b600082019050919050565b60006138ef826138c1565b9150819050919050565b7f4d61726b6574706c6163653a20466565207472616e73666572206661696c6564600082015250565b600061392f602083612f1e565b915061393a826138f9565b602082019050919050565b6000602082019050818103600083015261395e81613922565b9050919050565b7f4d61726b6574706c6163653a2046656520726566756e64206661696c65640000600082015250565b600061399b601e83612f1e565b91506139a682613965565b602082019050919050565b600060208201905081810360008301526139ca8161398e565b9050919050565b7f4e487b7100000000000000000000000000000000000000000000000000000000600052603260045260246000fd5b7f4d61726b6574706c6163653a20496e636f72726563742076657269666963617460008201527f696f6e206665652073656e740000000000000000000000000000000000000000602082015250565b6000613a5c602c83612f1e565b9150613a6782613a00565b604082019050919050565b60006020820190508181036000830152613a8b81613a4f565b9050919050565b7f4d61726b6574706c6163653a20546f74616c206672616374696f6e73206d757360008201527f7420626520706f73697469766500000000000000000000000000000000000000602082015250565b6000613aee602d83612f1e565b9150613af982613a92565b604082019050919050565b60006020820190508181036000830152613b1d81613ae1565b9050919050565b7f4d61726b6574706c6163653a20507269636520706572206672616374696f6e2060008201527f6d75737420626520706f73697469766500000000000000000000000000000000602082015250565b6000613b80603083612f1e565b9150613b8b82613b24565b604082019050919050565b60006020820190508181036000830152613baf81613b73565b9050919050565b7f4e487b7100000000000000000000000000000000000000000000000000000000600052601160045260246000fd5b6000613bf082612fc5565b91507fffffffffffffffffffffffffffffffffffffffffffffffffffffffffffffffff8203613c2257613c21613bb6565b5b600182019050919050565b6000604082019050613c4260008301856130f0565b613c4f60208301846130f0565b9392505050565b7f4d61726b6574706c6163653a204e65772076657269666965722063616e6e6f7460008201527f20626520746865207a65726f2061646472657373000000000000000000000000602082015250565b6000613cb2603483612f1e565b9150613cbd82613c56565b604082019050919050565b60006020820190508181036000830152613ce181613ca5565b9050919050565b600081905092915050565b6000613cfe82612f13565b613d088185613ce8565b9350613d18818560208601612f2f565b80840191505092915050565b6000613d308285613cf3565b9150613d3c8284613cf3565b91508190509392505050565b7f4d61726b6574706c6163653a2050726f7065727479206e6f742076657269666960008201527f6564000000000000000000000000000000000000000000000000000000000000602082015250565b6000613da4602283612f1e565b9150613daf82613d48565b604082019050919050565b60006020820190508181036000830152613dd381613d97565b9050919050565b7f4d61726b6574706c6163653a204672616374696f6e73206d757374206265206760008201527f726561746572207468616e207a65726f00000000000000000000000000000000602082015250565b6000613e36603083612f1e565b9150613e4182613dda565b604082019050919050565b60006020820190508181036000830152613e6581613e29565b9050919050565b7f4d61726b6574706c6163653a204e6f7420656e6f756768206672616374696f6e60008201527f73206c697374656420666f722073616c65000000000000000000000000000000602082015250565b6000613ec8603183612f1e565b9150613ed382613e6c565b604082019050919050565b60006020820190508181036000830152613ef781613ebb565b9050919050565b6000613f0982612fc5565b9150613f1483612fc5565b9250828202613f2281612fc5565b91508282048414831517613f3957613f38613bb6565b5b5092915050565b7f4d61726b6574706c6163653a20496e636f72726563742045746865722073656e60008201527f7400000000000000000000000000000000000000000000000000000000000000602082015250565b6000613f9c602183612f1e565b9150613fa782613f40565b604082019050919050565b60006020820190508181036000830152613fcb81613f8f565b9050919050565b6000613fdd82612fc5565b9150613fe883612fc5565b925082820390508181111561400057613fff613bb6565b5b92915050565b600081519050919050565b600082825260208201905092915050565b600061402d82614006565b6140378185614011565b9350614047818560208601612f2f565b61405081612f59565b840191505092915050565b6000608082019050614070600083018761305a565b61407d602083018661305a565b61408a60408301856130f0565b818103606083015261409c8184614022565b905095945050505050565b6000815190506140b681612e84565b92915050565b6000602082840312156140d2576140d1612e4e565b5b60006140e0848285016140a7565b91505092915050565b7f4e487b7100000000000000000000000000000000000000000000000000000000600052601260045260246000fd5b7f4e487b7100000000000000000000000000000000000000000000000000000000600052603160045260246000fdfea26469706673582212205b3bd22adeed1bd866103f9e2a4ac3560c858785484d6d0899bbd0b6bd4e92bc64736f6c634300081c0033",
  "linkReferences": {},
  "deployedLinkReferences": {}
}