{
  "_format": "hh-sol-artifact-1",
  "contractName": "FractionalNFTMarketplace",
  "sourceName": "contracts/FractionalNFTMarketplace.sol",
  "abi": [
    {
      "inputs": [
        {
          "internalType": "uint256",
          "name": "_initialVerificationFee",
          "type": "uint256"
        }
      ],
      "stateMutability": "nonpayable",
      "type": "constructor"
    },
    {
      "inputs": [],
      "name": "ERC721EnumerableForbiddenBatchMint",
      "type": "error"
    },
    {
      "inputs": [
        {
          "internalType": "address",
          "name": "sender",
          "type": "address"
        },
        {
          "internalType": "uint256",
          "name": "tokenId",
          "type": "uint256"
        },
        {
          "internalType": "address",
          "name": "owner",
          "type": "address"
        }
      ],
      "name": "ERC721IncorrectOwner",
      "type": "error"
    },
    {
      "inputs": [
        {
          "internalType": "address",
          "name": "operator",
          "type": "address"
        },
        {
          "internalType": "uint256",
          "name": "tokenId",
          "type": "uint256"
        }
      ],
      "name": "ERC721InsufficientApproval",
      "type": "error"
    },
    {
      "inputs": [
        {
          "internalType": "address",
          "name": "approver",
          "type": "address"
        }
      ],
      "name": "ERC721InvalidApprover",
      "type": "error"
    },
    {
      "inputs": [
        {
          "internalType": "address",
          "name": "operator",
          "type": "address"
        }
      ],
      "name": "ERC721InvalidOperator",
      "type": "error"
    },
    {
      "inputs": [
        {
          "internalType": "address",
          "name": "owner",
          "type": "address"
        }
      ],
      "name": "ERC721InvalidOwner",
      "type": "error"
    },
    {
      "inputs": [
        {
          "internalType": "address",
          "name": "receiver",
          "type": "address"
        }
      ],
      "name": "ERC721InvalidReceiver",
      "type": "error"
    },
    {
      "inputs": [
        {
          "internalType": "address",
          "name": "sender",
          "type": "address"
        }
      ],
      "name": "ERC721InvalidSender",
      "type": "error"
    },
    {
      "inputs": [
        {
          "internalType": "uint256",
          "name": "tokenId",
          "type": "uint256"
        }
      ],
      "name": "ERC721NonexistentToken",
      "type": "error"
    },
    {
      "inputs": [
        {
          "internalType": "address",
          "name": "owner",
          "type": "address"
        },
        {
          "internalType": "uint256",
          "name": "index",
          "type": "uint256"
        }
      ],
      "name": "ERC721OutOfBoundsIndex",
      "type": "error"
    },
    {
      "inputs": [
        {
          "internalType": "address",
          "name": "owner",
          "type": "address"
        }
      ],
      "name": "OwnableInvalidOwner",
      "type": "error"
    },
    {
      "inputs": [
        {
          "internalType": "address",
          "name": "account",
          "type": "address"
        }
      ],
      "name": "OwnableUnauthorizedAccount",
      "type": "error"
    },
    {
      "inputs": [],
      "name": "ReentrancyGuardReentrantCall",
      "type": "error"
    },
    {
      "anonymous": false,
      "inputs": [
        {
          "indexed": true,
          "internalType": "address",
          "name": "owner",
          "type": "address"
        },
        {
          "indexed": true,
          "internalType": "address",
          "name": "approved",
          "type": "address"
        },
        {
          "indexed": true,
          "internalType": "uint256",
          "name": "tokenId",
          "type": "uint256"
        }
      ],
      "name": "Approval",
      "type": "event"
    },
    {
      "anonymous": false,
      "inputs": [
        {
          "indexed": true,
          "internalType": "address",
          "name": "owner",
          "type": "address"
        },
        {
          "indexed": true,
          "internalType": "address",
          "name": "operator",
          "type": "address"
        },
        {
          "indexed": false,
          "internalType": "bool",
          "name": "approved",
          "type": "bool"
        }
      ],
      "name": "ApprovalForAll",
      "type": "event"
    },
    {
      "anonymous": false,
      "inputs": [
        {
          "indexed": true,
          "internalType": "uint256",
          "name": "tokenId",
          "type": "uint256"
        },
        {
          "indexed": true,
          "internalType": "address",
          "name": "buyer",
          "type": "address"
        },
        {
          "indexed": false,
          "internalType": "uint256",
          "name": "fractions",
          "type": "uint256"
        },
        {
          "indexed": false,
          "internalType": "uint256",
          "name": "totalCost",
          "type": "uint256"
        }
      ],
      "name": "FractionBought",
      "type": "event"
    },
    {
      "anonymous": false,
      "inputs": [
        {
          "indexed": true,
          "internalType": "uint256",
          "name": "tokenId",
          "type": "uint256"
        },
        {
          "indexed": true,
          "internalType": "address",
          "name": "seller",
          "type": "address"
        },
        {
          "indexed": false,
          "internalType": "uint256",
          "name": "fractions",
          "type": "uint256"
        },
        {
          "indexed": false,
          "internalType": "uint256",
          "name": "amountReceived",
          "type": "uint256"
        }
      ],
      "name": "FractionSold",
      "type": "event"
    },
    {
      "anonymous": false,
      "inputs": [
        {
          "indexed": true,
          "internalType": "address",
          "name": "previousOwner",
          "type": "address"
        },
        {
          "indexed": true,
          "internalType": "address",
          "name": "newOwner",
          "type": "address"
        }
      ],
      "name": "OwnershipTransferred",
      "type": "event"
    },
    {
      "anonymous": false,
      "inputs": [
        {
          "indexed": true,
          "internalType": "uint256",
          "name": "tokenId",
          "type": "uint256"
        }
      ],
      "name": "PropertyRejected",
      "type": "event"
    },
    {
      "anonymous": false,
      "inputs": [
        {
          "indexed": true,
          "internalType": "uint256",
          "name": "tokenId",
          "type": "uint256"
        },
        {
          "indexed": true,
          "internalType": "address",
          "name": "owner",
          "type": "address"
        },
        {
          "indexed": false,
          "internalType": "string",
          "name": "name",
          "type": "string"
        },
        {
          "indexed": false,
          "internalType": "string",
          "name": "propertyAddress",
          "type": "string"
        },
        {
          "indexed": false,
          "internalType": "string",
          "name": "imageUrl",
          "type": "string"
        },
        {
          "indexed": false,
          "internalType": "string",
          "name": "documentUrl",
          "type": "string"
        },
        {
          "indexed": false,
          "internalType": "uint256",
          "name": "totalFractions",
          "type": "uint256"
        },
        {
          "indexed": false,
          "internalType": "uint256",
          "name": "pricePerFraction",
          "type": "uint256"
        }
      ],
      "name": "PropertySubmitted",
      "type": "event"
    },
    {
      "anonymous": false,
      "inputs": [
        {
          "indexed": true,
          "internalType": "uint256",
          "name": "tokenId",
          "type": "uint256"
        }
      ],
      "name": "PropertyVerified",
      "type": "event"
    },
    {
      "anonymous": false,
      "inputs": [
        {
          "indexed": true,
          "internalType": "address",
          "name": "from",
          "type": "address"
        },
        {
          "indexed": true,
          "internalType": "address",
          "name": "to",
          "type": "address"
        },
        {
          "indexed": true,
          "internalType": "uint256",
          "name": "tokenId",
          "type": "uint256"
        }
      ],
      "name": "Transfer",
      "type": "event"
    },
    {
      "anonymous": false,
      "inputs": [
        {
          "indexed": false,
          "internalType": "uint256",
          "name": "newFee",
          "type": "uint256"
        }
      ],
      "name": "VerificationFeeUpdated",
      "type": "event"
    },
    {
      "anonymous": false,
      "inputs": [
        {
          "indexed": true,
          "internalType": "address",
          "name": "newVerifier",
          "type": "address"
        }
      ],
      "name": "VerifierUpdated",
      "type": "event"
    },
    {
      "inputs": [
        {
          "internalType": "address",
          "name": "to",
          "type": "address"
        },
        {
          "internalType": "uint256",
          "name": "tokenId",
          "type": "uint256"
        }
      ],
      "name": "approve",
      "outputs": [],
      "stateMutability": "nonpayable",
      "type": "function"
    },
    {
      "inputs": [
        {
          "internalType": "address",
          "name": "owner",
          "type": "address"
        }
      ],
      "name": "balanceOf",
      "outputs": [
        {
          "internalType": "uint256",
          "name": "",
          "type": "uint256"
        }
      ],
      "stateMutability": "view",
      "type": "function"
    },
    {
      "inputs": [
        {
          "internalType": "uint256",
          "name": "_tokenId",
          "type": "uint256"
        },
        {
          "internalType": "uint256",
          "name": "_fractions",
          "type": "uint256"
        }
      ],
      "name": "buyFraction",
      "outputs": [],
      "stateMutability": "payable",
      "type": "function"
    },
    {
      "inputs": [],
      "name": "getAllListings",
      "outputs": [
        {
          "components": [
            {
              "internalType": "uint256",
              "name": "tokenId",
              "type": "uint256"
            },
            {
              "internalType": "address",
              "name": "owner",
              "type": "address"
            },
            {
              "internalType": "string",
              "name": "name",
              "type": "string"
            },
            {
              "internalType": "string",
              "name": "propertyAddress",
              "type": "string"
            },
            {
              "internalType": "string",
              "name": "imageUrl",
              "type": "string"
            },
            {
              "internalType": "string",
              "name": "documentUrl",
              "type": "string"
            },
            {
              "internalType": "uint256",
              "name": "totalFractions",
              "type": "uint256"
            },
            {
              "internalType": "uint256",
              "name": "pricePerFraction",
              "type": "uint256"
            },
            {
              "internalType": "uint256",
              "name": "availableFractions",
              "type": "uint256"
            },
            {
              "internalType": "enum FractionalNFTMarketplace.VerificationStatus",
              "name": "status",
              "type": "uint8"
            }
          ],
          "internalType": "struct FractionalNFTMarketplace.Property[]",
          "name": "",
          "type": "tuple[]"
        }
      ],
      "stateMutability": "view",
      "type": "function"
    },
    {
      "inputs": [
        {
          "internalType": "uint256",
          "name": "tokenId",
          "type": "uint256"
        }
      ],
      "name": "getApproved",
      "outputs": [
        {
          "internalType": "address",
          "name": "",
          "type": "address"
        }
      ],
      "stateMutability": "view",
      "type": "function"
    },
    {
      "inputs": [
        {
          "internalType": "uint256",
          "name": "_tokenId",
          "type": "uint256"
        }
      ],
      "name": "getPropertyDetails",
      "outputs": [
        {
          "components": [
            {
              "internalType": "uint256",
              "name": "tokenId",
              "type": "uint256"
            },
            {
              "internalType": "address",
              "name": "owner",
              "type": "address"
            },
            {
              "internalType": "string",
              "name": "name",
              "type": "string"
            },
            {
              "internalType": "string",
              "name": "propertyAddress",
              "type": "string"
            },
            {
              "internalType": "string",
              "name": "imageUrl",
              "type": "string"
            },
            {
              "internalType": "string",
              "name": "documentUrl",
              "type": "string"
            },
            {
              "internalType": "uint256",
              "name": "totalFractions",
              "type": "uint256"
            },
            {
              "internalType": "uint256",
              "name": "pricePerFraction",
              "type": "uint256"
            },
            {
              "internalType": "uint256",
              "name": "availableFractions",
              "type": "uint256"
            },
            {
              "internalType": "enum FractionalNFTMarketplace.VerificationStatus",
              "name": "status",
              "type": "uint8"
            }
          ],
          "internalType": "struct FractionalNFTMarketplace.Property",
          "name": "",
          "type": "tuple"
        }
      ],
      "stateMutability": "view",
      "type": "function"
    },
    {
      "inputs": [
        {
          "internalType": "address",
          "name": "owner",
          "type": "address"
        },
        {
          "internalType": "address",
          "name": "operator",
          "type": "address"
        }
      ],
      "name": "isApprovedForAll",
      "outputs": [
        {
          "internalType": "bool",
          "name": "",
          "type": "bool"
        }
      ],
      "stateMutability": "view",
      "type": "function"
    },
    {
      "inputs": [],
      "name": "name",
      "outputs": [
        {
          "internalType": "string",
          "name": "",
          "type": "string"
        }
      ],
      "stateMutability": "view",
      "type": "function"
    },
    {
      "inputs": [],
      "name": "nextTokenId",
      "outputs": [
        {
          "internalType": "uint256",
          "name": "",
          "type": "uint256"
        }
      ],
      "stateMutability": "view",
      "type": "function"
    },
    {
      "inputs": [],
      "name": "owner",
      "outputs": [
        {
          "internalType": "address",
          "name": "",
          "type": "address"
        }
      ],
      "stateMutability": "view",
      "type": "function"
    },
    {
      "inputs": [
        {
          "internalType": "uint256",
          "name": "tokenId",
          "type": "uint256"
        }
      ],
      "name": "ownerOf",
      "outputs": [
        {
          "internalType": "address",
          "name": "",
          "type": "address"
        }
      ],
      "stateMutability": "view",
      "type": "function"
    },
    {
      "inputs": [
        {
          "internalType": "uint256",
          "name": "",
          "type": "uint256"
        }
      ],
      "name": "properties",
      "outputs": [
        {
          "internalType": "uint256",
          "name": "tokenId",
          "type": "uint256"
        },
        {
          "internalType": "address",
          "name": "owner",
          "type": "address"
        },
        {
          "internalType": "string",
          "name": "name",
          "type": "string"
        },
        {
          "internalType": "string",
          "name": "propertyAddress",
          "type": "string"
        },
        {
          "internalType": "string",
          "name": "imageUrl",
          "type": "string"
        },
        {
          "internalType": "string",
          "name": "documentUrl",
          "type": "string"
        },
        {
          "internalType": "uint256",
          "name": "totalFractions",
          "type": "uint256"
        },
        {
          "internalType": "uint256",
          "name": "pricePerFraction",
          "type": "uint256"
        },
        {
          "internalType": "uint256",
          "name": "availableFractions",
          "type": "uint256"
        },
        {
          "internalType": "enum FractionalNFTMarketplace.VerificationStatus",
          "name": "status",
          "type": "uint8"
        }
      ],
      "stateMutability": "view",
      "type": "function"
    },
    {
      "inputs": [],
      "name": "renounceOwnership",
      "outputs": [],
      "stateMutability": "nonpayable",
      "type": "function"
    },
    {
      "inputs": [
        {
          "internalType": "address",
          "name": "from",
          "type": "address"
        },
        {
          "internalType": "address",
          "name": "to",
          "type": "address"
        },
        {
          "internalType": "uint256",
          "name": "tokenId",
          "type": "uint256"
        }
      ],
      "name": "safeTransferFrom",
      "outputs": [],
      "stateMutability": "nonpayable",
      "type": "function"
    },
    {
      "inputs": [
        {
          "internalType": "address",
          "name": "from",
          "type": "address"
        },
        {
          "internalType": "address",
          "name": "to",
          "type": "address"
        },
        {
          "internalType": "uint256",
          "name": "tokenId",
          "type": "uint256"
        },
        {
          "internalType": "bytes",
          "name": "data",
          "type": "bytes"
        }
      ],
      "name": "safeTransferFrom",
      "outputs": [],
      "stateMutability": "nonpayable",
      "type": "function"
    },
    {
      "inputs": [
        {
          "internalType": "address",
          "name": "operator",
          "type": "address"
        },
        {
          "internalType": "bool",
          "name": "approved",
          "type": "bool"
        }
      ],
      "name": "setApprovalForAll",
      "outputs": [],
      "stateMutability": "nonpayable",
      "type": "function"
    },
    {
      "inputs": [
        {
          "internalType": "uint256",
          "name": "_newFee",
          "type": "uint256"
        }
      ],
      "name": "setVerificationFee",
      "outputs": [],
      "stateMutability": "nonpayable",
      "type": "function"
    },
    {
      "inputs": [
        {
          "internalType": "address",
          "name": "_newVerifier",
          "type": "address"
        }
      ],
      "name": "setVerifier",
      "outputs": [],
      "stateMutability": "nonpayable",
      "type": "function"
    },
    {
      "inputs": [
        {
          "internalType": "string",
          "name": "_name",
          "type": "string"
        },
        {
          "internalType": "string",
          "name": "_propertyAddress",
          "type": "string"
        },
        {
          "internalType": "string",
          "name": "_imageUrl",
          "type": "string"
        },
        {
          "internalType": "string",
          "name": "_documentUrl",
          "type": "string"
        },
        {
          "internalType": "uint256",
          "name": "_totalFractions",
          "type": "uint256"
        },
        {
          "internalType": "uint256",
          "name": "_pricePerFraction",
          "type": "uint256"
        }
      ],
      "name": "submitPropertyForVerification",
      "outputs": [],
      "stateMutability": "payable",
      "type": "function"
    },
    {
      "inputs": [
        {
          "internalType": "bytes4",
          "name": "interfaceId",
          "type": "bytes4"
        }
      ],
      "name": "supportsInterface",
      "outputs": [
        {
          "internalType": "bool",
          "name": "",
          "type": "bool"
        }
      ],
      "stateMutability": "view",
      "type": "function"
    },
    {
      "inputs": [],
      "name": "symbol",
      "outputs": [
        {
          "internalType": "string",
          "name": "",
          "type": "string"
        }
      ],
      "stateMutability": "view",
      "type": "function"
    },
    {
      "inputs": [
        {
          "internalType": "uint256",
          "name": "index",
          "type": "uint256"
        }
      ],
      "name": "tokenByIndex",
      "outputs": [
        {
          "internalType": "uint256",
          "name": "",
          "type": "uint256"
        }
      ],
      "stateMutability": "view",
      "type": "function"
    },
    {
      "inputs": [
        {
          "internalType": "address",
          "name": "owner",
          "type": "address"
        },
        {
          "internalType": "uint256",
          "name": "index",
          "type": "uint256"
        }
      ],
      "name": "tokenOfOwnerByIndex",
      "outputs": [
        {
          "internalType": "uint256",
          "name": "",
          "type": "uint256"
        }
      ],
      "stateMutability": "view",
      "type": "function"
    },
    {
      "inputs": [
        {
          "internalType": "uint256",
          "name": "tokenId",
          "type": "uint256"
        }
      ],
      "name": "tokenURI",
      "outputs": [
        {
          "internalType": "string",
          "name": "",
          "type": "string"
        }
      ],
      "stateMutability": "view",
      "type": "function"
    },
    {
      "inputs": [],
      "name": "totalSupply",
      "outputs": [
        {
          "internalType": "uint256",
          "name": "",
          "type": "uint256"
        }
      ],
      "stateMutability": "view",
      "type": "function"
    },
    {
      "inputs": [
        {
          "internalType": "address",
          "name": "from",
          "type": "address"
        },
        {
          "internalType": "address",
          "name": "to",
          "type": "address"
        },
        {
          "internalType": "uint256",
          "name": "tokenId",
          "type": "uint256"
        }
      ],
      "name": "transferFrom",
      "outputs": [],
      "stateMutability": "nonpayable",
      "type": "function"
    },
    {
      "inputs": [
        {
          "internalType": "address",
          "name": "newOwner",
          "type": "address"
        }
      ],
      "name": "transferOwnership",
      "outputs": [],
      "stateMutability": "nonpayable",
      "type": "function"
    },
    {
      "inputs": [],
      "name": "verificationFee",
      "outputs": [
        {
          "internalType": "uint256",
          "name": "",
          "type": "uint256"
        }
      ],
      "stateMutability": "view",
      "type": "function"
    },
    {
      "inputs": [],
      "name": "verifier",
      "outputs": [
        {
          "internalType": "address",
          "name": "",
          "type": "address"
        }
      ],
      "stateMutability": "view",
      "type": "function"
    },
    {
      "inputs": [
        {
          "internalType": "uint256",
          "name": "_tokenId",
          "type": "uint256"
        },
        {
          "internalType": "bool",
          "name": "_approve",
          "type": "bool"
        }
      ],
      "name": "verifyProperty",
      "outputs": [],
      "stateMutability": "nonpayable",
      "type": "function"
    }
  ],
  "bytecode": "0x60806040526001600c5534801561001557600080fd5b50604051615d47380380615d4783398181016040528101906100379190610319565b336040518060400160405280600d81526020017f4672616374696f6e616c4e4654000000000000000000000000000000000000008152506040518060400160405280600481526020017f664e46540000000000000000000000000000000000000000000000000000000081525081600090816100b3919061058c565b5080600190816100c3919061058c565b505050600073ffffffffffffffffffffffffffffffffffffffff168173ffffffffffffffffffffffffffffffffffffffff16036101385760006040517f1e4fbdf700000000000000000000000000000000000000000000000000000000815260040161012f919061069f565b60405180910390fd5b6101478161021860201b60201c565b506001600b8190555033600e60006101000a81548173ffffffffffffffffffffffffffffffffffffffff021916908373ffffffffffffffffffffffffffffffffffffffff16021790555080600f819055503373ffffffffffffffffffffffffffffffffffffffff167fd24015cc99cc1700cafca3042840a1d8ac1e3964fd2e0e37ea29c654056ee32760405160405180910390a27fb28e93ba12cfe6381facd1fb8bbd27a52d11b825c1801eb744c14f070365486a8160405161020a91906106c9565b60405180910390a1506106e4565b6000600a60009054906101000a900473ffffffffffffffffffffffffffffffffffffffff16905081600a60006101000a81548173ffffffffffffffffffffffffffffffffffffffff021916908373ffffffffffffffffffffffffffffffffffffffff1602179055508173ffffffffffffffffffffffffffffffffffffffff168173ffffffffffffffffffffffffffffffffffffffff167f8be0079c531659141344cd1fd0a4f28419497f9722a3daafe3b4186f6b6457e060405160405180910390a35050565b600080fd5b6000819050919050565b6102f6816102e3565b811461030157600080fd5b50565b600081519050610313816102ed565b92915050565b60006020828403121561032f5761032e6102de565b5b600061033d84828501610304565b91505092915050565b600081519050919050565b7f4e487b7100000000000000000000000000000000000000000000000000000000600052604160045260246000fd5b7f4e487b7100000000000000000000000000000000000000000000000000000000600052602260045260246000fd5b600060028204905060018216806103c757607f821691505b6020821081036103da576103d9610380565b5b50919050565b60008190508160005260206000209050919050565b60006020601f8301049050919050565b600082821b905092915050565b6000600883026104427fffffffffffffffffffffffffffffffffffffffffffffffffffffffffffffffff82610405565b61044c8683610405565b95508019841693508086168417925050509392505050565b6000819050919050565b600061048961048461047f846102e3565b610464565b6102e3565b9050919050565b6000819050919050565b6104a38361046e565b6104b76104af82610490565b848454610412565b825550505050565b600090565b6104cc6104bf565b6104d781848461049a565b505050565b5b818110156104fb576104f06000826104c4565b6001810190506104dd565b5050565b601f82111561054057610511816103e0565b61051a846103f5565b81016020851015610529578190505b61053d610535856103f5565b8301826104dc565b50505b505050565b600082821c905092915050565b600061056360001984600802610545565b1980831691505092915050565b600061057c8383610552565b9150826002028217905092915050565b61059582610346565b67ffffffffffffffff8111156105ae576105ad610351565b5b6105b882546103af565b6105c38282856104ff565b600060209050601f8311600181146105f657600084156105e4578287015190505b6105ee8582610570565b865550610656565b601f198416610604866103e0565b60005b8281101561062c57848901518255600182019150602085019450602081019050610607565b868310156106495784890151610645601f891682610552565b8355505b6001600288020188555050505b505050505050565b600073ffffffffffffffffffffffffffffffffffffffff82169050919050565b60006106898261065e565b9050919050565b6106998161067e565b82525050565b60006020820190506106b46000830184610690565b92915050565b6106c3816102e3565b82525050565b60006020820190506106de60008301846106ba565b92915050565b615654806106f36000396000f3fe6080604052600436106101cd5760003560e01c8063715018a6116100f7578063ae73ccec11610095578063dd802c4c11610064578063dd802c4c1461068d578063e985e9c5146106a9578063f2fde38b146106e6578063f7b108081461070f576101cd565b8063ae73ccec146105e0578063b88d4fde1461060b578063c87b56dd14610634578063d40b021414610671576101cd565b806395d89b41116100d157806395d89b4114610538578063a22cb46514610563578063a8c278a21461058c578063aae9d5f2146105b7576101cd565b8063715018a6146104cb57806375794a3c146104e25780638da5cb5b1461050d576101cd565b80632b7ac3f31161016f5780634f6ccce71161013e5780634f6ccce7146103eb5780635437988d146104285780636352211e1461045157806370a082311461048e576101cd565b80632b7ac3f3146103315780632f745c591461035c578063322bb1161461039957806342842e0e146103c2576101cd565b8063095ea7b3116101ab578063095ea7b314610277578063126dbe43146102a057806318160ddd146102dd57806323b872dd14610308576101cd565b806301ffc9a7146101d257806306fdde031461020f578063081812fc1461023a575b600080fd5b3480156101de57600080fd5b506101f960048036038101906101f491906139db565b610755565b6040516102069190613a23565b60405180910390f35b34801561021b57600080fd5b50610224610767565b6040516102319190613ace565b60405180910390f35b34801561024657600080fd5b50610261600480360381019061025c9190613b26565b6107f9565b60405161026e9190613b94565b60405180910390f35b34801561028357600080fd5b5061029e60048036038101906102999190613bdb565b610815565b005b3480156102ac57600080fd5b506102c760048036038101906102c29190613b26565b61082b565b6040516102d49190613de9565b60405180910390f35b3480156102e957600080fd5b506102f2610bbf565b6040516102ff9190613e1a565b60405180910390f35b34801561031457600080fd5b5061032f600480360381019061032a9190613e35565b610bcc565b005b34801561033d57600080fd5b50610346610cce565b6040516103539190613b94565b60405180910390f35b34801561036857600080fd5b50610383600480360381019061037e9190613bdb565b610cf4565b6040516103909190613e1a565b60405180910390f35b3480156103a557600080fd5b506103c060048036038101906103bb9190613eb4565b610d9d565b005b3480156103ce57600080fd5b506103e960048036038101906103e49190613e35565b6111b6565b005b3480156103f757600080fd5b50610412600480360381019061040d9190613b26565b6111d6565b60405161041f9190613e1a565b60405180910390f35b34801561043457600080fd5b5061044f600480360381019061044a9190613ef4565b61124c565b005b34801561045d57600080fd5b5061047860048036038101906104739190613b26565b61134a565b6040516104859190613b94565b60405180910390f35b34801561049a57600080fd5b506104b560048036038101906104b09190613ef4565b61135c565b6040516104c29190613e1a565b60405180910390f35b3480156104d757600080fd5b506104e0611416565b005b3480156104ee57600080fd5b506104f761142a565b6040516105049190613e1a565b60405180910390f35b34801561051957600080fd5b50610522611430565b60405161052f9190613b94565b60405180910390f35b34801561054457600080fd5b5061054d61145a565b60405161055a9190613ace565b60405180910390f35b34801561056f57600080fd5b5061058a60048036038101906105859190613f21565b6114ec565b005b34801561059857600080fd5b506105a1611502565b6040516105ae9190613e1a565b60405180910390f35b3480156105c357600080fd5b506105de60048036038101906105d99190613b26565b611508565b005b3480156105ec57600080fd5b506105f5611551565b6040516106029190614112565b60405180910390f35b34801561061757600080fd5b50610632600480360381019061062d9190614269565b611a4c565b005b34801561064057600080fd5b5061065b60048036038101906106569190613b26565b611a71565b6040516106689190613ace565b60405180910390f35b61068b600480360381019061068691906142ec565b611ada565b005b6106a760048036038101906106a291906143cd565b611d73565b005b3480156106b557600080fd5b506106d060048036038101906106cb91906144ca565b612158565b6040516106dd9190613a23565b60405180910390f35b3480156106f257600080fd5b5061070d60048036038101906107089190613ef4565b6121ec565b005b34801561071b57600080fd5b5061073660048036038101906107319190613b26565b612272565b60405161074c9a99989796959493929190614519565b60405180910390f35b600061076082612513565b9050919050565b60606000805461077690614600565b80601f01602080910402602001604051908101604052809291908181526020018280546107a290614600565b80156107ef5780601f106107c4576101008083540402835291602001916107ef565b820191906000526020600020905b8154815290600101906020018083116107d257829003601f168201915b5050505050905090565b60006108048261258d565b5061080e82612615565b9050919050565b6108278282610822612652565b61265a565b5050565b6108336138f4565b6000600d6000848152602001908152602001600020600201805461085690614600565b905011610898576040517f08c379a000000000000000000000000000000000000000000000000000000000815260040161088f906146a3565b60405180910390fd5b600d600083815260200190815260200160002060405180610140016040529081600082015481526020016001820160009054906101000a900473ffffffffffffffffffffffffffffffffffffffff1673ffffffffffffffffffffffffffffffffffffffff1673ffffffffffffffffffffffffffffffffffffffff16815260200160028201805461092790614600565b80601f016020809104026020016040519081016040528092919081815260200182805461095390614600565b80156109a05780601f10610975576101008083540402835291602001916109a0565b820191906000526020600020905b81548152906001019060200180831161098357829003601f168201915b505050505081526020016003820180546109b990614600565b80601f01602080910402602001604051908101604052809291908181526020018280546109e590614600565b8015610a325780601f10610a0757610100808354040283529160200191610a32565b820191906000526020600020905b815481529060010190602001808311610a1557829003601f168201915b50505050508152602001600482018054610a4b90614600565b80601f0160208091040260200160405190810160405280929190818152602001828054610a7790614600565b8015610ac45780601f10610a9957610100808354040283529160200191610ac4565b820191906000526020600020905b815481529060010190602001808311610aa757829003601f168201915b50505050508152602001600582018054610add90614600565b80601f0160208091040260200160405190810160405280929190818152602001828054610b0990614600565b8015610b565780601f10610b2b57610100808354040283529160200191610b56565b820191906000526020600020905b815481529060010190602001808311610b3957829003601f168201915b505050505081526020016006820154815260200160078201548152602001600882015481526020016009820160009054906101000a900460ff166002811115610ba257610ba1613c83565b5b6002811115610bb457610bb3613c83565b5b815250509050919050565b6000600880549050905090565b600073ffffffffffffffffffffffffffffffffffffffff168273ffffffffffffffffffffffffffffffffffffffff1603610c3e5760006040517f64a0ae92000000000000000000000000000000000000000000000000000000008152600401610c359190613b94565b60405180910390fd5b6000610c528383610c4d612652565b61266c565b90508373ffffffffffffffffffffffffffffffffffffffff168173ffffffffffffffffffffffffffffffffffffffff1614610cc8578382826040517f64283d7b000000000000000000000000000000000000000000000000000000008152600401610cbf939291906146c3565b60405180910390fd5b50505050565b600e60009054906101000a900473ffffffffffffffffffffffffffffffffffffffff1681565b6000610cff8361135c565b8210610d445782826040517fa57d13dc000000000000000000000000000000000000000000000000000000008152600401610d3b9291906146fa565b60405180910390fd5b600660008473ffffffffffffffffffffffffffffffffffffffff1673ffffffffffffffffffffffffffffffffffffffff168152602001908152602001600020600083815260200190815260200160002054905092915050565b600e60009054906101000a900473ffffffffffffffffffffffffffffffffffffffff1673ffffffffffffffffffffffffffffffffffffffff163373ffffffffffffffffffffffffffffffffffffffff1614610e2d576040517f08c379a0000000000000000000000000000000000000000000000000000000008152600401610e2490614795565b60405180910390fd5b610e35612789565b6000600d6000848152602001908152602001600020905060006002811115610e6057610e5f613c83565b5b8160090160009054906101000a900460ff166002811115610e8457610e83613c83565b5b14610ec4576040517f08c379a0000000000000000000000000000000000000000000000000000000008152600401610ebb90614827565b60405180910390fd5b6000816002018054610ed590614600565b905011610f17576040517f08c379a0000000000000000000000000000000000000000000000000000000008152600401610f0e906146a3565b60405180910390fd5b811561107b5760018160090160006101000a81548160ff02191690836002811115610f4557610f44613c83565b5b0217905550610f788160010160009054906101000a900473ffffffffffffffffffffffffffffffffffffffff16846127cf565b6000600e60009054906101000a900473ffffffffffffffffffffffffffffffffffffffff1673ffffffffffffffffffffffffffffffffffffffff16600f54604051610fc290614878565b60006040518083038185875af1925050503d8060008114610fff576040519150601f19603f3d011682016040523d82523d6000602084013e611004565b606091505b5050905080611048576040517f08c379a000000000000000000000000000000000000000000000000000000000815260040161103f906148d9565b60405180910390fd5b837f251541517e7fdfbb2cb6b8c70a4fdaa5055dd01495174bcb394e5c6934ae634160405160405180910390a2506111a9565b60028160090160006101000a81548160ff021916908360028111156110a3576110a2613c83565b5b021790555060008160010160009054906101000a900473ffffffffffffffffffffffffffffffffffffffff1673ffffffffffffffffffffffffffffffffffffffff16600f546040516110f490614878565b60006040518083038185875af1925050503d8060008114611131576040519150601f19603f3d011682016040523d82523d6000602084013e611136565b606091505b505090508061117a576040517f08c379a000000000000000000000000000000000000000000000000000000000815260040161117190614945565b60405180910390fd5b837f2633babb73bc64ab969a0264c45b1cd034b86f5b1890c80ba6b1287f248df2a560405160405180910390a2505b506111b26128c8565b5050565b6111d183838360405180602001604052806000815250611a4c565b505050565b60006111e0610bbf565b8210611226576000826040517fa57d13dc00000000000000000000000000000000000000000000000000000000815260040161121d9291906146fa565b60405180910390fd5b6008828154811061123a57611239614965565b5b90600052602060002001549050919050565b6112546128d2565b600073ffffffffffffffffffffffffffffffffffffffff168173ffffffffffffffffffffffffffffffffffffffff16036112c3576040517f08c379a00000000000000000000000000000000000000000000000000000000081526004016112ba90614a06565b60405180910390fd5b80600e60006101000a81548173ffffffffffffffffffffffffffffffffffffffff021916908373ffffffffffffffffffffffffffffffffffffffff1602179055508073ffffffffffffffffffffffffffffffffffffffff167fd24015cc99cc1700cafca3042840a1d8ac1e3964fd2e0e37ea29c654056ee32760405160405180910390a250565b60006113558261258d565b9050919050565b60008073ffffffffffffffffffffffffffffffffffffffff168273ffffffffffffffffffffffffffffffffffffffff16036113cf5760006040517f89c62b640000000000000000000000000000000000000000000000000000000081526004016113c69190613b94565b60405180910390fd5b600360008373ffffffffffffffffffffffffffffffffffffffff1673ffffffffffffffffffffffffffffffffffffffff168152602001908152602001600020549050919050565b61141e6128d2565b6114286000612959565b565b600c5481565b6000600a60009054906101000a900473ffffffffffffffffffffffffffffffffffffffff16905090565b60606001805461146990614600565b80601f016020809104026020016040519081016040528092919081815260200182805461149590614600565b80156114e25780601f106114b7576101008083540402835291602001916114e2565b820191906000526020600020905b8154815290600101906020018083116114c557829003601f168201915b5050505050905090565b6114fe6114f7612652565b8383612a1f565b5050565b600f5481565b6115106128d2565b80600f819055507fb28e93ba12cfe6381facd1fb8bbd27a52d11b825c1801eb744c14f070365486a816040516115469190613e1a565b60405180910390a150565b6060600080600190505b600c548110156115ff576000600d6000838152602001908152602001600020600201805461158890614600565b90501180156115de5750600160028111156115a6576115a5613c83565b5b600d600083815260200190815260200160002060090160009054906101000a900460ff1660028111156115dc576115db613c83565b5b145b156115f25781806115ee90614a55565b9250505b808060010191505061155b565b5060008167ffffffffffffffff81111561161c5761161b61413e565b5b60405190808252806020026020018201604052801561165557816020015b6116426138f4565b81526020019060019003908161163a5790505b509050600080600190505b600c54811015611a42576000600d6000838152602001908152602001600020600201805461168d90614600565b90501180156116e35750600160028111156116ab576116aa613c83565b5b600d600083815260200190815260200160002060090160009054906101000a900460ff1660028111156116e1576116e0613c83565b5b145b15611a3557600d600082815260200190815260200160002060405180610140016040529081600082015481526020016001820160009054906101000a900473ffffffffffffffffffffffffffffffffffffffff1673ffffffffffffffffffffffffffffffffffffffff1673ffffffffffffffffffffffffffffffffffffffff16815260200160028201805461177790614600565b80601f01602080910402602001604051908101604052809291908181526020018280546117a390614600565b80156117f05780601f106117c5576101008083540402835291602001916117f0565b820191906000526020600020905b8154815290600101906020018083116117d357829003601f168201915b5050505050815260200160038201805461180990614600565b80601f016020809104026020016040519081016040528092919081815260200182805461183590614600565b80156118825780601f1061185757610100808354040283529160200191611882565b820191906000526020600020905b81548152906001019060200180831161186557829003601f168201915b5050505050815260200160048201805461189b90614600565b80601f01602080910402602001604051908101604052809291908181526020018280546118c790614600565b80156119145780601f106118e957610100808354040283529160200191611914565b820191906000526020600020905b8154815290600101906020018083116118f757829003601f168201915b5050505050815260200160058201805461192d90614600565b80601f016020809104026020016040519081016040528092919081815260200182805461195990614600565b80156119a65780601f1061197b576101008083540402835291602001916119a6565b820191906000526020600020905b81548152906001019060200180831161198957829003601f168201915b505050505081526020016006820154815260200160078201548152602001600882015481526020016009820160009054906101000a900460ff1660028111156119f2576119f1613c83565b5b6002811115611a0457611a03613c83565b5b81525050838381518110611a1b57611a1a614965565b5b60200260200101819052508180611a3190614a55565b9250505b8080600101915050611660565b5081935050505090565b611a57848484610bcc565b611a6b611a62612652565b85858585612b8e565b50505050565b6060611a7c8261258d565b506000611a87612d3f565b90506000815111611aa75760405180602001604052806000815250611ad2565b80611ab184612d56565b604051602001611ac2929190614ad9565b6040516020818303038152906040525b915050919050565b611ae2612789565b6000600d600084815260200190815260200160002090506000816002018054611b0a90614600565b905011611b4c576040517f08c379a0000000000000000000000000000000000000000000000000000000008152600401611b43906146a3565b60405180910390fd5b60016002811115611b6057611b5f613c83565b5b8160090160009054906101000a900460ff166002811115611b8457611b83613c83565b5b14611bc4576040517f08c379a0000000000000000000000000000000000000000000000000000000008152600401611bbb90614b6f565b60405180910390fd5b60008211611c07576040517f08c379a0000000000000000000000000000000000000000000000000000000008152600401611bfe90614c01565b60405180910390fd5b8060080154821115611c4e576040517f08c379a0000000000000000000000000000000000000000000000000000000008152600401611c4590614c93565b60405180910390fd5b6000816007015483611c609190614cb3565b9050803414611ca4576040517f08c379a0000000000000000000000000000000000000000000000000000000008152600401611c9b90614d67565b60405180910390fd5b6000611caf8561134a565b90508073ffffffffffffffffffffffffffffffffffffffff166108fc839081150290604051600060405180830381858888f19350505050158015611cf7573d6000803e3d6000fd5b5083836008016000828254611d0c9190614d87565b925050819055503373ffffffffffffffffffffffffffffffffffffffff16857f80c4f3b1904f05c8c1907de32bb02dd69685a584a2e41a75414ace634b4292f78685604051611d5c929190614dbb565b60405180910390a3505050611d6f6128c8565b5050565b611d7b612789565b600f543414611dbf576040517f08c379a0000000000000000000000000000000000000000000000000000000008152600401611db690614e56565b60405180910390fd5b60008211611e02576040517f08c379a0000000000000000000000000000000000000000000000000000000008152600401611df990614ee8565b60405180910390fd5b60008111611e45576040517f08c379a0000000000000000000000000000000000000000000000000000000008152600401611e3c90614f7a565b60405180910390fd5b6000865111611e89576040517f08c379a0000000000000000000000000000000000000000000000000000000008152600401611e809061500c565b60405180910390fd5b6000855111611ecd576040517f08c379a0000000000000000000000000000000000000000000000000000000008152600401611ec49061509e565b60405180910390fd5b6000845111611f11576040517f08c379a0000000000000000000000000000000000000000000000000000000008152600401611f0890615130565b60405180910390fd5b6000835111611f55576040517f08c379a0000000000000000000000000000000000000000000000000000000008152600401611f4c906151c2565b60405180910390fd5b6000600c6000815480929190611f6a90614a55565b9190505590506040518061014001604052808281526020013373ffffffffffffffffffffffffffffffffffffffff16815260200188815260200187815260200186815260200185815260200184815260200183815260200184815260200160006002811115611fdc57611fdb613c83565b5b815250600d60008381526020019081526020016000206000820151816000015560208201518160010160006101000a81548173ffffffffffffffffffffffffffffffffffffffff021916908373ffffffffffffffffffffffffffffffffffffffff1602179055506040820151816002019081612058919061538e565b50606082015181600301908161206e919061538e565b506080820151816004019081612084919061538e565b5060a082015181600501908161209a919061538e565b5060c0820151816006015560e0820151816007015561010082015181600801556101208201518160090160006101000a81548160ff021916908360028111156120e6576120e5613c83565b5b02179055509050503373ffffffffffffffffffffffffffffffffffffffff16817f3c05fd90fdc758a5f8597d40a1a7b7b788efde552e50389fc2222d2eed6538dd89898989898960405161213f96959493929190615460565b60405180910390a3506121506128c8565b505050505050565b6000600560008473ffffffffffffffffffffffffffffffffffffffff1673ffffffffffffffffffffffffffffffffffffffff16815260200190815260200160002060008373ffffffffffffffffffffffffffffffffffffffff1673ffffffffffffffffffffffffffffffffffffffff16815260200190815260200160002060009054906101000a900460ff16905092915050565b6121f46128d2565b600073ffffffffffffffffffffffffffffffffffffffff168173ffffffffffffffffffffffffffffffffffffffff16036122665760006040517f1e4fbdf700000000000000000000000000000000000000000000000000000000815260040161225d9190613b94565b60405180910390fd5b61226f81612959565b50565b600d6020528060005260406000206000915090508060000154908060010160009054906101000a900473ffffffffffffffffffffffffffffffffffffffff16908060020180546122c190614600565b80601f01602080910402602001604051908101604052809291908181526020018280546122ed90614600565b801561233a5780601f1061230f5761010080835404028352916020019161233a565b820191906000526020600020905b81548152906001019060200180831161231d57829003601f168201915b50505050509080600301805461234f90614600565b80601f016020809104026020016040519081016040528092919081815260200182805461237b90614600565b80156123c85780601f1061239d576101008083540402835291602001916123c8565b820191906000526020600020905b8154815290600101906020018083116123ab57829003601f168201915b5050505050908060040180546123dd90614600565b80601f016020809104026020016040519081016040528092919081815260200182805461240990614600565b80156124565780601f1061242b57610100808354040283529160200191612456565b820191906000526020600020905b81548152906001019060200180831161243957829003601f168201915b50505050509080600501805461246b90614600565b80601f016020809104026020016040519081016040528092919081815260200182805461249790614600565b80156124e45780601f106124b9576101008083540402835291602001916124e4565b820191906000526020600020905b8154815290600101906020018083116124c757829003601f168201915b5050505050908060060154908060070154908060080154908060090160009054906101000a900460ff1690508a565b60007f780e9d63000000000000000000000000000000000000000000000000000000007bffffffffffffffffffffffffffffffffffffffffffffffffffffffff1916827bffffffffffffffffffffffffffffffffffffffffffffffffffffffff19161480612586575061258582612e24565b5b9050919050565b60008061259983612f06565b9050600073ffffffffffffffffffffffffffffffffffffffff168173ffffffffffffffffffffffffffffffffffffffff160361260c57826040517f7e2732890000000000000000000000000000000000000000000000000000000081526004016126039190613e1a565b60405180910390fd5b80915050919050565b60006004600083815260200190815260200160002060009054906101000a900473ffffffffffffffffffffffffffffffffffffffff169050919050565b600033905090565b6126678383836001612f43565b505050565b60008061267a858585613108565b9050600073ffffffffffffffffffffffffffffffffffffffff168173ffffffffffffffffffffffffffffffffffffffff16036126be576126b984613322565b6126fd565b8473ffffffffffffffffffffffffffffffffffffffff168173ffffffffffffffffffffffffffffffffffffffff16146126fc576126fb818561336b565b5b5b600073ffffffffffffffffffffffffffffffffffffffff168573ffffffffffffffffffffffffffffffffffffffff160361273f5761273a84613456565b61277e565b8473ffffffffffffffffffffffffffffffffffffffff168173ffffffffffffffffffffffffffffffffffffffff161461277d5761277c8585613527565b5b5b809150509392505050565b6002600b54036127c5576040517f3ee5aeb500000000000000000000000000000000000000000000000000000000815260040160405180910390fd5b6002600b81905550565b600073ffffffffffffffffffffffffffffffffffffffff168273ffffffffffffffffffffffffffffffffffffffff16036128415760006040517f64a0ae920000000000000000000000000000000000000000000000000000000081526004016128389190613b94565b60405180910390fd5b600061284f8383600061266c565b9050600073ffffffffffffffffffffffffffffffffffffffff168173ffffffffffffffffffffffffffffffffffffffff16146128c35760006040517f73c6ac6e0000000000000000000000000000000000000000000000000000000081526004016128ba9190613b94565b60405180910390fd5b505050565b6001600b81905550565b6128da612652565b73ffffffffffffffffffffffffffffffffffffffff166128f8611430565b73ffffffffffffffffffffffffffffffffffffffff16146129575761291b612652565b6040517f118cdaa700000000000000000000000000000000000000000000000000000000815260040161294e9190613b94565b60405180910390fd5b565b6000600a60009054906101000a900473ffffffffffffffffffffffffffffffffffffffff16905081600a60006101000a81548173ffffffffffffffffffffffffffffffffffffffff021916908373ffffffffffffffffffffffffffffffffffffffff1602179055508173ffffffffffffffffffffffffffffffffffffffff168173ffffffffffffffffffffffffffffffffffffffff167f8be0079c531659141344cd1fd0a4f28419497f9722a3daafe3b4186f6b6457e060405160405180910390a35050565b600073ffffffffffffffffffffffffffffffffffffffff168273ffffffffffffffffffffffffffffffffffffffff1603612a9057816040517f5b08ba18000000000000000000000000000000000000000000000000000000008152600401612a879190613b94565b60405180910390fd5b80600560008573ffffffffffffffffffffffffffffffffffffffff1673ffffffffffffffffffffffffffffffffffffffff16815260200190815260200160002060008473ffffffffffffffffffffffffffffffffffffffff1673ffffffffffffffffffffffffffffffffffffffff16815260200190815260200160002060006101000a81548160ff0219169083151502179055508173ffffffffffffffffffffffffffffffffffffffff168373ffffffffffffffffffffffffffffffffffffffff167f17307eab39ab6107e8899845ad3d59bd9653f200f220920489ca2b5937696c3183604051612b819190613a23565b60405180910390a3505050565b60008373ffffffffffffffffffffffffffffffffffffffff163b1115612d38578273ffffffffffffffffffffffffffffffffffffffff1663150b7a02868685856040518563ffffffff1660e01b8152600401612bed9493929190615532565b6020604051808303816000875af1925050508015612c2957506040513d601f19601f82011682018060405250810190612c269190615593565b60015b612cad573d8060008114612c59576040519150601f19603f3d011682016040523d82523d6000602084013e612c5e565b606091505b506000815103612ca557836040517f64a0ae92000000000000000000000000000000000000000000000000000000008152600401612c9c9190613b94565b60405180910390fd5b805181602001fd5b63150b7a0260e01b7bffffffffffffffffffffffffffffffffffffffffffffffffffffffff1916817bffffffffffffffffffffffffffffffffffffffffffffffffffffffff191614612d3657836040517f64a0ae92000000000000000000000000000000000000000000000000000000008152600401612d2d9190613b94565b60405180910390fd5b505b5050505050565b606060405180602001604052806000815250905090565b606060006001612d65846135b2565b01905060008167ffffffffffffffff811115612d8457612d8361413e565b5b6040519080825280601f01601f191660200182016040528015612db65781602001600182028036833780820191505090505b509050600082602001820190505b600115612e19578080600190039150507f3031323334353637383961626364656600000000000000000000000000000000600a86061a8153600a8581612e0d57612e0c6155c0565b5b04945060008503612dc4575b819350505050919050565b60007f80ac58cd000000000000000000000000000000000000000000000000000000007bffffffffffffffffffffffffffffffffffffffffffffffffffffffff1916827bffffffffffffffffffffffffffffffffffffffffffffffffffffffff19161480612eef57507f5b5e139f000000000000000000000000000000000000000000000000000000007bffffffffffffffffffffffffffffffffffffffffffffffffffffffff1916827bffffffffffffffffffffffffffffffffffffffffffffffffffffffff1916145b80612eff5750612efe82613705565b5b9050919050565b60006002600083815260200190815260200160002060009054906101000a900473ffffffffffffffffffffffffffffffffffffffff169050919050565b8080612f7c5750600073ffffffffffffffffffffffffffffffffffffffff168273ffffffffffffffffffffffffffffffffffffffff1614155b156130b0576000612f8c8461258d565b9050600073ffffffffffffffffffffffffffffffffffffffff168373ffffffffffffffffffffffffffffffffffffffff1614158015612ff757508273ffffffffffffffffffffffffffffffffffffffff168173ffffffffffffffffffffffffffffffffffffffff1614155b801561300a57506130088184612158565b155b1561304c57826040517fa9fbf51f0000000000000000000000000000000000000000000000000000000081526004016130439190613b94565b60405180910390fd5b81156130ae57838573ffffffffffffffffffffffffffffffffffffffff168273ffffffffffffffffffffffffffffffffffffffff167f8c5be1e5ebec7d5bd14f71427d1e84f3dd0314c0f7b2291e5b200ac8c7c3b92560405160405180910390a45b505b836004600085815260200190815260200160002060006101000a81548173ffffffffffffffffffffffffffffffffffffffff021916908373ffffffffffffffffffffffffffffffffffffffff16021790555050505050565b60008061311484612f06565b9050600073ffffffffffffffffffffffffffffffffffffffff168373ffffffffffffffffffffffffffffffffffffffff16146131565761315581848661376f565b5b600073ffffffffffffffffffffffffffffffffffffffff168173ffffffffffffffffffffffffffffffffffffffff16146131e757613198600085600080612f43565b6001600360008373ffffffffffffffffffffffffffffffffffffffff1673ffffffffffffffffffffffffffffffffffffffff168152602001908152602001600020600082825403925050819055505b600073ffffffffffffffffffffffffffffffffffffffff168573ffffffffffffffffffffffffffffffffffffffff161461326a576001600360008773ffffffffffffffffffffffffffffffffffffffff1673ffffffffffffffffffffffffffffffffffffffff168152602001908152602001600020600082825401925050819055505b846002600086815260200190815260200160002060006101000a81548173ffffffffffffffffffffffffffffffffffffffff021916908373ffffffffffffffffffffffffffffffffffffffff160217905550838573ffffffffffffffffffffffffffffffffffffffff168273ffffffffffffffffffffffffffffffffffffffff167fddf252ad1be2c89b69c2b068fc378daa952ba7f163c4a11628f55a4df523b3ef60405160405180910390a4809150509392505050565b6008805490506009600083815260200190815260200160002081905550600881908060018154018082558091505060019003906000526020600020016000909190919091505550565b60006133768361135c565b90506000600760008481526020019081526020016000205490506000600660008673ffffffffffffffffffffffffffffffffffffffff1673ffffffffffffffffffffffffffffffffffffffff16815260200190815260200160002090508282146134225760008160008581526020019081526020016000205490508082600085815260200190815260200160002081905550826007600083815260200190815260200160002081905550505b6007600085815260200190815260200160002060009055806000848152602001908152602001600020600090555050505050565b6000600160088054905061346a9190614d87565b905060006009600084815260200190815260200160002054905060006008838154811061349a57613499614965565b5b9060005260206000200154905080600883815481106134bc576134bb614965565b5b90600052602060002001819055508160096000838152602001908152602001600020819055506009600085815260200190815260200160002060009055600880548061350b5761350a6155ef565b5b6001900381819060005260206000200160009055905550505050565b600060016135348461135c565b61353e9190614d87565b905081600660008573ffffffffffffffffffffffffffffffffffffffff1673ffffffffffffffffffffffffffffffffffffffff168152602001908152602001600020600083815260200190815260200160002081905550806007600084815260200190815260200160002081905550505050565b600080600090507a184f03e93ff9f4daa797ed6e38ed64bf6a1f0100000000000000008310613610577a184f03e93ff9f4daa797ed6e38ed64bf6a1f0100000000000000008381613606576136056155c0565b5b0492506040810190505b6d04ee2d6d415b85acef8100000000831061364d576d04ee2d6d415b85acef81000000008381613643576136426155c0565b5b0492506020810190505b662386f26fc10000831061367c57662386f26fc100008381613672576136716155c0565b5b0492506010810190505b6305f5e10083106136a5576305f5e100838161369b5761369a6155c0565b5b0492506008810190505b61271083106136ca5761271083816136c0576136bf6155c0565b5b0492506004810190505b606483106136ed57606483816136e3576136e26155c0565b5b0492506002810190505b600a83106136fc576001810190505b80915050919050565b60007f01ffc9a7000000000000000000000000000000000000000000000000000000007bffffffffffffffffffffffffffffffffffffffffffffffffffffffff1916827bffffffffffffffffffffffffffffffffffffffffffffffffffffffff1916149050919050565b61377a838383613833565b61382e57600073ffffffffffffffffffffffffffffffffffffffff168373ffffffffffffffffffffffffffffffffffffffff16036137ef57806040517f7e2732890000000000000000000000000000000000000000000000000000000081526004016137e69190613e1a565b60405180910390fd5b81816040517f177e802f0000000000000000000000000000000000000000000000000000000081526004016138259291906146fa565b60405180910390fd5b505050565b60008073ffffffffffffffffffffffffffffffffffffffff168373ffffffffffffffffffffffffffffffffffffffff16141580156138eb57508273ffffffffffffffffffffffffffffffffffffffff168473ffffffffffffffffffffffffffffffffffffffff1614806138ac57506138ab8484612158565b5b806138ea57508273ffffffffffffffffffffffffffffffffffffffff166138d283612615565b73ffffffffffffffffffffffffffffffffffffffff16145b5b90509392505050565b60405180610140016040528060008152602001600073ffffffffffffffffffffffffffffffffffffffff168152602001606081526020016060815260200160608152602001606081526020016000815260200160008152602001600081526020016000600281111561396957613968613c83565b5b81525090565b6000604051905090565b600080fd5b600080fd5b60007fffffffff0000000000000000000000000000000000000000000000000000000082169050919050565b6139b881613983565b81146139c357600080fd5b50565b6000813590506139d5816139af565b92915050565b6000602082840312156139f1576139f0613979565b5b60006139ff848285016139c6565b91505092915050565b60008115159050919050565b613a1d81613a08565b82525050565b6000602082019050613a386000830184613a14565b92915050565b600081519050919050565b600082825260208201905092915050565b60005b83811015613a78578082015181840152602081019050613a5d565b60008484015250505050565b6000601f19601f8301169050919050565b6000613aa082613a3e565b613aaa8185613a49565b9350613aba818560208601613a5a565b613ac381613a84565b840191505092915050565b60006020820190508181036000830152613ae88184613a95565b905092915050565b6000819050919050565b613b0381613af0565b8114613b0e57600080fd5b50565b600081359050613b2081613afa565b92915050565b600060208284031215613b3c57613b3b613979565b5b6000613b4a84828501613b11565b91505092915050565b600073ffffffffffffffffffffffffffffffffffffffff82169050919050565b6000613b7e82613b53565b9050919050565b613b8e81613b73565b82525050565b6000602082019050613ba96000830184613b85565b92915050565b613bb881613b73565b8114613bc357600080fd5b50565b600081359050613bd581613baf565b92915050565b60008060408385031215613bf257613bf1613979565b5b6000613c0085828601613bc6565b9250506020613c1185828601613b11565b9150509250929050565b613c2481613af0565b82525050565b613c3381613b73565b82525050565b600082825260208201905092915050565b6000613c5582613a3e565b613c5f8185613c39565b9350613c6f818560208601613a5a565b613c7881613a84565b840191505092915050565b7f4e487b7100000000000000000000000000000000000000000000000000000000600052602160045260246000fd5b60038110613cc357613cc2613c83565b5b50565b6000819050613cd482613cb2565b919050565b6000613ce482613cc6565b9050919050565b613cf481613cd9565b82525050565b600061014083016000830151613d136000860182613c1b565b506020830151613d266020860182613c2a565b5060408301518482036040860152613d3e8282613c4a565b91505060608301518482036060860152613d588282613c4a565b91505060808301518482036080860152613d728282613c4a565b91505060a083015184820360a0860152613d8c8282613c4a565b91505060c0830151613da160c0860182613c1b565b5060e0830151613db460e0860182613c1b565b50610100830151613dc9610100860182613c1b565b50610120830151613dde610120860182613ceb565b508091505092915050565b60006020820190508181036000830152613e038184613cfa565b905092915050565b613e1481613af0565b82525050565b6000602082019050613e2f6000830184613e0b565b92915050565b600080600060608486031215613e4e57613e4d613979565b5b6000613e5c86828701613bc6565b9350506020613e6d86828701613bc6565b9250506040613e7e86828701613b11565b9150509250925092565b613e9181613a08565b8114613e9c57600080fd5b50565b600081359050613eae81613e88565b92915050565b60008060408385031215613ecb57613eca613979565b5b6000613ed985828601613b11565b9250506020613eea85828601613e9f565b9150509250929050565b600060208284031215613f0a57613f09613979565b5b6000613f1884828501613bc6565b91505092915050565b60008060408385031215613f3857613f37613979565b5b6000613f4685828601613bc6565b9250506020613f5785828601613e9f565b9150509250929050565b600081519050919050565b600082825260208201905092915050565b6000819050602082019050919050565b600061014083016000830151613fa66000860182613c1b565b506020830151613fb96020860182613c2a565b5060408301518482036040860152613fd18282613c4a565b91505060608301518482036060860152613feb8282613c4a565b915050608083015184820360808601526140058282613c4a565b91505060a083015184820360a086015261401f8282613c4a565b91505060c083015161403460c0860182613c1b565b5060e083015161404760e0860182613c1b565b5061010083015161405c610100860182613c1b565b50610120830151614071610120860182613ceb565b508091505092915050565b60006140888383613f8d565b905092915050565b6000602082019050919050565b60006140a882613f61565b6140b28185613f6c565b9350836020820285016140c485613f7d565b8060005b8581101561410057848403895281516140e1858261407c565b94506140ec83614090565b925060208a019950506001810190506140c8565b50829750879550505050505092915050565b6000602082019050818103600083015261412c818461409d565b905092915050565b600080fd5b600080fd5b7f4e487b7100000000000000000000000000000000000000000000000000000000600052604160045260246000fd5b61417682613a84565b810181811067ffffffffffffffff821117156141955761419461413e565b5b80604052505050565b60006141a861396f565b90506141b4828261416d565b919050565b600067ffffffffffffffff8211156141d4576141d361413e565b5b6141dd82613a84565b9050602081019050919050565b82818337600083830152505050565b600061420c614207846141b9565b61419e565b90508281526020810184848401111561422857614227614139565b5b6142338482856141ea565b509392505050565b600082601f8301126142505761424f614134565b5b81356142608482602086016141f9565b91505092915050565b6000806000806080858703121561428357614282613979565b5b600061429187828801613bc6565b94505060206142a287828801613bc6565b93505060406142b387828801613b11565b925050606085013567ffffffffffffffff8111156142d4576142d361397e565b5b6142e08782880161423b565b91505092959194509250565b6000806040838503121561430357614302613979565b5b600061431185828601613b11565b925050602061432285828601613b11565b9150509250929050565b600067ffffffffffffffff8211156143475761434661413e565b5b61435082613a84565b9050602081019050919050565b600061437061436b8461432c565b61419e565b90508281526020810184848401111561438c5761438b614139565b5b6143978482856141ea565b509392505050565b600082601f8301126143b4576143b3614134565b5b81356143c484826020860161435d565b91505092915050565b60008060008060008060c087890312156143ea576143e9613979565b5b600087013567ffffffffffffffff8111156144085761440761397e565b5b61441489828a0161439f565b965050602087013567ffffffffffffffff8111156144355761443461397e565b5b61444189828a0161439f565b955050604087013567ffffffffffffffff8111156144625761446161397e565b5b61446e89828a0161439f565b945050606087013567ffffffffffffffff81111561448f5761448e61397e565b5b61449b89828a0161439f565b93505060806144ac89828a01613b11565b92505060a06144bd89828a01613b11565b9150509295509295509295565b600080604083850312156144e1576144e0613979565b5b60006144ef85828601613bc6565b925050602061450085828601613bc6565b9150509250929050565b61451381613cd9565b82525050565b60006101408201905061452f600083018d613e0b565b61453c602083018c613b85565b818103604083015261454e818b613a95565b90508181036060830152614562818a613a95565b905081810360808301526145768189613a95565b905081810360a083015261458a8188613a95565b905061459960c0830187613e0b565b6145a660e0830186613e0b565b6145b4610100830185613e0b565b6145c261012083018461450a565b9b9a5050505050505050505050565b7f4e487b7100000000000000000000000000000000000000000000000000000000600052602260045260246000fd5b6000600282049050600182168061461857607f821691505b60208210810361462b5761462a6145d1565b5b50919050565b7f4d61726b6574706c6163653a2050726f706572747920646f6573206e6f74206560008201527f7869737400000000000000000000000000000000000000000000000000000000602082015250565b600061468d602483613a49565b915061469882614631565b604082019050919050565b600060208201905081810360008301526146bc81614680565b9050919050565b60006060820190506146d86000830186613b85565b6146e56020830185613e0b565b6146f26040830184613b85565b949350505050565b600060408201905061470f6000830185613b85565b61471c6020830184613e0b565b9392505050565b7f4d61726b6574706c6163653a2043616c6c6572206973206e6f7420746865207660008201527f6572696669657200000000000000000000000000000000000000000000000000602082015250565b600061477f602783613a49565b915061478a82614723565b604082019050919050565b600060208201905081810360008301526147ae81614772565b9050919050565b7f4d61726b6574706c6163653a2050726f7065727479206e6f742070656e64696e60008201527f6720766572696669636174696f6e000000000000000000000000000000000000602082015250565b6000614811602e83613a49565b915061481c826147b5565b604082019050919050565b6000602082019050818103600083015261484081614804565b9050919050565b600081905092915050565b50565b6000614862600083614847565b915061486d82614852565b600082019050919050565b600061488382614855565b9150819050919050565b7f4d61726b6574706c6163653a20466565207472616e73666572206661696c6564600082015250565b60006148c3602083613a49565b91506148ce8261488d565b602082019050919050565b600060208201905081810360008301526148f2816148b6565b9050919050565b7f4d61726b6574706c6163653a2046656520726566756e64206661696c65640000600082015250565b600061492f601e83613a49565b915061493a826148f9565b602082019050919050565b6000602082019050818103600083015261495e81614922565b9050919050565b7f4e487b7100000000000000000000000000000000000000000000000000000000600052603260045260246000fd5b7f4d61726b6574706c6163653a204e65772076657269666965722063616e6e6f7460008201527f20626520746865207a65726f2061646472657373000000000000000000000000602082015250565b60006149f0603483613a49565b91506149fb82614994565b604082019050919050565b60006020820190508181036000830152614a1f816149e3565b9050919050565b7f4e487b7100000000000000000000000000000000000000000000000000000000600052601160045260246000fd5b6000614a6082613af0565b91507fffffffffffffffffffffffffffffffffffffffffffffffffffffffffffffffff8203614a9257614a91614a26565b5b600182019050919050565b600081905092915050565b6000614ab382613a3e565b614abd8185614a9d565b9350614acd818560208601613a5a565b80840191505092915050565b6000614ae58285614aa8565b9150614af18284614aa8565b91508190509392505050565b7f4d61726b6574706c6163653a2050726f7065727479206e6f742076657269666960008201527f6564000000000000000000000000000000000000000000000000000000000000602082015250565b6000614b59602283613a49565b9150614b6482614afd565b604082019050919050565b60006020820190508181036000830152614b8881614b4c565b9050919050565b7f4d61726b6574706c6163653a204672616374696f6e73206d757374206265206760008201527f726561746572207468616e207a65726f00000000000000000000000000000000602082015250565b6000614beb603083613a49565b9150614bf682614b8f565b604082019050919050565b60006020820190508181036000830152614c1a81614bde565b9050919050565b7f4d61726b6574706c6163653a204e6f7420656e6f756768206672616374696f6e60008201527f73206c697374656420666f722073616c65000000000000000000000000000000602082015250565b6000614c7d603183613a49565b9150614c8882614c21565b604082019050919050565b60006020820190508181036000830152614cac81614c70565b9050919050565b6000614cbe82613af0565b9150614cc983613af0565b9250828202614cd781613af0565b91508282048414831517614cee57614ced614a26565b5b5092915050565b7f4d61726b6574706c6163653a20496e636f72726563742045746865722073656e60008201527f7400000000000000000000000000000000000000000000000000000000000000602082015250565b6000614d51602183613a49565b9150614d5c82614cf5565b604082019050919050565b60006020820190508181036000830152614d8081614d44565b9050919050565b6000614d9282613af0565b9150614d9d83613af0565b9250828203905081811115614db557614db4614a26565b5b92915050565b6000604082019050614dd06000830185613e0b565b614ddd6020830184613e0b565b9392505050565b7f4d61726b6574706c6163653a20496e636f72726563742076657269666963617460008201527f696f6e206665652073656e740000000000000000000000000000000000000000602082015250565b6000614e40602c83613a49565b9150614e4b82614de4565b604082019050919050565b60006020820190508181036000830152614e6f81614e33565b9050919050565b7f4d61726b6574706c6163653a20546f74616c206672616374696f6e73206d757360008201527f7420626520706f73697469766500000000000000000000000000000000000000602082015250565b6000614ed2602d83613a49565b9150614edd82614e76565b604082019050919050565b60006020820190508181036000830152614f0181614ec5565b9050919050565b7f4d61726b6574706c6163653a20507269636520706572206672616374696f6e2060008201527f6d75737420626520706f73697469766500000000000000000000000000000000602082015250565b6000614f64603083613a49565b9150614f6f82614f08565b604082019050919050565b60006020820190508181036000830152614f9381614f57565b9050919050565b7f4d61726b6574706c6163653a204e616d652063616e6e6f7420626520656d707460008201527f7900000000000000000000000000000000000000000000000000000000000000602082015250565b6000614ff6602183613a49565b915061500182614f9a565b604082019050919050565b6000602082019050818103600083015261502581614fe9565b9050919050565b7f4d61726b6574706c6163653a20416464726573732063616e6e6f74206265206560008201527f6d70747900000000000000000000000000000000000000000000000000000000602082015250565b6000615088602483613a49565b91506150938261502c565b604082019050919050565b600060208201905081810360008301526150b78161507b565b9050919050565b7f4d61726b6574706c6163653a20496d6167652055524c2063616e6e6f7420626560008201527f20656d7074790000000000000000000000000000000000000000000000000000602082015250565b600061511a602683613a49565b9150615125826150be565b604082019050919050565b600060208201905081810360008301526151498161510d565b9050919050565b7f4d61726b6574706c6163653a20446f63756d656e742055524c2063616e6e6f7460008201527f20626520656d7074790000000000000000000000000000000000000000000000602082015250565b60006151ac602983613a49565b91506151b782615150565b604082019050919050565b600060208201905081810360008301526151db8161519f565b9050919050565b60008190508160005260206000209050919050565b60006020601f8301049050919050565b600082821b905092915050565b6000600883026152447fffffffffffffffffffffffffffffffffffffffffffffffffffffffffffffffff82615207565b61524e8683615207565b95508019841693508086168417925050509392505050565b6000819050919050565b600061528b61528661528184613af0565b615266565b613af0565b9050919050565b6000819050919050565b6152a583615270565b6152b96152b182615292565b848454615214565b825550505050565b600090565b6152ce6152c1565b6152d981848461529c565b505050565b5b818110156152fd576152f26000826152c6565b6001810190506152df565b5050565b601f82111561534257615313816151e2565b61531c846151f7565b8101602085101561532b578190505b61533f615337856151f7565b8301826152de565b50505b505050565b600082821c905092915050565b600061536560001984600802615347565b1980831691505092915050565b600061537e8383615354565b9150826002028217905092915050565b61539782613a3e565b67ffffffffffffffff8111156153b0576153af61413e565b5b6153ba8254614600565b6153c5828285615301565b600060209050601f8311600181146153f857600084156153e6578287015190505b6153f08582615372565b865550615458565b601f198416615406866151e2565b60005b8281101561542e57848901518255600182019150602085019450602081019050615409565b8683101561544b5784890151615447601f891682615354565b8355505b6001600288020188555050505b505050505050565b600060c082019050818103600083015261547a8189613a95565b9050818103602083015261548e8188613a95565b905081810360408301526154a28187613a95565b905081810360608301526154b68186613a95565b90506154c56080830185613e0b565b6154d260a0830184613e0b565b979650505050505050565b600081519050919050565b600082825260208201905092915050565b6000615504826154dd565b61550e81856154e8565b935061551e818560208601613a5a565b61552781613a84565b840191505092915050565b60006080820190506155476000830187613b85565b6155546020830186613b85565b6155616040830185613e0b565b818103606083015261557381846154f9565b905095945050505050565b60008151905061558d816139af565b92915050565b6000602082840312156155a9576155a8613979565b5b60006155b78482850161557e565b91505092915050565b7f4e487b7100000000000000000000000000000000000000000000000000000000600052601260045260246000fd5b7f4e487b7100000000000000000000000000000000000000000000000000000000600052603160045260246000fdfea2646970667358221220f8909ec08646cc7d3ed81fb4539fb246750528b88cf40b7fb8864eee5cb5627464736f6c634300081c0033",
  "linkReferences": {},
  "deployedLinkReferences": {}
}