{"contracts/FractionalNFTMarketplace.sol":{"FractionalNFTMarketplace":{"abi":[{"inputs":[{"internalType":"uint256","name":"_initialVerificationFee","type":"uint256"}],"stateMutability":"nonpayable","type":"constructor"},{"inputs":[],"name":"ERC721EnumerableForbiddenBatchMint","type":"error"},{"inputs":[{"internalType":"address","name":"sender","type":"address"},{"internalType":"uint256","name":"tokenId","type":"uint256"},{"internalType":"address","name":"owner","type":"address"}],"name":"ERC721IncorrectOwner","type":"error"},{"inputs":[{"internalType":"address","name":"operator","type":"address"},{"internalType":"uint256","name":"tokenId","type":"uint256"}],"name":"ERC721InsufficientApproval","type":"error"},{"inputs":[{"internalType":"address","name":"approver","type":"address"}],"name":"ERC721InvalidApprover","type":"error"},{"inputs":[{"internalType":"address","name":"operator","type":"address"}],"name":"ERC721InvalidOperator","type":"error"},{"inputs":[{"internalType":"address","name":"owner","type":"address"}],"name":"ERC721InvalidOwner","type":"error"},{"inputs":[{"internalType":"address","name":"receiver","type":"address"}],"name":"ERC721InvalidReceiver","type":"error"},{"inputs":[{"internalType":"address","name":"sender","type":"address"}],"name":"ERC721InvalidSender","type":"error"},{"inputs":[{"internalType":"uint256","name":"tokenId","type":"uint256"}],"name":"ERC721NonexistentToken","type":"error"},{"inputs":[{"internalType":"address","name":"owner","type":"address"},{"internalType":"uint256","name":"index","type":"uint256"}],"name":"ERC721OutOfBoundsIndex","type":"error"},{"inputs":[{"internalType":"address","name":"owner","type":"address"}],"name":"OwnableInvalidOwner","type":"error"},{"inputs":[{"internalType":"address","name":"account","type":"address"}],"name":"OwnableUnauthorizedAccount","type":"error"},{"inputs":[],"name":"ReentrancyGuardReentrantCall","type":"error"},{"anonymous":false,"inputs":[{"indexed":true,"internalType":"address","name":"owner","type":"address"},{"indexed":true,"internalType":"address","name":"approved","type":"address"},{"indexed":true,"internalType":"uint256","name":"tokenId","type":"uint256"}],"name":"Approval","type":"event"},{"anonymous":false,"inputs":[{"indexed":true,"internalType":"address","name":"owner","type":"address"},{"indexed":true,"internalType":"address","name":"operator","type":"address"},{"indexed":false,"internalType":"bool","name":"approved","type":"bool"}],"name":"ApprovalForAll","type":"event"},{"anonymous":false,"inputs":[{"indexed":true,"internalType":"uint256","name":"tokenId","type":"uint256"},{"indexed":true,"internalType":"address","name":"buyer","type":"address"},{"indexed":false,"internalType":"uint256","name":"fractions","type":"uint256"},{"indexed":false,"internalType":"uint256","name":"totalCost","type":"uint256"}],"name":"FractionBought","type":"event"},{"anonymous":false,"inputs":[{"indexed":true,"internalType":"uint256","name":"tokenId","type":"uint256"},{"indexed":true,"internalType":"address","name":"seller","type":"address"},{"indexed":false,"internalType":"uint256","name":"fractions","type":"uint256"},{"indexed":false,"internalType":"uint256","name":"amountReceived","type":"uint256"}],"name":"FractionSold","type":"event"},{"anonymous":false,"inputs":[{"indexed":true,"internalType":"address","name":"previousOwner","type":"address"},{"indexed":true,"internalType":"address","name":"newOwner","type":"address"}],"name":"OwnershipTransferred","type":"event"},{"anonymous":false,"inputs":[{"indexed":true,"internalType":"uint256","name":"tokenId","type":"uint256"}],"name":"PropertyRejected","type":"event"},{"anonymous":false,"inputs":[{"indexed":true,"internalType":"uint256","name":"tokenId","type":"uint256"},{"indexed":true,"internalType":"address","name":"owner","type":"address"},{"indexed":false,"internalType":"string","name":"name","type":"string"},{"indexed":false,"internalType":"string","name":"propertyAddress","type":"string"},{"indexed":false,"internalType":"string","name":"imageUrl","type":"string"},{"indexed":false,"internalType":"string","name":"documentUrl","type":"string"},{"indexed":false,"internalType":"uint256","name":"totalFractions","type":"uint256"},{"indexed":false,"internalType":"uint256","name":"pricePerFraction","type":"uint256"}],"name":"PropertySubmitted","type":"event"},{"anonymous":false,"inputs":[{"indexed":true,"internalType":"uint256","name":"tokenId","type":"uint256"}],"name":"PropertyVerified","type":"event"},{"anonymous":false,"inputs":[{"indexed":true,"internalType":"address","name":"from","type":"address"},{"indexed":true,"internalType":"address","name":"to","type":"address"},{"indexed":true,"internalType":"uint256","name":"tokenId","type":"uint256"}],"name":"Transfer","type":"event"},{"anonymous":false,"inputs":[{"indexed":false,"internalType":"uint256","name":"newFee","type":"uint256"}],"name":"VerificationFeeUpdated","type":"event"},{"anonymous":false,"inputs":[{"indexed":true,"internalType":"address","name":"newVerifier","type":"address"}],"name":"VerifierUpdated","type":"event"},{"inputs":[{"internalType":"address","name":"to","type":"address"},{"internalType":"uint256","name":"tokenId","type":"uint256"}],"name":"approve","outputs":[],"stateMutability":"nonpayable","type":"function"},{"inputs":[{"internalType":"address","name":"owner","type":"address"}],"name":"balanceOf","outputs":[{"internalType":"uint256","name":"","type":"uint256"}],"stateMutability":"view","type":"function"},{"inputs":[{"internalType":"uint256","name":"_tokenId","type":"uint256"},{"internalType":"uint256","name":"_fractions","type":"uint256"}],"name":"buyFraction","outputs":[],"stateMutability":"payable","type":"function"},{"inputs":[],"name":"getAllListings","outputs":[{"components":[{"internalType":"uint256","name":"tokenId","type":"uint256"},{"internalType":"address","name":"owner","type":"address"},{"internalType":"string","name":"name","type":"string"},{"internalType":"string","name":"propertyAddress","type":"string"},{"internalType":"string","name":"imageUrl","type":"string"},{"internalType":"string","name":"documentUrl","type":"string"},{"internalType":"uint256","name":"totalFractions","type":"uint256"},{"internalType":"uint256","name":"pricePerFraction","type":"uint256"},{"internalType":"uint256","name":"availableFractions","type":"uint256"},{"internalType":"enum FractionalNFTMarketplace.VerificationStatus","name":"status","type":"uint8"}],"internalType":"struct FractionalNFTMarketplace.Property[]","name":"","type":"tuple[]"}],"stateMutability":"view","type":"function"},{"inputs":[{"internalType":"uint256","name":"tokenId","type":"uint256"}],"name":"getApproved","outputs":[{"internalType":"address","name":"","type":"address"}],"stateMutability":"view","type":"function"},{"inputs":[{"internalType":"uint256","name":"_tokenId","type":"uint256"}],"name":"getPropertyDetails","outputs":[{"components":[{"internalType":"uint256","name":"tokenId","type":"uint256"},{"internalType":"address","name":"owner","type":"address"},{"internalType":"string","name":"name","type":"string"},{"internalType":"string","name":"propertyAddress","type":"string"},{"internalType":"string","name":"imageUrl","type":"string"},{"internalType":"string","name":"documentUrl","type":"string"},{"internalType":"uint256","name":"totalFractions","type":"uint256"},{"internalType":"uint256","name":"pricePerFraction","type":"uint256"},{"internalType":"uint256","name":"availableFractions","type":"uint256"},{"internalType":"enum FractionalNFTMarketplace.VerificationStatus","name":"status","type":"uint8"}],"internalType":"struct FractionalNFTMarketplace.Property","name":"","type":"tuple"}],"stateMutability":"view","type":"function"},{"inputs":[{"internalType":"address","name":"owner","type":"address"},{"internalType":"address","name":"operator","type":"address"}],"name":"isApprovedForAll","outputs":[{"internalType":"bool","name":"","type":"bool"}],"stateMutability":"view","type":"function"},{"inputs":[],"name":"name","outputs":[{"internalType":"string","name":"","type":"string"}],"stateMutability":"view","type":"function"},{"inputs":[],"name":"nextTokenId","outputs":[{"internalType":"uint256","name":"","type":"uint256"}],"stateMutability":"view","type":"function"},{"inputs":[],"name":"owner","outputs":[{"internalType":"address","name":"","type":"address"}],"stateMutability":"view","type":"function"},{"inputs":[{"internalType":"uint256","name":"tokenId","type":"uint256"}],"name":"ownerOf","outputs":[{"internalType":"address","name":"","type":"address"}],"stateMutability":"view","type":"function"},{"inputs":[{"internalType":"uint256","name":"","type":"uint256"}],"name":"properties","outputs":[{"internalType":"uint256","name":"tokenId","type":"uint256"},{"internalType":"address","name":"owner","type":"address"},{"internalType":"string","name":"name","type":"string"},{"internalType":"string","name":"propertyAddress","type":"string"},{"internalType":"string","name":"imageUrl","type":"string"},{"internalType":"string","name":"documentUrl","type":"string"},{"internalType":"uint256","name":"totalFractions","type":"uint256"},{"internalType":"uint256","name":"pricePerFraction","type":"uint256"},{"internalType":"uint256","name":"availableFractions","type":"uint256"},{"internalType":"enum FractionalNFTMarketplace.VerificationStatus","name":"status","type":"uint8"}],"stateMutability":"view","type":"function"},{"inputs":[],"name":"renounceOwnership","outputs":[],"stateMutability":"nonpayable","type":"function"},{"inputs":[{"internalType":"address","name":"from","type":"address"},{"internalType":"address","name":"to","type":"address"},{"internalType":"uint256","name":"tokenId","type":"uint256"}],"name":"safeTransferFrom","outputs":[],"stateMutability":"nonpayable","type":"function"},{"inputs":[{"internalType":"address","name":"from","type":"address"},{"internalType":"address","name":"to","type":"address"},{"internalType":"uint256","name":"tokenId","type":"uint256"},{"internalType":"bytes","name":"data","type":"bytes"}],"name":"safeTransferFrom","outputs":[],"stateMutability":"nonpayable","type":"function"},{"inputs":[{"internalType":"address","name":"operator","type":"address"},{"internalType":"bool","name":"approved","type":"bool"}],"name":"setApprovalForAll","outputs":[],"stateMutability":"nonpayable","type":"function"},{"inputs":[{"internalType":"uint256","name":"_newFee","type":"uint256"}],"name":"setVerificationFee","outputs":[],"stateMutability":"nonpayable","type":"function"},{"inputs":[{"internalType":"address","name":"_newVerifier","type":"address"}],"name":"setVerifier","outputs":[],"stateMutability":"nonpayable","type":"function"},{"inputs":[{"internalType":"string","name":"_name","type":"string"},{"internalType":"string","name":"_propertyAddress","type":"string"},{"internalType":"string","name":"_imageUrl","type":"string"},{"internalType":"string","name":"_documentUrl","type":"string"},{"internalType":"uint256","name":"_totalFractions","type":"uint256"},{"internalType":"uint256","name":"_pricePerFraction","type":"uint256"}],"name":"submitPropertyForVerification","outputs":[],"stateMutability":"payable","type":"function"},{"inputs":[{"internalType":"bytes4","name":"interfaceId","type":"bytes4"}],"name":"supportsInterface","outputs":[{"internalType":"bool","name":"","type":"bool"}],"stateMutability":"view","type":"function"},{"inputs":[],"name":"symbol","outputs":[{"internalType":"string","name":"","type":"string"}],"stateMutability":"view","type":"function"},{"inputs":[{"internalType":"uint256","name":"index","type":"uint256"}],"name":"tokenByIndex","outputs":[{"internalType":"uint256","name":"","type":"uint256"}],"stateMutability":"view","type":"function"},{"inputs":[{"internalType":"address","name":"owner","type":"address"},{"internalType":"uint256","name":"index","type":"uint256"}],"name":"tokenOfOwnerByIndex","outputs":[{"internalType":"uint256","name":"","type":"uint256"}],"stateMutability":"view","type":"function"},{"inputs":[{"internalType":"uint256","name":"tokenId","type":"uint256"}],"name":"tokenURI","outputs":[{"internalType":"string","name":"","type":"string"}],"stateMutability":"view","type":"function"},{"inputs":[],"name":"totalSupply","outputs":[{"internalType":"uint256","name":"","type":"uint256"}],"stateMutability":"view","type":"function"},{"inputs":[{"internalType":"address","name":"from","type":"address"},{"internalType":"address","name":"to","type":"address"},{"internalType":"uint256","name":"tokenId","type":"uint256"}],"name":"transferFrom","outputs":[],"stateMutability":"nonpayable","type":"function"},{"inputs":[{"internalType":"address","name":"newOwner","type":"address"}],"name":"transferOwnership","outputs":[],"stateMutability":"nonpayable","type":"function"},{"inputs":[],"name":"verificationFee","outputs":[{"internalType":"uint256","name":"","type":"uint256"}],"stateMutability":"view","type":"function"},{"inputs":[],"name":"verifier","outputs":[{"internalType":"address","name":"","type":"address"}],"stateMutability":"view","type":"function"},{"inputs":[{"internalType":"uint256","name":"_tokenId","type":"uint256"},{"internalType":"bool","name":"_approve","type":"bool"}],"name":"verifyProperty","outputs":[],"stateMutability":"nonpayable","type":"function"}],"evm":{"bytecode":{"linkReferences":{},"object":"60806040526001600c5534801561001557600080fd5b50604051615d47380380615d4783398181016040528101906100379190610319565b336040518060400160405280600d81526020017f4672616374696f6e616c4e4654000000000000000000000000000000000000008152506040518060400160405280600481526020017f664e46540000000000000000000000000000000000000000000000000000000081525081600090816100b3919061058c565b5080600190816100c3919061058c565b505050600073ffffffffffffffffffffffffffffffffffffffff168173ffffffffffffffffffffffffffffffffffffffff16036101385760006040517f1e4fbdf700000000000000000000000000000000000000000000000000000000815260040161012f919061069f565b60405180910390fd5b6101478161021860201b60201c565b506001600b8190555033600e60006101000a81548173ffffffffffffffffffffffffffffffffffffffff021916908373ffffffffffffffffffffffffffffffffffffffff16021790555080600f819055503373ffffffffffffffffffffffffffffffffffffffff167fd24015cc99cc1700cafca3042840a1d8ac1e3964fd2e0e37ea29c654056ee32760405160405180910390a27fb28e93ba12cfe6381facd1fb8bbd27a52d11b825c1801eb744c14f070365486a8160405161020a91906106c9565b60405180910390a1506106e4565b6000600a60009054906101000a900473ffffffffffffffffffffffffffffffffffffffff16905081600a60006101000a81548173ffffffffffffffffffffffffffffffffffffffff021916908373ffffffffffffffffffffffffffffffffffffffff1602179055508173ffffffffffffffffffffffffffffffffffffffff168173ffffffffffffffffffffffffffffffffffffffff167f8be0079c531659141344cd1fd0a4f28419497f9722a3daafe3b4186f6b6457e060405160405180910390a35050565b600080fd5b6000819050919050565b6102f6816102e3565b811461030157600080fd5b50565b600081519050610313816102ed565b92915050565b60006020828403121561032f5761032e6102de565b5b600061033d84828501610304565b91505092915050565b600081519050919050565b7f4e487b7100000000000000000000000000000000000000000000000000000000600052604160045260246000fd5b7f4e487b7100000000000000000000000000000000000000000000000000000000600052602260045260246000fd5b600060028204905060018216806103c757607f821691505b6020821081036103da576103d9610380565b5b50919050565b60008190508160005260206000209050919050565b60006020601f8301049050919050565b600082821b905092915050565b6000600883026104427fffffffffffffffffffffffffffffffffffffffffffffffffffffffffffffffff82610405565b61044c8683610405565b95508019841693508086168417925050509392505050565b6000819050919050565b600061048961048461047f846102e3565b610464565b6102e3565b9050919050565b6000819050919050565b6104a38361046e565b6104b76104af82610490565b848454610412565b825550505050565b600090565b6104cc6104bf565b6104d781848461049a565b505050565b5b818110156104fb576104f06000826104c4565b6001810190506104dd565b5050565b601f82111561054057610511816103e0565b61051a846103f5565b81016020851015610529578190505b61053d610535856103f5565b8301826104dc565b50505b505050565b600082821c905092915050565b600061056360001984600802610545565b1980831691505092915050565b600061057c8383610552565b9150826002028217905092915050565b61059582610346565b67ffffffffffffffff8111156105ae576105ad610351565b5b6105b882546103af565b6105c38282856104ff565b600060209050601f8311600181146105f657600084156105e4578287015190505b6105ee8582610570565b865550610656565b601f198416610604866103e0565b60005b8281101561062c57848901518255600182019150602085019450602081019050610607565b868310156106495784890151610645601f891682610552565b8355505b6001600288020188555050505b505050505050565b600073ffffffffffffffffffffffffffffffffffffffff82169050919050565b60006106898261065e565b9050919050565b6106998161067e565b82525050565b60006020820190506106b46000830184610690565b92915050565b6106c3816102e3565b82525050565b60006020820190506106de60008301846106ba565b92915050565b615654806106f36000396000f3fe6080604052600436106101cd5760003560e01c8063715018a6116100f7578063ae73ccec11610095578063dd802c4c11610064578063dd802c4c1461068d578063e985e9c5146106a9578063f2fde38b146106e6578063f7b108081461070f576101cd565b8063ae73ccec146105e0578063b88d4fde1461060b578063c87b56dd14610634578063d40b021414610671576101cd565b806395d89b41116100d157806395d89b4114610538578063a22cb46514610563578063a8c278a21461058c578063aae9d5f2146105b7576101cd565b8063715018a6146104cb57806375794a3c146104e25780638da5cb5b1461050d576101cd565b80632b7ac3f31161016f5780634f6ccce71161013e5780634f6ccce7146103eb5780635437988d146104285780636352211e1461045157806370a082311461048e576101cd565b80632b7ac3f3146103315780632f745c591461035c578063322bb1161461039957806342842e0e146103c2576101cd565b8063095ea7b3116101ab578063095ea7b314610277578063126dbe43146102a057806318160ddd146102dd57806323b872dd14610308576101cd565b806301ffc9a7146101d257806306fdde031461020f578063081812fc1461023a575b600080fd5b3480156101de57600080fd5b506101f960048036038101906101f491906139db565b610755565b6040516102069190613a23565b60405180910390f35b34801561021b57600080fd5b50610224610767565b6040516102319190613ace565b60405180910390f35b34801561024657600080fd5b50610261600480360381019061025c9190613b26565b6107f9565b60405161026e9190613b94565b60405180910390f35b34801561028357600080fd5b5061029e60048036038101906102999190613bdb565b610815565b005b3480156102ac57600080fd5b506102c760048036038101906102c29190613b26565b61082b565b6040516102d49190613de9565b60405180910390f35b3480156102e957600080fd5b506102f2610bbf565b6040516102ff9190613e1a565b60405180910390f35b34801561031457600080fd5b5061032f600480360381019061032a9190613e35565b610bcc565b005b34801561033d57600080fd5b50610346610cce565b6040516103539190613b94565b60405180910390f35b34801561036857600080fd5b50610383600480360381019061037e9190613bdb565b610cf4565b6040516103909190613e1a565b60405180910390f35b3480156103a557600080fd5b506103c060048036038101906103bb9190613eb4565b610d9d565b005b3480156103ce57600080fd5b506103e960048036038101906103e49190613e35565b6111b6565b005b3480156103f757600080fd5b50610412600480360381019061040d9190613b26565b6111d6565b60405161041f9190613e1a565b60405180910390f35b34801561043457600080fd5b5061044f600480360381019061044a9190613ef4565b61124c565b005b34801561045d57600080fd5b5061047860048036038101906104739190613b26565b61134a565b6040516104859190613b94565b60405180910390f35b34801561049a57600080fd5b506104b560048036038101906104b09190613ef4565b61135c565b6040516104c29190613e1a565b60405180910390f35b3480156104d757600080fd5b506104e0611416565b005b3480156104ee57600080fd5b506104f761142a565b6040516105049190613e1a565b60405180910390f35b34801561051957600080fd5b50610522611430565b60405161052f9190613b94565b60405180910390f35b34801561054457600080fd5b5061054d61145a565b60405161055a9190613ace565b60405180910390f35b34801561056f57600080fd5b5061058a60048036038101906105859190613f21565b6114ec565b005b34801561059857600080fd5b506105a1611502565b6040516105ae9190613e1a565b60405180910390f35b3480156105c357600080fd5b506105de60048036038101906105d99190613b26565b611508565b005b3480156105ec57600080fd5b506105f5611551565b6040516106029190614112565b60405180910390f35b34801561061757600080fd5b50610632600480360381019061062d9190614269565b611a4c565b005b34801561064057600080fd5b5061065b60048036038101906106569190613b26565b611a71565b6040516106689190613ace565b60405180910390f35b61068b600480360381019061068691906142ec565b611ada565b005b6106a760048036038101906106a291906143cd565b611d73565b005b3480156106b557600080fd5b506106d060048036038101906106cb91906144ca565b612158565b6040516106dd9190613a23565b60405180910390f35b3480156106f257600080fd5b5061070d60048036038101906107089190613ef4565b6121ec565b005b34801561071b57600080fd5b5061073660048036038101906107319190613b26565b612272565b60405161074c9a99989796959493929190614519565b60405180910390f35b600061076082612513565b9050919050565b60606000805461077690614600565b80601f01602080910402602001604051908101604052809291908181526020018280546107a290614600565b80156107ef5780601f106107c4576101008083540402835291602001916107ef565b820191906000526020600020905b8154815290600101906020018083116107d257829003601f168201915b5050505050905090565b60006108048261258d565b5061080e82612615565b9050919050565b6108278282610822612652565b61265a565b5050565b6108336138f4565b6000600d6000848152602001908152602001600020600201805461085690614600565b905011610898576040517f08c379a000000000000000000000000000000000000000000000000000000000815260040161088f906146a3565b60405180910390fd5b600d600083815260200190815260200160002060405180610140016040529081600082015481526020016001820160009054906101000a900473ffffffffffffffffffffffffffffffffffffffff1673ffffffffffffffffffffffffffffffffffffffff1673ffffffffffffffffffffffffffffffffffffffff16815260200160028201805461092790614600565b80601f016020809104026020016040519081016040528092919081815260200182805461095390614600565b80156109a05780601f10610975576101008083540402835291602001916109a0565b820191906000526020600020905b81548152906001019060200180831161098357829003601f168201915b505050505081526020016003820180546109b990614600565b80601f01602080910402602001604051908101604052809291908181526020018280546109e590614600565b8015610a325780601f10610a0757610100808354040283529160200191610a32565b820191906000526020600020905b815481529060010190602001808311610a1557829003601f168201915b50505050508152602001600482018054610a4b90614600565b80601f0160208091040260200160405190810160405280929190818152602001828054610a7790614600565b8015610ac45780601f10610a9957610100808354040283529160200191610ac4565b820191906000526020600020905b815481529060010190602001808311610aa757829003601f168201915b50505050508152602001600582018054610add90614600565b80601f0160208091040260200160405190810160405280929190818152602001828054610b0990614600565b8015610b565780601f10610b2b57610100808354040283529160200191610b56565b820191906000526020600020905b815481529060010190602001808311610b3957829003601f168201915b505050505081526020016006820154815260200160078201548152602001600882015481526020016009820160009054906101000a900460ff166002811115610ba257610ba1613c83565b5b6002811115610bb457610bb3613c83565b5b815250509050919050565b6000600880549050905090565b600073ffffffffffffffffffffffffffffffffffffffff168273ffffffffffffffffffffffffffffffffffffffff1603610c3e5760006040517f64a0ae92000000000000000000000000000000000000000000000000000000008152600401610c359190613b94565b60405180910390fd5b6000610c528383610c4d612652565b61266c565b90508373ffffffffffffffffffffffffffffffffffffffff168173ffffffffffffffffffffffffffffffffffffffff1614610cc8578382826040517f64283d7b000000000000000000000000000000000000000000000000000000008152600401610cbf939291906146c3565b60405180910390fd5b50505050565b600e60009054906101000a900473ffffffffffffffffffffffffffffffffffffffff1681565b6000610cff8361135c565b8210610d445782826040517fa57d13dc000000000000000000000000000000000000000000000000000000008152600401610d3b9291906146fa565b60405180910390fd5b600660008473ffffffffffffffffffffffffffffffffffffffff1673ffffffffffffffffffffffffffffffffffffffff168152602001908152602001600020600083815260200190815260200160002054905092915050565b600e60009054906101000a900473ffffffffffffffffffffffffffffffffffffffff1673ffffffffffffffffffffffffffffffffffffffff163373ffffffffffffffffffffffffffffffffffffffff1614610e2d576040517f08c379a0000000000000000000000000000000000000000000000000000000008152600401610e2490614795565b60405180910390fd5b610e35612789565b6000600d6000848152602001908152602001600020905060006002811115610e6057610e5f613c83565b5b8160090160009054906101000a900460ff166002811115610e8457610e83613c83565b5b14610ec4576040517f08c379a0000000000000000000000000000000000000000000000000000000008152600401610ebb90614827565b60405180910390fd5b6000816002018054610ed590614600565b905011610f17576040517f08c379a0000000000000000000000000000000000000000000000000000000008152600401610f0e906146a3565b60405180910390fd5b811561107b5760018160090160006101000a81548160ff02191690836002811115610f4557610f44613c83565b5b0217905550610f788160010160009054906101000a900473ffffffffffffffffffffffffffffffffffffffff16846127cf565b6000600e60009054906101000a900473ffffffffffffffffffffffffffffffffffffffff1673ffffffffffffffffffffffffffffffffffffffff16600f54604051610fc290614878565b60006040518083038185875af1925050503d8060008114610fff576040519150601f19603f3d011682016040523d82523d6000602084013e611004565b606091505b5050905080611048576040517f08c379a000000000000000000000000000000000000000000000000000000000815260040161103f906148d9565b60405180910390fd5b837f251541517e7fdfbb2cb6b8c70a4fdaa5055dd01495174bcb394e5c6934ae634160405160405180910390a2506111a9565b60028160090160006101000a81548160ff021916908360028111156110a3576110a2613c83565b5b021790555060008160010160009054906101000a900473ffffffffffffffffffffffffffffffffffffffff1673ffffffffffffffffffffffffffffffffffffffff16600f546040516110f490614878565b60006040518083038185875af1925050503d8060008114611131576040519150601f19603f3d011682016040523d82523d6000602084013e611136565b606091505b505090508061117a576040517f08c379a000000000000000000000000000000000000000000000000000000000815260040161117190614945565b60405180910390fd5b837f2633babb73bc64ab969a0264c45b1cd034b86f5b1890c80ba6b1287f248df2a560405160405180910390a2505b506111b26128c8565b5050565b6111d183838360405180602001604052806000815250611a4c565b505050565b60006111e0610bbf565b8210611226576000826040517fa57d13dc00000000000000000000000000000000000000000000000000000000815260040161121d9291906146fa565b60405180910390fd5b6008828154811061123a57611239614965565b5b90600052602060002001549050919050565b6112546128d2565b600073ffffffffffffffffffffffffffffffffffffffff168173ffffffffffffffffffffffffffffffffffffffff16036112c3576040517f08c379a00000000000000000000000000000000000000000000000000000000081526004016112ba90614a06565b60405180910390fd5b80600e60006101000a81548173ffffffffffffffffffffffffffffffffffffffff021916908373ffffffffffffffffffffffffffffffffffffffff1602179055508073ffffffffffffffffffffffffffffffffffffffff167fd24015cc99cc1700cafca3042840a1d8ac1e3964fd2e0e37ea29c654056ee32760405160405180910390a250565b60006113558261258d565b9050919050565b60008073ffffffffffffffffffffffffffffffffffffffff168273ffffffffffffffffffffffffffffffffffffffff16036113cf5760006040517f89c62b640000000000000000000000000000000000000000000000000000000081526004016113c69190613b94565b60405180910390fd5b600360008373ffffffffffffffffffffffffffffffffffffffff1673ffffffffffffffffffffffffffffffffffffffff168152602001908152602001600020549050919050565b61141e6128d2565b6114286000612959565b565b600c5481565b6000600a60009054906101000a900473ffffffffffffffffffffffffffffffffffffffff16905090565b60606001805461146990614600565b80601f016020809104026020016040519081016040528092919081815260200182805461149590614600565b80156114e25780601f106114b7576101008083540402835291602001916114e2565b820191906000526020600020905b8154815290600101906020018083116114c557829003601f168201915b5050505050905090565b6114fe6114f7612652565b8383612a1f565b5050565b600f5481565b6115106128d2565b80600f819055507fb28e93ba12cfe6381facd1fb8bbd27a52d11b825c1801eb744c14f070365486a816040516115469190613e1a565b60405180910390a150565b6060600080600190505b600c548110156115ff576000600d6000838152602001908152602001600020600201805461158890614600565b90501180156115de5750600160028111156115a6576115a5613c83565b5b600d600083815260200190815260200160002060090160009054906101000a900460ff1660028111156115dc576115db613c83565b5b145b156115f25781806115ee90614a55565b9250505b808060010191505061155b565b5060008167ffffffffffffffff81111561161c5761161b61413e565b5b60405190808252806020026020018201604052801561165557816020015b6116426138f4565b81526020019060019003908161163a5790505b509050600080600190505b600c54811015611a42576000600d6000838152602001908152602001600020600201805461168d90614600565b90501180156116e35750600160028111156116ab576116aa613c83565b5b600d600083815260200190815260200160002060090160009054906101000a900460ff1660028111156116e1576116e0613c83565b5b145b15611a3557600d600082815260200190815260200160002060405180610140016040529081600082015481526020016001820160009054906101000a900473ffffffffffffffffffffffffffffffffffffffff1673ffffffffffffffffffffffffffffffffffffffff1673ffffffffffffffffffffffffffffffffffffffff16815260200160028201805461177790614600565b80601f01602080910402602001604051908101604052809291908181526020018280546117a390614600565b80156117f05780601f106117c5576101008083540402835291602001916117f0565b820191906000526020600020905b8154815290600101906020018083116117d357829003601f168201915b5050505050815260200160038201805461180990614600565b80601f016020809104026020016040519081016040528092919081815260200182805461183590614600565b80156118825780601f1061185757610100808354040283529160200191611882565b820191906000526020600020905b81548152906001019060200180831161186557829003601f168201915b5050505050815260200160048201805461189b90614600565b80601f01602080910402602001604051908101604052809291908181526020018280546118c790614600565b80156119145780601f106118e957610100808354040283529160200191611914565b820191906000526020600020905b8154815290600101906020018083116118f757829003601f168201915b5050505050815260200160058201805461192d90614600565b80601f016020809104026020016040519081016040528092919081815260200182805461195990614600565b80156119a65780601f1061197b576101008083540402835291602001916119a6565b820191906000526020600020905b81548152906001019060200180831161198957829003601f168201915b505050505081526020016006820154815260200160078201548152602001600882015481526020016009820160009054906101000a900460ff1660028111156119f2576119f1613c83565b5b6002811115611a0457611a03613c83565b5b81525050838381518110611a1b57611a1a614965565b5b60200260200101819052508180611a3190614a55565b9250505b8080600101915050611660565b5081935050505090565b611a57848484610bcc565b611a6b611a62612652565b85858585612b8e565b50505050565b6060611a7c8261258d565b506000611a87612d3f565b90506000815111611aa75760405180602001604052806000815250611ad2565b80611ab184612d56565b604051602001611ac2929190614ad9565b6040516020818303038152906040525b915050919050565b611ae2612789565b6000600d600084815260200190815260200160002090506000816002018054611b0a90614600565b905011611b4c576040517f08c379a0000000000000000000000000000000000000000000000000000000008152600401611b43906146a3565b60405180910390fd5b60016002811115611b6057611b5f613c83565b5b8160090160009054906101000a900460ff166002811115611b8457611b83613c83565b5b14611bc4576040517f08c379a0000000000000000000000000000000000000000000000000000000008152600401611bbb90614b6f565b60405180910390fd5b60008211611c07576040517f08c379a0000000000000000000000000000000000000000000000000000000008152600401611bfe90614c01565b60405180910390fd5b8060080154821115611c4e576040517f08c379a0000000000000000000000000000000000000000000000000000000008152600401611c4590614c93565b60405180910390fd5b6000816007015483611c609190614cb3565b9050803414611ca4576040517f08c379a0000000000000000000000000000000000000000000000000000000008152600401611c9b90614d67565b60405180910390fd5b6000611caf8561134a565b90508073ffffffffffffffffffffffffffffffffffffffff166108fc839081150290604051600060405180830381858888f19350505050158015611cf7573d6000803e3d6000fd5b5083836008016000828254611d0c9190614d87565b925050819055503373ffffffffffffffffffffffffffffffffffffffff16857f80c4f3b1904f05c8c1907de32bb02dd69685a584a2e41a75414ace634b4292f78685604051611d5c929190614dbb565b60405180910390a3505050611d6f6128c8565b5050565b611d7b612789565b600f543414611dbf576040517f08c379a0000000000000000000000000000000000000000000000000000000008152600401611db690614e56565b60405180910390fd5b60008211611e02576040517f08c379a0000000000000000000000000000000000000000000000000000000008152600401611df990614ee8565b60405180910390fd5b60008111611e45576040517f08c379a0000000000000000000000000000000000000000000000000000000008152600401611e3c90614f7a565b60405180910390fd5b6000865111611e89576040517f08c379a0000000000000000000000000000000000000000000000000000000008152600401611e809061500c565b60405180910390fd5b6000855111611ecd576040517f08c379a0000000000000000000000000000000000000000000000000000000008152600401611ec49061509e565b60405180910390fd5b6000845111611f11576040517f08c379a0000000000000000000000000000000000000000000000000000000008152600401611f0890615130565b60405180910390fd5b6000835111611f55576040517f08c379a0000000000000000000000000000000000000000000000000000000008152600401611f4c906151c2565b60405180910390fd5b6000600c6000815480929190611f6a90614a55565b9190505590506040518061014001604052808281526020013373ffffffffffffffffffffffffffffffffffffffff16815260200188815260200187815260200186815260200185815260200184815260200183815260200184815260200160006002811115611fdc57611fdb613c83565b5b815250600d60008381526020019081526020016000206000820151816000015560208201518160010160006101000a81548173ffffffffffffffffffffffffffffffffffffffff021916908373ffffffffffffffffffffffffffffffffffffffff1602179055506040820151816002019081612058919061538e565b50606082015181600301908161206e919061538e565b506080820151816004019081612084919061538e565b5060a082015181600501908161209a919061538e565b5060c0820151816006015560e0820151816007015561010082015181600801556101208201518160090160006101000a81548160ff021916908360028111156120e6576120e5613c83565b5b02179055509050503373ffffffffffffffffffffffffffffffffffffffff16817f3c05fd90fdc758a5f8597d40a1a7b7b788efde552e50389fc2222d2eed6538dd89898989898960405161213f96959493929190615460565b60405180910390a3506121506128c8565b505050505050565b6000600560008473ffffffffffffffffffffffffffffffffffffffff1673ffffffffffffffffffffffffffffffffffffffff16815260200190815260200160002060008373ffffffffffffffffffffffffffffffffffffffff1673ffffffffffffffffffffffffffffffffffffffff16815260200190815260200160002060009054906101000a900460ff16905092915050565b6121f46128d2565b600073ffffffffffffffffffffffffffffffffffffffff168173ffffffffffffffffffffffffffffffffffffffff16036122665760006040517f1e4fbdf700000000000000000000000000000000000000000000000000000000815260040161225d9190613b94565b60405180910390fd5b61226f81612959565b50565b600d6020528060005260406000206000915090508060000154908060010160009054906101000a900473ffffffffffffffffffffffffffffffffffffffff16908060020180546122c190614600565b80601f01602080910402602001604051908101604052809291908181526020018280546122ed90614600565b801561233a5780601f1061230f5761010080835404028352916020019161233a565b820191906000526020600020905b81548152906001019060200180831161231d57829003601f168201915b50505050509080600301805461234f90614600565b80601f016020809104026020016040519081016040528092919081815260200182805461237b90614600565b80156123c85780601f1061239d576101008083540402835291602001916123c8565b820191906000526020600020905b8154815290600101906020018083116123ab57829003601f168201915b5050505050908060040180546123dd90614600565b80601f016020809104026020016040519081016040528092919081815260200182805461240990614600565b80156124565780601f1061242b57610100808354040283529160200191612456565b820191906000526020600020905b81548152906001019060200180831161243957829003601f168201915b50505050509080600501805461246b90614600565b80601f016020809104026020016040519081016040528092919081815260200182805461249790614600565b80156124e45780601f106124b9576101008083540402835291602001916124e4565b820191906000526020600020905b8154815290600101906020018083116124c757829003601f168201915b5050505050908060060154908060070154908060080154908060090160009054906101000a900460ff1690508a565b60007f780e9d63000000000000000000000000000000000000000000000000000000007bffffffffffffffffffffffffffffffffffffffffffffffffffffffff1916827bffffffffffffffffffffffffffffffffffffffffffffffffffffffff19161480612586575061258582612e24565b5b9050919050565b60008061259983612f06565b9050600073ffffffffffffffffffffffffffffffffffffffff168173ffffffffffffffffffffffffffffffffffffffff160361260c57826040517f7e2732890000000000000000000000000000000000000000000000000000000081526004016126039190613e1a565b60405180910390fd5b80915050919050565b60006004600083815260200190815260200160002060009054906101000a900473ffffffffffffffffffffffffffffffffffffffff169050919050565b600033905090565b6126678383836001612f43565b505050565b60008061267a858585613108565b9050600073ffffffffffffffffffffffffffffffffffffffff168173ffffffffffffffffffffffffffffffffffffffff16036126be576126b984613322565b6126fd565b8473ffffffffffffffffffffffffffffffffffffffff168173ffffffffffffffffffffffffffffffffffffffff16146126fc576126fb818561336b565b5b5b600073ffffffffffffffffffffffffffffffffffffffff168573ffffffffffffffffffffffffffffffffffffffff160361273f5761273a84613456565b61277e565b8473ffffffffffffffffffffffffffffffffffffffff168173ffffffffffffffffffffffffffffffffffffffff161461277d5761277c8585613527565b5b5b809150509392505050565b6002600b54036127c5576040517f3ee5aeb500000000000000000000000000000000000000000000000000000000815260040160405180910390fd5b6002600b81905550565b600073ffffffffffffffffffffffffffffffffffffffff168273ffffffffffffffffffffffffffffffffffffffff16036128415760006040517f64a0ae920000000000000000000000000000000000000000000000000000000081526004016128389190613b94565b60405180910390fd5b600061284f8383600061266c565b9050600073ffffffffffffffffffffffffffffffffffffffff168173ffffffffffffffffffffffffffffffffffffffff16146128c35760006040517f73c6ac6e0000000000000000000000000000000000000000000000000000000081526004016128ba9190613b94565b60405180910390fd5b505050565b6001600b81905550565b6128da612652565b73ffffffffffffffffffffffffffffffffffffffff166128f8611430565b73ffffffffffffffffffffffffffffffffffffffff16146129575761291b612652565b6040517f118cdaa700000000000000000000000000000000000000000000000000000000815260040161294e9190613b94565b60405180910390fd5b565b6000600a60009054906101000a900473ffffffffffffffffffffffffffffffffffffffff16905081600a60006101000a81548173ffffffffffffffffffffffffffffffffffffffff021916908373ffffffffffffffffffffffffffffffffffffffff1602179055508173ffffffffffffffffffffffffffffffffffffffff168173ffffffffffffffffffffffffffffffffffffffff167f8be0079c531659141344cd1fd0a4f28419497f9722a3daafe3b4186f6b6457e060405160405180910390a35050565b600073ffffffffffffffffffffffffffffffffffffffff168273ffffffffffffffffffffffffffffffffffffffff1603612a9057816040517f5b08ba18000000000000000000000000000000000000000000000000000000008152600401612a879190613b94565b60405180910390fd5b80600560008573ffffffffffffffffffffffffffffffffffffffff1673ffffffffffffffffffffffffffffffffffffffff16815260200190815260200160002060008473ffffffffffffffffffffffffffffffffffffffff1673ffffffffffffffffffffffffffffffffffffffff16815260200190815260200160002060006101000a81548160ff0219169083151502179055508173ffffffffffffffffffffffffffffffffffffffff168373ffffffffffffffffffffffffffffffffffffffff167f17307eab39ab6107e8899845ad3d59bd9653f200f220920489ca2b5937696c3183604051612b819190613a23565b60405180910390a3505050565b60008373ffffffffffffffffffffffffffffffffffffffff163b1115612d38578273ffffffffffffffffffffffffffffffffffffffff1663150b7a02868685856040518563ffffffff1660e01b8152600401612bed9493929190615532565b6020604051808303816000875af1925050508015612c2957506040513d601f19601f82011682018060405250810190612c269190615593565b60015b612cad573d8060008114612c59576040519150601f19603f3d011682016040523d82523d6000602084013e612c5e565b606091505b506000815103612ca557836040517f64a0ae92000000000000000000000000000000000000000000000000000000008152600401612c9c9190613b94565b60405180910390fd5b805181602001fd5b63150b7a0260e01b7bffffffffffffffffffffffffffffffffffffffffffffffffffffffff1916817bffffffffffffffffffffffffffffffffffffffffffffffffffffffff191614612d3657836040517f64a0ae92000000000000000000000000000000000000000000000000000000008152600401612d2d9190613b94565b60405180910390fd5b505b5050505050565b606060405180602001604052806000815250905090565b606060006001612d65846135b2565b01905060008167ffffffffffffffff811115612d8457612d8361413e565b5b6040519080825280601f01601f191660200182016040528015612db65781602001600182028036833780820191505090505b509050600082602001820190505b600115612e19578080600190039150507f3031323334353637383961626364656600000000000000000000000000000000600a86061a8153600a8581612e0d57612e0c6155c0565b5b04945060008503612dc4575b819350505050919050565b60007f80ac58cd000000000000000000000000000000000000000000000000000000007bffffffffffffffffffffffffffffffffffffffffffffffffffffffff1916827bffffffffffffffffffffffffffffffffffffffffffffffffffffffff19161480612eef57507f5b5e139f000000000000000000000000000000000000000000000000000000007bffffffffffffffffffffffffffffffffffffffffffffffffffffffff1916827bffffffffffffffffffffffffffffffffffffffffffffffffffffffff1916145b80612eff5750612efe82613705565b5b9050919050565b60006002600083815260200190815260200160002060009054906101000a900473ffffffffffffffffffffffffffffffffffffffff169050919050565b8080612f7c5750600073ffffffffffffffffffffffffffffffffffffffff168273ffffffffffffffffffffffffffffffffffffffff1614155b156130b0576000612f8c8461258d565b9050600073ffffffffffffffffffffffffffffffffffffffff168373ffffffffffffffffffffffffffffffffffffffff1614158015612ff757508273ffffffffffffffffffffffffffffffffffffffff168173ffffffffffffffffffffffffffffffffffffffff1614155b801561300a57506130088184612158565b155b1561304c57826040517fa9fbf51f0000000000000000000000000000000000000000000000000000000081526004016130439190613b94565b60405180910390fd5b81156130ae57838573ffffffffffffffffffffffffffffffffffffffff168273ffffffffffffffffffffffffffffffffffffffff167f8c5be1e5ebec7d5bd14f71427d1e84f3dd0314c0f7b2291e5b200ac8c7c3b92560405160405180910390a45b505b836004600085815260200190815260200160002060006101000a81548173ffffffffffffffffffffffffffffffffffffffff021916908373ffffffffffffffffffffffffffffffffffffffff16021790555050505050565b60008061311484612f06565b9050600073ffffffffffffffffffffffffffffffffffffffff168373ffffffffffffffffffffffffffffffffffffffff16146131565761315581848661376f565b5b600073ffffffffffffffffffffffffffffffffffffffff168173ffffffffffffffffffffffffffffffffffffffff16146131e757613198600085600080612f43565b6001600360008373ffffffffffffffffffffffffffffffffffffffff1673ffffffffffffffffffffffffffffffffffffffff168152602001908152602001600020600082825403925050819055505b600073ffffffffffffffffffffffffffffffffffffffff168573ffffffffffffffffffffffffffffffffffffffff161461326a576001600360008773ffffffffffffffffffffffffffffffffffffffff1673ffffffffffffffffffffffffffffffffffffffff168152602001908152602001600020600082825401925050819055505b846002600086815260200190815260200160002060006101000a81548173ffffffffffffffffffffffffffffffffffffffff021916908373ffffffffffffffffffffffffffffffffffffffff160217905550838573ffffffffffffffffffffffffffffffffffffffff168273ffffffffffffffffffffffffffffffffffffffff167fddf252ad1be2c89b69c2b068fc378daa952ba7f163c4a11628f55a4df523b3ef60405160405180910390a4809150509392505050565b6008805490506009600083815260200190815260200160002081905550600881908060018154018082558091505060019003906000526020600020016000909190919091505550565b60006133768361135c565b90506000600760008481526020019081526020016000205490506000600660008673ffffffffffffffffffffffffffffffffffffffff1673ffffffffffffffffffffffffffffffffffffffff16815260200190815260200160002090508282146134225760008160008581526020019081526020016000205490508082600085815260200190815260200160002081905550826007600083815260200190815260200160002081905550505b6007600085815260200190815260200160002060009055806000848152602001908152602001600020600090555050505050565b6000600160088054905061346a9190614d87565b905060006009600084815260200190815260200160002054905060006008838154811061349a57613499614965565b5b9060005260206000200154905080600883815481106134bc576134bb614965565b5b90600052602060002001819055508160096000838152602001908152602001600020819055506009600085815260200190815260200160002060009055600880548061350b5761350a6155ef565b5b6001900381819060005260206000200160009055905550505050565b600060016135348461135c565b61353e9190614d87565b905081600660008573ffffffffffffffffffffffffffffffffffffffff1673ffffffffffffffffffffffffffffffffffffffff168152602001908152602001600020600083815260200190815260200160002081905550806007600084815260200190815260200160002081905550505050565b600080600090507a184f03e93ff9f4daa797ed6e38ed64bf6a1f0100000000000000008310613610577a184f03e93ff9f4daa797ed6e38ed64bf6a1f0100000000000000008381613606576136056155c0565b5b0492506040810190505b6d04ee2d6d415b85acef8100000000831061364d576d04ee2d6d415b85acef81000000008381613643576136426155c0565b5b0492506020810190505b662386f26fc10000831061367c57662386f26fc100008381613672576136716155c0565b5b0492506010810190505b6305f5e10083106136a5576305f5e100838161369b5761369a6155c0565b5b0492506008810190505b61271083106136ca5761271083816136c0576136bf6155c0565b5b0492506004810190505b606483106136ed57606483816136e3576136e26155c0565b5b0492506002810190505b600a83106136fc576001810190505b80915050919050565b60007f01ffc9a7000000000000000000000000000000000000000000000000000000007bffffffffffffffffffffffffffffffffffffffffffffffffffffffff1916827bffffffffffffffffffffffffffffffffffffffffffffffffffffffff1916149050919050565b61377a838383613833565b61382e57600073ffffffffffffffffffffffffffffffffffffffff168373ffffffffffffffffffffffffffffffffffffffff16036137ef57806040517f7e2732890000000000000000000000000000000000000000000000000000000081526004016137e69190613e1a565b60405180910390fd5b81816040517f177e802f0000000000000000000000000000000000000000000000000000000081526004016138259291906146fa565b60405180910390fd5b505050565b60008073ffffffffffffffffffffffffffffffffffffffff168373ffffffffffffffffffffffffffffffffffffffff16141580156138eb57508273ffffffffffffffffffffffffffffffffffffffff168473ffffffffffffffffffffffffffffffffffffffff1614806138ac57506138ab8484612158565b5b806138ea57508273ffffffffffffffffffffffffffffffffffffffff166138d283612615565b73ffffffffffffffffffffffffffffffffffffffff16145b5b90509392505050565b60405180610140016040528060008152602001600073ffffffffffffffffffffffffffffffffffffffff168152602001606081526020016060815260200160608152602001606081526020016000815260200160008152602001600081526020016000600281111561396957613968613c83565b5b81525090565b6000604051905090565b600080fd5b600080fd5b60007fffffffff0000000000000000000000000000000000000000000000000000000082169050919050565b6139b881613983565b81146139c357600080fd5b50565b6000813590506139d5816139af565b92915050565b6000602082840312156139f1576139f0613979565b5b60006139ff848285016139c6565b91505092915050565b60008115159050919050565b613a1d81613a08565b82525050565b6000602082019050613a386000830184613a14565b92915050565b600081519050919050565b600082825260208201905092915050565b60005b83811015613a78578082015181840152602081019050613a5d565b60008484015250505050565b6000601f19601f8301169050919050565b6000613aa082613a3e565b613aaa8185613a49565b9350613aba818560208601613a5a565b613ac381613a84565b840191505092915050565b60006020820190508181036000830152613ae88184613a95565b905092915050565b6000819050919050565b613b0381613af0565b8114613b0e57600080fd5b50565b600081359050613b2081613afa565b92915050565b600060208284031215613b3c57613b3b613979565b5b6000613b4a84828501613b11565b91505092915050565b600073ffffffffffffffffffffffffffffffffffffffff82169050919050565b6000613b7e82613b53565b9050919050565b613b8e81613b73565b82525050565b6000602082019050613ba96000830184613b85565b92915050565b613bb881613b73565b8114613bc357600080fd5b50565b600081359050613bd581613baf565b92915050565b60008060408385031215613bf257613bf1613979565b5b6000613c0085828601613bc6565b9250506020613c1185828601613b11565b9150509250929050565b613c2481613af0565b82525050565b613c3381613b73565b82525050565b600082825260208201905092915050565b6000613c5582613a3e565b613c5f8185613c39565b9350613c6f818560208601613a5a565b613c7881613a84565b840191505092915050565b7f4e487b7100000000000000000000000000000000000000000000000000000000600052602160045260246000fd5b60038110613cc357613cc2613c83565b5b50565b6000819050613cd482613cb2565b919050565b6000613ce482613cc6565b9050919050565b613cf481613cd9565b82525050565b600061014083016000830151613d136000860182613c1b565b506020830151613d266020860182613c2a565b5060408301518482036040860152613d3e8282613c4a565b91505060608301518482036060860152613d588282613c4a565b91505060808301518482036080860152613d728282613c4a565b91505060a083015184820360a0860152613d8c8282613c4a565b91505060c0830151613da160c0860182613c1b565b5060e0830151613db460e0860182613c1b565b50610100830151613dc9610100860182613c1b565b50610120830151613dde610120860182613ceb565b508091505092915050565b60006020820190508181036000830152613e038184613cfa565b905092915050565b613e1481613af0565b82525050565b6000602082019050613e2f6000830184613e0b565b92915050565b600080600060608486031215613e4e57613e4d613979565b5b6000613e5c86828701613bc6565b9350506020613e6d86828701613bc6565b9250506040613e7e86828701613b11565b9150509250925092565b613e9181613a08565b8114613e9c57600080fd5b50565b600081359050613eae81613e88565b92915050565b60008060408385031215613ecb57613eca613979565b5b6000613ed985828601613b11565b9250506020613eea85828601613e9f565b9150509250929050565b600060208284031215613f0a57613f09613979565b5b6000613f1884828501613bc6565b91505092915050565b60008060408385031215613f3857613f37613979565b5b6000613f4685828601613bc6565b9250506020613f5785828601613e9f565b9150509250929050565b600081519050919050565b600082825260208201905092915050565b6000819050602082019050919050565b600061014083016000830151613fa66000860182613c1b565b506020830151613fb96020860182613c2a565b5060408301518482036040860152613fd18282613c4a565b91505060608301518482036060860152613feb8282613c4a565b915050608083015184820360808601526140058282613c4a565b91505060a083015184820360a086015261401f8282613c4a565b91505060c083015161403460c0860182613c1b565b5060e083015161404760e0860182613c1b565b5061010083015161405c610100860182613c1b565b50610120830151614071610120860182613ceb565b508091505092915050565b60006140888383613f8d565b905092915050565b6000602082019050919050565b60006140a882613f61565b6140b28185613f6c565b9350836020820285016140c485613f7d565b8060005b8581101561410057848403895281516140e1858261407c565b94506140ec83614090565b925060208a019950506001810190506140c8565b50829750879550505050505092915050565b6000602082019050818103600083015261412c818461409d565b905092915050565b600080fd5b600080fd5b7f4e487b7100000000000000000000000000000000000000000000000000000000600052604160045260246000fd5b61417682613a84565b810181811067ffffffffffffffff821117156141955761419461413e565b5b80604052505050565b60006141a861396f565b90506141b4828261416d565b919050565b600067ffffffffffffffff8211156141d4576141d361413e565b5b6141dd82613a84565b9050602081019050919050565b82818337600083830152505050565b600061420c614207846141b9565b61419e565b90508281526020810184848401111561422857614227614139565b5b6142338482856141ea565b509392505050565b600082601f8301126142505761424f614134565b5b81356142608482602086016141f9565b91505092915050565b6000806000806080858703121561428357614282613979565b5b600061429187828801613bc6565b94505060206142a287828801613bc6565b93505060406142b387828801613b11565b925050606085013567ffffffffffffffff8111156142d4576142d361397e565b5b6142e08782880161423b565b91505092959194509250565b6000806040838503121561430357614302613979565b5b600061431185828601613b11565b925050602061432285828601613b11565b9150509250929050565b600067ffffffffffffffff8211156143475761434661413e565b5b61435082613a84565b9050602081019050919050565b600061437061436b8461432c565b61419e565b90508281526020810184848401111561438c5761438b614139565b5b6143978482856141ea565b509392505050565b600082601f8301126143b4576143b3614134565b5b81356143c484826020860161435d565b91505092915050565b60008060008060008060c087890312156143ea576143e9613979565b5b600087013567ffffffffffffffff8111156144085761440761397e565b5b61441489828a0161439f565b965050602087013567ffffffffffffffff8111156144355761443461397e565b5b61444189828a0161439f565b955050604087013567ffffffffffffffff8111156144625761446161397e565b5b61446e89828a0161439f565b945050606087013567ffffffffffffffff81111561448f5761448e61397e565b5b61449b89828a0161439f565b93505060806144ac89828a01613b11565b92505060a06144bd89828a01613b11565b9150509295509295509295565b600080604083850312156144e1576144e0613979565b5b60006144ef85828601613bc6565b925050602061450085828601613bc6565b9150509250929050565b61451381613cd9565b82525050565b60006101408201905061452f600083018d613e0b565b61453c602083018c613b85565b818103604083015261454e818b613a95565b90508181036060830152614562818a613a95565b905081810360808301526145768189613a95565b905081810360a083015261458a8188613a95565b905061459960c0830187613e0b565b6145a660e0830186613e0b565b6145b4610100830185613e0b565b6145c261012083018461450a565b9b9a5050505050505050505050565b7f4e487b7100000000000000000000000000000000000000000000000000000000600052602260045260246000fd5b6000600282049050600182168061461857607f821691505b60208210810361462b5761462a6145d1565b5b50919050565b7f4d61726b6574706c6163653a2050726f706572747920646f6573206e6f74206560008201527f7869737400000000000000000000000000000000000000000000000000000000602082015250565b600061468d602483613a49565b915061469882614631565b604082019050919050565b600060208201905081810360008301526146bc81614680565b9050919050565b60006060820190506146d86000830186613b85565b6146e56020830185613e0b565b6146f26040830184613b85565b949350505050565b600060408201905061470f6000830185613b85565b61471c6020830184613e0b565b9392505050565b7f4d61726b6574706c6163653a2043616c6c6572206973206e6f7420746865207660008201527f6572696669657200000000000000000000000000000000000000000000000000602082015250565b600061477f602783613a49565b915061478a82614723565b604082019050919050565b600060208201905081810360008301526147ae81614772565b9050919050565b7f4d61726b6574706c6163653a2050726f7065727479206e6f742070656e64696e60008201527f6720766572696669636174696f6e000000000000000000000000000000000000602082015250565b6000614811602e83613a49565b915061481c826147b5565b604082019050919050565b6000602082019050818103600083015261484081614804565b9050919050565b600081905092915050565b50565b6000614862600083614847565b915061486d82614852565b600082019050919050565b600061488382614855565b9150819050919050565b7f4d61726b6574706c6163653a20466565207472616e73666572206661696c6564600082015250565b60006148c3602083613a49565b91506148ce8261488d565b602082019050919050565b600060208201905081810360008301526148f2816148b6565b9050919050565b7f4d61726b6574706c6163653a2046656520726566756e64206661696c65640000600082015250565b600061492f601e83613a49565b915061493a826148f9565b602082019050919050565b6000602082019050818103600083015261495e81614922565b9050919050565b7f4e487b7100000000000000000000000000000000000000000000000000000000600052603260045260246000fd5b7f4d61726b6574706c6163653a204e65772076657269666965722063616e6e6f7460008201527f20626520746865207a65726f2061646472657373000000000000000000000000602082015250565b60006149f0603483613a49565b91506149fb82614994565b604082019050919050565b60006020820190508181036000830152614a1f816149e3565b9050919050565b7f4e487b7100000000000000000000000000000000000000000000000000000000600052601160045260246000fd5b6000614a6082613af0565b91507fffffffffffffffffffffffffffffffffffffffffffffffffffffffffffffffff8203614a9257614a91614a26565b5b600182019050919050565b600081905092915050565b6000614ab382613a3e565b614abd8185614a9d565b9350614acd818560208601613a5a565b80840191505092915050565b6000614ae58285614aa8565b9150614af18284614aa8565b91508190509392505050565b7f4d61726b6574706c6163653a2050726f7065727479206e6f742076657269666960008201527f6564000000000000000000000000000000000000000000000000000000000000602082015250565b6000614b59602283613a49565b9150614b6482614afd565b604082019050919050565b60006020820190508181036000830152614b8881614b4c565b9050919050565b7f4d61726b6574706c6163653a204672616374696f6e73206d757374206265206760008201527f726561746572207468616e207a65726f00000000000000000000000000000000602082015250565b6000614beb603083613a49565b9150614bf682614b8f565b604082019050919050565b60006020820190508181036000830152614c1a81614bde565b9050919050565b7f4d61726b6574706c6163653a204e6f7420656e6f756768206672616374696f6e60008201527f73206c697374656420666f722073616c65000000000000000000000000000000602082015250565b6000614c7d603183613a49565b9150614c8882614c21565b604082019050919050565b60006020820190508181036000830152614cac81614c70565b9050919050565b6000614cbe82613af0565b9150614cc983613af0565b9250828202614cd781613af0565b91508282048414831517614cee57614ced614a26565b5b5092915050565b7f4d61726b6574706c6163653a20496e636f72726563742045746865722073656e60008201527f7400000000000000000000000000000000000000000000000000000000000000602082015250565b6000614d51602183613a49565b9150614d5c82614cf5565b604082019050919050565b60006020820190508181036000830152614d8081614d44565b9050919050565b6000614d9282613af0565b9150614d9d83613af0565b9250828203905081811115614db557614db4614a26565b5b92915050565b6000604082019050614dd06000830185613e0b565b614ddd6020830184613e0b565b9392505050565b7f4d61726b6574706c6163653a20496e636f72726563742076657269666963617460008201527f696f6e206665652073656e740000000000000000000000000000000000000000602082015250565b6000614e40602c83613a49565b9150614e4b82614de4565b604082019050919050565b60006020820190508181036000830152614e6f81614e33565b9050919050565b7f4d61726b6574706c6163653a20546f74616c206672616374696f6e73206d757360008201527f7420626520706f73697469766500000000000000000000000000000000000000602082015250565b6000614ed2602d83613a49565b9150614edd82614e76565b604082019050919050565b60006020820190508181036000830152614f0181614ec5565b9050919050565b7f4d61726b6574706c6163653a20507269636520706572206672616374696f6e2060008201527f6d75737420626520706f73697469766500000000000000000000000000000000602082015250565b6000614f64603083613a49565b9150614f6f82614f08565b604082019050919050565b60006020820190508181036000830152614f9381614f57565b9050919050565b7f4d61726b6574706c6163653a204e616d652063616e6e6f7420626520656d707460008201527f7900000000000000000000000000000000000000000000000000000000000000602082015250565b6000614ff6602183613a49565b915061500182614f9a565b604082019050919050565b6000602082019050818103600083015261502581614fe9565b9050919050565b7f4d61726b6574706c6163653a20416464726573732063616e6e6f74206265206560008201527f6d70747900000000000000000000000000000000000000000000000000000000602082015250565b6000615088602483613a49565b91506150938261502c565b604082019050919050565b600060208201905081810360008301526150b78161507b565b9050919050565b7f4d61726b6574706c6163653a20496d6167652055524c2063616e6e6f7420626560008201527f20656d7074790000000000000000000000000000000000000000000000000000602082015250565b600061511a602683613a49565b9150615125826150be565b604082019050919050565b600060208201905081810360008301526151498161510d565b9050919050565b7f4d61726b6574706c6163653a20446f63756d656e742055524c2063616e6e6f7460008201527f20626520656d7074790000000000000000000000000000000000000000000000602082015250565b60006151ac602983613a49565b91506151b782615150565b604082019050919050565b600060208201905081810360008301526151db8161519f565b9050919050565b60008190508160005260206000209050919050565b60006020601f8301049050919050565b600082821b905092915050565b6000600883026152447fffffffffffffffffffffffffffffffffffffffffffffffffffffffffffffffff82615207565b61524e8683615207565b95508019841693508086168417925050509392505050565b6000819050919050565b600061528b61528661528184613af0565b615266565b613af0565b9050919050565b6000819050919050565b6152a583615270565b6152b96152b182615292565b848454615214565b825550505050565b600090565b6152ce6152c1565b6152d981848461529c565b505050565b5b818110156152fd576152f26000826152c6565b6001810190506152df565b5050565b601f82111561534257615313816151e2565b61531c846151f7565b8101602085101561532b578190505b61533f615337856151f7565b8301826152de565b50505b505050565b600082821c905092915050565b600061536560001984600802615347565b1980831691505092915050565b600061537e8383615354565b9150826002028217905092915050565b61539782613a3e565b67ffffffffffffffff8111156153b0576153af61413e565b5b6153ba8254614600565b6153c5828285615301565b600060209050601f8311600181146153f857600084156153e6578287015190505b6153f08582615372565b865550615458565b601f198416615406866151e2565b60005b8281101561542e57848901518255600182019150602085019450602081019050615409565b8683101561544b5784890151615447601f891682615354565b8355505b6001600288020188555050505b505050505050565b600060c082019050818103600083015261547a8189613a95565b9050818103602083015261548e8188613a95565b905081810360408301526154a28187613a95565b905081810360608301526154b68186613a95565b90506154c56080830185613e0b565b6154d260a0830184613e0b565b979650505050505050565b600081519050919050565b600082825260208201905092915050565b6000615504826154dd565b61550e81856154e8565b935061551e818560208601613a5a565b61552781613a84565b840191505092915050565b60006080820190506155476000830187613b85565b6155546020830186613b85565b6155616040830185613e0b565b818103606083015261557381846154f9565b905095945050505050565b60008151905061558d816139af565b92915050565b6000602082840312156155a9576155a8613979565b5b60006155b78482850161557e565b91505092915050565b7f4e487b7100000000000000000000000000000000000000000000000000000000600052601260045260246000fd5b7f4e487b7100000000000000000000000000000000000000000000000000000000600052603160045260246000fdfea2646970667358221220f8909ec08646cc7d3ed81fb4539fb246750528b88cf40b7fb8864eee5cb5627464736f6c634300081c0033","opcodes":"PUSH1 0x80 PUSH1 0x40 MSTORE PUSH1 0x1 PUSH1 0xC SSTORE CALLVALUE DUP1 ISZERO PUSH2 0x15 JUMPI PUSH1 0x0 DUP1 REVERT JUMPDEST POP PUSH1 0x40 MLOAD PUSH2 0x5D47 CODESIZE SUB DUP1 PUSH2 0x5D47 DUP4 CODECOPY DUP2 DUP2 ADD PUSH1 0x40 MSTORE DUP2 ADD SWAP1 PUSH2 0x37 SWAP2 SWAP1 PUSH2 0x319 JUMP JUMPDEST CALLER PUSH1 0x40 MLOAD DUP1 PUSH1 0x40 ADD PUSH1 0x40 MSTORE DUP1 PUSH1 0xD DUP2 MSTORE PUSH1 0x20 ADD PUSH32 0x4672616374696F6E616C4E465400000000000000000000000000000000000000 DUP2 MSTORE POP PUSH1 0x40 MLOAD DUP1 PUSH1 0x40 ADD PUSH1 0x40 MSTORE DUP1 PUSH1 0x4 DUP2 MSTORE PUSH1 0x20 ADD PUSH32 0x664E465400000000000000000000000000000000000000000000000000000000 DUP2 MSTORE POP DUP2 PUSH1 0x0 SWAP1 DUP2 PUSH2 0xB3 SWAP2 SWAP1 PUSH2 0x58C JUMP JUMPDEST POP DUP1 PUSH1 0x1 SWAP1 DUP2 PUSH2 0xC3 SWAP2 SWAP1 PUSH2 0x58C JUMP JUMPDEST POP POP POP PUSH1 0x0 PUSH20 0xFFFFFFFFFFFFFFFFFFFFFFFFFFFFFFFFFFFFFFFF AND DUP2 PUSH20 0xFFFFFFFFFFFFFFFFFFFFFFFFFFFFFFFFFFFFFFFF AND SUB PUSH2 0x138 JUMPI PUSH1 0x0 PUSH1 0x40 MLOAD PUSH32 0x1E4FBDF700000000000000000000000000000000000000000000000000000000 DUP2 MSTORE PUSH1 0x4 ADD PUSH2 0x12F SWAP2 SWAP1 PUSH2 0x69F JUMP JUMPDEST PUSH1 0x40 MLOAD DUP1 SWAP2 SUB SWAP1 REVERT JUMPDEST PUSH2 0x147 DUP2 PUSH2 0x218 PUSH1 0x20 SHL PUSH1 0x20 SHR JUMP JUMPDEST POP PUSH1 0x1 PUSH1 0xB DUP2 SWAP1 SSTORE POP CALLER PUSH1 0xE PUSH1 0x0 PUSH2 0x100 EXP DUP2 SLOAD DUP2 PUSH20 0xFFFFFFFFFFFFFFFFFFFFFFFFFFFFFFFFFFFFFFFF MUL NOT AND SWAP1 DUP4 PUSH20 0xFFFFFFFFFFFFFFFFFFFFFFFFFFFFFFFFFFFFFFFF AND MUL OR SWAP1 SSTORE POP DUP1 PUSH1 0xF DUP2 SWAP1 SSTORE POP CALLER PUSH20 0xFFFFFFFFFFFFFFFFFFFFFFFFFFFFFFFFFFFFFFFF AND PUSH32 0xD24015CC99CC1700CAFCA3042840A1D8AC1E3964FD2E0E37EA29C654056EE327 PUSH1 0x40 MLOAD PUSH1 0x40 MLOAD DUP1 SWAP2 SUB SWAP1 LOG2 PUSH32 0xB28E93BA12CFE6381FACD1FB8BBD27A52D11B825C1801EB744C14F070365486A DUP2 PUSH1 0x40 MLOAD PUSH2 0x20A SWAP2 SWAP1 PUSH2 0x6C9 JUMP JUMPDEST PUSH1 0x40 MLOAD DUP1 SWAP2 SUB SWAP1 LOG1 POP PUSH2 0x6E4 JUMP JUMPDEST PUSH1 0x0 PUSH1 0xA PUSH1 0x0 SWAP1 SLOAD SWAP1 PUSH2 0x100 EXP SWAP1 DIV PUSH20 0xFFFFFFFFFFFFFFFFFFFFFFFFFFFFFFFFFFFFFFFF AND SWAP1 POP DUP2 PUSH1 0xA PUSH1 0x0 PUSH2 0x100 EXP DUP2 SLOAD DUP2 PUSH20 0xFFFFFFFFFFFFFFFFFFFFFFFFFFFFFFFFFFFFFFFF MUL NOT AND SWAP1 DUP4 PUSH20 0xFFFFFFFFFFFFFFFFFFFFFFFFFFFFFFFFFFFFFFFF AND MUL OR SWAP1 SSTORE POP DUP2 PUSH20 0xFFFFFFFFFFFFFFFFFFFFFFFFFFFFFFFFFFFFFFFF AND DUP2 PUSH20 0xFFFFFFFFFFFFFFFFFFFFFFFFFFFFFFFFFFFFFFFF AND PUSH32 0x8BE0079C531659141344CD1FD0A4F28419497F9722A3DAAFE3B4186F6B6457E0 PUSH1 0x40 MLOAD PUSH1 0x40 MLOAD DUP1 SWAP2 SUB SWAP1 LOG3 POP POP JUMP JUMPDEST PUSH1 0x0 DUP1 REVERT JUMPDEST PUSH1 0x0 DUP2 SWAP1 POP SWAP2 SWAP1 POP JUMP JUMPDEST PUSH2 0x2F6 DUP2 PUSH2 0x2E3 JUMP JUMPDEST DUP2 EQ PUSH2 0x301 JUMPI PUSH1 0x0 DUP1 REVERT JUMPDEST POP JUMP JUMPDEST PUSH1 0x0 DUP2 MLOAD SWAP1 POP PUSH2 0x313 DUP2 PUSH2 0x2ED JUMP JUMPDEST SWAP3 SWAP2 POP POP JUMP JUMPDEST PUSH1 0x0 PUSH1 0x20 DUP3 DUP5 SUB SLT ISZERO PUSH2 0x32F JUMPI PUSH2 0x32E PUSH2 0x2DE JUMP JUMPDEST JUMPDEST PUSH1 0x0 PUSH2 0x33D DUP5 DUP3 DUP6 ADD PUSH2 0x304 JUMP JUMPDEST SWAP2 POP POP SWAP3 SWAP2 POP POP JUMP JUMPDEST PUSH1 0x0 DUP2 MLOAD SWAP1 POP SWAP2 SWAP1 POP JUMP JUMPDEST PUSH32 0x4E487B7100000000000000000000000000000000000000000000000000000000 PUSH1 0x0 MSTORE PUSH1 0x41 PUSH1 0x4 MSTORE PUSH1 0x24 PUSH1 0x0 REVERT JUMPDEST PUSH32 0x4E487B7100000000000000000000000000000000000000000000000000000000 PUSH1 0x0 MSTORE PUSH1 0x22 PUSH1 0x4 MSTORE PUSH1 0x24 PUSH1 0x0 REVERT JUMPDEST PUSH1 0x0 PUSH1 0x2 DUP3 DIV SWAP1 POP PUSH1 0x1 DUP3 AND DUP1 PUSH2 0x3C7 JUMPI PUSH1 0x7F DUP3 AND SWAP2 POP JUMPDEST PUSH1 0x20 DUP3 LT DUP2 SUB PUSH2 0x3DA JUMPI PUSH2 0x3D9 PUSH2 0x380 JUMP JUMPDEST JUMPDEST POP SWAP2 SWAP1 POP JUMP JUMPDEST PUSH1 0x0 DUP2 SWAP1 POP DUP2 PUSH1 0x0 MSTORE PUSH1 0x20 PUSH1 0x0 KECCAK256 SWAP1 POP SWAP2 SWAP1 POP JUMP JUMPDEST PUSH1 0x0 PUSH1 0x20 PUSH1 0x1F DUP4 ADD DIV SWAP1 POP SWAP2 SWAP1 POP JUMP JUMPDEST PUSH1 0x0 DUP3 DUP3 SHL SWAP1 POP SWAP3 SWAP2 POP POP JUMP JUMPDEST PUSH1 0x0 PUSH1 0x8 DUP4 MUL PUSH2 0x442 PUSH32 0xFFFFFFFFFFFFFFFFFFFFFFFFFFFFFFFFFFFFFFFFFFFFFFFFFFFFFFFFFFFFFFFF DUP3 PUSH2 0x405 JUMP JUMPDEST PUSH2 0x44C DUP7 DUP4 PUSH2 0x405 JUMP JUMPDEST SWAP6 POP DUP1 NOT DUP5 AND SWAP4 POP DUP1 DUP7 AND DUP5 OR SWAP3 POP POP POP SWAP4 SWAP3 POP POP POP JUMP JUMPDEST PUSH1 0x0 DUP2 SWAP1 POP SWAP2 SWAP1 POP JUMP JUMPDEST PUSH1 0x0 PUSH2 0x489 PUSH2 0x484 PUSH2 0x47F DUP5 PUSH2 0x2E3 JUMP JUMPDEST PUSH2 0x464 JUMP JUMPDEST PUSH2 0x2E3 JUMP JUMPDEST SWAP1 POP SWAP2 SWAP1 POP JUMP JUMPDEST PUSH1 0x0 DUP2 SWAP1 POP SWAP2 SWAP1 POP JUMP JUMPDEST PUSH2 0x4A3 DUP4 PUSH2 0x46E JUMP JUMPDEST PUSH2 0x4B7 PUSH2 0x4AF DUP3 PUSH2 0x490 JUMP JUMPDEST DUP5 DUP5 SLOAD PUSH2 0x412 JUMP JUMPDEST DUP3 SSTORE POP POP POP POP JUMP JUMPDEST PUSH1 0x0 SWAP1 JUMP JUMPDEST PUSH2 0x4CC PUSH2 0x4BF JUMP JUMPDEST PUSH2 0x4D7 DUP2 DUP5 DUP5 PUSH2 0x49A JUMP JUMPDEST POP POP POP JUMP JUMPDEST JUMPDEST DUP2 DUP2 LT ISZERO PUSH2 0x4FB JUMPI PUSH2 0x4F0 PUSH1 0x0 DUP3 PUSH2 0x4C4 JUMP JUMPDEST PUSH1 0x1 DUP2 ADD SWAP1 POP PUSH2 0x4DD JUMP JUMPDEST POP POP JUMP JUMPDEST PUSH1 0x1F DUP3 GT ISZERO PUSH2 0x540 JUMPI PUSH2 0x511 DUP2 PUSH2 0x3E0 JUMP JUMPDEST PUSH2 0x51A DUP5 PUSH2 0x3F5 JUMP JUMPDEST DUP2 ADD PUSH1 0x20 DUP6 LT ISZERO PUSH2 0x529 JUMPI DUP2 SWAP1 POP JUMPDEST PUSH2 0x53D PUSH2 0x535 DUP6 PUSH2 0x3F5 JUMP JUMPDEST DUP4 ADD DUP3 PUSH2 0x4DC JUMP JUMPDEST POP POP JUMPDEST POP POP POP JUMP JUMPDEST PUSH1 0x0 DUP3 DUP3 SHR SWAP1 POP SWAP3 SWAP2 POP POP JUMP JUMPDEST PUSH1 0x0 PUSH2 0x563 PUSH1 0x0 NOT DUP5 PUSH1 0x8 MUL PUSH2 0x545 JUMP JUMPDEST NOT DUP1 DUP4 AND SWAP2 POP POP SWAP3 SWAP2 POP POP JUMP JUMPDEST PUSH1 0x0 PUSH2 0x57C DUP4 DUP4 PUSH2 0x552 JUMP JUMPDEST SWAP2 POP DUP3 PUSH1 0x2 MUL DUP3 OR SWAP1 POP SWAP3 SWAP2 POP POP JUMP JUMPDEST PUSH2 0x595 DUP3 PUSH2 0x346 JUMP JUMPDEST PUSH8 0xFFFFFFFFFFFFFFFF DUP2 GT ISZERO PUSH2 0x5AE JUMPI PUSH2 0x5AD PUSH2 0x351 JUMP JUMPDEST JUMPDEST PUSH2 0x5B8 DUP3 SLOAD PUSH2 0x3AF JUMP JUMPDEST PUSH2 0x5C3 DUP3 DUP3 DUP6 PUSH2 0x4FF JUMP JUMPDEST PUSH1 0x0 PUSH1 0x20 SWAP1 POP PUSH1 0x1F DUP4 GT PUSH1 0x1 DUP2 EQ PUSH2 0x5F6 JUMPI PUSH1 0x0 DUP5 ISZERO PUSH2 0x5E4 JUMPI DUP3 DUP8 ADD MLOAD SWAP1 POP JUMPDEST PUSH2 0x5EE DUP6 DUP3 PUSH2 0x570 JUMP JUMPDEST DUP7 SSTORE POP PUSH2 0x656 JUMP JUMPDEST PUSH1 0x1F NOT DUP5 AND PUSH2 0x604 DUP7 PUSH2 0x3E0 JUMP JUMPDEST PUSH1 0x0 JUMPDEST DUP3 DUP2 LT ISZERO PUSH2 0x62C JUMPI DUP5 DUP10 ADD MLOAD DUP3 SSTORE PUSH1 0x1 DUP3 ADD SWAP2 POP PUSH1 0x20 DUP6 ADD SWAP5 POP PUSH1 0x20 DUP2 ADD SWAP1 POP PUSH2 0x607 JUMP JUMPDEST DUP7 DUP4 LT ISZERO PUSH2 0x649 JUMPI DUP5 DUP10 ADD MLOAD PUSH2 0x645 PUSH1 0x1F DUP10 AND DUP3 PUSH2 0x552 JUMP JUMPDEST DUP4 SSTORE POP JUMPDEST PUSH1 0x1 PUSH1 0x2 DUP9 MUL ADD DUP9 SSTORE POP POP POP JUMPDEST POP POP POP POP POP POP JUMP JUMPDEST PUSH1 0x0 PUSH20 0xFFFFFFFFFFFFFFFFFFFFFFFFFFFFFFFFFFFFFFFF DUP3 AND SWAP1 POP SWAP2 SWAP1 POP JUMP JUMPDEST PUSH1 0x0 PUSH2 0x689 DUP3 PUSH2 0x65E JUMP JUMPDEST SWAP1 POP SWAP2 SWAP1 POP JUMP JUMPDEST PUSH2 0x699 DUP2 PUSH2 0x67E JUMP JUMPDEST DUP3 MSTORE POP POP JUMP JUMPDEST PUSH1 0x0 PUSH1 0x20 DUP3 ADD SWAP1 POP PUSH2 0x6B4 PUSH1 0x0 DUP4 ADD DUP5 PUSH2 0x690 JUMP JUMPDEST SWAP3 SWAP2 POP POP JUMP JUMPDEST PUSH2 0x6C3 DUP2 PUSH2 0x2E3 JUMP JUMPDEST DUP3 MSTORE POP POP JUMP JUMPDEST PUSH1 0x0 PUSH1 0x20 DUP3 ADD SWAP1 POP PUSH2 0x6DE PUSH1 0x0 DUP4 ADD DUP5 PUSH2 0x6BA JUMP JUMPDEST SWAP3 SWAP2 POP POP JUMP JUMPDEST PUSH2 0x5654 DUP1 PUSH2 0x6F3 PUSH1 0x0 CODECOPY PUSH1 0x0 RETURN INVALID PUSH1 0x80 PUSH1 0x40 MSTORE PUSH1 0x4 CALLDATASIZE LT PUSH2 0x1CD JUMPI PUSH1 0x0 CALLDATALOAD PUSH1 0xE0 SHR DUP1 PUSH4 0x715018A6 GT PUSH2 0xF7 JUMPI DUP1 PUSH4 0xAE73CCEC GT PUSH2 0x95 JUMPI DUP1 PUSH4 0xDD802C4C GT PUSH2 0x64 JUMPI DUP1 PUSH4 0xDD802C4C EQ PUSH2 0x68D JUMPI DUP1 PUSH4 0xE985E9C5 EQ PUSH2 0x6A9 JUMPI DUP1 PUSH4 0xF2FDE38B EQ PUSH2 0x6E6 JUMPI DUP1 PUSH4 0xF7B10808 EQ PUSH2 0x70F JUMPI PUSH2 0x1CD JUMP JUMPDEST DUP1 PUSH4 0xAE73CCEC EQ PUSH2 0x5E0 JUMPI DUP1 PUSH4 0xB88D4FDE EQ PUSH2 0x60B JUMPI DUP1 PUSH4 0xC87B56DD EQ PUSH2 0x634 JUMPI DUP1 PUSH4 0xD40B0214 EQ PUSH2 0x671 JUMPI PUSH2 0x1CD JUMP JUMPDEST DUP1 PUSH4 0x95D89B41 GT PUSH2 0xD1 JUMPI DUP1 PUSH4 0x95D89B41 EQ PUSH2 0x538 JUMPI DUP1 PUSH4 0xA22CB465 EQ PUSH2 0x563 JUMPI DUP1 PUSH4 0xA8C278A2 EQ PUSH2 0x58C JUMPI DUP1 PUSH4 0xAAE9D5F2 EQ PUSH2 0x5B7 JUMPI PUSH2 0x1CD JUMP JUMPDEST DUP1 PUSH4 0x715018A6 EQ PUSH2 0x4CB JUMPI DUP1 PUSH4 0x75794A3C EQ PUSH2 0x4E2 JUMPI DUP1 PUSH4 0x8DA5CB5B EQ PUSH2 0x50D JUMPI PUSH2 0x1CD JUMP JUMPDEST DUP1 PUSH4 0x2B7AC3F3 GT PUSH2 0x16F JUMPI DUP1 PUSH4 0x4F6CCCE7 GT PUSH2 0x13E JUMPI DUP1 PUSH4 0x4F6CCCE7 EQ PUSH2 0x3EB JUMPI DUP1 PUSH4 0x5437988D EQ PUSH2 0x428 JUMPI DUP1 PUSH4 0x6352211E EQ PUSH2 0x451 JUMPI DUP1 PUSH4 0x70A08231 EQ PUSH2 0x48E JUMPI PUSH2 0x1CD JUMP JUMPDEST DUP1 PUSH4 0x2B7AC3F3 EQ PUSH2 0x331 JUMPI DUP1 PUSH4 0x2F745C59 EQ PUSH2 0x35C JUMPI DUP1 PUSH4 0x322BB116 EQ PUSH2 0x399 JUMPI DUP1 PUSH4 0x42842E0E EQ PUSH2 0x3C2 JUMPI PUSH2 0x1CD JUMP JUMPDEST DUP1 PUSH4 0x95EA7B3 GT PUSH2 0x1AB JUMPI DUP1 PUSH4 0x95EA7B3 EQ PUSH2 0x277 JUMPI DUP1 PUSH4 0x126DBE43 EQ PUSH2 0x2A0 JUMPI DUP1 PUSH4 0x18160DDD EQ PUSH2 0x2DD JUMPI DUP1 PUSH4 0x23B872DD EQ PUSH2 0x308 JUMPI PUSH2 0x1CD JUMP JUMPDEST DUP1 PUSH4 0x1FFC9A7 EQ PUSH2 0x1D2 JUMPI DUP1 PUSH4 0x6FDDE03 EQ PUSH2 0x20F JUMPI DUP1 PUSH4 0x81812FC EQ PUSH2 0x23A JUMPI JUMPDEST PUSH1 0x0 DUP1 REVERT JUMPDEST CALLVALUE DUP1 ISZERO PUSH2 0x1DE JUMPI PUSH1 0x0 DUP1 REVERT JUMPDEST POP PUSH2 0x1F9 PUSH1 0x4 DUP1 CALLDATASIZE SUB DUP2 ADD SWAP1 PUSH2 0x1F4 SWAP2 SWAP1 PUSH2 0x39DB JUMP JUMPDEST PUSH2 0x755 JUMP JUMPDEST PUSH1 0x40 MLOAD PUSH2 0x206 SWAP2 SWAP1 PUSH2 0x3A23 JUMP JUMPDEST PUSH1 0x40 MLOAD DUP1 SWAP2 SUB SWAP1 RETURN JUMPDEST CALLVALUE DUP1 ISZERO PUSH2 0x21B JUMPI PUSH1 0x0 DUP1 REVERT JUMPDEST POP PUSH2 0x224 PUSH2 0x767 JUMP JUMPDEST PUSH1 0x40 MLOAD PUSH2 0x231 SWAP2 SWAP1 PUSH2 0x3ACE JUMP JUMPDEST PUSH1 0x40 MLOAD DUP1 SWAP2 SUB SWAP1 RETURN JUMPDEST CALLVALUE DUP1 ISZERO PUSH2 0x246 JUMPI PUSH1 0x0 DUP1 REVERT JUMPDEST POP PUSH2 0x261 PUSH1 0x4 DUP1 CALLDATASIZE SUB DUP2 ADD SWAP1 PUSH2 0x25C SWAP2 SWAP1 PUSH2 0x3B26 JUMP JUMPDEST PUSH2 0x7F9 JUMP JUMPDEST PUSH1 0x40 MLOAD PUSH2 0x26E SWAP2 SWAP1 PUSH2 0x3B94 JUMP JUMPDEST PUSH1 0x40 MLOAD DUP1 SWAP2 SUB SWAP1 RETURN JUMPDEST CALLVALUE DUP1 ISZERO PUSH2 0x283 JUMPI PUSH1 0x0 DUP1 REVERT JUMPDEST POP PUSH2 0x29E PUSH1 0x4 DUP1 CALLDATASIZE SUB DUP2 ADD SWAP1 PUSH2 0x299 SWAP2 SWAP1 PUSH2 0x3BDB JUMP JUMPDEST PUSH2 0x815 JUMP JUMPDEST STOP JUMPDEST CALLVALUE DUP1 ISZERO PUSH2 0x2AC JUMPI PUSH1 0x0 DUP1 REVERT JUMPDEST POP PUSH2 0x2C7 PUSH1 0x4 DUP1 CALLDATASIZE SUB DUP2 ADD SWAP1 PUSH2 0x2C2 SWAP2 SWAP1 PUSH2 0x3B26 JUMP JUMPDEST PUSH2 0x82B JUMP JUMPDEST PUSH1 0x40 MLOAD PUSH2 0x2D4 SWAP2 SWAP1 PUSH2 0x3DE9 JUMP JUMPDEST PUSH1 0x40 MLOAD DUP1 SWAP2 SUB SWAP1 RETURN JUMPDEST CALLVALUE DUP1 ISZERO PUSH2 0x2E9 JUMPI PUSH1 0x0 DUP1 REVERT JUMPDEST POP PUSH2 0x2F2 PUSH2 0xBBF JUMP JUMPDEST PUSH1 0x40 MLOAD PUSH2 0x2FF SWAP2 SWAP1 PUSH2 0x3E1A JUMP JUMPDEST PUSH1 0x40 MLOAD DUP1 SWAP2 SUB SWAP1 RETURN JUMPDEST CALLVALUE DUP1 ISZERO PUSH2 0x314 JUMPI PUSH1 0x0 DUP1 REVERT JUMPDEST POP PUSH2 0x32F PUSH1 0x4 DUP1 CALLDATASIZE SUB DUP2 ADD SWAP1 PUSH2 0x32A SWAP2 SWAP1 PUSH2 0x3E35 JUMP JUMPDEST PUSH2 0xBCC JUMP JUMPDEST STOP JUMPDEST CALLVALUE DUP1 ISZERO PUSH2 0x33D JUMPI PUSH1 0x0 DUP1 REVERT JUMPDEST POP PUSH2 0x346 PUSH2 0xCCE JUMP JUMPDEST PUSH1 0x40 MLOAD PUSH2 0x353 SWAP2 SWAP1 PUSH2 0x3B94 JUMP JUMPDEST PUSH1 0x40 MLOAD DUP1 SWAP2 SUB SWAP1 RETURN JUMPDEST CALLVALUE DUP1 ISZERO PUSH2 0x368 JUMPI PUSH1 0x0 DUP1 REVERT JUMPDEST POP PUSH2 0x383 PUSH1 0x4 DUP1 CALLDATASIZE SUB DUP2 ADD SWAP1 PUSH2 0x37E SWAP2 SWAP1 PUSH2 0x3BDB JUMP JUMPDEST PUSH2 0xCF4 JUMP JUMPDEST PUSH1 0x40 MLOAD PUSH2 0x390 SWAP2 SWAP1 PUSH2 0x3E1A JUMP JUMPDEST PUSH1 0x40 MLOAD DUP1 SWAP2 SUB SWAP1 RETURN JUMPDEST CALLVALUE DUP1 ISZERO PUSH2 0x3A5 JUMPI PUSH1 0x0 DUP1 REVERT JUMPDEST POP PUSH2 0x3C0 PUSH1 0x4 DUP1 CALLDATASIZE SUB DUP2 ADD SWAP1 PUSH2 0x3BB SWAP2 SWAP1 PUSH2 0x3EB4 JUMP JUMPDEST PUSH2 0xD9D JUMP JUMPDEST STOP JUMPDEST CALLVALUE DUP1 ISZERO PUSH2 0x3CE JUMPI PUSH1 0x0 DUP1 REVERT JUMPDEST POP PUSH2 0x3E9 PUSH1 0x4 DUP1 CALLDATASIZE SUB DUP2 ADD SWAP1 PUSH2 0x3E4 SWAP2 SWAP1 PUSH2 0x3E35 JUMP JUMPDEST PUSH2 0x11B6 JUMP JUMPDEST STOP JUMPDEST CALLVALUE DUP1 ISZERO PUSH2 0x3F7 JUMPI PUSH1 0x0 DUP1 REVERT JUMPDEST POP PUSH2 0x412 PUSH1 0x4 DUP1 CALLDATASIZE SUB DUP2 ADD SWAP1 PUSH2 0x40D SWAP2 SWAP1 PUSH2 0x3B26 JUMP JUMPDEST PUSH2 0x11D6 JUMP JUMPDEST PUSH1 0x40 MLOAD PUSH2 0x41F SWAP2 SWAP1 PUSH2 0x3E1A JUMP JUMPDEST PUSH1 0x40 MLOAD DUP1 SWAP2 SUB SWAP1 RETURN JUMPDEST CALLVALUE DUP1 ISZERO PUSH2 0x434 JUMPI PUSH1 0x0 DUP1 REVERT JUMPDEST POP PUSH2 0x44F PUSH1 0x4 DUP1 CALLDATASIZE SUB DUP2 ADD SWAP1 PUSH2 0x44A SWAP2 SWAP1 PUSH2 0x3EF4 JUMP JUMPDEST PUSH2 0x124C JUMP JUMPDEST STOP JUMPDEST CALLVALUE DUP1 ISZERO PUSH2 0x45D JUMPI PUSH1 0x0 DUP1 REVERT JUMPDEST POP PUSH2 0x478 PUSH1 0x4 DUP1 CALLDATASIZE SUB DUP2 ADD SWAP1 PUSH2 0x473 SWAP2 SWAP1 PUSH2 0x3B26 JUMP JUMPDEST PUSH2 0x134A JUMP JUMPDEST PUSH1 0x40 MLOAD PUSH2 0x485 SWAP2 SWAP1 PUSH2 0x3B94 JUMP JUMPDEST PUSH1 0x40 MLOAD DUP1 SWAP2 SUB SWAP1 RETURN JUMPDEST CALLVALUE DUP1 ISZERO PUSH2 0x49A JUMPI PUSH1 0x0 DUP1 REVERT JUMPDEST POP PUSH2 0x4B5 PUSH1 0x4 DUP1 CALLDATASIZE SUB DUP2 ADD SWAP1 PUSH2 0x4B0 SWAP2 SWAP1 PUSH2 0x3EF4 JUMP JUMPDEST PUSH2 0x135C JUMP JUMPDEST PUSH1 0x40 MLOAD PUSH2 0x4C2 SWAP2 SWAP1 PUSH2 0x3E1A JUMP JUMPDEST PUSH1 0x40 MLOAD DUP1 SWAP2 SUB SWAP1 RETURN JUMPDEST CALLVALUE DUP1 ISZERO PUSH2 0x4D7 JUMPI PUSH1 0x0 DUP1 REVERT JUMPDEST POP PUSH2 0x4E0 PUSH2 0x1416 JUMP JUMPDEST STOP JUMPDEST CALLVALUE DUP1 ISZERO PUSH2 0x4EE JUMPI PUSH1 0x0 DUP1 REVERT JUMPDEST POP PUSH2 0x4F7 PUSH2 0x142A JUMP JUMPDEST PUSH1 0x40 MLOAD PUSH2 0x504 SWAP2 SWAP1 PUSH2 0x3E1A JUMP JUMPDEST PUSH1 0x40 MLOAD DUP1 SWAP2 SUB SWAP1 RETURN JUMPDEST CALLVALUE DUP1 ISZERO PUSH2 0x519 JUMPI PUSH1 0x0 DUP1 REVERT JUMPDEST POP PUSH2 0x522 PUSH2 0x1430 JUMP JUMPDEST PUSH1 0x40 MLOAD PUSH2 0x52F SWAP2 SWAP1 PUSH2 0x3B94 JUMP JUMPDEST PUSH1 0x40 MLOAD DUP1 SWAP2 SUB SWAP1 RETURN JUMPDEST CALLVALUE DUP1 ISZERO PUSH2 0x544 JUMPI PUSH1 0x0 DUP1 REVERT JUMPDEST POP PUSH2 0x54D PUSH2 0x145A JUMP JUMPDEST PUSH1 0x40 MLOAD PUSH2 0x55A SWAP2 SWAP1 PUSH2 0x3ACE JUMP JUMPDEST PUSH1 0x40 MLOAD DUP1 SWAP2 SUB SWAP1 RETURN JUMPDEST CALLVALUE DUP1 ISZERO PUSH2 0x56F JUMPI PUSH1 0x0 DUP1 REVERT JUMPDEST POP PUSH2 0x58A PUSH1 0x4 DUP1 CALLDATASIZE SUB DUP2 ADD SWAP1 PUSH2 0x585 SWAP2 SWAP1 PUSH2 0x3F21 JUMP JUMPDEST PUSH2 0x14EC JUMP JUMPDEST STOP JUMPDEST CALLVALUE DUP1 ISZERO PUSH2 0x598 JUMPI PUSH1 0x0 DUP1 REVERT JUMPDEST POP PUSH2 0x5A1 PUSH2 0x1502 JUMP JUMPDEST PUSH1 0x40 MLOAD PUSH2 0x5AE SWAP2 SWAP1 PUSH2 0x3E1A JUMP JUMPDEST PUSH1 0x40 MLOAD DUP1 SWAP2 SUB SWAP1 RETURN JUMPDEST CALLVALUE DUP1 ISZERO PUSH2 0x5C3 JUMPI PUSH1 0x0 DUP1 REVERT JUMPDEST POP PUSH2 0x5DE PUSH1 0x4 DUP1 CALLDATASIZE SUB DUP2 ADD SWAP1 PUSH2 0x5D9 SWAP2 SWAP1 PUSH2 0x3B26 JUMP JUMPDEST PUSH2 0x1508 JUMP JUMPDEST STOP JUMPDEST CALLVALUE DUP1 ISZERO PUSH2 0x5EC JUMPI PUSH1 0x0 DUP1 REVERT JUMPDEST POP PUSH2 0x5F5 PUSH2 0x1551 JUMP JUMPDEST PUSH1 0x40 MLOAD PUSH2 0x602 SWAP2 SWAP1 PUSH2 0x4112 JUMP JUMPDEST PUSH1 0x40 MLOAD DUP1 SWAP2 SUB SWAP1 RETURN JUMPDEST CALLVALUE DUP1 ISZERO PUSH2 0x617 JUMPI PUSH1 0x0 DUP1 REVERT JUMPDEST POP PUSH2 0x632 PUSH1 0x4 DUP1 CALLDATASIZE SUB DUP2 ADD SWAP1 PUSH2 0x62D SWAP2 SWAP1 PUSH2 0x4269 JUMP JUMPDEST PUSH2 0x1A4C JUMP JUMPDEST STOP JUMPDEST CALLVALUE DUP1 ISZERO PUSH2 0x640 JUMPI PUSH1 0x0 DUP1 REVERT JUMPDEST POP PUSH2 0x65B PUSH1 0x4 DUP1 CALLDATASIZE SUB DUP2 ADD SWAP1 PUSH2 0x656 SWAP2 SWAP1 PUSH2 0x3B26 JUMP JUMPDEST PUSH2 0x1A71 JUMP JUMPDEST PUSH1 0x40 MLOAD PUSH2 0x668 SWAP2 SWAP1 PUSH2 0x3ACE JUMP JUMPDEST PUSH1 0x40 MLOAD DUP1 SWAP2 SUB SWAP1 RETURN JUMPDEST PUSH2 0x68B PUSH1 0x4 DUP1 CALLDATASIZE SUB DUP2 ADD SWAP1 PUSH2 0x686 SWAP2 SWAP1 PUSH2 0x42EC JUMP JUMPDEST PUSH2 0x1ADA JUMP JUMPDEST STOP JUMPDEST PUSH2 0x6A7 PUSH1 0x4 DUP1 CALLDATASIZE SUB DUP2 ADD SWAP1 PUSH2 0x6A2 SWAP2 SWAP1 PUSH2 0x43CD JUMP JUMPDEST PUSH2 0x1D73 JUMP JUMPDEST STOP JUMPDEST CALLVALUE DUP1 ISZERO PUSH2 0x6B5 JUMPI PUSH1 0x0 DUP1 REVERT JUMPDEST POP PUSH2 0x6D0 PUSH1 0x4 DUP1 CALLDATASIZE SUB DUP2 ADD SWAP1 PUSH2 0x6CB SWAP2 SWAP1 PUSH2 0x44CA JUMP JUMPDEST PUSH2 0x2158 JUMP JUMPDEST PUSH1 0x40 MLOAD PUSH2 0x6DD SWAP2 SWAP1 PUSH2 0x3A23 JUMP JUMPDEST PUSH1 0x40 MLOAD DUP1 SWAP2 SUB SWAP1 RETURN JUMPDEST CALLVALUE DUP1 ISZERO PUSH2 0x6F2 JUMPI PUSH1 0x0 DUP1 REVERT JUMPDEST POP PUSH2 0x70D PUSH1 0x4 DUP1 CALLDATASIZE SUB DUP2 ADD SWAP1 PUSH2 0x708 SWAP2 SWAP1 PUSH2 0x3EF4 JUMP JUMPDEST PUSH2 0x21EC JUMP JUMPDEST STOP JUMPDEST CALLVALUE DUP1 ISZERO PUSH2 0x71B JUMPI PUSH1 0x0 DUP1 REVERT JUMPDEST POP PUSH2 0x736 PUSH1 0x4 DUP1 CALLDATASIZE SUB DUP2 ADD SWAP1 PUSH2 0x731 SWAP2 SWAP1 PUSH2 0x3B26 JUMP JUMPDEST PUSH2 0x2272 JUMP JUMPDEST PUSH1 0x40 MLOAD PUSH2 0x74C SWAP11 SWAP10 SWAP9 SWAP8 SWAP7 SWAP6 SWAP5 SWAP4 SWAP3 SWAP2 SWAP1 PUSH2 0x4519 JUMP JUMPDEST PUSH1 0x40 MLOAD DUP1 SWAP2 SUB SWAP1 RETURN JUMPDEST PUSH1 0x0 PUSH2 0x760 DUP3 PUSH2 0x2513 JUMP JUMPDEST SWAP1 POP SWAP2 SWAP1 POP JUMP JUMPDEST PUSH1 0x60 PUSH1 0x0 DUP1 SLOAD PUSH2 0x776 SWAP1 PUSH2 0x4600 JUMP JUMPDEST DUP1 PUSH1 0x1F ADD PUSH1 0x20 DUP1 SWAP2 DIV MUL PUSH1 0x20 ADD PUSH1 0x40 MLOAD SWAP1 DUP2 ADD PUSH1 0x40 MSTORE DUP1 SWAP3 SWAP2 SWAP1 DUP2 DUP2 MSTORE PUSH1 0x20 ADD DUP3 DUP1 SLOAD PUSH2 0x7A2 SWAP1 PUSH2 0x4600 JUMP JUMPDEST DUP1 ISZERO PUSH2 0x7EF JUMPI DUP1 PUSH1 0x1F LT PUSH2 0x7C4 JUMPI PUSH2 0x100 DUP1 DUP4 SLOAD DIV MUL DUP4 MSTORE SWAP2 PUSH1 0x20 ADD SWAP2 PUSH2 0x7EF JUMP JUMPDEST DUP3 ADD SWAP2 SWAP1 PUSH1 0x0 MSTORE PUSH1 0x20 PUSH1 0x0 KECCAK256 SWAP1 JUMPDEST DUP2 SLOAD DUP2 MSTORE SWAP1 PUSH1 0x1 ADD SWAP1 PUSH1 0x20 ADD DUP1 DUP4 GT PUSH2 0x7D2 JUMPI DUP3 SWAP1 SUB PUSH1 0x1F AND DUP3 ADD SWAP2 JUMPDEST POP POP POP POP POP SWAP1 POP SWAP1 JUMP JUMPDEST PUSH1 0x0 PUSH2 0x804 DUP3 PUSH2 0x258D JUMP JUMPDEST POP PUSH2 0x80E DUP3 PUSH2 0x2615 JUMP JUMPDEST SWAP1 POP SWAP2 SWAP1 POP JUMP JUMPDEST PUSH2 0x827 DUP3 DUP3 PUSH2 0x822 PUSH2 0x2652 JUMP JUMPDEST PUSH2 0x265A JUMP JUMPDEST POP POP JUMP JUMPDEST PUSH2 0x833 PUSH2 0x38F4 JUMP JUMPDEST PUSH1 0x0 PUSH1 0xD PUSH1 0x0 DUP5 DUP2 MSTORE PUSH1 0x20 ADD SWAP1 DUP2 MSTORE PUSH1 0x20 ADD PUSH1 0x0 KECCAK256 PUSH1 0x2 ADD DUP1 SLOAD PUSH2 0x856 SWAP1 PUSH2 0x4600 JUMP JUMPDEST SWAP1 POP GT PUSH2 0x898 JUMPI PUSH1 0x40 MLOAD PUSH32 0x8C379A000000000000000000000000000000000000000000000000000000000 DUP2 MSTORE PUSH1 0x4 ADD PUSH2 0x88F SWAP1 PUSH2 0x46A3 JUMP JUMPDEST PUSH1 0x40 MLOAD DUP1 SWAP2 SUB SWAP1 REVERT JUMPDEST PUSH1 0xD PUSH1 0x0 DUP4 DUP2 MSTORE PUSH1 0x20 ADD SWAP1 DUP2 MSTORE PUSH1 0x20 ADD PUSH1 0x0 KECCAK256 PUSH1 0x40 MLOAD DUP1 PUSH2 0x140 ADD PUSH1 0x40 MSTORE SWAP1 DUP2 PUSH1 0x0 DUP3 ADD SLOAD DUP2 MSTORE PUSH1 0x20 ADD PUSH1 0x1 DUP3 ADD PUSH1 0x0 SWAP1 SLOAD SWAP1 PUSH2 0x100 EXP SWAP1 DIV PUSH20 0xFFFFFFFFFFFFFFFFFFFFFFFFFFFFFFFFFFFFFFFF AND PUSH20 0xFFFFFFFFFFFFFFFFFFFFFFFFFFFFFFFFFFFFFFFF AND PUSH20 0xFFFFFFFFFFFFFFFFFFFFFFFFFFFFFFFFFFFFFFFF AND DUP2 MSTORE PUSH1 0x20 ADD PUSH1 0x2 DUP3 ADD DUP1 SLOAD PUSH2 0x927 SWAP1 PUSH2 0x4600 JUMP JUMPDEST DUP1 PUSH1 0x1F ADD PUSH1 0x20 DUP1 SWAP2 DIV MUL PUSH1 0x20 ADD PUSH1 0x40 MLOAD SWAP1 DUP2 ADD PUSH1 0x40 MSTORE DUP1 SWAP3 SWAP2 SWAP1 DUP2 DUP2 MSTORE PUSH1 0x20 ADD DUP3 DUP1 SLOAD PUSH2 0x953 SWAP1 PUSH2 0x4600 JUMP JUMPDEST DUP1 ISZERO PUSH2 0x9A0 JUMPI DUP1 PUSH1 0x1F LT PUSH2 0x975 JUMPI PUSH2 0x100 DUP1 DUP4 SLOAD DIV MUL DUP4 MSTORE SWAP2 PUSH1 0x20 ADD SWAP2 PUSH2 0x9A0 JUMP JUMPDEST DUP3 ADD SWAP2 SWAP1 PUSH1 0x0 MSTORE PUSH1 0x20 PUSH1 0x0 KECCAK256 SWAP1 JUMPDEST DUP2 SLOAD DUP2 MSTORE SWAP1 PUSH1 0x1 ADD SWAP1 PUSH1 0x20 ADD DUP1 DUP4 GT PUSH2 0x983 JUMPI DUP3 SWAP1 SUB PUSH1 0x1F AND DUP3 ADD SWAP2 JUMPDEST POP POP POP POP POP DUP2 MSTORE PUSH1 0x20 ADD PUSH1 0x3 DUP3 ADD DUP1 SLOAD PUSH2 0x9B9 SWAP1 PUSH2 0x4600 JUMP JUMPDEST DUP1 PUSH1 0x1F ADD PUSH1 0x20 DUP1 SWAP2 DIV MUL PUSH1 0x20 ADD PUSH1 0x40 MLOAD SWAP1 DUP2 ADD PUSH1 0x40 MSTORE DUP1 SWAP3 SWAP2 SWAP1 DUP2 DUP2 MSTORE PUSH1 0x20 ADD DUP3 DUP1 SLOAD PUSH2 0x9E5 SWAP1 PUSH2 0x4600 JUMP JUMPDEST DUP1 ISZERO PUSH2 0xA32 JUMPI DUP1 PUSH1 0x1F LT PUSH2 0xA07 JUMPI PUSH2 0x100 DUP1 DUP4 SLOAD DIV MUL DUP4 MSTORE SWAP2 PUSH1 0x20 ADD SWAP2 PUSH2 0xA32 JUMP JUMPDEST DUP3 ADD SWAP2 SWAP1 PUSH1 0x0 MSTORE PUSH1 0x20 PUSH1 0x0 KECCAK256 SWAP1 JUMPDEST DUP2 SLOAD DUP2 MSTORE SWAP1 PUSH1 0x1 ADD SWAP1 PUSH1 0x20 ADD DUP1 DUP4 GT PUSH2 0xA15 JUMPI DUP3 SWAP1 SUB PUSH1 0x1F AND DUP3 ADD SWAP2 JUMPDEST POP POP POP POP POP DUP2 MSTORE PUSH1 0x20 ADD PUSH1 0x4 DUP3 ADD DUP1 SLOAD PUSH2 0xA4B SWAP1 PUSH2 0x4600 JUMP JUMPDEST DUP1 PUSH1 0x1F ADD PUSH1 0x20 DUP1 SWAP2 DIV MUL PUSH1 0x20 ADD PUSH1 0x40 MLOAD SWAP1 DUP2 ADD PUSH1 0x40 MSTORE DUP1 SWAP3 SWAP2 SWAP1 DUP2 DUP2 MSTORE PUSH1 0x20 ADD DUP3 DUP1 SLOAD PUSH2 0xA77 SWAP1 PUSH2 0x4600 JUMP JUMPDEST DUP1 ISZERO PUSH2 0xAC4 JUMPI DUP1 PUSH1 0x1F LT PUSH2 0xA99 JUMPI PUSH2 0x100 DUP1 DUP4 SLOAD DIV MUL DUP4 MSTORE SWAP2 PUSH1 0x20 ADD SWAP2 PUSH2 0xAC4 JUMP JUMPDEST DUP3 ADD SWAP2 SWAP1 PUSH1 0x0 MSTORE PUSH1 0x20 PUSH1 0x0 KECCAK256 SWAP1 JUMPDEST DUP2 SLOAD DUP2 MSTORE SWAP1 PUSH1 0x1 ADD SWAP1 PUSH1 0x20 ADD DUP1 DUP4 GT PUSH2 0xAA7 JUMPI DUP3 SWAP1 SUB PUSH1 0x1F AND DUP3 ADD SWAP2 JUMPDEST POP POP POP POP POP DUP2 MSTORE PUSH1 0x20 ADD PUSH1 0x5 DUP3 ADD DUP1 SLOAD PUSH2 0xADD SWAP1 PUSH2 0x4600 JUMP JUMPDEST DUP1 PUSH1 0x1F ADD PUSH1 0x20 DUP1 SWAP2 DIV MUL PUSH1 0x20 ADD PUSH1 0x40 MLOAD SWAP1 DUP2 ADD PUSH1 0x40 MSTORE DUP1 SWAP3 SWAP2 SWAP1 DUP2 DUP2 MSTORE PUSH1 0x20 ADD DUP3 DUP1 SLOAD PUSH2 0xB09 SWAP1 PUSH2 0x4600 JUMP JUMPDEST DUP1 ISZERO PUSH2 0xB56 JUMPI DUP1 PUSH1 0x1F LT PUSH2 0xB2B JUMPI PUSH2 0x100 DUP1 DUP4 SLOAD DIV MUL DUP4 MSTORE SWAP2 PUSH1 0x20 ADD SWAP2 PUSH2 0xB56 JUMP JUMPDEST DUP3 ADD SWAP2 SWAP1 PUSH1 0x0 MSTORE PUSH1 0x20 PUSH1 0x0 KECCAK256 SWAP1 JUMPDEST DUP2 SLOAD DUP2 MSTORE SWAP1 PUSH1 0x1 ADD SWAP1 PUSH1 0x20 ADD DUP1 DUP4 GT PUSH2 0xB39 JUMPI DUP3 SWAP1 SUB PUSH1 0x1F AND DUP3 ADD SWAP2 JUMPDEST POP POP POP POP POP DUP2 MSTORE PUSH1 0x20 ADD PUSH1 0x6 DUP3 ADD SLOAD DUP2 MSTORE PUSH1 0x20 ADD PUSH1 0x7 DUP3 ADD SLOAD DUP2 MSTORE PUSH1 0x20 ADD PUSH1 0x8 DUP3 ADD SLOAD DUP2 MSTORE PUSH1 0x20 ADD PUSH1 0x9 DUP3 ADD PUSH1 0x0 SWAP1 SLOAD SWAP1 PUSH2 0x100 EXP SWAP1 DIV PUSH1 0xFF AND PUSH1 0x2 DUP2 GT ISZERO PUSH2 0xBA2 JUMPI PUSH2 0xBA1 PUSH2 0x3C83 JUMP JUMPDEST JUMPDEST PUSH1 0x2 DUP2 GT ISZERO PUSH2 0xBB4 JUMPI PUSH2 0xBB3 PUSH2 0x3C83 JUMP JUMPDEST JUMPDEST DUP2 MSTORE POP POP SWAP1 POP SWAP2 SWAP1 POP JUMP JUMPDEST PUSH1 0x0 PUSH1 0x8 DUP1 SLOAD SWAP1 POP SWAP1 POP SWAP1 JUMP JUMPDEST PUSH1 0x0 PUSH20 0xFFFFFFFFFFFFFFFFFFFFFFFFFFFFFFFFFFFFFFFF AND DUP3 PUSH20 0xFFFFFFFFFFFFFFFFFFFFFFFFFFFFFFFFFFFFFFFF AND SUB PUSH2 0xC3E JUMPI PUSH1 0x0 PUSH1 0x40 MLOAD PUSH32 0x64A0AE9200000000000000000000000000000000000000000000000000000000 DUP2 MSTORE PUSH1 0x4 ADD PUSH2 0xC35 SWAP2 SWAP1 PUSH2 0x3B94 JUMP JUMPDEST PUSH1 0x40 MLOAD DUP1 SWAP2 SUB SWAP1 REVERT JUMPDEST PUSH1 0x0 PUSH2 0xC52 DUP4 DUP4 PUSH2 0xC4D PUSH2 0x2652 JUMP JUMPDEST PUSH2 0x266C JUMP JUMPDEST SWAP1 POP DUP4 PUSH20 0xFFFFFFFFFFFFFFFFFFFFFFFFFFFFFFFFFFFFFFFF AND DUP2 PUSH20 0xFFFFFFFFFFFFFFFFFFFFFFFFFFFFFFFFFFFFFFFF AND EQ PUSH2 0xCC8 JUMPI DUP4 DUP3 DUP3 PUSH1 0x40 MLOAD PUSH32 0x64283D7B00000000000000000000000000000000000000000000000000000000 DUP2 MSTORE PUSH1 0x4 ADD PUSH2 0xCBF SWAP4 SWAP3 SWAP2 SWAP1 PUSH2 0x46C3 JUMP JUMPDEST PUSH1 0x40 MLOAD DUP1 SWAP2 SUB SWAP1 REVERT JUMPDEST POP POP POP POP JUMP JUMPDEST PUSH1 0xE PUSH1 0x0 SWAP1 SLOAD SWAP1 PUSH2 0x100 EXP SWAP1 DIV PUSH20 0xFFFFFFFFFFFFFFFFFFFFFFFFFFFFFFFFFFFFFFFF AND DUP2 JUMP JUMPDEST PUSH1 0x0 PUSH2 0xCFF DUP4 PUSH2 0x135C JUMP JUMPDEST DUP3 LT PUSH2 0xD44 JUMPI DUP3 DUP3 PUSH1 0x40 MLOAD PUSH32 0xA57D13DC00000000000000000000000000000000000000000000000000000000 DUP2 MSTORE PUSH1 0x4 ADD PUSH2 0xD3B SWAP3 SWAP2 SWAP1 PUSH2 0x46FA JUMP JUMPDEST PUSH1 0x40 MLOAD DUP1 SWAP2 SUB SWAP1 REVERT JUMPDEST PUSH1 0x6 PUSH1 0x0 DUP5 PUSH20 0xFFFFFFFFFFFFFFFFFFFFFFFFFFFFFFFFFFFFFFFF AND PUSH20 0xFFFFFFFFFFFFFFFFFFFFFFFFFFFFFFFFFFFFFFFF AND DUP2 MSTORE PUSH1 0x20 ADD SWAP1 DUP2 MSTORE PUSH1 0x20 ADD PUSH1 0x0 KECCAK256 PUSH1 0x0 DUP4 DUP2 MSTORE PUSH1 0x20 ADD SWAP1 DUP2 MSTORE PUSH1 0x20 ADD PUSH1 0x0 KECCAK256 SLOAD SWAP1 POP SWAP3 SWAP2 POP POP JUMP JUMPDEST PUSH1 0xE PUSH1 0x0 SWAP1 SLOAD SWAP1 PUSH2 0x100 EXP SWAP1 DIV PUSH20 0xFFFFFFFFFFFFFFFFFFFFFFFFFFFFFFFFFFFFFFFF AND PUSH20 0xFFFFFFFFFFFFFFFFFFFFFFFFFFFFFFFFFFFFFFFF AND CALLER PUSH20 0xFFFFFFFFFFFFFFFFFFFFFFFFFFFFFFFFFFFFFFFF AND EQ PUSH2 0xE2D JUMPI PUSH1 0x40 MLOAD PUSH32 0x8C379A000000000000000000000000000000000000000000000000000000000 DUP2 MSTORE PUSH1 0x4 ADD PUSH2 0xE24 SWAP1 PUSH2 0x4795 JUMP JUMPDEST PUSH1 0x40 MLOAD DUP1 SWAP2 SUB SWAP1 REVERT JUMPDEST PUSH2 0xE35 PUSH2 0x2789 JUMP JUMPDEST PUSH1 0x0 PUSH1 0xD PUSH1 0x0 DUP5 DUP2 MSTORE PUSH1 0x20 ADD SWAP1 DUP2 MSTORE PUSH1 0x20 ADD PUSH1 0x0 KECCAK256 SWAP1 POP PUSH1 0x0 PUSH1 0x2 DUP2 GT ISZERO PUSH2 0xE60 JUMPI PUSH2 0xE5F PUSH2 0x3C83 JUMP JUMPDEST JUMPDEST DUP2 PUSH1 0x9 ADD PUSH1 0x0 SWAP1 SLOAD SWAP1 PUSH2 0x100 EXP SWAP1 DIV PUSH1 0xFF AND PUSH1 0x2 DUP2 GT ISZERO PUSH2 0xE84 JUMPI PUSH2 0xE83 PUSH2 0x3C83 JUMP JUMPDEST JUMPDEST EQ PUSH2 0xEC4 JUMPI PUSH1 0x40 MLOAD PUSH32 0x8C379A000000000000000000000000000000000000000000000000000000000 DUP2 MSTORE PUSH1 0x4 ADD PUSH2 0xEBB SWAP1 PUSH2 0x4827 JUMP JUMPDEST PUSH1 0x40 MLOAD DUP1 SWAP2 SUB SWAP1 REVERT JUMPDEST PUSH1 0x0 DUP2 PUSH1 0x2 ADD DUP1 SLOAD PUSH2 0xED5 SWAP1 PUSH2 0x4600 JUMP JUMPDEST SWAP1 POP GT PUSH2 0xF17 JUMPI PUSH1 0x40 MLOAD PUSH32 0x8C379A000000000000000000000000000000000000000000000000000000000 DUP2 MSTORE PUSH1 0x4 ADD PUSH2 0xF0E SWAP1 PUSH2 0x46A3 JUMP JUMPDEST PUSH1 0x40 MLOAD DUP1 SWAP2 SUB SWAP1 REVERT JUMPDEST DUP2 ISZERO PUSH2 0x107B JUMPI PUSH1 0x1 DUP2 PUSH1 0x9 ADD PUSH1 0x0 PUSH2 0x100 EXP DUP2 SLOAD DUP2 PUSH1 0xFF MUL NOT AND SWAP1 DUP4 PUSH1 0x2 DUP2 GT ISZERO PUSH2 0xF45 JUMPI PUSH2 0xF44 PUSH2 0x3C83 JUMP JUMPDEST JUMPDEST MUL OR SWAP1 SSTORE POP PUSH2 0xF78 DUP2 PUSH1 0x1 ADD PUSH1 0x0 SWAP1 SLOAD SWAP1 PUSH2 0x100 EXP SWAP1 DIV PUSH20 0xFFFFFFFFFFFFFFFFFFFFFFFFFFFFFFFFFFFFFFFF AND DUP5 PUSH2 0x27CF JUMP JUMPDEST PUSH1 0x0 PUSH1 0xE PUSH1 0x0 SWAP1 SLOAD SWAP1 PUSH2 0x100 EXP SWAP1 DIV PUSH20 0xFFFFFFFFFFFFFFFFFFFFFFFFFFFFFFFFFFFFFFFF AND PUSH20 0xFFFFFFFFFFFFFFFFFFFFFFFFFFFFFFFFFFFFFFFF AND PUSH1 0xF SLOAD PUSH1 0x40 MLOAD PUSH2 0xFC2 SWAP1 PUSH2 0x4878 JUMP JUMPDEST PUSH1 0x0 PUSH1 0x40 MLOAD DUP1 DUP4 SUB DUP2 DUP6 DUP8 GAS CALL SWAP3 POP POP POP RETURNDATASIZE DUP1 PUSH1 0x0 DUP2 EQ PUSH2 0xFFF JUMPI PUSH1 0x40 MLOAD SWAP2 POP PUSH1 0x1F NOT PUSH1 0x3F RETURNDATASIZE ADD AND DUP3 ADD PUSH1 0x40 MSTORE RETURNDATASIZE DUP3 MSTORE RETURNDATASIZE PUSH1 0x0 PUSH1 0x20 DUP5 ADD RETURNDATACOPY PUSH2 0x1004 JUMP JUMPDEST PUSH1 0x60 SWAP2 POP JUMPDEST POP POP SWAP1 POP DUP1 PUSH2 0x1048 JUMPI PUSH1 0x40 MLOAD PUSH32 0x8C379A000000000000000000000000000000000000000000000000000000000 DUP2 MSTORE PUSH1 0x4 ADD PUSH2 0x103F SWAP1 PUSH2 0x48D9 JUMP JUMPDEST PUSH1 0x40 MLOAD DUP1 SWAP2 SUB SWAP1 REVERT JUMPDEST DUP4 PUSH32 0x251541517E7FDFBB2CB6B8C70A4FDAA5055DD01495174BCB394E5C6934AE6341 PUSH1 0x40 MLOAD PUSH1 0x40 MLOAD DUP1 SWAP2 SUB SWAP1 LOG2 POP PUSH2 0x11A9 JUMP JUMPDEST PUSH1 0x2 DUP2 PUSH1 0x9 ADD PUSH1 0x0 PUSH2 0x100 EXP DUP2 SLOAD DUP2 PUSH1 0xFF MUL NOT AND SWAP1 DUP4 PUSH1 0x2 DUP2 GT ISZERO PUSH2 0x10A3 JUMPI PUSH2 0x10A2 PUSH2 0x3C83 JUMP JUMPDEST JUMPDEST MUL OR SWAP1 SSTORE POP PUSH1 0x0 DUP2 PUSH1 0x1 ADD PUSH1 0x0 SWAP1 SLOAD SWAP1 PUSH2 0x100 EXP SWAP1 DIV PUSH20 0xFFFFFFFFFFFFFFFFFFFFFFFFFFFFFFFFFFFFFFFF AND PUSH20 0xFFFFFFFFFFFFFFFFFFFFFFFFFFFFFFFFFFFFFFFF AND PUSH1 0xF SLOAD PUSH1 0x40 MLOAD PUSH2 0x10F4 SWAP1 PUSH2 0x4878 JUMP JUMPDEST PUSH1 0x0 PUSH1 0x40 MLOAD DUP1 DUP4 SUB DUP2 DUP6 DUP8 GAS CALL SWAP3 POP POP POP RETURNDATASIZE DUP1 PUSH1 0x0 DUP2 EQ PUSH2 0x1131 JUMPI PUSH1 0x40 MLOAD SWAP2 POP PUSH1 0x1F NOT PUSH1 0x3F RETURNDATASIZE ADD AND DUP3 ADD PUSH1 0x40 MSTORE RETURNDATASIZE DUP3 MSTORE RETURNDATASIZE PUSH1 0x0 PUSH1 0x20 DUP5 ADD RETURNDATACOPY PUSH2 0x1136 JUMP JUMPDEST PUSH1 0x60 SWAP2 POP JUMPDEST POP POP SWAP1 POP DUP1 PUSH2 0x117A JUMPI PUSH1 0x40 MLOAD PUSH32 0x8C379A000000000000000000000000000000000000000000000000000000000 DUP2 MSTORE PUSH1 0x4 ADD PUSH2 0x1171 SWAP1 PUSH2 0x4945 JUMP JUMPDEST PUSH1 0x40 MLOAD DUP1 SWAP2 SUB SWAP1 REVERT JUMPDEST DUP4 PUSH32 0x2633BABB73BC64AB969A0264C45B1CD034B86F5B1890C80BA6B1287F248DF2A5 PUSH1 0x40 MLOAD PUSH1 0x40 MLOAD DUP1 SWAP2 SUB SWAP1 LOG2 POP JUMPDEST POP PUSH2 0x11B2 PUSH2 0x28C8 JUMP JUMPDEST POP POP JUMP JUMPDEST PUSH2 0x11D1 DUP4 DUP4 DUP4 PUSH1 0x40 MLOAD DUP1 PUSH1 0x20 ADD PUSH1 0x40 MSTORE DUP1 PUSH1 0x0 DUP2 MSTORE POP PUSH2 0x1A4C JUMP JUMPDEST POP POP POP JUMP JUMPDEST PUSH1 0x0 PUSH2 0x11E0 PUSH2 0xBBF JUMP JUMPDEST DUP3 LT PUSH2 0x1226 JUMPI PUSH1 0x0 DUP3 PUSH1 0x40 MLOAD PUSH32 0xA57D13DC00000000000000000000000000000000000000000000000000000000 DUP2 MSTORE PUSH1 0x4 ADD PUSH2 0x121D SWAP3 SWAP2 SWAP1 PUSH2 0x46FA JUMP JUMPDEST PUSH1 0x40 MLOAD DUP1 SWAP2 SUB SWAP1 REVERT JUMPDEST PUSH1 0x8 DUP3 DUP2 SLOAD DUP2 LT PUSH2 0x123A JUMPI PUSH2 0x1239 PUSH2 0x4965 JUMP JUMPDEST JUMPDEST SWAP1 PUSH1 0x0 MSTORE PUSH1 0x20 PUSH1 0x0 KECCAK256 ADD SLOAD SWAP1 POP SWAP2 SWAP1 POP JUMP JUMPDEST PUSH2 0x1254 PUSH2 0x28D2 JUMP JUMPDEST PUSH1 0x0 PUSH20 0xFFFFFFFFFFFFFFFFFFFFFFFFFFFFFFFFFFFFFFFF AND DUP2 PUSH20 0xFFFFFFFFFFFFFFFFFFFFFFFFFFFFFFFFFFFFFFFF AND SUB PUSH2 0x12C3 JUMPI PUSH1 0x40 MLOAD PUSH32 0x8C379A000000000000000000000000000000000000000000000000000000000 DUP2 MSTORE PUSH1 0x4 ADD PUSH2 0x12BA SWAP1 PUSH2 0x4A06 JUMP JUMPDEST PUSH1 0x40 MLOAD DUP1 SWAP2 SUB SWAP1 REVERT JUMPDEST DUP1 PUSH1 0xE PUSH1 0x0 PUSH2 0x100 EXP DUP2 SLOAD DUP2 PUSH20 0xFFFFFFFFFFFFFFFFFFFFFFFFFFFFFFFFFFFFFFFF MUL NOT AND SWAP1 DUP4 PUSH20 0xFFFFFFFFFFFFFFFFFFFFFFFFFFFFFFFFFFFFFFFF AND MUL OR SWAP1 SSTORE POP DUP1 PUSH20 0xFFFFFFFFFFFFFFFFFFFFFFFFFFFFFFFFFFFFFFFF AND PUSH32 0xD24015CC99CC1700CAFCA3042840A1D8AC1E3964FD2E0E37EA29C654056EE327 PUSH1 0x40 MLOAD PUSH1 0x40 MLOAD DUP1 SWAP2 SUB SWAP1 LOG2 POP JUMP JUMPDEST PUSH1 0x0 PUSH2 0x1355 DUP3 PUSH2 0x258D JUMP JUMPDEST SWAP1 POP SWAP2 SWAP1 POP JUMP JUMPDEST PUSH1 0x0 DUP1 PUSH20 0xFFFFFFFFFFFFFFFFFFFFFFFFFFFFFFFFFFFFFFFF AND DUP3 PUSH20 0xFFFFFFFFFFFFFFFFFFFFFFFFFFFFFFFFFFFFFFFF AND SUB PUSH2 0x13CF JUMPI PUSH1 0x0 PUSH1 0x40 MLOAD PUSH32 0x89C62B6400000000000000000000000000000000000000000000000000000000 DUP2 MSTORE PUSH1 0x4 ADD PUSH2 0x13C6 SWAP2 SWAP1 PUSH2 0x3B94 JUMP JUMPDEST PUSH1 0x40 MLOAD DUP1 SWAP2 SUB SWAP1 REVERT JUMPDEST PUSH1 0x3 PUSH1 0x0 DUP4 PUSH20 0xFFFFFFFFFFFFFFFFFFFFFFFFFFFFFFFFFFFFFFFF AND PUSH20 0xFFFFFFFFFFFFFFFFFFFFFFFFFFFFFFFFFFFFFFFF AND DUP2 MSTORE PUSH1 0x20 ADD SWAP1 DUP2 MSTORE PUSH1 0x20 ADD PUSH1 0x0 KECCAK256 SLOAD SWAP1 POP SWAP2 SWAP1 POP JUMP JUMPDEST PUSH2 0x141E PUSH2 0x28D2 JUMP JUMPDEST PUSH2 0x1428 PUSH1 0x0 PUSH2 0x2959 JUMP JUMPDEST JUMP JUMPDEST PUSH1 0xC SLOAD DUP2 JUMP JUMPDEST PUSH1 0x0 PUSH1 0xA PUSH1 0x0 SWAP1 SLOAD SWAP1 PUSH2 0x100 EXP SWAP1 DIV PUSH20 0xFFFFFFFFFFFFFFFFFFFFFFFFFFFFFFFFFFFFFFFF AND SWAP1 POP SWAP1 JUMP JUMPDEST PUSH1 0x60 PUSH1 0x1 DUP1 SLOAD PUSH2 0x1469 SWAP1 PUSH2 0x4600 JUMP JUMPDEST DUP1 PUSH1 0x1F ADD PUSH1 0x20 DUP1 SWAP2 DIV MUL PUSH1 0x20 ADD PUSH1 0x40 MLOAD SWAP1 DUP2 ADD PUSH1 0x40 MSTORE DUP1 SWAP3 SWAP2 SWAP1 DUP2 DUP2 MSTORE PUSH1 0x20 ADD DUP3 DUP1 SLOAD PUSH2 0x1495 SWAP1 PUSH2 0x4600 JUMP JUMPDEST DUP1 ISZERO PUSH2 0x14E2 JUMPI DUP1 PUSH1 0x1F LT PUSH2 0x14B7 JUMPI PUSH2 0x100 DUP1 DUP4 SLOAD DIV MUL DUP4 MSTORE SWAP2 PUSH1 0x20 ADD SWAP2 PUSH2 0x14E2 JUMP JUMPDEST DUP3 ADD SWAP2 SWAP1 PUSH1 0x0 MSTORE PUSH1 0x20 PUSH1 0x0 KECCAK256 SWAP1 JUMPDEST DUP2 SLOAD DUP2 MSTORE SWAP1 PUSH1 0x1 ADD SWAP1 PUSH1 0x20 ADD DUP1 DUP4 GT PUSH2 0x14C5 JUMPI DUP3 SWAP1 SUB PUSH1 0x1F AND DUP3 ADD SWAP2 JUMPDEST POP POP POP POP POP SWAP1 POP SWAP1 JUMP JUMPDEST PUSH2 0x14FE PUSH2 0x14F7 PUSH2 0x2652 JUMP JUMPDEST DUP4 DUP4 PUSH2 0x2A1F JUMP JUMPDEST POP POP JUMP JUMPDEST PUSH1 0xF SLOAD DUP2 JUMP JUMPDEST PUSH2 0x1510 PUSH2 0x28D2 JUMP JUMPDEST DUP1 PUSH1 0xF DUP2 SWAP1 SSTORE POP PUSH32 0xB28E93BA12CFE6381FACD1FB8BBD27A52D11B825C1801EB744C14F070365486A DUP2 PUSH1 0x40 MLOAD PUSH2 0x1546 SWAP2 SWAP1 PUSH2 0x3E1A JUMP JUMPDEST PUSH1 0x40 MLOAD DUP1 SWAP2 SUB SWAP1 LOG1 POP JUMP JUMPDEST PUSH1 0x60 PUSH1 0x0 DUP1 PUSH1 0x1 SWAP1 POP JUMPDEST PUSH1 0xC SLOAD DUP2 LT ISZERO PUSH2 0x15FF JUMPI PUSH1 0x0 PUSH1 0xD PUSH1 0x0 DUP4 DUP2 MSTORE PUSH1 0x20 ADD SWAP1 DUP2 MSTORE PUSH1 0x20 ADD PUSH1 0x0 KECCAK256 PUSH1 0x2 ADD DUP1 SLOAD PUSH2 0x1588 SWAP1 PUSH2 0x4600 JUMP JUMPDEST SWAP1 POP GT DUP1 ISZERO PUSH2 0x15DE JUMPI POP PUSH1 0x1 PUSH1 0x2 DUP2 GT ISZERO PUSH2 0x15A6 JUMPI PUSH2 0x15A5 PUSH2 0x3C83 JUMP JUMPDEST JUMPDEST PUSH1 0xD PUSH1 0x0 DUP4 DUP2 MSTORE PUSH1 0x20 ADD SWAP1 DUP2 MSTORE PUSH1 0x20 ADD PUSH1 0x0 KECCAK256 PUSH1 0x9 ADD PUSH1 0x0 SWAP1 SLOAD SWAP1 PUSH2 0x100 EXP SWAP1 DIV PUSH1 0xFF AND PUSH1 0x2 DUP2 GT ISZERO PUSH2 0x15DC JUMPI PUSH2 0x15DB PUSH2 0x3C83 JUMP JUMPDEST JUMPDEST EQ JUMPDEST ISZERO PUSH2 0x15F2 JUMPI DUP2 DUP1 PUSH2 0x15EE SWAP1 PUSH2 0x4A55 JUMP JUMPDEST SWAP3 POP POP JUMPDEST DUP1 DUP1 PUSH1 0x1 ADD SWAP2 POP POP PUSH2 0x155B JUMP JUMPDEST POP PUSH1 0x0 DUP2 PUSH8 0xFFFFFFFFFFFFFFFF DUP2 GT ISZERO PUSH2 0x161C JUMPI PUSH2 0x161B PUSH2 0x413E JUMP JUMPDEST JUMPDEST PUSH1 0x40 MLOAD SWAP1 DUP1 DUP3 MSTORE DUP1 PUSH1 0x20 MUL PUSH1 0x20 ADD DUP3 ADD PUSH1 0x40 MSTORE DUP1 ISZERO PUSH2 0x1655 JUMPI DUP2 PUSH1 0x20 ADD JUMPDEST PUSH2 0x1642 PUSH2 0x38F4 JUMP JUMPDEST DUP2 MSTORE PUSH1 0x20 ADD SWAP1 PUSH1 0x1 SWAP1 SUB SWAP1 DUP2 PUSH2 0x163A JUMPI SWAP1 POP JUMPDEST POP SWAP1 POP PUSH1 0x0 DUP1 PUSH1 0x1 SWAP1 POP JUMPDEST PUSH1 0xC SLOAD DUP2 LT ISZERO PUSH2 0x1A42 JUMPI PUSH1 0x0 PUSH1 0xD PUSH1 0x0 DUP4 DUP2 MSTORE PUSH1 0x20 ADD SWAP1 DUP2 MSTORE PUSH1 0x20 ADD PUSH1 0x0 KECCAK256 PUSH1 0x2 ADD DUP1 SLOAD PUSH2 0x168D SWAP1 PUSH2 0x4600 JUMP JUMPDEST SWAP1 POP GT DUP1 ISZERO PUSH2 0x16E3 JUMPI POP PUSH1 0x1 PUSH1 0x2 DUP2 GT ISZERO PUSH2 0x16AB JUMPI PUSH2 0x16AA PUSH2 0x3C83 JUMP JUMPDEST JUMPDEST PUSH1 0xD PUSH1 0x0 DUP4 DUP2 MSTORE PUSH1 0x20 ADD SWAP1 DUP2 MSTORE PUSH1 0x20 ADD PUSH1 0x0 KECCAK256 PUSH1 0x9 ADD PUSH1 0x0 SWAP1 SLOAD SWAP1 PUSH2 0x100 EXP SWAP1 DIV PUSH1 0xFF AND PUSH1 0x2 DUP2 GT ISZERO PUSH2 0x16E1 JUMPI PUSH2 0x16E0 PUSH2 0x3C83 JUMP JUMPDEST JUMPDEST EQ JUMPDEST ISZERO PUSH2 0x1A35 JUMPI PUSH1 0xD PUSH1 0x0 DUP3 DUP2 MSTORE PUSH1 0x20 ADD SWAP1 DUP2 MSTORE PUSH1 0x20 ADD PUSH1 0x0 KECCAK256 PUSH1 0x40 MLOAD DUP1 PUSH2 0x140 ADD PUSH1 0x40 MSTORE SWAP1 DUP2 PUSH1 0x0 DUP3 ADD SLOAD DUP2 MSTORE PUSH1 0x20 ADD PUSH1 0x1 DUP3 ADD PUSH1 0x0 SWAP1 SLOAD SWAP1 PUSH2 0x100 EXP SWAP1 DIV PUSH20 0xFFFFFFFFFFFFFFFFFFFFFFFFFFFFFFFFFFFFFFFF AND PUSH20 0xFFFFFFFFFFFFFFFFFFFFFFFFFFFFFFFFFFFFFFFF AND PUSH20 0xFFFFFFFFFFFFFFFFFFFFFFFFFFFFFFFFFFFFFFFF AND DUP2 MSTORE PUSH1 0x20 ADD PUSH1 0x2 DUP3 ADD DUP1 SLOAD PUSH2 0x1777 SWAP1 PUSH2 0x4600 JUMP JUMPDEST DUP1 PUSH1 0x1F ADD PUSH1 0x20 DUP1 SWAP2 DIV MUL PUSH1 0x20 ADD PUSH1 0x40 MLOAD SWAP1 DUP2 ADD PUSH1 0x40 MSTORE DUP1 SWAP3 SWAP2 SWAP1 DUP2 DUP2 MSTORE PUSH1 0x20 ADD DUP3 DUP1 SLOAD PUSH2 0x17A3 SWAP1 PUSH2 0x4600 JUMP JUMPDEST DUP1 ISZERO PUSH2 0x17F0 JUMPI DUP1 PUSH1 0x1F LT PUSH2 0x17C5 JUMPI PUSH2 0x100 DUP1 DUP4 SLOAD DIV MUL DUP4 MSTORE SWAP2 PUSH1 0x20 ADD SWAP2 PUSH2 0x17F0 JUMP JUMPDEST DUP3 ADD SWAP2 SWAP1 PUSH1 0x0 MSTORE PUSH1 0x20 PUSH1 0x0 KECCAK256 SWAP1 JUMPDEST DUP2 SLOAD DUP2 MSTORE SWAP1 PUSH1 0x1 ADD SWAP1 PUSH1 0x20 ADD DUP1 DUP4 GT PUSH2 0x17D3 JUMPI DUP3 SWAP1 SUB PUSH1 0x1F AND DUP3 ADD SWAP2 JUMPDEST POP POP POP POP POP DUP2 MSTORE PUSH1 0x20 ADD PUSH1 0x3 DUP3 ADD DUP1 SLOAD PUSH2 0x1809 SWAP1 PUSH2 0x4600 JUMP JUMPDEST DUP1 PUSH1 0x1F ADD PUSH1 0x20 DUP1 SWAP2 DIV MUL PUSH1 0x20 ADD PUSH1 0x40 MLOAD SWAP1 DUP2 ADD PUSH1 0x40 MSTORE DUP1 SWAP3 SWAP2 SWAP1 DUP2 DUP2 MSTORE PUSH1 0x20 ADD DUP3 DUP1 SLOAD PUSH2 0x1835 SWAP1 PUSH2 0x4600 JUMP JUMPDEST DUP1 ISZERO PUSH2 0x1882 JUMPI DUP1 PUSH1 0x1F LT PUSH2 0x1857 JUMPI PUSH2 0x100 DUP1 DUP4 SLOAD DIV MUL DUP4 MSTORE SWAP2 PUSH1 0x20 ADD SWAP2 PUSH2 0x1882 JUMP JUMPDEST DUP3 ADD SWAP2 SWAP1 PUSH1 0x0 MSTORE PUSH1 0x20 PUSH1 0x0 KECCAK256 SWAP1 JUMPDEST DUP2 SLOAD DUP2 MSTORE SWAP1 PUSH1 0x1 ADD SWAP1 PUSH1 0x20 ADD DUP1 DUP4 GT PUSH2 0x1865 JUMPI DUP3 SWAP1 SUB PUSH1 0x1F AND DUP3 ADD SWAP2 JUMPDEST POP POP POP POP POP DUP2 MSTORE PUSH1 0x20 ADD PUSH1 0x4 DUP3 ADD DUP1 SLOAD PUSH2 0x189B SWAP1 PUSH2 0x4600 JUMP JUMPDEST DUP1 PUSH1 0x1F ADD PUSH1 0x20 DUP1 SWAP2 DIV MUL PUSH1 0x20 ADD PUSH1 0x40 MLOAD SWAP1 DUP2 ADD PUSH1 0x40 MSTORE DUP1 SWAP3 SWAP2 SWAP1 DUP2 DUP2 MSTORE PUSH1 0x20 ADD DUP3 DUP1 SLOAD PUSH2 0x18C7 SWAP1 PUSH2 0x4600 JUMP JUMPDEST DUP1 ISZERO PUSH2 0x1914 JUMPI DUP1 PUSH1 0x1F LT PUSH2 0x18E9 JUMPI PUSH2 0x100 DUP1 DUP4 SLOAD DIV MUL DUP4 MSTORE SWAP2 PUSH1 0x20 ADD SWAP2 PUSH2 0x1914 JUMP JUMPDEST DUP3 ADD SWAP2 SWAP1 PUSH1 0x0 MSTORE PUSH1 0x20 PUSH1 0x0 KECCAK256 SWAP1 JUMPDEST DUP2 SLOAD DUP2 MSTORE SWAP1 PUSH1 0x1 ADD SWAP1 PUSH1 0x20 ADD DUP1 DUP4 GT PUSH2 0x18F7 JUMPI DUP3 SWAP1 SUB PUSH1 0x1F AND DUP3 ADD SWAP2 JUMPDEST POP POP POP POP POP DUP2 MSTORE PUSH1 0x20 ADD PUSH1 0x5 DUP3 ADD DUP1 SLOAD PUSH2 0x192D SWAP1 PUSH2 0x4600 JUMP JUMPDEST DUP1 PUSH1 0x1F ADD PUSH1 0x20 DUP1 SWAP2 DIV MUL PUSH1 0x20 ADD PUSH1 0x40 MLOAD SWAP1 DUP2 ADD PUSH1 0x40 MSTORE DUP1 SWAP3 SWAP2 SWAP1 DUP2 DUP2 MSTORE PUSH1 0x20 ADD DUP3 DUP1 SLOAD PUSH2 0x1959 SWAP1 PUSH2 0x4600 JUMP JUMPDEST DUP1 ISZERO PUSH2 0x19A6 JUMPI DUP1 PUSH1 0x1F LT PUSH2 0x197B JUMPI PUSH2 0x100 DUP1 DUP4 SLOAD DIV MUL DUP4 MSTORE SWAP2 PUSH1 0x20 ADD SWAP2 PUSH2 0x19A6 JUMP JUMPDEST DUP3 ADD SWAP2 SWAP1 PUSH1 0x0 MSTORE PUSH1 0x20 PUSH1 0x0 KECCAK256 SWAP1 JUMPDEST DUP2 SLOAD DUP2 MSTORE SWAP1 PUSH1 0x1 ADD SWAP1 PUSH1 0x20 ADD DUP1 DUP4 GT PUSH2 0x1989 JUMPI DUP3 SWAP1 SUB PUSH1 0x1F AND DUP3 ADD SWAP2 JUMPDEST POP POP POP POP POP DUP2 MSTORE PUSH1 0x20 ADD PUSH1 0x6 DUP3 ADD SLOAD DUP2 MSTORE PUSH1 0x20 ADD PUSH1 0x7 DUP3 ADD SLOAD DUP2 MSTORE PUSH1 0x20 ADD PUSH1 0x8 DUP3 ADD SLOAD DUP2 MSTORE PUSH1 0x20 ADD PUSH1 0x9 DUP3 ADD PUSH1 0x0 SWAP1 SLOAD SWAP1 PUSH2 0x100 EXP SWAP1 DIV PUSH1 0xFF AND PUSH1 0x2 DUP2 GT ISZERO PUSH2 0x19F2 JUMPI PUSH2 0x19F1 PUSH2 0x3C83 JUMP JUMPDEST JUMPDEST PUSH1 0x2 DUP2 GT ISZERO PUSH2 0x1A04 JUMPI PUSH2 0x1A03 PUSH2 0x3C83 JUMP JUMPDEST JUMPDEST DUP2 MSTORE POP POP DUP4 DUP4 DUP2 MLOAD DUP2 LT PUSH2 0x1A1B JUMPI PUSH2 0x1A1A PUSH2 0x4965 JUMP JUMPDEST JUMPDEST PUSH1 0x20 MUL PUSH1 0x20 ADD ADD DUP2 SWAP1 MSTORE POP DUP2 DUP1 PUSH2 0x1A31 SWAP1 PUSH2 0x4A55 JUMP JUMPDEST SWAP3 POP POP JUMPDEST DUP1 DUP1 PUSH1 0x1 ADD SWAP2 POP POP PUSH2 0x1660 JUMP JUMPDEST POP DUP2 SWAP4 POP POP POP POP SWAP1 JUMP JUMPDEST PUSH2 0x1A57 DUP5 DUP5 DUP5 PUSH2 0xBCC JUMP JUMPDEST PUSH2 0x1A6B PUSH2 0x1A62 PUSH2 0x2652 JUMP JUMPDEST DUP6 DUP6 DUP6 DUP6 PUSH2 0x2B8E JUMP JUMPDEST POP POP POP POP JUMP JUMPDEST PUSH1 0x60 PUSH2 0x1A7C DUP3 PUSH2 0x258D JUMP JUMPDEST POP PUSH1 0x0 PUSH2 0x1A87 PUSH2 0x2D3F JUMP JUMPDEST SWAP1 POP PUSH1 0x0 DUP2 MLOAD GT PUSH2 0x1AA7 JUMPI PUSH1 0x40 MLOAD DUP1 PUSH1 0x20 ADD PUSH1 0x40 MSTORE DUP1 PUSH1 0x0 DUP2 MSTORE POP PUSH2 0x1AD2 JUMP JUMPDEST DUP1 PUSH2 0x1AB1 DUP5 PUSH2 0x2D56 JUMP JUMPDEST PUSH1 0x40 MLOAD PUSH1 0x20 ADD PUSH2 0x1AC2 SWAP3 SWAP2 SWAP1 PUSH2 0x4AD9 JUMP JUMPDEST PUSH1 0x40 MLOAD PUSH1 0x20 DUP2 DUP4 SUB SUB DUP2 MSTORE SWAP1 PUSH1 0x40 MSTORE JUMPDEST SWAP2 POP POP SWAP2 SWAP1 POP JUMP JUMPDEST PUSH2 0x1AE2 PUSH2 0x2789 JUMP JUMPDEST PUSH1 0x0 PUSH1 0xD PUSH1 0x0 DUP5 DUP2 MSTORE PUSH1 0x20 ADD SWAP1 DUP2 MSTORE PUSH1 0x20 ADD PUSH1 0x0 KECCAK256 SWAP1 POP PUSH1 0x0 DUP2 PUSH1 0x2 ADD DUP1 SLOAD PUSH2 0x1B0A SWAP1 PUSH2 0x4600 JUMP JUMPDEST SWAP1 POP GT PUSH2 0x1B4C JUMPI PUSH1 0x40 MLOAD PUSH32 0x8C379A000000000000000000000000000000000000000000000000000000000 DUP2 MSTORE PUSH1 0x4 ADD PUSH2 0x1B43 SWAP1 PUSH2 0x46A3 JUMP JUMPDEST PUSH1 0x40 MLOAD DUP1 SWAP2 SUB SWAP1 REVERT JUMPDEST PUSH1 0x1 PUSH1 0x2 DUP2 GT ISZERO PUSH2 0x1B60 JUMPI PUSH2 0x1B5F PUSH2 0x3C83 JUMP JUMPDEST JUMPDEST DUP2 PUSH1 0x9 ADD PUSH1 0x0 SWAP1 SLOAD SWAP1 PUSH2 0x100 EXP SWAP1 DIV PUSH1 0xFF AND PUSH1 0x2 DUP2 GT ISZERO PUSH2 0x1B84 JUMPI PUSH2 0x1B83 PUSH2 0x3C83 JUMP JUMPDEST JUMPDEST EQ PUSH2 0x1BC4 JUMPI PUSH1 0x40 MLOAD PUSH32 0x8C379A000000000000000000000000000000000000000000000000000000000 DUP2 MSTORE PUSH1 0x4 ADD PUSH2 0x1BBB SWAP1 PUSH2 0x4B6F JUMP JUMPDEST PUSH1 0x40 MLOAD DUP1 SWAP2 SUB SWAP1 REVERT JUMPDEST PUSH1 0x0 DUP3 GT PUSH2 0x1C07 JUMPI PUSH1 0x40 MLOAD PUSH32 0x8C379A000000000000000000000000000000000000000000000000000000000 DUP2 MSTORE PUSH1 0x4 ADD PUSH2 0x1BFE SWAP1 PUSH2 0x4C01 JUMP JUMPDEST PUSH1 0x40 MLOAD DUP1 SWAP2 SUB SWAP1 REVERT JUMPDEST DUP1 PUSH1 0x8 ADD SLOAD DUP3 GT ISZERO PUSH2 0x1C4E JUMPI PUSH1 0x40 MLOAD PUSH32 0x8C379A000000000000000000000000000000000000000000000000000000000 DUP2 MSTORE PUSH1 0x4 ADD PUSH2 0x1C45 SWAP1 PUSH2 0x4C93 JUMP JUMPDEST PUSH1 0x40 MLOAD DUP1 SWAP2 SUB SWAP1 REVERT JUMPDEST PUSH1 0x0 DUP2 PUSH1 0x7 ADD SLOAD DUP4 PUSH2 0x1C60 SWAP2 SWAP1 PUSH2 0x4CB3 JUMP JUMPDEST SWAP1 POP DUP1 CALLVALUE EQ PUSH2 0x1CA4 JUMPI PUSH1 0x40 MLOAD PUSH32 0x8C379A000000000000000000000000000000000000000000000000000000000 DUP2 MSTORE PUSH1 0x4 ADD PUSH2 0x1C9B SWAP1 PUSH2 0x4D67 JUMP JUMPDEST PUSH1 0x40 MLOAD DUP1 SWAP2 SUB SWAP1 REVERT JUMPDEST PUSH1 0x0 PUSH2 0x1CAF DUP6 PUSH2 0x134A JUMP JUMPDEST SWAP1 POP DUP1 PUSH20 0xFFFFFFFFFFFFFFFFFFFFFFFFFFFFFFFFFFFFFFFF AND PUSH2 0x8FC DUP4 SWAP1 DUP2 ISZERO MUL SWAP1 PUSH1 0x40 MLOAD PUSH1 0x0 PUSH1 0x40 MLOAD DUP1 DUP4 SUB DUP2 DUP6 DUP9 DUP9 CALL SWAP4 POP POP POP POP ISZERO DUP1 ISZERO PUSH2 0x1CF7 JUMPI RETURNDATASIZE PUSH1 0x0 DUP1 RETURNDATACOPY RETURNDATASIZE PUSH1 0x0 REVERT JUMPDEST POP DUP4 DUP4 PUSH1 0x8 ADD PUSH1 0x0 DUP3 DUP3 SLOAD PUSH2 0x1D0C SWAP2 SWAP1 PUSH2 0x4D87 JUMP JUMPDEST SWAP3 POP POP DUP2 SWAP1 SSTORE POP CALLER PUSH20 0xFFFFFFFFFFFFFFFFFFFFFFFFFFFFFFFFFFFFFFFF AND DUP6 PUSH32 0x80C4F3B1904F05C8C1907DE32BB02DD69685A584A2E41A75414ACE634B4292F7 DUP7 DUP6 PUSH1 0x40 MLOAD PUSH2 0x1D5C SWAP3 SWAP2 SWAP1 PUSH2 0x4DBB JUMP JUMPDEST PUSH1 0x40 MLOAD DUP1 SWAP2 SUB SWAP1 LOG3 POP POP POP PUSH2 0x1D6F PUSH2 0x28C8 JUMP JUMPDEST POP POP JUMP JUMPDEST PUSH2 0x1D7B PUSH2 0x2789 JUMP JUMPDEST PUSH1 0xF SLOAD CALLVALUE EQ PUSH2 0x1DBF JUMPI PUSH1 0x40 MLOAD PUSH32 0x8C379A000000000000000000000000000000000000000000000000000000000 DUP2 MSTORE PUSH1 0x4 ADD PUSH2 0x1DB6 SWAP1 PUSH2 0x4E56 JUMP JUMPDEST PUSH1 0x40 MLOAD DUP1 SWAP2 SUB SWAP1 REVERT JUMPDEST PUSH1 0x0 DUP3 GT PUSH2 0x1E02 JUMPI PUSH1 0x40 MLOAD PUSH32 0x8C379A000000000000000000000000000000000000000000000000000000000 DUP2 MSTORE PUSH1 0x4 ADD PUSH2 0x1DF9 SWAP1 PUSH2 0x4EE8 JUMP JUMPDEST PUSH1 0x40 MLOAD DUP1 SWAP2 SUB SWAP1 REVERT JUMPDEST PUSH1 0x0 DUP2 GT PUSH2 0x1E45 JUMPI PUSH1 0x40 MLOAD PUSH32 0x8C379A000000000000000000000000000000000000000000000000000000000 DUP2 MSTORE PUSH1 0x4 ADD PUSH2 0x1E3C SWAP1 PUSH2 0x4F7A JUMP JUMPDEST PUSH1 0x40 MLOAD DUP1 SWAP2 SUB SWAP1 REVERT JUMPDEST PUSH1 0x0 DUP7 MLOAD GT PUSH2 0x1E89 JUMPI PUSH1 0x40 MLOAD PUSH32 0x8C379A000000000000000000000000000000000000000000000000000000000 DUP2 MSTORE PUSH1 0x4 ADD PUSH2 0x1E80 SWAP1 PUSH2 0x500C JUMP JUMPDEST PUSH1 0x40 MLOAD DUP1 SWAP2 SUB SWAP1 REVERT JUMPDEST PUSH1 0x0 DUP6 MLOAD GT PUSH2 0x1ECD JUMPI PUSH1 0x40 MLOAD PUSH32 0x8C379A000000000000000000000000000000000000000000000000000000000 DUP2 MSTORE PUSH1 0x4 ADD PUSH2 0x1EC4 SWAP1 PUSH2 0x509E JUMP JUMPDEST PUSH1 0x40 MLOAD DUP1 SWAP2 SUB SWAP1 REVERT JUMPDEST PUSH1 0x0 DUP5 MLOAD GT PUSH2 0x1F11 JUMPI PUSH1 0x40 MLOAD PUSH32 0x8C379A000000000000000000000000000000000000000000000000000000000 DUP2 MSTORE PUSH1 0x4 ADD PUSH2 0x1F08 SWAP1 PUSH2 0x5130 JUMP JUMPDEST PUSH1 0x40 MLOAD DUP1 SWAP2 SUB SWAP1 REVERT JUMPDEST PUSH1 0x0 DUP4 MLOAD GT PUSH2 0x1F55 JUMPI PUSH1 0x40 MLOAD PUSH32 0x8C379A000000000000000000000000000000000000000000000000000000000 DUP2 MSTORE PUSH1 0x4 ADD PUSH2 0x1F4C SWAP1 PUSH2 0x51C2 JUMP JUMPDEST PUSH1 0x40 MLOAD DUP1 SWAP2 SUB SWAP1 REVERT JUMPDEST PUSH1 0x0 PUSH1 0xC PUSH1 0x0 DUP2 SLOAD DUP1 SWAP3 SWAP2 SWAP1 PUSH2 0x1F6A SWAP1 PUSH2 0x4A55 JUMP JUMPDEST SWAP2 SWAP1 POP SSTORE SWAP1 POP PUSH1 0x40 MLOAD DUP1 PUSH2 0x140 ADD PUSH1 0x40 MSTORE DUP1 DUP3 DUP2 MSTORE PUSH1 0x20 ADD CALLER PUSH20 0xFFFFFFFFFFFFFFFFFFFFFFFFFFFFFFFFFFFFFFFF AND DUP2 MSTORE PUSH1 0x20 ADD DUP9 DUP2 MSTORE PUSH1 0x20 ADD DUP8 DUP2 MSTORE PUSH1 0x20 ADD DUP7 DUP2 MSTORE PUSH1 0x20 ADD DUP6 DUP2 MSTORE PUSH1 0x20 ADD DUP5 DUP2 MSTORE PUSH1 0x20 ADD DUP4 DUP2 MSTORE PUSH1 0x20 ADD DUP5 DUP2 MSTORE PUSH1 0x20 ADD PUSH1 0x0 PUSH1 0x2 DUP2 GT ISZERO PUSH2 0x1FDC JUMPI PUSH2 0x1FDB PUSH2 0x3C83 JUMP JUMPDEST JUMPDEST DUP2 MSTORE POP PUSH1 0xD PUSH1 0x0 DUP4 DUP2 MSTORE PUSH1 0x20 ADD SWAP1 DUP2 MSTORE PUSH1 0x20 ADD PUSH1 0x0 KECCAK256 PUSH1 0x0 DUP3 ADD MLOAD DUP2 PUSH1 0x0 ADD SSTORE PUSH1 0x20 DUP3 ADD MLOAD DUP2 PUSH1 0x1 ADD PUSH1 0x0 PUSH2 0x100 EXP DUP2 SLOAD DUP2 PUSH20 0xFFFFFFFFFFFFFFFFFFFFFFFFFFFFFFFFFFFFFFFF MUL NOT AND SWAP1 DUP4 PUSH20 0xFFFFFFFFFFFFFFFFFFFFFFFFFFFFFFFFFFFFFFFF AND MUL OR SWAP1 SSTORE POP PUSH1 0x40 DUP3 ADD MLOAD DUP2 PUSH1 0x2 ADD SWAP1 DUP2 PUSH2 0x2058 SWAP2 SWAP1 PUSH2 0x538E JUMP JUMPDEST POP PUSH1 0x60 DUP3 ADD MLOAD DUP2 PUSH1 0x3 ADD SWAP1 DUP2 PUSH2 0x206E SWAP2 SWAP1 PUSH2 0x538E JUMP JUMPDEST POP PUSH1 0x80 DUP3 ADD MLOAD DUP2 PUSH1 0x4 ADD SWAP1 DUP2 PUSH2 0x2084 SWAP2 SWAP1 PUSH2 0x538E JUMP JUMPDEST POP PUSH1 0xA0 DUP3 ADD MLOAD DUP2 PUSH1 0x5 ADD SWAP1 DUP2 PUSH2 0x209A SWAP2 SWAP1 PUSH2 0x538E JUMP JUMPDEST POP PUSH1 0xC0 DUP3 ADD MLOAD DUP2 PUSH1 0x6 ADD SSTORE PUSH1 0xE0 DUP3 ADD MLOAD DUP2 PUSH1 0x7 ADD SSTORE PUSH2 0x100 DUP3 ADD MLOAD DUP2 PUSH1 0x8 ADD SSTORE PUSH2 0x120 DUP3 ADD MLOAD DUP2 PUSH1 0x9 ADD PUSH1 0x0 PUSH2 0x100 EXP DUP2 SLOAD DUP2 PUSH1 0xFF MUL NOT AND SWAP1 DUP4 PUSH1 0x2 DUP2 GT ISZERO PUSH2 0x20E6 JUMPI PUSH2 0x20E5 PUSH2 0x3C83 JUMP JUMPDEST JUMPDEST MUL OR SWAP1 SSTORE POP SWAP1 POP POP CALLER PUSH20 0xFFFFFFFFFFFFFFFFFFFFFFFFFFFFFFFFFFFFFFFF AND DUP2 PUSH32 0x3C05FD90FDC758A5F8597D40A1A7B7B788EFDE552E50389FC2222D2EED6538DD DUP10 DUP10 DUP10 DUP10 DUP10 DUP10 PUSH1 0x40 MLOAD PUSH2 0x213F SWAP7 SWAP6 SWAP5 SWAP4 SWAP3 SWAP2 SWAP1 PUSH2 0x5460 JUMP JUMPDEST PUSH1 0x40 MLOAD DUP1 SWAP2 SUB SWAP1 LOG3 POP PUSH2 0x2150 PUSH2 0x28C8 JUMP JUMPDEST POP POP POP POP POP POP JUMP JUMPDEST PUSH1 0x0 PUSH1 0x5 PUSH1 0x0 DUP5 PUSH20 0xFFFFFFFFFFFFFFFFFFFFFFFFFFFFFFFFFFFFFFFF AND PUSH20 0xFFFFFFFFFFFFFFFFFFFFFFFFFFFFFFFFFFFFFFFF AND DUP2 MSTORE PUSH1 0x20 ADD SWAP1 DUP2 MSTORE PUSH1 0x20 ADD PUSH1 0x0 KECCAK256 PUSH1 0x0 DUP4 PUSH20 0xFFFFFFFFFFFFFFFFFFFFFFFFFFFFFFFFFFFFFFFF AND PUSH20 0xFFFFFFFFFFFFFFFFFFFFFFFFFFFFFFFFFFFFFFFF AND DUP2 MSTORE PUSH1 0x20 ADD SWAP1 DUP2 MSTORE PUSH1 0x20 ADD PUSH1 0x0 KECCAK256 PUSH1 0x0 SWAP1 SLOAD SWAP1 PUSH2 0x100 EXP SWAP1 DIV PUSH1 0xFF AND SWAP1 POP SWAP3 SWAP2 POP POP JUMP JUMPDEST PUSH2 0x21F4 PUSH2 0x28D2 JUMP JUMPDEST PUSH1 0x0 PUSH20 0xFFFFFFFFFFFFFFFFFFFFFFFFFFFFFFFFFFFFFFFF AND DUP2 PUSH20 0xFFFFFFFFFFFFFFFFFFFFFFFFFFFFFFFFFFFFFFFF AND SUB PUSH2 0x2266 JUMPI PUSH1 0x0 PUSH1 0x40 MLOAD PUSH32 0x1E4FBDF700000000000000000000000000000000000000000000000000000000 DUP2 MSTORE PUSH1 0x4 ADD PUSH2 0x225D SWAP2 SWAP1 PUSH2 0x3B94 JUMP JUMPDEST PUSH1 0x40 MLOAD DUP1 SWAP2 SUB SWAP1 REVERT JUMPDEST PUSH2 0x226F DUP2 PUSH2 0x2959 JUMP JUMPDEST POP JUMP JUMPDEST PUSH1 0xD PUSH1 0x20 MSTORE DUP1 PUSH1 0x0 MSTORE PUSH1 0x40 PUSH1 0x0 KECCAK256 PUSH1 0x0 SWAP2 POP SWAP1 POP DUP1 PUSH1 0x0 ADD SLOAD SWAP1 DUP1 PUSH1 0x1 ADD PUSH1 0x0 SWAP1 SLOAD SWAP1 PUSH2 0x100 EXP SWAP1 DIV PUSH20 0xFFFFFFFFFFFFFFFFFFFFFFFFFFFFFFFFFFFFFFFF AND SWAP1 DUP1 PUSH1 0x2 ADD DUP1 SLOAD PUSH2 0x22C1 SWAP1 PUSH2 0x4600 JUMP JUMPDEST DUP1 PUSH1 0x1F ADD PUSH1 0x20 DUP1 SWAP2 DIV MUL PUSH1 0x20 ADD PUSH1 0x40 MLOAD SWAP1 DUP2 ADD PUSH1 0x40 MSTORE DUP1 SWAP3 SWAP2 SWAP1 DUP2 DUP2 MSTORE PUSH1 0x20 ADD DUP3 DUP1 SLOAD PUSH2 0x22ED SWAP1 PUSH2 0x4600 JUMP JUMPDEST DUP1 ISZERO PUSH2 0x233A JUMPI DUP1 PUSH1 0x1F LT PUSH2 0x230F JUMPI PUSH2 0x100 DUP1 DUP4 SLOAD DIV MUL DUP4 MSTORE SWAP2 PUSH1 0x20 ADD SWAP2 PUSH2 0x233A JUMP JUMPDEST DUP3 ADD SWAP2 SWAP1 PUSH1 0x0 MSTORE PUSH1 0x20 PUSH1 0x0 KECCAK256 SWAP1 JUMPDEST DUP2 SLOAD DUP2 MSTORE SWAP1 PUSH1 0x1 ADD SWAP1 PUSH1 0x20 ADD DUP1 DUP4 GT PUSH2 0x231D JUMPI DUP3 SWAP1 SUB PUSH1 0x1F AND DUP3 ADD SWAP2 JUMPDEST POP POP POP POP POP SWAP1 DUP1 PUSH1 0x3 ADD DUP1 SLOAD PUSH2 0x234F SWAP1 PUSH2 0x4600 JUMP JUMPDEST DUP1 PUSH1 0x1F ADD PUSH1 0x20 DUP1 SWAP2 DIV MUL PUSH1 0x20 ADD PUSH1 0x40 MLOAD SWAP1 DUP2 ADD PUSH1 0x40 MSTORE DUP1 SWAP3 SWAP2 SWAP1 DUP2 DUP2 MSTORE PUSH1 0x20 ADD DUP3 DUP1 SLOAD PUSH2 0x237B SWAP1 PUSH2 0x4600 JUMP JUMPDEST DUP1 ISZERO PUSH2 0x23C8 JUMPI DUP1 PUSH1 0x1F LT PUSH2 0x239D JUMPI PUSH2 0x100 DUP1 DUP4 SLOAD DIV MUL DUP4 MSTORE SWAP2 PUSH1 0x20 ADD SWAP2 PUSH2 0x23C8 JUMP JUMPDEST DUP3 ADD SWAP2 SWAP1 PUSH1 0x0 MSTORE PUSH1 0x20 PUSH1 0x0 KECCAK256 SWAP1 JUMPDEST DUP2 SLOAD DUP2 MSTORE SWAP1 PUSH1 0x1 ADD SWAP1 PUSH1 0x20 ADD DUP1 DUP4 GT PUSH2 0x23AB JUMPI DUP3 SWAP1 SUB PUSH1 0x1F AND DUP3 ADD SWAP2 JUMPDEST POP POP POP POP POP SWAP1 DUP1 PUSH1 0x4 ADD DUP1 SLOAD PUSH2 0x23DD SWAP1 PUSH2 0x4600 JUMP JUMPDEST DUP1 PUSH1 0x1F ADD PUSH1 0x20 DUP1 SWAP2 DIV MUL PUSH1 0x20 ADD PUSH1 0x40 MLOAD SWAP1 DUP2 ADD PUSH1 0x40 MSTORE DUP1 SWAP3 SWAP2 SWAP1 DUP2 DUP2 MSTORE PUSH1 0x20 ADD DUP3 DUP1 SLOAD PUSH2 0x2409 SWAP1 PUSH2 0x4600 JUMP JUMPDEST DUP1 ISZERO PUSH2 0x2456 JUMPI DUP1 PUSH1 0x1F LT PUSH2 0x242B JUMPI PUSH2 0x100 DUP1 DUP4 SLOAD DIV MUL DUP4 MSTORE SWAP2 PUSH1 0x20 ADD SWAP2 PUSH2 0x2456 JUMP JUMPDEST DUP3 ADD SWAP2 SWAP1 PUSH1 0x0 MSTORE PUSH1 0x20 PUSH1 0x0 KECCAK256 SWAP1 JUMPDEST DUP2 SLOAD DUP2 MSTORE SWAP1 PUSH1 0x1 ADD SWAP1 PUSH1 0x20 ADD DUP1 DUP4 GT PUSH2 0x2439 JUMPI DUP3 SWAP1 SUB PUSH1 0x1F AND DUP3 ADD SWAP2 JUMPDEST POP POP POP POP POP SWAP1 DUP1 PUSH1 0x5 ADD DUP1 SLOAD PUSH2 0x246B SWAP1 PUSH2 0x4600 JUMP JUMPDEST DUP1 PUSH1 0x1F ADD PUSH1 0x20 DUP1 SWAP2 DIV MUL PUSH1 0x20 ADD PUSH1 0x40 MLOAD SWAP1 DUP2 ADD PUSH1 0x40 MSTORE DUP1 SWAP3 SWAP2 SWAP1 DUP2 DUP2 MSTORE PUSH1 0x20 ADD DUP3 DUP1 SLOAD PUSH2 0x2497 SWAP1 PUSH2 0x4600 JUMP JUMPDEST DUP1 ISZERO PUSH2 0x24E4 JUMPI DUP1 PUSH1 0x1F LT PUSH2 0x24B9 JUMPI PUSH2 0x100 DUP1 DUP4 SLOAD DIV MUL DUP4 MSTORE SWAP2 PUSH1 0x20 ADD SWAP2 PUSH2 0x24E4 JUMP JUMPDEST DUP3 ADD SWAP2 SWAP1 PUSH1 0x0 MSTORE PUSH1 0x20 PUSH1 0x0 KECCAK256 SWAP1 JUMPDEST DUP2 SLOAD DUP2 MSTORE SWAP1 PUSH1 0x1 ADD SWAP1 PUSH1 0x20 ADD DUP1 DUP4 GT PUSH2 0x24C7 JUMPI DUP3 SWAP1 SUB PUSH1 0x1F AND DUP3 ADD SWAP2 JUMPDEST POP POP POP POP POP SWAP1 DUP1 PUSH1 0x6 ADD SLOAD SWAP1 DUP1 PUSH1 0x7 ADD SLOAD SWAP1 DUP1 PUSH1 0x8 ADD SLOAD SWAP1 DUP1 PUSH1 0x9 ADD PUSH1 0x0 SWAP1 SLOAD SWAP1 PUSH2 0x100 EXP SWAP1 DIV PUSH1 0xFF AND SWAP1 POP DUP11 JUMP JUMPDEST PUSH1 0x0 PUSH32 0x780E9D6300000000000000000000000000000000000000000000000000000000 PUSH28 0xFFFFFFFFFFFFFFFFFFFFFFFFFFFFFFFFFFFFFFFFFFFFFFFFFFFFFFFF NOT AND DUP3 PUSH28 0xFFFFFFFFFFFFFFFFFFFFFFFFFFFFFFFFFFFFFFFFFFFFFFFFFFFFFFFF NOT AND EQ DUP1 PUSH2 0x2586 JUMPI POP PUSH2 0x2585 DUP3 PUSH2 0x2E24 JUMP JUMPDEST JUMPDEST SWAP1 POP SWAP2 SWAP1 POP JUMP JUMPDEST PUSH1 0x0 DUP1 PUSH2 0x2599 DUP4 PUSH2 0x2F06 JUMP JUMPDEST SWAP1 POP PUSH1 0x0 PUSH20 0xFFFFFFFFFFFFFFFFFFFFFFFFFFFFFFFFFFFFFFFF AND DUP2 PUSH20 0xFFFFFFFFFFFFFFFFFFFFFFFFFFFFFFFFFFFFFFFF AND SUB PUSH2 0x260C JUMPI DUP3 PUSH1 0x40 MLOAD PUSH32 0x7E27328900000000000000000000000000000000000000000000000000000000 DUP2 MSTORE PUSH1 0x4 ADD PUSH2 0x2603 SWAP2 SWAP1 PUSH2 0x3E1A JUMP JUMPDEST PUSH1 0x40 MLOAD DUP1 SWAP2 SUB SWAP1 REVERT JUMPDEST DUP1 SWAP2 POP POP SWAP2 SWAP1 POP JUMP JUMPDEST PUSH1 0x0 PUSH1 0x4 PUSH1 0x0 DUP4 DUP2 MSTORE PUSH1 0x20 ADD SWAP1 DUP2 MSTORE PUSH1 0x20 ADD PUSH1 0x0 KECCAK256 PUSH1 0x0 SWAP1 SLOAD SWAP1 PUSH2 0x100 EXP SWAP1 DIV PUSH20 0xFFFFFFFFFFFFFFFFFFFFFFFFFFFFFFFFFFFFFFFF AND SWAP1 POP SWAP2 SWAP1 POP JUMP JUMPDEST PUSH1 0x0 CALLER SWAP1 POP SWAP1 JUMP JUMPDEST PUSH2 0x2667 DUP4 DUP4 DUP4 PUSH1 0x1 PUSH2 0x2F43 JUMP JUMPDEST POP POP POP JUMP JUMPDEST PUSH1 0x0 DUP1 PUSH2 0x267A DUP6 DUP6 DUP6 PUSH2 0x3108 JUMP JUMPDEST SWAP1 POP PUSH1 0x0 PUSH20 0xFFFFFFFFFFFFFFFFFFFFFFFFFFFFFFFFFFFFFFFF AND DUP2 PUSH20 0xFFFFFFFFFFFFFFFFFFFFFFFFFFFFFFFFFFFFFFFF AND SUB PUSH2 0x26BE JUMPI PUSH2 0x26B9 DUP5 PUSH2 0x3322 JUMP JUMPDEST PUSH2 0x26FD JUMP JUMPDEST DUP5 PUSH20 0xFFFFFFFFFFFFFFFFFFFFFFFFFFFFFFFFFFFFFFFF AND DUP2 PUSH20 0xFFFFFFFFFFFFFFFFFFFFFFFFFFFFFFFFFFFFFFFF AND EQ PUSH2 0x26FC JUMPI PUSH2 0x26FB DUP2 DUP6 PUSH2 0x336B JUMP JUMPDEST JUMPDEST JUMPDEST PUSH1 0x0 PUSH20 0xFFFFFFFFFFFFFFFFFFFFFFFFFFFFFFFFFFFFFFFF AND DUP6 PUSH20 0xFFFFFFFFFFFFFFFFFFFFFFFFFFFFFFFFFFFFFFFF AND SUB PUSH2 0x273F JUMPI PUSH2 0x273A DUP5 PUSH2 0x3456 JUMP JUMPDEST PUSH2 0x277E JUMP JUMPDEST DUP5 PUSH20 0xFFFFFFFFFFFFFFFFFFFFFFFFFFFFFFFFFFFFFFFF AND DUP2 PUSH20 0xFFFFFFFFFFFFFFFFFFFFFFFFFFFFFFFFFFFFFFFF AND EQ PUSH2 0x277D JUMPI PUSH2 0x277C DUP6 DUP6 PUSH2 0x3527 JUMP JUMPDEST JUMPDEST JUMPDEST DUP1 SWAP2 POP POP SWAP4 SWAP3 POP POP POP JUMP JUMPDEST PUSH1 0x2 PUSH1 0xB SLOAD SUB PUSH2 0x27C5 JUMPI PUSH1 0x40 MLOAD PUSH32 0x3EE5AEB500000000000000000000000000000000000000000000000000000000 DUP2 MSTORE PUSH1 0x4 ADD PUSH1 0x40 MLOAD DUP1 SWAP2 SUB SWAP1 REVERT JUMPDEST PUSH1 0x2 PUSH1 0xB DUP2 SWAP1 SSTORE POP JUMP JUMPDEST PUSH1 0x0 PUSH20 0xFFFFFFFFFFFFFFFFFFFFFFFFFFFFFFFFFFFFFFFF AND DUP3 PUSH20 0xFFFFFFFFFFFFFFFFFFFFFFFFFFFFFFFFFFFFFFFF AND SUB PUSH2 0x2841 JUMPI PUSH1 0x0 PUSH1 0x40 MLOAD PUSH32 0x64A0AE9200000000000000000000000000000000000000000000000000000000 DUP2 MSTORE PUSH1 0x4 ADD PUSH2 0x2838 SWAP2 SWAP1 PUSH2 0x3B94 JUMP JUMPDEST PUSH1 0x40 MLOAD DUP1 SWAP2 SUB SWAP1 REVERT JUMPDEST PUSH1 0x0 PUSH2 0x284F DUP4 DUP4 PUSH1 0x0 PUSH2 0x266C JUMP JUMPDEST SWAP1 POP PUSH1 0x0 PUSH20 0xFFFFFFFFFFFFFFFFFFFFFFFFFFFFFFFFFFFFFFFF AND DUP2 PUSH20 0xFFFFFFFFFFFFFFFFFFFFFFFFFFFFFFFFFFFFFFFF AND EQ PUSH2 0x28C3 JUMPI PUSH1 0x0 PUSH1 0x40 MLOAD PUSH32 0x73C6AC6E00000000000000000000000000000000000000000000000000000000 DUP2 MSTORE PUSH1 0x4 ADD PUSH2 0x28BA SWAP2 SWAP1 PUSH2 0x3B94 JUMP JUMPDEST PUSH1 0x40 MLOAD DUP1 SWAP2 SUB SWAP1 REVERT JUMPDEST POP POP POP JUMP JUMPDEST PUSH1 0x1 PUSH1 0xB DUP2 SWAP1 SSTORE POP JUMP JUMPDEST PUSH2 0x28DA PUSH2 0x2652 JUMP JUMPDEST PUSH20 0xFFFFFFFFFFFFFFFFFFFFFFFFFFFFFFFFFFFFFFFF AND PUSH2 0x28F8 PUSH2 0x1430 JUMP JUMPDEST PUSH20 0xFFFFFFFFFFFFFFFFFFFFFFFFFFFFFFFFFFFFFFFF AND EQ PUSH2 0x2957 JUMPI PUSH2 0x291B PUSH2 0x2652 JUMP JUMPDEST PUSH1 0x40 MLOAD PUSH32 0x118CDAA700000000000000000000000000000000000000000000000000000000 DUP2 MSTORE PUSH1 0x4 ADD PUSH2 0x294E SWAP2 SWAP1 PUSH2 0x3B94 JUMP JUMPDEST PUSH1 0x40 MLOAD DUP1 SWAP2 SUB SWAP1 REVERT JUMPDEST JUMP JUMPDEST PUSH1 0x0 PUSH1 0xA PUSH1 0x0 SWAP1 SLOAD SWAP1 PUSH2 0x100 EXP SWAP1 DIV PUSH20 0xFFFFFFFFFFFFFFFFFFFFFFFFFFFFFFFFFFFFFFFF AND SWAP1 POP DUP2 PUSH1 0xA PUSH1 0x0 PUSH2 0x100 EXP DUP2 SLOAD DUP2 PUSH20 0xFFFFFFFFFFFFFFFFFFFFFFFFFFFFFFFFFFFFFFFF MUL NOT AND SWAP1 DUP4 PUSH20 0xFFFFFFFFFFFFFFFFFFFFFFFFFFFFFFFFFFFFFFFF AND MUL OR SWAP1 SSTORE POP DUP2 PUSH20 0xFFFFFFFFFFFFFFFFFFFFFFFFFFFFFFFFFFFFFFFF AND DUP2 PUSH20 0xFFFFFFFFFFFFFFFFFFFFFFFFFFFFFFFFFFFFFFFF AND PUSH32 0x8BE0079C531659141344CD1FD0A4F28419497F9722A3DAAFE3B4186F6B6457E0 PUSH1 0x40 MLOAD PUSH1 0x40 MLOAD DUP1 SWAP2 SUB SWAP1 LOG3 POP POP JUMP JUMPDEST PUSH1 0x0 PUSH20 0xFFFFFFFFFFFFFFFFFFFFFFFFFFFFFFFFFFFFFFFF AND DUP3 PUSH20 0xFFFFFFFFFFFFFFFFFFFFFFFFFFFFFFFFFFFFFFFF AND SUB PUSH2 0x2A90 JUMPI DUP2 PUSH1 0x40 MLOAD PUSH32 0x5B08BA1800000000000000000000000000000000000000000000000000000000 DUP2 MSTORE PUSH1 0x4 ADD PUSH2 0x2A87 SWAP2 SWAP1 PUSH2 0x3B94 JUMP JUMPDEST PUSH1 0x40 MLOAD DUP1 SWAP2 SUB SWAP1 REVERT JUMPDEST DUP1 PUSH1 0x5 PUSH1 0x0 DUP6 PUSH20 0xFFFFFFFFFFFFFFFFFFFFFFFFFFFFFFFFFFFFFFFF AND PUSH20 0xFFFFFFFFFFFFFFFFFFFFFFFFFFFFFFFFFFFFFFFF AND DUP2 MSTORE PUSH1 0x20 ADD SWAP1 DUP2 MSTORE PUSH1 0x20 ADD PUSH1 0x0 KECCAK256 PUSH1 0x0 DUP5 PUSH20 0xFFFFFFFFFFFFFFFFFFFFFFFFFFFFFFFFFFFFFFFF AND PUSH20 0xFFFFFFFFFFFFFFFFFFFFFFFFFFFFFFFFFFFFFFFF AND DUP2 MSTORE PUSH1 0x20 ADD SWAP1 DUP2 MSTORE PUSH1 0x20 ADD PUSH1 0x0 KECCAK256 PUSH1 0x0 PUSH2 0x100 EXP DUP2 SLOAD DUP2 PUSH1 0xFF MUL NOT AND SWAP1 DUP4 ISZERO ISZERO MUL OR SWAP1 SSTORE POP DUP2 PUSH20 0xFFFFFFFFFFFFFFFFFFFFFFFFFFFFFFFFFFFFFFFF AND DUP4 PUSH20 0xFFFFFFFFFFFFFFFFFFFFFFFFFFFFFFFFFFFFFFFF AND PUSH32 0x17307EAB39AB6107E8899845AD3D59BD9653F200F220920489CA2B5937696C31 DUP4 PUSH1 0x40 MLOAD PUSH2 0x2B81 SWAP2 SWAP1 PUSH2 0x3A23 JUMP JUMPDEST PUSH1 0x40 MLOAD DUP1 SWAP2 SUB SWAP1 LOG3 POP POP POP JUMP JUMPDEST PUSH1 0x0 DUP4 PUSH20 0xFFFFFFFFFFFFFFFFFFFFFFFFFFFFFFFFFFFFFFFF AND EXTCODESIZE GT ISZERO PUSH2 0x2D38 JUMPI DUP3 PUSH20 0xFFFFFFFFFFFFFFFFFFFFFFFFFFFFFFFFFFFFFFFF AND PUSH4 0x150B7A02 DUP7 DUP7 DUP6 DUP6 PUSH1 0x40 MLOAD DUP6 PUSH4 0xFFFFFFFF AND PUSH1 0xE0 SHL DUP2 MSTORE PUSH1 0x4 ADD PUSH2 0x2BED SWAP5 SWAP4 SWAP3 SWAP2 SWAP1 PUSH2 0x5532 JUMP JUMPDEST PUSH1 0x20 PUSH1 0x40 MLOAD DUP1 DUP4 SUB DUP2 PUSH1 0x0 DUP8 GAS CALL SWAP3 POP POP POP DUP1 ISZERO PUSH2 0x2C29 JUMPI POP PUSH1 0x40 MLOAD RETURNDATASIZE PUSH1 0x1F NOT PUSH1 0x1F DUP3 ADD AND DUP3 ADD DUP1 PUSH1 0x40 MSTORE POP DUP2 ADD SWAP1 PUSH2 0x2C26 SWAP2 SWAP1 PUSH2 0x5593 JUMP JUMPDEST PUSH1 0x1 JUMPDEST PUSH2 0x2CAD JUMPI RETURNDATASIZE DUP1 PUSH1 0x0 DUP2 EQ PUSH2 0x2C59 JUMPI PUSH1 0x40 MLOAD SWAP2 POP PUSH1 0x1F NOT PUSH1 0x3F RETURNDATASIZE ADD AND DUP3 ADD PUSH1 0x40 MSTORE RETURNDATASIZE DUP3 MSTORE RETURNDATASIZE PUSH1 0x0 PUSH1 0x20 DUP5 ADD RETURNDATACOPY PUSH2 0x2C5E JUMP JUMPDEST PUSH1 0x60 SWAP2 POP JUMPDEST POP PUSH1 0x0 DUP2 MLOAD SUB PUSH2 0x2CA5 JUMPI DUP4 PUSH1 0x40 MLOAD PUSH32 0x64A0AE9200000000000000000000000000000000000000000000000000000000 DUP2 MSTORE PUSH1 0x4 ADD PUSH2 0x2C9C SWAP2 SWAP1 PUSH2 0x3B94 JUMP JUMPDEST PUSH1 0x40 MLOAD DUP1 SWAP2 SUB SWAP1 REVERT JUMPDEST DUP1 MLOAD DUP2 PUSH1 0x20 ADD REVERT JUMPDEST PUSH4 0x150B7A02 PUSH1 0xE0 SHL PUSH28 0xFFFFFFFFFFFFFFFFFFFFFFFFFFFFFFFFFFFFFFFFFFFFFFFFFFFFFFFF NOT AND DUP2 PUSH28 0xFFFFFFFFFFFFFFFFFFFFFFFFFFFFFFFFFFFFFFFFFFFFFFFFFFFFFFFF NOT AND EQ PUSH2 0x2D36 JUMPI DUP4 PUSH1 0x40 MLOAD PUSH32 0x64A0AE9200000000000000000000000000000000000000000000000000000000 DUP2 MSTORE PUSH1 0x4 ADD PUSH2 0x2D2D SWAP2 SWAP1 PUSH2 0x3B94 JUMP JUMPDEST PUSH1 0x40 MLOAD DUP1 SWAP2 SUB SWAP1 REVERT JUMPDEST POP JUMPDEST POP POP POP POP POP JUMP JUMPDEST PUSH1 0x60 PUSH1 0x40 MLOAD DUP1 PUSH1 0x20 ADD PUSH1 0x40 MSTORE DUP1 PUSH1 0x0 DUP2 MSTORE POP SWAP1 POP SWAP1 JUMP JUMPDEST PUSH1 0x60 PUSH1 0x0 PUSH1 0x1 PUSH2 0x2D65 DUP5 PUSH2 0x35B2 JUMP JUMPDEST ADD SWAP1 POP PUSH1 0x0 DUP2 PUSH8 0xFFFFFFFFFFFFFFFF DUP2 GT ISZERO PUSH2 0x2D84 JUMPI PUSH2 0x2D83 PUSH2 0x413E JUMP JUMPDEST JUMPDEST PUSH1 0x40 MLOAD SWAP1 DUP1 DUP3 MSTORE DUP1 PUSH1 0x1F ADD PUSH1 0x1F NOT AND PUSH1 0x20 ADD DUP3 ADD PUSH1 0x40 MSTORE DUP1 ISZERO PUSH2 0x2DB6 JUMPI DUP2 PUSH1 0x20 ADD PUSH1 0x1 DUP3 MUL DUP1 CALLDATASIZE DUP4 CALLDATACOPY DUP1 DUP3 ADD SWAP2 POP POP SWAP1 POP JUMPDEST POP SWAP1 POP PUSH1 0x0 DUP3 PUSH1 0x20 ADD DUP3 ADD SWAP1 POP JUMPDEST PUSH1 0x1 ISZERO PUSH2 0x2E19 JUMPI DUP1 DUP1 PUSH1 0x1 SWAP1 SUB SWAP2 POP POP PUSH32 0x3031323334353637383961626364656600000000000000000000000000000000 PUSH1 0xA DUP7 MOD BYTE DUP2 MSTORE8 PUSH1 0xA DUP6 DUP2 PUSH2 0x2E0D JUMPI PUSH2 0x2E0C PUSH2 0x55C0 JUMP JUMPDEST JUMPDEST DIV SWAP5 POP PUSH1 0x0 DUP6 SUB PUSH2 0x2DC4 JUMPI JUMPDEST DUP2 SWAP4 POP POP POP POP SWAP2 SWAP1 POP JUMP JUMPDEST PUSH1 0x0 PUSH32 0x80AC58CD00000000000000000000000000000000000000000000000000000000 PUSH28 0xFFFFFFFFFFFFFFFFFFFFFFFFFFFFFFFFFFFFFFFFFFFFFFFFFFFFFFFF NOT AND DUP3 PUSH28 0xFFFFFFFFFFFFFFFFFFFFFFFFFFFFFFFFFFFFFFFFFFFFFFFFFFFFFFFF NOT AND EQ DUP1 PUSH2 0x2EEF JUMPI POP PUSH32 0x5B5E139F00000000000000000000000000000000000000000000000000000000 PUSH28 0xFFFFFFFFFFFFFFFFFFFFFFFFFFFFFFFFFFFFFFFFFFFFFFFFFFFFFFFF NOT AND DUP3 PUSH28 0xFFFFFFFFFFFFFFFFFFFFFFFFFFFFFFFFFFFFFFFFFFFFFFFFFFFFFFFF NOT AND EQ JUMPDEST DUP1 PUSH2 0x2EFF JUMPI POP PUSH2 0x2EFE DUP3 PUSH2 0x3705 JUMP JUMPDEST JUMPDEST SWAP1 POP SWAP2 SWAP1 POP JUMP JUMPDEST PUSH1 0x0 PUSH1 0x2 PUSH1 0x0 DUP4 DUP2 MSTORE PUSH1 0x20 ADD SWAP1 DUP2 MSTORE PUSH1 0x20 ADD PUSH1 0x0 KECCAK256 PUSH1 0x0 SWAP1 SLOAD SWAP1 PUSH2 0x100 EXP SWAP1 DIV PUSH20 0xFFFFFFFFFFFFFFFFFFFFFFFFFFFFFFFFFFFFFFFF AND SWAP1 POP SWAP2 SWAP1 POP JUMP JUMPDEST DUP1 DUP1 PUSH2 0x2F7C JUMPI POP PUSH1 0x0 PUSH20 0xFFFFFFFFFFFFFFFFFFFFFFFFFFFFFFFFFFFFFFFF AND DUP3 PUSH20 0xFFFFFFFFFFFFFFFFFFFFFFFFFFFFFFFFFFFFFFFF AND EQ ISZERO JUMPDEST ISZERO PUSH2 0x30B0 JUMPI PUSH1 0x0 PUSH2 0x2F8C DUP5 PUSH2 0x258D JUMP JUMPDEST SWAP1 POP PUSH1 0x0 PUSH20 0xFFFFFFFFFFFFFFFFFFFFFFFFFFFFFFFFFFFFFFFF AND DUP4 PUSH20 0xFFFFFFFFFFFFFFFFFFFFFFFFFFFFFFFFFFFFFFFF AND EQ ISZERO DUP1 ISZERO PUSH2 0x2FF7 JUMPI POP DUP3 PUSH20 0xFFFFFFFFFFFFFFFFFFFFFFFFFFFFFFFFFFFFFFFF AND DUP2 PUSH20 0xFFFFFFFFFFFFFFFFFFFFFFFFFFFFFFFFFFFFFFFF AND EQ ISZERO JUMPDEST DUP1 ISZERO PUSH2 0x300A JUMPI POP PUSH2 0x3008 DUP2 DUP5 PUSH2 0x2158 JUMP JUMPDEST ISZERO JUMPDEST ISZERO PUSH2 0x304C JUMPI DUP3 PUSH1 0x40 MLOAD PUSH32 0xA9FBF51F00000000000000000000000000000000000000000000000000000000 DUP2 MSTORE PUSH1 0x4 ADD PUSH2 0x3043 SWAP2 SWAP1 PUSH2 0x3B94 JUMP JUMPDEST PUSH1 0x40 MLOAD DUP1 SWAP2 SUB SWAP1 REVERT JUMPDEST DUP2 ISZERO PUSH2 0x30AE JUMPI DUP4 DUP6 PUSH20 0xFFFFFFFFFFFFFFFFFFFFFFFFFFFFFFFFFFFFFFFF AND DUP3 PUSH20 0xFFFFFFFFFFFFFFFFFFFFFFFFFFFFFFFFFFFFFFFF AND PUSH32 0x8C5BE1E5EBEC7D5BD14F71427D1E84F3DD0314C0F7B2291E5B200AC8C7C3B925 PUSH1 0x40 MLOAD PUSH1 0x40 MLOAD DUP1 SWAP2 SUB SWAP1 LOG4 JUMPDEST POP JUMPDEST DUP4 PUSH1 0x4 PUSH1 0x0 DUP6 DUP2 MSTORE PUSH1 0x20 ADD SWAP1 DUP2 MSTORE PUSH1 0x20 ADD PUSH1 0x0 KECCAK256 PUSH1 0x0 PUSH2 0x100 EXP DUP2 SLOAD DUP2 PUSH20 0xFFFFFFFFFFFFFFFFFFFFFFFFFFFFFFFFFFFFFFFF MUL NOT AND SWAP1 DUP4 PUSH20 0xFFFFFFFFFFFFFFFFFFFFFFFFFFFFFFFFFFFFFFFF AND MUL OR SWAP1 SSTORE POP POP POP POP POP JUMP JUMPDEST PUSH1 0x0 DUP1 PUSH2 0x3114 DUP5 PUSH2 0x2F06 JUMP JUMPDEST SWAP1 POP PUSH1 0x0 PUSH20 0xFFFFFFFFFFFFFFFFFFFFFFFFFFFFFFFFFFFFFFFF AND DUP4 PUSH20 0xFFFFFFFFFFFFFFFFFFFFFFFFFFFFFFFFFFFFFFFF AND EQ PUSH2 0x3156 JUMPI PUSH2 0x3155 DUP2 DUP5 DUP7 PUSH2 0x376F JUMP JUMPDEST JUMPDEST PUSH1 0x0 PUSH20 0xFFFFFFFFFFFFFFFFFFFFFFFFFFFFFFFFFFFFFFFF AND DUP2 PUSH20 0xFFFFFFFFFFFFFFFFFFFFFFFFFFFFFFFFFFFFFFFF AND EQ PUSH2 0x31E7 JUMPI PUSH2 0x3198 PUSH1 0x0 DUP6 PUSH1 0x0 DUP1 PUSH2 0x2F43 JUMP JUMPDEST PUSH1 0x1 PUSH1 0x3 PUSH1 0x0 DUP4 PUSH20 0xFFFFFFFFFFFFFFFFFFFFFFFFFFFFFFFFFFFFFFFF AND PUSH20 0xFFFFFFFFFFFFFFFFFFFFFFFFFFFFFFFFFFFFFFFF AND DUP2 MSTORE PUSH1 0x20 ADD SWAP1 DUP2 MSTORE PUSH1 0x20 ADD PUSH1 0x0 KECCAK256 PUSH1 0x0 DUP3 DUP3 SLOAD SUB SWAP3 POP POP DUP2 SWAP1 SSTORE POP JUMPDEST PUSH1 0x0 PUSH20 0xFFFFFFFFFFFFFFFFFFFFFFFFFFFFFFFFFFFFFFFF AND DUP6 PUSH20 0xFFFFFFFFFFFFFFFFFFFFFFFFFFFFFFFFFFFFFFFF AND EQ PUSH2 0x326A JUMPI PUSH1 0x1 PUSH1 0x3 PUSH1 0x0 DUP8 PUSH20 0xFFFFFFFFFFFFFFFFFFFFFFFFFFFFFFFFFFFFFFFF AND PUSH20 0xFFFFFFFFFFFFFFFFFFFFFFFFFFFFFFFFFFFFFFFF AND DUP2 MSTORE PUSH1 0x20 ADD SWAP1 DUP2 MSTORE PUSH1 0x20 ADD PUSH1 0x0 KECCAK256 PUSH1 0x0 DUP3 DUP3 SLOAD ADD SWAP3 POP POP DUP2 SWAP1 SSTORE POP JUMPDEST DUP5 PUSH1 0x2 PUSH1 0x0 DUP7 DUP2 MSTORE PUSH1 0x20 ADD SWAP1 DUP2 MSTORE PUSH1 0x20 ADD PUSH1 0x0 KECCAK256 PUSH1 0x0 PUSH2 0x100 EXP DUP2 SLOAD DUP2 PUSH20 0xFFFFFFFFFFFFFFFFFFFFFFFFFFFFFFFFFFFFFFFF MUL NOT AND SWAP1 DUP4 PUSH20 0xFFFFFFFFFFFFFFFFFFFFFFFFFFFFFFFFFFFFFFFF AND MUL OR SWAP1 SSTORE POP DUP4 DUP6 PUSH20 0xFFFFFFFFFFFFFFFFFFFFFFFFFFFFFFFFFFFFFFFF AND DUP3 PUSH20 0xFFFFFFFFFFFFFFFFFFFFFFFFFFFFFFFFFFFFFFFF AND PUSH32 0xDDF252AD1BE2C89B69C2B068FC378DAA952BA7F163C4A11628F55A4DF523B3EF PUSH1 0x40 MLOAD PUSH1 0x40 MLOAD DUP1 SWAP2 SUB SWAP1 LOG4 DUP1 SWAP2 POP POP SWAP4 SWAP3 POP POP POP JUMP JUMPDEST PUSH1 0x8 DUP1 SLOAD SWAP1 POP PUSH1 0x9 PUSH1 0x0 DUP4 DUP2 MSTORE PUSH1 0x20 ADD SWAP1 DUP2 MSTORE PUSH1 0x20 ADD PUSH1 0x0 KECCAK256 DUP2 SWAP1 SSTORE POP PUSH1 0x8 DUP2 SWAP1 DUP1 PUSH1 0x1 DUP2 SLOAD ADD DUP1 DUP3 SSTORE DUP1 SWAP2 POP POP PUSH1 0x1 SWAP1 SUB SWAP1 PUSH1 0x0 MSTORE PUSH1 0x20 PUSH1 0x0 KECCAK256 ADD PUSH1 0x0 SWAP1 SWAP2 SWAP1 SWAP2 SWAP1 SWAP2 POP SSTORE POP JUMP JUMPDEST PUSH1 0x0 PUSH2 0x3376 DUP4 PUSH2 0x135C JUMP JUMPDEST SWAP1 POP PUSH1 0x0 PUSH1 0x7 PUSH1 0x0 DUP5 DUP2 MSTORE PUSH1 0x20 ADD SWAP1 DUP2 MSTORE PUSH1 0x20 ADD PUSH1 0x0 KECCAK256 SLOAD SWAP1 POP PUSH1 0x0 PUSH1 0x6 PUSH1 0x0 DUP7 PUSH20 0xFFFFFFFFFFFFFFFFFFFFFFFFFFFFFFFFFFFFFFFF AND PUSH20 0xFFFFFFFFFFFFFFFFFFFFFFFFFFFFFFFFFFFFFFFF AND DUP2 MSTORE PUSH1 0x20 ADD SWAP1 DUP2 MSTORE PUSH1 0x20 ADD PUSH1 0x0 KECCAK256 SWAP1 POP DUP3 DUP3 EQ PUSH2 0x3422 JUMPI PUSH1 0x0 DUP2 PUSH1 0x0 DUP6 DUP2 MSTORE PUSH1 0x20 ADD SWAP1 DUP2 MSTORE PUSH1 0x20 ADD PUSH1 0x0 KECCAK256 SLOAD SWAP1 POP DUP1 DUP3 PUSH1 0x0 DUP6 DUP2 MSTORE PUSH1 0x20 ADD SWAP1 DUP2 MSTORE PUSH1 0x20 ADD PUSH1 0x0 KECCAK256 DUP2 SWAP1 SSTORE POP DUP3 PUSH1 0x7 PUSH1 0x0 DUP4 DUP2 MSTORE PUSH1 0x20 ADD SWAP1 DUP2 MSTORE PUSH1 0x20 ADD PUSH1 0x0 KECCAK256 DUP2 SWAP1 SSTORE POP POP JUMPDEST PUSH1 0x7 PUSH1 0x0 DUP6 DUP2 MSTORE PUSH1 0x20 ADD SWAP1 DUP2 MSTORE PUSH1 0x20 ADD PUSH1 0x0 KECCAK256 PUSH1 0x0 SWAP1 SSTORE DUP1 PUSH1 0x0 DUP5 DUP2 MSTORE PUSH1 0x20 ADD SWAP1 DUP2 MSTORE PUSH1 0x20 ADD PUSH1 0x0 KECCAK256 PUSH1 0x0 SWAP1 SSTORE POP POP POP POP POP JUMP JUMPDEST PUSH1 0x0 PUSH1 0x1 PUSH1 0x8 DUP1 SLOAD SWAP1 POP PUSH2 0x346A SWAP2 SWAP1 PUSH2 0x4D87 JUMP JUMPDEST SWAP1 POP PUSH1 0x0 PUSH1 0x9 PUSH1 0x0 DUP5 DUP2 MSTORE PUSH1 0x20 ADD SWAP1 DUP2 MSTORE PUSH1 0x20 ADD PUSH1 0x0 KECCAK256 SLOAD SWAP1 POP PUSH1 0x0 PUSH1 0x8 DUP4 DUP2 SLOAD DUP2 LT PUSH2 0x349A JUMPI PUSH2 0x3499 PUSH2 0x4965 JUMP JUMPDEST JUMPDEST SWAP1 PUSH1 0x0 MSTORE PUSH1 0x20 PUSH1 0x0 KECCAK256 ADD SLOAD SWAP1 POP DUP1 PUSH1 0x8 DUP4 DUP2 SLOAD DUP2 LT PUSH2 0x34BC JUMPI PUSH2 0x34BB PUSH2 0x4965 JUMP JUMPDEST JUMPDEST SWAP1 PUSH1 0x0 MSTORE PUSH1 0x20 PUSH1 0x0 KECCAK256 ADD DUP2 SWAP1 SSTORE POP DUP2 PUSH1 0x9 PUSH1 0x0 DUP4 DUP2 MSTORE PUSH1 0x20 ADD SWAP1 DUP2 MSTORE PUSH1 0x20 ADD PUSH1 0x0 KECCAK256 DUP2 SWAP1 SSTORE POP PUSH1 0x9 PUSH1 0x0 DUP6 DUP2 MSTORE PUSH1 0x20 ADD SWAP1 DUP2 MSTORE PUSH1 0x20 ADD PUSH1 0x0 KECCAK256 PUSH1 0x0 SWAP1 SSTORE PUSH1 0x8 DUP1 SLOAD DUP1 PUSH2 0x350B JUMPI PUSH2 0x350A PUSH2 0x55EF JUMP JUMPDEST JUMPDEST PUSH1 0x1 SWAP1 SUB DUP2 DUP2 SWAP1 PUSH1 0x0 MSTORE PUSH1 0x20 PUSH1 0x0 KECCAK256 ADD PUSH1 0x0 SWAP1 SSTORE SWAP1 SSTORE POP POP POP POP JUMP JUMPDEST PUSH1 0x0 PUSH1 0x1 PUSH2 0x3534 DUP5 PUSH2 0x135C JUMP JUMPDEST PUSH2 0x353E SWAP2 SWAP1 PUSH2 0x4D87 JUMP JUMPDEST SWAP1 POP DUP2 PUSH1 0x6 PUSH1 0x0 DUP6 PUSH20 0xFFFFFFFFFFFFFFFFFFFFFFFFFFFFFFFFFFFFFFFF AND PUSH20 0xFFFFFFFFFFFFFFFFFFFFFFFFFFFFFFFFFFFFFFFF AND DUP2 MSTORE PUSH1 0x20 ADD SWAP1 DUP2 MSTORE PUSH1 0x20 ADD PUSH1 0x0 KECCAK256 PUSH1 0x0 DUP4 DUP2 MSTORE PUSH1 0x20 ADD SWAP1 DUP2 MSTORE PUSH1 0x20 ADD PUSH1 0x0 KECCAK256 DUP2 SWAP1 SSTORE POP DUP1 PUSH1 0x7 PUSH1 0x0 DUP5 DUP2 MSTORE PUSH1 0x20 ADD SWAP1 DUP2 MSTORE PUSH1 0x20 ADD PUSH1 0x0 KECCAK256 DUP2 SWAP1 SSTORE POP POP POP POP JUMP JUMPDEST PUSH1 0x0 DUP1 PUSH1 0x0 SWAP1 POP PUSH27 0x184F03E93FF9F4DAA797ED6E38ED64BF6A1F010000000000000000 DUP4 LT PUSH2 0x3610 JUMPI PUSH27 0x184F03E93FF9F4DAA797ED6E38ED64BF6A1F010000000000000000 DUP4 DUP2 PUSH2 0x3606 JUMPI PUSH2 0x3605 PUSH2 0x55C0 JUMP JUMPDEST JUMPDEST DIV SWAP3 POP PUSH1 0x40 DUP2 ADD SWAP1 POP JUMPDEST PUSH14 0x4EE2D6D415B85ACEF8100000000 DUP4 LT PUSH2 0x364D JUMPI PUSH14 0x4EE2D6D415B85ACEF8100000000 DUP4 DUP2 PUSH2 0x3643 JUMPI PUSH2 0x3642 PUSH2 0x55C0 JUMP JUMPDEST JUMPDEST DIV SWAP3 POP PUSH1 0x20 DUP2 ADD SWAP1 POP JUMPDEST PUSH7 0x2386F26FC10000 DUP4 LT PUSH2 0x367C JUMPI PUSH7 0x2386F26FC10000 DUP4 DUP2 PUSH2 0x3672 JUMPI PUSH2 0x3671 PUSH2 0x55C0 JUMP JUMPDEST JUMPDEST DIV SWAP3 POP PUSH1 0x10 DUP2 ADD SWAP1 POP JUMPDEST PUSH4 0x5F5E100 DUP4 LT PUSH2 0x36A5 JUMPI PUSH4 0x5F5E100 DUP4 DUP2 PUSH2 0x369B JUMPI PUSH2 0x369A PUSH2 0x55C0 JUMP JUMPDEST JUMPDEST DIV SWAP3 POP PUSH1 0x8 DUP2 ADD SWAP1 POP JUMPDEST PUSH2 0x2710 DUP4 LT PUSH2 0x36CA JUMPI PUSH2 0x2710 DUP4 DUP2 PUSH2 0x36C0 JUMPI PUSH2 0x36BF PUSH2 0x55C0 JUMP JUMPDEST JUMPDEST DIV SWAP3 POP PUSH1 0x4 DUP2 ADD SWAP1 POP JUMPDEST PUSH1 0x64 DUP4 LT PUSH2 0x36ED JUMPI PUSH1 0x64 DUP4 DUP2 PUSH2 0x36E3 JUMPI PUSH2 0x36E2 PUSH2 0x55C0 JUMP JUMPDEST JUMPDEST DIV SWAP3 POP PUSH1 0x2 DUP2 ADD SWAP1 POP JUMPDEST PUSH1 0xA DUP4 LT PUSH2 0x36FC JUMPI PUSH1 0x1 DUP2 ADD SWAP1 POP JUMPDEST DUP1 SWAP2 POP POP SWAP2 SWAP1 POP JUMP JUMPDEST PUSH1 0x0 PUSH32 0x1FFC9A700000000000000000000000000000000000000000000000000000000 PUSH28 0xFFFFFFFFFFFFFFFFFFFFFFFFFFFFFFFFFFFFFFFFFFFFFFFFFFFFFFFF NOT AND DUP3 PUSH28 0xFFFFFFFFFFFFFFFFFFFFFFFFFFFFFFFFFFFFFFFFFFFFFFFFFFFFFFFF NOT AND EQ SWAP1 POP SWAP2 SWAP1 POP JUMP JUMPDEST PUSH2 0x377A DUP4 DUP4 DUP4 PUSH2 0x3833 JUMP JUMPDEST PUSH2 0x382E JUMPI PUSH1 0x0 PUSH20 0xFFFFFFFFFFFFFFFFFFFFFFFFFFFFFFFFFFFFFFFF AND DUP4 PUSH20 0xFFFFFFFFFFFFFFFFFFFFFFFFFFFFFFFFFFFFFFFF AND SUB PUSH2 0x37EF JUMPI DUP1 PUSH1 0x40 MLOAD PUSH32 0x7E27328900000000000000000000000000000000000000000000000000000000 DUP2 MSTORE PUSH1 0x4 ADD PUSH2 0x37E6 SWAP2 SWAP1 PUSH2 0x3E1A JUMP JUMPDEST PUSH1 0x40 MLOAD DUP1 SWAP2 SUB SWAP1 REVERT JUMPDEST DUP2 DUP2 PUSH1 0x40 MLOAD PUSH32 0x177E802F00000000000000000000000000000000000000000000000000000000 DUP2 MSTORE PUSH1 0x4 ADD PUSH2 0x3825 SWAP3 SWAP2 SWAP1 PUSH2 0x46FA JUMP JUMPDEST PUSH1 0x40 MLOAD DUP1 SWAP2 SUB SWAP1 REVERT JUMPDEST POP POP POP JUMP JUMPDEST PUSH1 0x0 DUP1 PUSH20 0xFFFFFFFFFFFFFFFFFFFFFFFFFFFFFFFFFFFFFFFF AND DUP4 PUSH20 0xFFFFFFFFFFFFFFFFFFFFFFFFFFFFFFFFFFFFFFFF AND EQ ISZERO DUP1 ISZERO PUSH2 0x38EB JUMPI POP DUP3 PUSH20 0xFFFFFFFFFFFFFFFFFFFFFFFFFFFFFFFFFFFFFFFF AND DUP5 PUSH20 0xFFFFFFFFFFFFFFFFFFFFFFFFFFFFFFFFFFFFFFFF AND EQ DUP1 PUSH2 0x38AC JUMPI POP PUSH2 0x38AB DUP5 DUP5 PUSH2 0x2158 JUMP JUMPDEST JUMPDEST DUP1 PUSH2 0x38EA JUMPI POP DUP3 PUSH20 0xFFFFFFFFFFFFFFFFFFFFFFFFFFFFFFFFFFFFFFFF AND PUSH2 0x38D2 DUP4 PUSH2 0x2615 JUMP JUMPDEST PUSH20 0xFFFFFFFFFFFFFFFFFFFFFFFFFFFFFFFFFFFFFFFF AND EQ JUMPDEST JUMPDEST SWAP1 POP SWAP4 SWAP3 POP POP POP JUMP JUMPDEST PUSH1 0x40 MLOAD DUP1 PUSH2 0x140 ADD PUSH1 0x40 MSTORE DUP1 PUSH1 0x0 DUP2 MSTORE PUSH1 0x20 ADD PUSH1 0x0 PUSH20 0xFFFFFFFFFFFFFFFFFFFFFFFFFFFFFFFFFFFFFFFF AND DUP2 MSTORE PUSH1 0x20 ADD PUSH1 0x60 DUP2 MSTORE PUSH1 0x20 ADD PUSH1 0x60 DUP2 MSTORE PUSH1 0x20 ADD PUSH1 0x60 DUP2 MSTORE PUSH1 0x20 ADD PUSH1 0x60 DUP2 MSTORE PUSH1 0x20 ADD PUSH1 0x0 DUP2 MSTORE PUSH1 0x20 ADD PUSH1 0x0 DUP2 MSTORE PUSH1 0x20 ADD PUSH1 0x0 DUP2 MSTORE PUSH1 0x20 ADD PUSH1 0x0 PUSH1 0x2 DUP2 GT ISZERO PUSH2 0x3969 JUMPI PUSH2 0x3968 PUSH2 0x3C83 JUMP JUMPDEST JUMPDEST DUP2 MSTORE POP SWAP1 JUMP JUMPDEST PUSH1 0x0 PUSH1 0x40 MLOAD SWAP1 POP SWAP1 JUMP JUMPDEST PUSH1 0x0 DUP1 REVERT JUMPDEST PUSH1 0x0 DUP1 REVERT JUMPDEST PUSH1 0x0 PUSH32 0xFFFFFFFF00000000000000000000000000000000000000000000000000000000 DUP3 AND SWAP1 POP SWAP2 SWAP1 POP JUMP JUMPDEST PUSH2 0x39B8 DUP2 PUSH2 0x3983 JUMP JUMPDEST DUP2 EQ PUSH2 0x39C3 JUMPI PUSH1 0x0 DUP1 REVERT JUMPDEST POP JUMP JUMPDEST PUSH1 0x0 DUP2 CALLDATALOAD SWAP1 POP PUSH2 0x39D5 DUP2 PUSH2 0x39AF JUMP JUMPDEST SWAP3 SWAP2 POP POP JUMP JUMPDEST PUSH1 0x0 PUSH1 0x20 DUP3 DUP5 SUB SLT ISZERO PUSH2 0x39F1 JUMPI PUSH2 0x39F0 PUSH2 0x3979 JUMP JUMPDEST JUMPDEST PUSH1 0x0 PUSH2 0x39FF DUP5 DUP3 DUP6 ADD PUSH2 0x39C6 JUMP JUMPDEST SWAP2 POP POP SWAP3 SWAP2 POP POP JUMP JUMPDEST PUSH1 0x0 DUP2 ISZERO ISZERO SWAP1 POP SWAP2 SWAP1 POP JUMP JUMPDEST PUSH2 0x3A1D DUP2 PUSH2 0x3A08 JUMP JUMPDEST DUP3 MSTORE POP POP JUMP JUMPDEST PUSH1 0x0 PUSH1 0x20 DUP3 ADD SWAP1 POP PUSH2 0x3A38 PUSH1 0x0 DUP4 ADD DUP5 PUSH2 0x3A14 JUMP JUMPDEST SWAP3 SWAP2 POP POP JUMP JUMPDEST PUSH1 0x0 DUP2 MLOAD SWAP1 POP SWAP2 SWAP1 POP JUMP JUMPDEST PUSH1 0x0 DUP3 DUP3 MSTORE PUSH1 0x20 DUP3 ADD SWAP1 POP SWAP3 SWAP2 POP POP JUMP JUMPDEST PUSH1 0x0 JUMPDEST DUP4 DUP2 LT ISZERO PUSH2 0x3A78 JUMPI DUP1 DUP3 ADD MLOAD DUP2 DUP5 ADD MSTORE PUSH1 0x20 DUP2 ADD SWAP1 POP PUSH2 0x3A5D JUMP JUMPDEST PUSH1 0x0 DUP5 DUP5 ADD MSTORE POP POP POP POP JUMP JUMPDEST PUSH1 0x0 PUSH1 0x1F NOT PUSH1 0x1F DUP4 ADD AND SWAP1 POP SWAP2 SWAP1 POP JUMP JUMPDEST PUSH1 0x0 PUSH2 0x3AA0 DUP3 PUSH2 0x3A3E JUMP JUMPDEST PUSH2 0x3AAA DUP2 DUP6 PUSH2 0x3A49 JUMP JUMPDEST SWAP4 POP PUSH2 0x3ABA DUP2 DUP6 PUSH1 0x20 DUP7 ADD PUSH2 0x3A5A JUMP JUMPDEST PUSH2 0x3AC3 DUP2 PUSH2 0x3A84 JUMP JUMPDEST DUP5 ADD SWAP2 POP POP SWAP3 SWAP2 POP POP JUMP JUMPDEST PUSH1 0x0 PUSH1 0x20 DUP3 ADD SWAP1 POP DUP2 DUP2 SUB PUSH1 0x0 DUP4 ADD MSTORE PUSH2 0x3AE8 DUP2 DUP5 PUSH2 0x3A95 JUMP JUMPDEST SWAP1 POP SWAP3 SWAP2 POP POP JUMP JUMPDEST PUSH1 0x0 DUP2 SWAP1 POP SWAP2 SWAP1 POP JUMP JUMPDEST PUSH2 0x3B03 DUP2 PUSH2 0x3AF0 JUMP JUMPDEST DUP2 EQ PUSH2 0x3B0E JUMPI PUSH1 0x0 DUP1 REVERT JUMPDEST POP JUMP JUMPDEST PUSH1 0x0 DUP2 CALLDATALOAD SWAP1 POP PUSH2 0x3B20 DUP2 PUSH2 0x3AFA JUMP JUMPDEST SWAP3 SWAP2 POP POP JUMP JUMPDEST PUSH1 0x0 PUSH1 0x20 DUP3 DUP5 SUB SLT ISZERO PUSH2 0x3B3C JUMPI PUSH2 0x3B3B PUSH2 0x3979 JUMP JUMPDEST JUMPDEST PUSH1 0x0 PUSH2 0x3B4A DUP5 DUP3 DUP6 ADD PUSH2 0x3B11 JUMP JUMPDEST SWAP2 POP POP SWAP3 SWAP2 POP POP JUMP JUMPDEST PUSH1 0x0 PUSH20 0xFFFFFFFFFFFFFFFFFFFFFFFFFFFFFFFFFFFFFFFF DUP3 AND SWAP1 POP SWAP2 SWAP1 POP JUMP JUMPDEST PUSH1 0x0 PUSH2 0x3B7E DUP3 PUSH2 0x3B53 JUMP JUMPDEST SWAP1 POP SWAP2 SWAP1 POP JUMP JUMPDEST PUSH2 0x3B8E DUP2 PUSH2 0x3B73 JUMP JUMPDEST DUP3 MSTORE POP POP JUMP JUMPDEST PUSH1 0x0 PUSH1 0x20 DUP3 ADD SWAP1 POP PUSH2 0x3BA9 PUSH1 0x0 DUP4 ADD DUP5 PUSH2 0x3B85 JUMP JUMPDEST SWAP3 SWAP2 POP POP JUMP JUMPDEST PUSH2 0x3BB8 DUP2 PUSH2 0x3B73 JUMP JUMPDEST DUP2 EQ PUSH2 0x3BC3 JUMPI PUSH1 0x0 DUP1 REVERT JUMPDEST POP JUMP JUMPDEST PUSH1 0x0 DUP2 CALLDATALOAD SWAP1 POP PUSH2 0x3BD5 DUP2 PUSH2 0x3BAF JUMP JUMPDEST SWAP3 SWAP2 POP POP JUMP JUMPDEST PUSH1 0x0 DUP1 PUSH1 0x40 DUP4 DUP6 SUB SLT ISZERO PUSH2 0x3BF2 JUMPI PUSH2 0x3BF1 PUSH2 0x3979 JUMP JUMPDEST JUMPDEST PUSH1 0x0 PUSH2 0x3C00 DUP6 DUP3 DUP7 ADD PUSH2 0x3BC6 JUMP JUMPDEST SWAP3 POP POP PUSH1 0x20 PUSH2 0x3C11 DUP6 DUP3 DUP7 ADD PUSH2 0x3B11 JUMP JUMPDEST SWAP2 POP POP SWAP3 POP SWAP3 SWAP1 POP JUMP JUMPDEST PUSH2 0x3C24 DUP2 PUSH2 0x3AF0 JUMP JUMPDEST DUP3 MSTORE POP POP JUMP JUMPDEST PUSH2 0x3C33 DUP2 PUSH2 0x3B73 JUMP JUMPDEST DUP3 MSTORE POP POP JUMP JUMPDEST PUSH1 0x0 DUP3 DUP3 MSTORE PUSH1 0x20 DUP3 ADD SWAP1 POP SWAP3 SWAP2 POP POP JUMP JUMPDEST PUSH1 0x0 PUSH2 0x3C55 DUP3 PUSH2 0x3A3E JUMP JUMPDEST PUSH2 0x3C5F DUP2 DUP6 PUSH2 0x3C39 JUMP JUMPDEST SWAP4 POP PUSH2 0x3C6F DUP2 DUP6 PUSH1 0x20 DUP7 ADD PUSH2 0x3A5A JUMP JUMPDEST PUSH2 0x3C78 DUP2 PUSH2 0x3A84 JUMP JUMPDEST DUP5 ADD SWAP2 POP POP SWAP3 SWAP2 POP POP JUMP JUMPDEST PUSH32 0x4E487B7100000000000000000000000000000000000000000000000000000000 PUSH1 0x0 MSTORE PUSH1 0x21 PUSH1 0x4 MSTORE PUSH1 0x24 PUSH1 0x0 REVERT JUMPDEST PUSH1 0x3 DUP2 LT PUSH2 0x3CC3 JUMPI PUSH2 0x3CC2 PUSH2 0x3C83 JUMP JUMPDEST JUMPDEST POP JUMP JUMPDEST PUSH1 0x0 DUP2 SWAP1 POP PUSH2 0x3CD4 DUP3 PUSH2 0x3CB2 JUMP JUMPDEST SWAP2 SWAP1 POP JUMP JUMPDEST PUSH1 0x0 PUSH2 0x3CE4 DUP3 PUSH2 0x3CC6 JUMP JUMPDEST SWAP1 POP SWAP2 SWAP1 POP JUMP JUMPDEST PUSH2 0x3CF4 DUP2 PUSH2 0x3CD9 JUMP JUMPDEST DUP3 MSTORE POP POP JUMP JUMPDEST PUSH1 0x0 PUSH2 0x140 DUP4 ADD PUSH1 0x0 DUP4 ADD MLOAD PUSH2 0x3D13 PUSH1 0x0 DUP7 ADD DUP3 PUSH2 0x3C1B JUMP JUMPDEST POP PUSH1 0x20 DUP4 ADD MLOAD PUSH2 0x3D26 PUSH1 0x20 DUP7 ADD DUP3 PUSH2 0x3C2A JUMP JUMPDEST POP PUSH1 0x40 DUP4 ADD MLOAD DUP5 DUP3 SUB PUSH1 0x40 DUP7 ADD MSTORE PUSH2 0x3D3E DUP3 DUP3 PUSH2 0x3C4A JUMP JUMPDEST SWAP2 POP POP PUSH1 0x60 DUP4 ADD MLOAD DUP5 DUP3 SUB PUSH1 0x60 DUP7 ADD MSTORE PUSH2 0x3D58 DUP3 DUP3 PUSH2 0x3C4A JUMP JUMPDEST SWAP2 POP POP PUSH1 0x80 DUP4 ADD MLOAD DUP5 DUP3 SUB PUSH1 0x80 DUP7 ADD MSTORE PUSH2 0x3D72 DUP3 DUP3 PUSH2 0x3C4A JUMP JUMPDEST SWAP2 POP POP PUSH1 0xA0 DUP4 ADD MLOAD DUP5 DUP3 SUB PUSH1 0xA0 DUP7 ADD MSTORE PUSH2 0x3D8C DUP3 DUP3 PUSH2 0x3C4A JUMP JUMPDEST SWAP2 POP POP PUSH1 0xC0 DUP4 ADD MLOAD PUSH2 0x3DA1 PUSH1 0xC0 DUP7 ADD DUP3 PUSH2 0x3C1B JUMP JUMPDEST POP PUSH1 0xE0 DUP4 ADD MLOAD PUSH2 0x3DB4 PUSH1 0xE0 DUP7 ADD DUP3 PUSH2 0x3C1B JUMP JUMPDEST POP PUSH2 0x100 DUP4 ADD MLOAD PUSH2 0x3DC9 PUSH2 0x100 DUP7 ADD DUP3 PUSH2 0x3C1B JUMP JUMPDEST POP PUSH2 0x120 DUP4 ADD MLOAD PUSH2 0x3DDE PUSH2 0x120 DUP7 ADD DUP3 PUSH2 0x3CEB JUMP JUMPDEST POP DUP1 SWAP2 POP POP SWAP3 SWAP2 POP POP JUMP JUMPDEST PUSH1 0x0 PUSH1 0x20 DUP3 ADD SWAP1 POP DUP2 DUP2 SUB PUSH1 0x0 DUP4 ADD MSTORE PUSH2 0x3E03 DUP2 DUP5 PUSH2 0x3CFA JUMP JUMPDEST SWAP1 POP SWAP3 SWAP2 POP POP JUMP JUMPDEST PUSH2 0x3E14 DUP2 PUSH2 0x3AF0 JUMP JUMPDEST DUP3 MSTORE POP POP JUMP JUMPDEST PUSH1 0x0 PUSH1 0x20 DUP3 ADD SWAP1 POP PUSH2 0x3E2F PUSH1 0x0 DUP4 ADD DUP5 PUSH2 0x3E0B JUMP JUMPDEST SWAP3 SWAP2 POP POP JUMP JUMPDEST PUSH1 0x0 DUP1 PUSH1 0x0 PUSH1 0x60 DUP5 DUP7 SUB SLT ISZERO PUSH2 0x3E4E JUMPI PUSH2 0x3E4D PUSH2 0x3979 JUMP JUMPDEST JUMPDEST PUSH1 0x0 PUSH2 0x3E5C DUP7 DUP3 DUP8 ADD PUSH2 0x3BC6 JUMP JUMPDEST SWAP4 POP POP PUSH1 0x20 PUSH2 0x3E6D DUP7 DUP3 DUP8 ADD PUSH2 0x3BC6 JUMP JUMPDEST SWAP3 POP POP PUSH1 0x40 PUSH2 0x3E7E DUP7 DUP3 DUP8 ADD PUSH2 0x3B11 JUMP JUMPDEST SWAP2 POP POP SWAP3 POP SWAP3 POP SWAP3 JUMP JUMPDEST PUSH2 0x3E91 DUP2 PUSH2 0x3A08 JUMP JUMPDEST DUP2 EQ PUSH2 0x3E9C JUMPI PUSH1 0x0 DUP1 REVERT JUMPDEST POP JUMP JUMPDEST PUSH1 0x0 DUP2 CALLDATALOAD SWAP1 POP PUSH2 0x3EAE DUP2 PUSH2 0x3E88 JUMP JUMPDEST SWAP3 SWAP2 POP POP JUMP JUMPDEST PUSH1 0x0 DUP1 PUSH1 0x40 DUP4 DUP6 SUB SLT ISZERO PUSH2 0x3ECB JUMPI PUSH2 0x3ECA PUSH2 0x3979 JUMP JUMPDEST JUMPDEST PUSH1 0x0 PUSH2 0x3ED9 DUP6 DUP3 DUP7 ADD PUSH2 0x3B11 JUMP JUMPDEST SWAP3 POP POP PUSH1 0x20 PUSH2 0x3EEA DUP6 DUP3 DUP7 ADD PUSH2 0x3E9F JUMP JUMPDEST SWAP2 POP POP SWAP3 POP SWAP3 SWAP1 POP JUMP JUMPDEST PUSH1 0x0 PUSH1 0x20 DUP3 DUP5 SUB SLT ISZERO PUSH2 0x3F0A JUMPI PUSH2 0x3F09 PUSH2 0x3979 JUMP JUMPDEST JUMPDEST PUSH1 0x0 PUSH2 0x3F18 DUP5 DUP3 DUP6 ADD PUSH2 0x3BC6 JUMP JUMPDEST SWAP2 POP POP SWAP3 SWAP2 POP POP JUMP JUMPDEST PUSH1 0x0 DUP1 PUSH1 0x40 DUP4 DUP6 SUB SLT ISZERO PUSH2 0x3F38 JUMPI PUSH2 0x3F37 PUSH2 0x3979 JUMP JUMPDEST JUMPDEST PUSH1 0x0 PUSH2 0x3F46 DUP6 DUP3 DUP7 ADD PUSH2 0x3BC6 JUMP JUMPDEST SWAP3 POP POP PUSH1 0x20 PUSH2 0x3F57 DUP6 DUP3 DUP7 ADD PUSH2 0x3E9F JUMP JUMPDEST SWAP2 POP POP SWAP3 POP SWAP3 SWAP1 POP JUMP JUMPDEST PUSH1 0x0 DUP2 MLOAD SWAP1 POP SWAP2 SWAP1 POP JUMP JUMPDEST PUSH1 0x0 DUP3 DUP3 MSTORE PUSH1 0x20 DUP3 ADD SWAP1 POP SWAP3 SWAP2 POP POP JUMP JUMPDEST PUSH1 0x0 DUP2 SWAP1 POP PUSH1 0x20 DUP3 ADD SWAP1 POP SWAP2 SWAP1 POP JUMP JUMPDEST PUSH1 0x0 PUSH2 0x140 DUP4 ADD PUSH1 0x0 DUP4 ADD MLOAD PUSH2 0x3FA6 PUSH1 0x0 DUP7 ADD DUP3 PUSH2 0x3C1B JUMP JUMPDEST POP PUSH1 0x20 DUP4 ADD MLOAD PUSH2 0x3FB9 PUSH1 0x20 DUP7 ADD DUP3 PUSH2 0x3C2A JUMP JUMPDEST POP PUSH1 0x40 DUP4 ADD MLOAD DUP5 DUP3 SUB PUSH1 0x40 DUP7 ADD MSTORE PUSH2 0x3FD1 DUP3 DUP3 PUSH2 0x3C4A JUMP JUMPDEST SWAP2 POP POP PUSH1 0x60 DUP4 ADD MLOAD DUP5 DUP3 SUB PUSH1 0x60 DUP7 ADD MSTORE PUSH2 0x3FEB DUP3 DUP3 PUSH2 0x3C4A JUMP JUMPDEST SWAP2 POP POP PUSH1 0x80 DUP4 ADD MLOAD DUP5 DUP3 SUB PUSH1 0x80 DUP7 ADD MSTORE PUSH2 0x4005 DUP3 DUP3 PUSH2 0x3C4A JUMP JUMPDEST SWAP2 POP POP PUSH1 0xA0 DUP4 ADD MLOAD DUP5 DUP3 SUB PUSH1 0xA0 DUP7 ADD MSTORE PUSH2 0x401F DUP3 DUP3 PUSH2 0x3C4A JUMP JUMPDEST SWAP2 POP POP PUSH1 0xC0 DUP4 ADD MLOAD PUSH2 0x4034 PUSH1 0xC0 DUP7 ADD DUP3 PUSH2 0x3C1B JUMP JUMPDEST POP PUSH1 0xE0 DUP4 ADD MLOAD PUSH2 0x4047 PUSH1 0xE0 DUP7 ADD DUP3 PUSH2 0x3C1B JUMP JUMPDEST POP PUSH2 0x100 DUP4 ADD MLOAD PUSH2 0x405C PUSH2 0x100 DUP7 ADD DUP3 PUSH2 0x3C1B JUMP JUMPDEST POP PUSH2 0x120 DUP4 ADD MLOAD PUSH2 0x4071 PUSH2 0x120 DUP7 ADD DUP3 PUSH2 0x3CEB JUMP JUMPDEST POP DUP1 SWAP2 POP POP SWAP3 SWAP2 POP POP JUMP JUMPDEST PUSH1 0x0 PUSH2 0x4088 DUP4 DUP4 PUSH2 0x3F8D JUMP JUMPDEST SWAP1 POP SWAP3 SWAP2 POP POP JUMP JUMPDEST PUSH1 0x0 PUSH1 0x20 DUP3 ADD SWAP1 POP SWAP2 SWAP1 POP JUMP JUMPDEST PUSH1 0x0 PUSH2 0x40A8 DUP3 PUSH2 0x3F61 JUMP JUMPDEST PUSH2 0x40B2 DUP2 DUP6 PUSH2 0x3F6C JUMP JUMPDEST SWAP4 POP DUP4 PUSH1 0x20 DUP3 MUL DUP6 ADD PUSH2 0x40C4 DUP6 PUSH2 0x3F7D JUMP JUMPDEST DUP1 PUSH1 0x0 JUMPDEST DUP6 DUP2 LT ISZERO PUSH2 0x4100 JUMPI DUP5 DUP5 SUB DUP10 MSTORE DUP2 MLOAD PUSH2 0x40E1 DUP6 DUP3 PUSH2 0x407C JUMP JUMPDEST SWAP5 POP PUSH2 0x40EC DUP4 PUSH2 0x4090 JUMP JUMPDEST SWAP3 POP PUSH1 0x20 DUP11 ADD SWAP10 POP POP PUSH1 0x1 DUP2 ADD SWAP1 POP PUSH2 0x40C8 JUMP JUMPDEST POP DUP3 SWAP8 POP DUP8 SWAP6 POP POP POP POP POP POP SWAP3 SWAP2 POP POP JUMP JUMPDEST PUSH1 0x0 PUSH1 0x20 DUP3 ADD SWAP1 POP DUP2 DUP2 SUB PUSH1 0x0 DUP4 ADD MSTORE PUSH2 0x412C DUP2 DUP5 PUSH2 0x409D JUMP JUMPDEST SWAP1 POP SWAP3 SWAP2 POP POP JUMP JUMPDEST PUSH1 0x0 DUP1 REVERT JUMPDEST PUSH1 0x0 DUP1 REVERT JUMPDEST PUSH32 0x4E487B7100000000000000000000000000000000000000000000000000000000 PUSH1 0x0 MSTORE PUSH1 0x41 PUSH1 0x4 MSTORE PUSH1 0x24 PUSH1 0x0 REVERT JUMPDEST PUSH2 0x4176 DUP3 PUSH2 0x3A84 JUMP JUMPDEST DUP2 ADD DUP2 DUP2 LT PUSH8 0xFFFFFFFFFFFFFFFF DUP3 GT OR ISZERO PUSH2 0x4195 JUMPI PUSH2 0x4194 PUSH2 0x413E JUMP JUMPDEST JUMPDEST DUP1 PUSH1 0x40 MSTORE POP POP POP JUMP JUMPDEST PUSH1 0x0 PUSH2 0x41A8 PUSH2 0x396F JUMP JUMPDEST SWAP1 POP PUSH2 0x41B4 DUP3 DUP3 PUSH2 0x416D JUMP JUMPDEST SWAP2 SWAP1 POP JUMP JUMPDEST PUSH1 0x0 PUSH8 0xFFFFFFFFFFFFFFFF DUP3 GT ISZERO PUSH2 0x41D4 JUMPI PUSH2 0x41D3 PUSH2 0x413E JUMP JUMPDEST JUMPDEST PUSH2 0x41DD DUP3 PUSH2 0x3A84 JUMP JUMPDEST SWAP1 POP PUSH1 0x20 DUP2 ADD SWAP1 POP SWAP2 SWAP1 POP JUMP JUMPDEST DUP3 DUP2 DUP4 CALLDATACOPY PUSH1 0x0 DUP4 DUP4 ADD MSTORE POP POP POP JUMP JUMPDEST PUSH1 0x0 PUSH2 0x420C PUSH2 0x4207 DUP5 PUSH2 0x41B9 JUMP JUMPDEST PUSH2 0x419E JUMP JUMPDEST SWAP1 POP DUP3 DUP2 MSTORE PUSH1 0x20 DUP2 ADD DUP5 DUP5 DUP5 ADD GT ISZERO PUSH2 0x4228 JUMPI PUSH2 0x4227 PUSH2 0x4139 JUMP JUMPDEST JUMPDEST PUSH2 0x4233 DUP5 DUP3 DUP6 PUSH2 0x41EA JUMP JUMPDEST POP SWAP4 SWAP3 POP POP POP JUMP JUMPDEST PUSH1 0x0 DUP3 PUSH1 0x1F DUP4 ADD SLT PUSH2 0x4250 JUMPI PUSH2 0x424F PUSH2 0x4134 JUMP JUMPDEST JUMPDEST DUP2 CALLDATALOAD PUSH2 0x4260 DUP5 DUP3 PUSH1 0x20 DUP7 ADD PUSH2 0x41F9 JUMP JUMPDEST SWAP2 POP POP SWAP3 SWAP2 POP POP JUMP JUMPDEST PUSH1 0x0 DUP1 PUSH1 0x0 DUP1 PUSH1 0x80 DUP6 DUP8 SUB SLT ISZERO PUSH2 0x4283 JUMPI PUSH2 0x4282 PUSH2 0x3979 JUMP JUMPDEST JUMPDEST PUSH1 0x0 PUSH2 0x4291 DUP8 DUP3 DUP9 ADD PUSH2 0x3BC6 JUMP JUMPDEST SWAP5 POP POP PUSH1 0x20 PUSH2 0x42A2 DUP8 DUP3 DUP9 ADD PUSH2 0x3BC6 JUMP JUMPDEST SWAP4 POP POP PUSH1 0x40 PUSH2 0x42B3 DUP8 DUP3 DUP9 ADD PUSH2 0x3B11 JUMP JUMPDEST SWAP3 POP POP PUSH1 0x60 DUP6 ADD CALLDATALOAD PUSH8 0xFFFFFFFFFFFFFFFF DUP2 GT ISZERO PUSH2 0x42D4 JUMPI PUSH2 0x42D3 PUSH2 0x397E JUMP JUMPDEST JUMPDEST PUSH2 0x42E0 DUP8 DUP3 DUP9 ADD PUSH2 0x423B JUMP JUMPDEST SWAP2 POP POP SWAP3 SWAP6 SWAP2 SWAP5 POP SWAP3 POP JUMP JUMPDEST PUSH1 0x0 DUP1 PUSH1 0x40 DUP4 DUP6 SUB SLT ISZERO PUSH2 0x4303 JUMPI PUSH2 0x4302 PUSH2 0x3979 JUMP JUMPDEST JUMPDEST PUSH1 0x0 PUSH2 0x4311 DUP6 DUP3 DUP7 ADD PUSH2 0x3B11 JUMP JUMPDEST SWAP3 POP POP PUSH1 0x20 PUSH2 0x4322 DUP6 DUP3 DUP7 ADD PUSH2 0x3B11 JUMP JUMPDEST SWAP2 POP POP SWAP3 POP SWAP3 SWAP1 POP JUMP JUMPDEST PUSH1 0x0 PUSH8 0xFFFFFFFFFFFFFFFF DUP3 GT ISZERO PUSH2 0x4347 JUMPI PUSH2 0x4346 PUSH2 0x413E JUMP JUMPDEST JUMPDEST PUSH2 0x4350 DUP3 PUSH2 0x3A84 JUMP JUMPDEST SWAP1 POP PUSH1 0x20 DUP2 ADD SWAP1 POP SWAP2 SWAP1 POP JUMP JUMPDEST PUSH1 0x0 PUSH2 0x4370 PUSH2 0x436B DUP5 PUSH2 0x432C JUMP JUMPDEST PUSH2 0x419E JUMP JUMPDEST SWAP1 POP DUP3 DUP2 MSTORE PUSH1 0x20 DUP2 ADD DUP5 DUP5 DUP5 ADD GT ISZERO PUSH2 0x438C JUMPI PUSH2 0x438B PUSH2 0x4139 JUMP JUMPDEST JUMPDEST PUSH2 0x4397 DUP5 DUP3 DUP6 PUSH2 0x41EA JUMP JUMPDEST POP SWAP4 SWAP3 POP POP POP JUMP JUMPDEST PUSH1 0x0 DUP3 PUSH1 0x1F DUP4 ADD SLT PUSH2 0x43B4 JUMPI PUSH2 0x43B3 PUSH2 0x4134 JUMP JUMPDEST JUMPDEST DUP2 CALLDATALOAD PUSH2 0x43C4 DUP5 DUP3 PUSH1 0x20 DUP7 ADD PUSH2 0x435D JUMP JUMPDEST SWAP2 POP POP SWAP3 SWAP2 POP POP JUMP JUMPDEST PUSH1 0x0 DUP1 PUSH1 0x0 DUP1 PUSH1 0x0 DUP1 PUSH1 0xC0 DUP8 DUP10 SUB SLT ISZERO PUSH2 0x43EA JUMPI PUSH2 0x43E9 PUSH2 0x3979 JUMP JUMPDEST JUMPDEST PUSH1 0x0 DUP8 ADD CALLDATALOAD PUSH8 0xFFFFFFFFFFFFFFFF DUP2 GT ISZERO PUSH2 0x4408 JUMPI PUSH2 0x4407 PUSH2 0x397E JUMP JUMPDEST JUMPDEST PUSH2 0x4414 DUP10 DUP3 DUP11 ADD PUSH2 0x439F JUMP JUMPDEST SWAP7 POP POP PUSH1 0x20 DUP8 ADD CALLDATALOAD PUSH8 0xFFFFFFFFFFFFFFFF DUP2 GT ISZERO PUSH2 0x4435 JUMPI PUSH2 0x4434 PUSH2 0x397E JUMP JUMPDEST JUMPDEST PUSH2 0x4441 DUP10 DUP3 DUP11 ADD PUSH2 0x439F JUMP JUMPDEST SWAP6 POP POP PUSH1 0x40 DUP8 ADD CALLDATALOAD PUSH8 0xFFFFFFFFFFFFFFFF DUP2 GT ISZERO PUSH2 0x4462 JUMPI PUSH2 0x4461 PUSH2 0x397E JUMP JUMPDEST JUMPDEST PUSH2 0x446E DUP10 DUP3 DUP11 ADD PUSH2 0x439F JUMP JUMPDEST SWAP5 POP POP PUSH1 0x60 DUP8 ADD CALLDATALOAD PUSH8 0xFFFFFFFFFFFFFFFF DUP2 GT ISZERO PUSH2 0x448F JUMPI PUSH2 0x448E PUSH2 0x397E JUMP JUMPDEST JUMPDEST PUSH2 0x449B DUP10 DUP3 DUP11 ADD PUSH2 0x439F JUMP JUMPDEST SWAP4 POP POP PUSH1 0x80 PUSH2 0x44AC DUP10 DUP3 DUP11 ADD PUSH2 0x3B11 JUMP JUMPDEST SWAP3 POP POP PUSH1 0xA0 PUSH2 0x44BD DUP10 DUP3 DUP11 ADD PUSH2 0x3B11 JUMP JUMPDEST SWAP2 POP POP SWAP3 SWAP6 POP SWAP3 SWAP6 POP SWAP3 SWAP6 JUMP JUMPDEST PUSH1 0x0 DUP1 PUSH1 0x40 DUP4 DUP6 SUB SLT ISZERO PUSH2 0x44E1 JUMPI PUSH2 0x44E0 PUSH2 0x3979 JUMP JUMPDEST JUMPDEST PUSH1 0x0 PUSH2 0x44EF DUP6 DUP3 DUP7 ADD PUSH2 0x3BC6 JUMP JUMPDEST SWAP3 POP POP PUSH1 0x20 PUSH2 0x4500 DUP6 DUP3 DUP7 ADD PUSH2 0x3BC6 JUMP JUMPDEST SWAP2 POP POP SWAP3 POP SWAP3 SWAP1 POP JUMP JUMPDEST PUSH2 0x4513 DUP2 PUSH2 0x3CD9 JUMP JUMPDEST DUP3 MSTORE POP POP JUMP JUMPDEST PUSH1 0x0 PUSH2 0x140 DUP3 ADD SWAP1 POP PUSH2 0x452F PUSH1 0x0 DUP4 ADD DUP14 PUSH2 0x3E0B JUMP JUMPDEST PUSH2 0x453C PUSH1 0x20 DUP4 ADD DUP13 PUSH2 0x3B85 JUMP JUMPDEST DUP2 DUP2 SUB PUSH1 0x40 DUP4 ADD MSTORE PUSH2 0x454E DUP2 DUP12 PUSH2 0x3A95 JUMP JUMPDEST SWAP1 POP DUP2 DUP2 SUB PUSH1 0x60 DUP4 ADD MSTORE PUSH2 0x4562 DUP2 DUP11 PUSH2 0x3A95 JUMP JUMPDEST SWAP1 POP DUP2 DUP2 SUB PUSH1 0x80 DUP4 ADD MSTORE PUSH2 0x4576 DUP2 DUP10 PUSH2 0x3A95 JUMP JUMPDEST SWAP1 POP DUP2 DUP2 SUB PUSH1 0xA0 DUP4 ADD MSTORE PUSH2 0x458A DUP2 DUP9 PUSH2 0x3A95 JUMP JUMPDEST SWAP1 POP PUSH2 0x4599 PUSH1 0xC0 DUP4 ADD DUP8 PUSH2 0x3E0B JUMP JUMPDEST PUSH2 0x45A6 PUSH1 0xE0 DUP4 ADD DUP7 PUSH2 0x3E0B JUMP JUMPDEST PUSH2 0x45B4 PUSH2 0x100 DUP4 ADD DUP6 PUSH2 0x3E0B JUMP JUMPDEST PUSH2 0x45C2 PUSH2 0x120 DUP4 ADD DUP5 PUSH2 0x450A JUMP JUMPDEST SWAP12 SWAP11 POP POP POP POP POP POP POP POP POP POP POP JUMP JUMPDEST PUSH32 0x4E487B7100000000000000000000000000000000000000000000000000000000 PUSH1 0x0 MSTORE PUSH1 0x22 PUSH1 0x4 MSTORE PUSH1 0x24 PUSH1 0x0 REVERT JUMPDEST PUSH1 0x0 PUSH1 0x2 DUP3 DIV SWAP1 POP PUSH1 0x1 DUP3 AND DUP1 PUSH2 0x4618 JUMPI PUSH1 0x7F DUP3 AND SWAP2 POP JUMPDEST PUSH1 0x20 DUP3 LT DUP2 SUB PUSH2 0x462B JUMPI PUSH2 0x462A PUSH2 0x45D1 JUMP JUMPDEST JUMPDEST POP SWAP2 SWAP1 POP JUMP JUMPDEST PUSH32 0x4D61726B6574706C6163653A2050726F706572747920646F6573206E6F742065 PUSH1 0x0 DUP3 ADD MSTORE PUSH32 0x7869737400000000000000000000000000000000000000000000000000000000 PUSH1 0x20 DUP3 ADD MSTORE POP JUMP JUMPDEST PUSH1 0x0 PUSH2 0x468D PUSH1 0x24 DUP4 PUSH2 0x3A49 JUMP JUMPDEST SWAP2 POP PUSH2 0x4698 DUP3 PUSH2 0x4631 JUMP JUMPDEST PUSH1 0x40 DUP3 ADD SWAP1 POP SWAP2 SWAP1 POP JUMP JUMPDEST PUSH1 0x0 PUSH1 0x20 DUP3 ADD SWAP1 POP DUP2 DUP2 SUB PUSH1 0x0 DUP4 ADD MSTORE PUSH2 0x46BC DUP2 PUSH2 0x4680 JUMP JUMPDEST SWAP1 POP SWAP2 SWAP1 POP JUMP JUMPDEST PUSH1 0x0 PUSH1 0x60 DUP3 ADD SWAP1 POP PUSH2 0x46D8 PUSH1 0x0 DUP4 ADD DUP7 PUSH2 0x3B85 JUMP JUMPDEST PUSH2 0x46E5 PUSH1 0x20 DUP4 ADD DUP6 PUSH2 0x3E0B JUMP JUMPDEST PUSH2 0x46F2 PUSH1 0x40 DUP4 ADD DUP5 PUSH2 0x3B85 JUMP JUMPDEST SWAP5 SWAP4 POP POP POP POP JUMP JUMPDEST PUSH1 0x0 PUSH1 0x40 DUP3 ADD SWAP1 POP PUSH2 0x470F PUSH1 0x0 DUP4 ADD DUP6 PUSH2 0x3B85 JUMP JUMPDEST PUSH2 0x471C PUSH1 0x20 DUP4 ADD DUP5 PUSH2 0x3E0B JUMP JUMPDEST SWAP4 SWAP3 POP POP POP JUMP JUMPDEST PUSH32 0x4D61726B6574706C6163653A2043616C6C6572206973206E6F74207468652076 PUSH1 0x0 DUP3 ADD MSTORE PUSH32 0x6572696669657200000000000000000000000000000000000000000000000000 PUSH1 0x20 DUP3 ADD MSTORE POP JUMP JUMPDEST PUSH1 0x0 PUSH2 0x477F PUSH1 0x27 DUP4 PUSH2 0x3A49 JUMP JUMPDEST SWAP2 POP PUSH2 0x478A DUP3 PUSH2 0x4723 JUMP JUMPDEST PUSH1 0x40 DUP3 ADD SWAP1 POP SWAP2 SWAP1 POP JUMP JUMPDEST PUSH1 0x0 PUSH1 0x20 DUP3 ADD SWAP1 POP DUP2 DUP2 SUB PUSH1 0x0 DUP4 ADD MSTORE PUSH2 0x47AE DUP2 PUSH2 0x4772 JUMP JUMPDEST SWAP1 POP SWAP2 SWAP1 POP JUMP JUMPDEST PUSH32 0x4D61726B6574706C6163653A2050726F7065727479206E6F742070656E64696E PUSH1 0x0 DUP3 ADD MSTORE PUSH32 0x6720766572696669636174696F6E000000000000000000000000000000000000 PUSH1 0x20 DUP3 ADD MSTORE POP JUMP JUMPDEST PUSH1 0x0 PUSH2 0x4811 PUSH1 0x2E DUP4 PUSH2 0x3A49 JUMP JUMPDEST SWAP2 POP PUSH2 0x481C DUP3 PUSH2 0x47B5 JUMP JUMPDEST PUSH1 0x40 DUP3 ADD SWAP1 POP SWAP2 SWAP1 POP JUMP JUMPDEST PUSH1 0x0 PUSH1 0x20 DUP3 ADD SWAP1 POP DUP2 DUP2 SUB PUSH1 0x0 DUP4 ADD MSTORE PUSH2 0x4840 DUP2 PUSH2 0x4804 JUMP JUMPDEST SWAP1 POP SWAP2 SWAP1 POP JUMP JUMPDEST PUSH1 0x0 DUP2 SWAP1 POP SWAP3 SWAP2 POP POP JUMP JUMPDEST POP JUMP JUMPDEST PUSH1 0x0 PUSH2 0x4862 PUSH1 0x0 DUP4 PUSH2 0x4847 JUMP JUMPDEST SWAP2 POP PUSH2 0x486D DUP3 PUSH2 0x4852 JUMP JUMPDEST PUSH1 0x0 DUP3 ADD SWAP1 POP SWAP2 SWAP1 POP JUMP JUMPDEST PUSH1 0x0 PUSH2 0x4883 DUP3 PUSH2 0x4855 JUMP JUMPDEST SWAP2 POP DUP2 SWAP1 POP SWAP2 SWAP1 POP JUMP JUMPDEST PUSH32 0x4D61726B6574706C6163653A20466565207472616E73666572206661696C6564 PUSH1 0x0 DUP3 ADD MSTORE POP JUMP JUMPDEST PUSH1 0x0 PUSH2 0x48C3 PUSH1 0x20 DUP4 PUSH2 0x3A49 JUMP JUMPDEST SWAP2 POP PUSH2 0x48CE DUP3 PUSH2 0x488D JUMP JUMPDEST PUSH1 0x20 DUP3 ADD SWAP1 POP SWAP2 SWAP1 POP JUMP JUMPDEST PUSH1 0x0 PUSH1 0x20 DUP3 ADD SWAP1 POP DUP2 DUP2 SUB PUSH1 0x0 DUP4 ADD MSTORE PUSH2 0x48F2 DUP2 PUSH2 0x48B6 JUMP JUMPDEST SWAP1 POP SWAP2 SWAP1 POP JUMP JUMPDEST PUSH32 0x4D61726B6574706C6163653A2046656520726566756E64206661696C65640000 PUSH1 0x0 DUP3 ADD MSTORE POP JUMP JUMPDEST PUSH1 0x0 PUSH2 0x492F PUSH1 0x1E DUP4 PUSH2 0x3A49 JUMP JUMPDEST SWAP2 POP PUSH2 0x493A DUP3 PUSH2 0x48F9 JUMP JUMPDEST PUSH1 0x20 DUP3 ADD SWAP1 POP SWAP2 SWAP1 POP JUMP JUMPDEST PUSH1 0x0 PUSH1 0x20 DUP3 ADD SWAP1 POP DUP2 DUP2 SUB PUSH1 0x0 DUP4 ADD MSTORE PUSH2 0x495E DUP2 PUSH2 0x4922 JUMP JUMPDEST SWAP1 POP SWAP2 SWAP1 POP JUMP JUMPDEST PUSH32 0x4E487B7100000000000000000000000000000000000000000000000000000000 PUSH1 0x0 MSTORE PUSH1 0x32 PUSH1 0x4 MSTORE PUSH1 0x24 PUSH1 0x0 REVERT JUMPDEST PUSH32 0x4D61726B6574706C6163653A204E65772076657269666965722063616E6E6F74 PUSH1 0x0 DUP3 ADD MSTORE PUSH32 0x20626520746865207A65726F2061646472657373000000000000000000000000 PUSH1 0x20 DUP3 ADD MSTORE POP JUMP JUMPDEST PUSH1 0x0 PUSH2 0x49F0 PUSH1 0x34 DUP4 PUSH2 0x3A49 JUMP JUMPDEST SWAP2 POP PUSH2 0x49FB DUP3 PUSH2 0x4994 JUMP JUMPDEST PUSH1 0x40 DUP3 ADD SWAP1 POP SWAP2 SWAP1 POP JUMP JUMPDEST PUSH1 0x0 PUSH1 0x20 DUP3 ADD SWAP1 POP DUP2 DUP2 SUB PUSH1 0x0 DUP4 ADD MSTORE PUSH2 0x4A1F DUP2 PUSH2 0x49E3 JUMP JUMPDEST SWAP1 POP SWAP2 SWAP1 POP JUMP JUMPDEST PUSH32 0x4E487B7100000000000000000000000000000000000000000000000000000000 PUSH1 0x0 MSTORE PUSH1 0x11 PUSH1 0x4 MSTORE PUSH1 0x24 PUSH1 0x0 REVERT JUMPDEST PUSH1 0x0 PUSH2 0x4A60 DUP3 PUSH2 0x3AF0 JUMP JUMPDEST SWAP2 POP PUSH32 0xFFFFFFFFFFFFFFFFFFFFFFFFFFFFFFFFFFFFFFFFFFFFFFFFFFFFFFFFFFFFFFFF DUP3 SUB PUSH2 0x4A92 JUMPI PUSH2 0x4A91 PUSH2 0x4A26 JUMP JUMPDEST JUMPDEST PUSH1 0x1 DUP3 ADD SWAP1 POP SWAP2 SWAP1 POP JUMP JUMPDEST PUSH1 0x0 DUP2 SWAP1 POP SWAP3 SWAP2 POP POP JUMP JUMPDEST PUSH1 0x0 PUSH2 0x4AB3 DUP3 PUSH2 0x3A3E JUMP JUMPDEST PUSH2 0x4ABD DUP2 DUP6 PUSH2 0x4A9D JUMP JUMPDEST SWAP4 POP PUSH2 0x4ACD DUP2 DUP6 PUSH1 0x20 DUP7 ADD PUSH2 0x3A5A JUMP JUMPDEST DUP1 DUP5 ADD SWAP2 POP POP SWAP3 SWAP2 POP POP JUMP JUMPDEST PUSH1 0x0 PUSH2 0x4AE5 DUP3 DUP6 PUSH2 0x4AA8 JUMP JUMPDEST SWAP2 POP PUSH2 0x4AF1 DUP3 DUP5 PUSH2 0x4AA8 JUMP JUMPDEST SWAP2 POP DUP2 SWAP1 POP SWAP4 SWAP3 POP POP POP JUMP JUMPDEST PUSH32 0x4D61726B6574706C6163653A2050726F7065727479206E6F7420766572696669 PUSH1 0x0 DUP3 ADD MSTORE PUSH32 0x6564000000000000000000000000000000000000000000000000000000000000 PUSH1 0x20 DUP3 ADD MSTORE POP JUMP JUMPDEST PUSH1 0x0 PUSH2 0x4B59 PUSH1 0x22 DUP4 PUSH2 0x3A49 JUMP JUMPDEST SWAP2 POP PUSH2 0x4B64 DUP3 PUSH2 0x4AFD JUMP JUMPDEST PUSH1 0x40 DUP3 ADD SWAP1 POP SWAP2 SWAP1 POP JUMP JUMPDEST PUSH1 0x0 PUSH1 0x20 DUP3 ADD SWAP1 POP DUP2 DUP2 SUB PUSH1 0x0 DUP4 ADD MSTORE PUSH2 0x4B88 DUP2 PUSH2 0x4B4C JUMP JUMPDEST SWAP1 POP SWAP2 SWAP1 POP JUMP JUMPDEST PUSH32 0x4D61726B6574706C6163653A204672616374696F6E73206D7573742062652067 PUSH1 0x0 DUP3 ADD MSTORE PUSH32 0x726561746572207468616E207A65726F00000000000000000000000000000000 PUSH1 0x20 DUP3 ADD MSTORE POP JUMP JUMPDEST PUSH1 0x0 PUSH2 0x4BEB PUSH1 0x30 DUP4 PUSH2 0x3A49 JUMP JUMPDEST SWAP2 POP PUSH2 0x4BF6 DUP3 PUSH2 0x4B8F JUMP JUMPDEST PUSH1 0x40 DUP3 ADD SWAP1 POP SWAP2 SWAP1 POP JUMP JUMPDEST PUSH1 0x0 PUSH1 0x20 DUP3 ADD SWAP1 POP DUP2 DUP2 SUB PUSH1 0x0 DUP4 ADD MSTORE PUSH2 0x4C1A DUP2 PUSH2 0x4BDE JUMP JUMPDEST SWAP1 POP SWAP2 SWAP1 POP JUMP JUMPDEST PUSH32 0x4D61726B6574706C6163653A204E6F7420656E6F756768206672616374696F6E PUSH1 0x0 DUP3 ADD MSTORE PUSH32 0x73206C697374656420666F722073616C65000000000000000000000000000000 PUSH1 0x20 DUP3 ADD MSTORE POP JUMP JUMPDEST PUSH1 0x0 PUSH2 0x4C7D PUSH1 0x31 DUP4 PUSH2 0x3A49 JUMP JUMPDEST SWAP2 POP PUSH2 0x4C88 DUP3 PUSH2 0x4C21 JUMP JUMPDEST PUSH1 0x40 DUP3 ADD SWAP1 POP SWAP2 SWAP1 POP JUMP JUMPDEST PUSH1 0x0 PUSH1 0x20 DUP3 ADD SWAP1 POP DUP2 DUP2 SUB PUSH1 0x0 DUP4 ADD MSTORE PUSH2 0x4CAC DUP2 PUSH2 0x4C70 JUMP JUMPDEST SWAP1 POP SWAP2 SWAP1 POP JUMP JUMPDEST PUSH1 0x0 PUSH2 0x4CBE DUP3 PUSH2 0x3AF0 JUMP JUMPDEST SWAP2 POP PUSH2 0x4CC9 DUP4 PUSH2 0x3AF0 JUMP JUMPDEST SWAP3 POP DUP3 DUP3 MUL PUSH2 0x4CD7 DUP2 PUSH2 0x3AF0 JUMP JUMPDEST SWAP2 POP DUP3 DUP3 DIV DUP5 EQ DUP4 ISZERO OR PUSH2 0x4CEE JUMPI PUSH2 0x4CED PUSH2 0x4A26 JUMP JUMPDEST JUMPDEST POP SWAP3 SWAP2 POP POP JUMP JUMPDEST PUSH32 0x4D61726B6574706C6163653A20496E636F72726563742045746865722073656E PUSH1 0x0 DUP3 ADD MSTORE PUSH32 0x7400000000000000000000000000000000000000000000000000000000000000 PUSH1 0x20 DUP3 ADD MSTORE POP JUMP JUMPDEST PUSH1 0x0 PUSH2 0x4D51 PUSH1 0x21 DUP4 PUSH2 0x3A49 JUMP JUMPDEST SWAP2 POP PUSH2 0x4D5C DUP3 PUSH2 0x4CF5 JUMP JUMPDEST PUSH1 0x40 DUP3 ADD SWAP1 POP SWAP2 SWAP1 POP JUMP JUMPDEST PUSH1 0x0 PUSH1 0x20 DUP3 ADD SWAP1 POP DUP2 DUP2 SUB PUSH1 0x0 DUP4 ADD MSTORE PUSH2 0x4D80 DUP2 PUSH2 0x4D44 JUMP JUMPDEST SWAP1 POP SWAP2 SWAP1 POP JUMP JUMPDEST PUSH1 0x0 PUSH2 0x4D92 DUP3 PUSH2 0x3AF0 JUMP JUMPDEST SWAP2 POP PUSH2 0x4D9D DUP4 PUSH2 0x3AF0 JUMP JUMPDEST SWAP3 POP DUP3 DUP3 SUB SWAP1 POP DUP2 DUP2 GT ISZERO PUSH2 0x4DB5 JUMPI PUSH2 0x4DB4 PUSH2 0x4A26 JUMP JUMPDEST JUMPDEST SWAP3 SWAP2 POP POP JUMP JUMPDEST PUSH1 0x0 PUSH1 0x40 DUP3 ADD SWAP1 POP PUSH2 0x4DD0 PUSH1 0x0 DUP4 ADD DUP6 PUSH2 0x3E0B JUMP JUMPDEST PUSH2 0x4DDD PUSH1 0x20 DUP4 ADD DUP5 PUSH2 0x3E0B JUMP JUMPDEST SWAP4 SWAP3 POP POP POP JUMP JUMPDEST PUSH32 0x4D61726B6574706C6163653A20496E636F727265637420766572696669636174 PUSH1 0x0 DUP3 ADD MSTORE PUSH32 0x696F6E206665652073656E740000000000000000000000000000000000000000 PUSH1 0x20 DUP3 ADD MSTORE POP JUMP JUMPDEST PUSH1 0x0 PUSH2 0x4E40 PUSH1 0x2C DUP4 PUSH2 0x3A49 JUMP JUMPDEST SWAP2 POP PUSH2 0x4E4B DUP3 PUSH2 0x4DE4 JUMP JUMPDEST PUSH1 0x40 DUP3 ADD SWAP1 POP SWAP2 SWAP1 POP JUMP JUMPDEST PUSH1 0x0 PUSH1 0x20 DUP3 ADD SWAP1 POP DUP2 DUP2 SUB PUSH1 0x0 DUP4 ADD MSTORE PUSH2 0x4E6F DUP2 PUSH2 0x4E33 JUMP JUMPDEST SWAP1 POP SWAP2 SWAP1 POP JUMP JUMPDEST PUSH32 0x4D61726B6574706C6163653A20546F74616C206672616374696F6E73206D7573 PUSH1 0x0 DUP3 ADD MSTORE PUSH32 0x7420626520706F73697469766500000000000000000000000000000000000000 PUSH1 0x20 DUP3 ADD MSTORE POP JUMP JUMPDEST PUSH1 0x0 PUSH2 0x4ED2 PUSH1 0x2D DUP4 PUSH2 0x3A49 JUMP JUMPDEST SWAP2 POP PUSH2 0x4EDD DUP3 PUSH2 0x4E76 JUMP JUMPDEST PUSH1 0x40 DUP3 ADD SWAP1 POP SWAP2 SWAP1 POP JUMP JUMPDEST PUSH1 0x0 PUSH1 0x20 DUP3 ADD SWAP1 POP DUP2 DUP2 SUB PUSH1 0x0 DUP4 ADD MSTORE PUSH2 0x4F01 DUP2 PUSH2 0x4EC5 JUMP JUMPDEST SWAP1 POP SWAP2 SWAP1 POP JUMP JUMPDEST PUSH32 0x4D61726B6574706C6163653A20507269636520706572206672616374696F6E20 PUSH1 0x0 DUP3 ADD MSTORE PUSH32 0x6D75737420626520706F73697469766500000000000000000000000000000000 PUSH1 0x20 DUP3 ADD MSTORE POP JUMP JUMPDEST PUSH1 0x0 PUSH2 0x4F64 PUSH1 0x30 DUP4 PUSH2 0x3A49 JUMP JUMPDEST SWAP2 POP PUSH2 0x4F6F DUP3 PUSH2 0x4F08 JUMP JUMPDEST PUSH1 0x40 DUP3 ADD SWAP1 POP SWAP2 SWAP1 POP JUMP JUMPDEST PUSH1 0x0 PUSH1 0x20 DUP3 ADD SWAP1 POP DUP2 DUP2 SUB PUSH1 0x0 DUP4 ADD MSTORE PUSH2 0x4F93 DUP2 PUSH2 0x4F57 JUMP JUMPDEST SWAP1 POP SWAP2 SWAP1 POP JUMP JUMPDEST PUSH32 0x4D61726B6574706C6163653A204E616D652063616E6E6F7420626520656D7074 PUSH1 0x0 DUP3 ADD MSTORE PUSH32 0x7900000000000000000000000000000000000000000000000000000000000000 PUSH1 0x20 DUP3 ADD MSTORE POP JUMP JUMPDEST PUSH1 0x0 PUSH2 0x4FF6 PUSH1 0x21 DUP4 PUSH2 0x3A49 JUMP JUMPDEST SWAP2 POP PUSH2 0x5001 DUP3 PUSH2 0x4F9A JUMP JUMPDEST PUSH1 0x40 DUP3 ADD SWAP1 POP SWAP2 SWAP1 POP JUMP JUMPDEST PUSH1 0x0 PUSH1 0x20 DUP3 ADD SWAP1 POP DUP2 DUP2 SUB PUSH1 0x0 DUP4 ADD MSTORE PUSH2 0x5025 DUP2 PUSH2 0x4FE9 JUMP JUMPDEST SWAP1 POP SWAP2 SWAP1 POP JUMP JUMPDEST PUSH32 0x4D61726B6574706C6163653A20416464726573732063616E6E6F742062652065 PUSH1 0x0 DUP3 ADD MSTORE PUSH32 0x6D70747900000000000000000000000000000000000000000000000000000000 PUSH1 0x20 DUP3 ADD MSTORE POP JUMP JUMPDEST PUSH1 0x0 PUSH2 0x5088 PUSH1 0x24 DUP4 PUSH2 0x3A49 JUMP JUMPDEST SWAP2 POP PUSH2 0x5093 DUP3 PUSH2 0x502C JUMP JUMPDEST PUSH1 0x40 DUP3 ADD SWAP1 POP SWAP2 SWAP1 POP JUMP JUMPDEST PUSH1 0x0 PUSH1 0x20 DUP3 ADD SWAP1 POP DUP2 DUP2 SUB PUSH1 0x0 DUP4 ADD MSTORE PUSH2 0x50B7 DUP2 PUSH2 0x507B JUMP JUMPDEST SWAP1 POP SWAP2 SWAP1 POP JUMP JUMPDEST PUSH32 0x4D61726B6574706C6163653A20496D6167652055524C2063616E6E6F74206265 PUSH1 0x0 DUP3 ADD MSTORE PUSH32 0x20656D7074790000000000000000000000000000000000000000000000000000 PUSH1 0x20 DUP3 ADD MSTORE POP JUMP JUMPDEST PUSH1 0x0 PUSH2 0x511A PUSH1 0x26 DUP4 PUSH2 0x3A49 JUMP JUMPDEST SWAP2 POP PUSH2 0x5125 DUP3 PUSH2 0x50BE JUMP JUMPDEST PUSH1 0x40 DUP3 ADD SWAP1 POP SWAP2 SWAP1 POP JUMP JUMPDEST PUSH1 0x0 PUSH1 0x20 DUP3 ADD SWAP1 POP DUP2 DUP2 SUB PUSH1 0x0 DUP4 ADD MSTORE PUSH2 0x5149 DUP2 PUSH2 0x510D JUMP JUMPDEST SWAP1 POP SWAP2 SWAP1 POP JUMP JUMPDEST PUSH32 0x4D61726B6574706C6163653A20446F63756D656E742055524C2063616E6E6F74 PUSH1 0x0 DUP3 ADD MSTORE PUSH32 0x20626520656D7074790000000000000000000000000000000000000000000000 PUSH1 0x20 DUP3 ADD MSTORE POP JUMP JUMPDEST PUSH1 0x0 PUSH2 0x51AC PUSH1 0x29 DUP4 PUSH2 0x3A49 JUMP JUMPDEST SWAP2 POP PUSH2 0x51B7 DUP3 PUSH2 0x5150 JUMP JUMPDEST PUSH1 0x40 DUP3 ADD SWAP1 POP SWAP2 SWAP1 POP JUMP JUMPDEST PUSH1 0x0 PUSH1 0x20 DUP3 ADD SWAP1 POP DUP2 DUP2 SUB PUSH1 0x0 DUP4 ADD MSTORE PUSH2 0x51DB DUP2 PUSH2 0x519F JUMP JUMPDEST SWAP1 POP SWAP2 SWAP1 POP JUMP JUMPDEST PUSH1 0x0 DUP2 SWAP1 POP DUP2 PUSH1 0x0 MSTORE PUSH1 0x20 PUSH1 0x0 KECCAK256 SWAP1 POP SWAP2 SWAP1 POP JUMP JUMPDEST PUSH1 0x0 PUSH1 0x20 PUSH1 0x1F DUP4 ADD DIV SWAP1 POP SWAP2 SWAP1 POP JUMP JUMPDEST PUSH1 0x0 DUP3 DUP3 SHL SWAP1 POP SWAP3 SWAP2 POP POP JUMP JUMPDEST PUSH1 0x0 PUSH1 0x8 DUP4 MUL PUSH2 0x5244 PUSH32 0xFFFFFFFFFFFFFFFFFFFFFFFFFFFFFFFFFFFFFFFFFFFFFFFFFFFFFFFFFFFFFFFF DUP3 PUSH2 0x5207 JUMP JUMPDEST PUSH2 0x524E DUP7 DUP4 PUSH2 0x5207 JUMP JUMPDEST SWAP6 POP DUP1 NOT DUP5 AND SWAP4 POP DUP1 DUP7 AND DUP5 OR SWAP3 POP POP POP SWAP4 SWAP3 POP POP POP JUMP JUMPDEST PUSH1 0x0 DUP2 SWAP1 POP SWAP2 SWAP1 POP JUMP JUMPDEST PUSH1 0x0 PUSH2 0x528B PUSH2 0x5286 PUSH2 0x5281 DUP5 PUSH2 0x3AF0 JUMP JUMPDEST PUSH2 0x5266 JUMP JUMPDEST PUSH2 0x3AF0 JUMP JUMPDEST SWAP1 POP SWAP2 SWAP1 POP JUMP JUMPDEST PUSH1 0x0 DUP2 SWAP1 POP SWAP2 SWAP1 POP JUMP JUMPDEST PUSH2 0x52A5 DUP4 PUSH2 0x5270 JUMP JUMPDEST PUSH2 0x52B9 PUSH2 0x52B1 DUP3 PUSH2 0x5292 JUMP JUMPDEST DUP5 DUP5 SLOAD PUSH2 0x5214 JUMP JUMPDEST DUP3 SSTORE POP POP POP POP JUMP JUMPDEST PUSH1 0x0 SWAP1 JUMP JUMPDEST PUSH2 0x52CE PUSH2 0x52C1 JUMP JUMPDEST PUSH2 0x52D9 DUP2 DUP5 DUP5 PUSH2 0x529C JUMP JUMPDEST POP POP POP JUMP JUMPDEST JUMPDEST DUP2 DUP2 LT ISZERO PUSH2 0x52FD JUMPI PUSH2 0x52F2 PUSH1 0x0 DUP3 PUSH2 0x52C6 JUMP JUMPDEST PUSH1 0x1 DUP2 ADD SWAP1 POP PUSH2 0x52DF JUMP JUMPDEST POP POP JUMP JUMPDEST PUSH1 0x1F DUP3 GT ISZERO PUSH2 0x5342 JUMPI PUSH2 0x5313 DUP2 PUSH2 0x51E2 JUMP JUMPDEST PUSH2 0x531C DUP5 PUSH2 0x51F7 JUMP JUMPDEST DUP2 ADD PUSH1 0x20 DUP6 LT ISZERO PUSH2 0x532B JUMPI DUP2 SWAP1 POP JUMPDEST PUSH2 0x533F PUSH2 0x5337 DUP6 PUSH2 0x51F7 JUMP JUMPDEST DUP4 ADD DUP3 PUSH2 0x52DE JUMP JUMPDEST POP POP JUMPDEST POP POP POP JUMP JUMPDEST PUSH1 0x0 DUP3 DUP3 SHR SWAP1 POP SWAP3 SWAP2 POP POP JUMP JUMPDEST PUSH1 0x0 PUSH2 0x5365 PUSH1 0x0 NOT DUP5 PUSH1 0x8 MUL PUSH2 0x5347 JUMP JUMPDEST NOT DUP1 DUP4 AND SWAP2 POP POP SWAP3 SWAP2 POP POP JUMP JUMPDEST PUSH1 0x0 PUSH2 0x537E DUP4 DUP4 PUSH2 0x5354 JUMP JUMPDEST SWAP2 POP DUP3 PUSH1 0x2 MUL DUP3 OR SWAP1 POP SWAP3 SWAP2 POP POP JUMP JUMPDEST PUSH2 0x5397 DUP3 PUSH2 0x3A3E JUMP JUMPDEST PUSH8 0xFFFFFFFFFFFFFFFF DUP2 GT ISZERO PUSH2 0x53B0 JUMPI PUSH2 0x53AF PUSH2 0x413E JUMP JUMPDEST JUMPDEST PUSH2 0x53BA DUP3 SLOAD PUSH2 0x4600 JUMP JUMPDEST PUSH2 0x53C5 DUP3 DUP3 DUP6 PUSH2 0x5301 JUMP JUMPDEST PUSH1 0x0 PUSH1 0x20 SWAP1 POP PUSH1 0x1F DUP4 GT PUSH1 0x1 DUP2 EQ PUSH2 0x53F8 JUMPI PUSH1 0x0 DUP5 ISZERO PUSH2 0x53E6 JUMPI DUP3 DUP8 ADD MLOAD SWAP1 POP JUMPDEST PUSH2 0x53F0 DUP6 DUP3 PUSH2 0x5372 JUMP JUMPDEST DUP7 SSTORE POP PUSH2 0x5458 JUMP JUMPDEST PUSH1 0x1F NOT DUP5 AND PUSH2 0x5406 DUP7 PUSH2 0x51E2 JUMP JUMPDEST PUSH1 0x0 JUMPDEST DUP3 DUP2 LT ISZERO PUSH2 0x542E JUMPI DUP5 DUP10 ADD MLOAD DUP3 SSTORE PUSH1 0x1 DUP3 ADD SWAP2 POP PUSH1 0x20 DUP6 ADD SWAP5 POP PUSH1 0x20 DUP2 ADD SWAP1 POP PUSH2 0x5409 JUMP JUMPDEST DUP7 DUP4 LT ISZERO PUSH2 0x544B JUMPI DUP5 DUP10 ADD MLOAD PUSH2 0x5447 PUSH1 0x1F DUP10 AND DUP3 PUSH2 0x5354 JUMP JUMPDEST DUP4 SSTORE POP JUMPDEST PUSH1 0x1 PUSH1 0x2 DUP9 MUL ADD DUP9 SSTORE POP POP POP JUMPDEST POP POP POP POP POP POP JUMP JUMPDEST PUSH1 0x0 PUSH1 0xC0 DUP3 ADD SWAP1 POP DUP2 DUP2 SUB PUSH1 0x0 DUP4 ADD MSTORE PUSH2 0x547A DUP2 DUP10 PUSH2 0x3A95 JUMP JUMPDEST SWAP1 POP DUP2 DUP2 SUB PUSH1 0x20 DUP4 ADD MSTORE PUSH2 0x548E DUP2 DUP9 PUSH2 0x3A95 JUMP JUMPDEST SWAP1 POP DUP2 DUP2 SUB PUSH1 0x40 DUP4 ADD MSTORE PUSH2 0x54A2 DUP2 DUP8 PUSH2 0x3A95 JUMP JUMPDEST SWAP1 POP DUP2 DUP2 SUB PUSH1 0x60 DUP4 ADD MSTORE PUSH2 0x54B6 DUP2 DUP7 PUSH2 0x3A95 JUMP JUMPDEST SWAP1 POP PUSH2 0x54C5 PUSH1 0x80 DUP4 ADD DUP6 PUSH2 0x3E0B JUMP JUMPDEST PUSH2 0x54D2 PUSH1 0xA0 DUP4 ADD DUP5 PUSH2 0x3E0B JUMP JUMPDEST SWAP8 SWAP7 POP POP POP POP POP POP POP JUMP JUMPDEST PUSH1 0x0 DUP2 MLOAD SWAP1 POP SWAP2 SWAP1 POP JUMP JUMPDEST PUSH1 0x0 DUP3 DUP3 MSTORE PUSH1 0x20 DUP3 ADD SWAP1 POP SWAP3 SWAP2 POP POP JUMP JUMPDEST PUSH1 0x0 PUSH2 0x5504 DUP3 PUSH2 0x54DD JUMP JUMPDEST PUSH2 0x550E DUP2 DUP6 PUSH2 0x54E8 JUMP JUMPDEST SWAP4 POP PUSH2 0x551E DUP2 DUP6 PUSH1 0x20 DUP7 ADD PUSH2 0x3A5A JUMP JUMPDEST PUSH2 0x5527 DUP2 PUSH2 0x3A84 JUMP JUMPDEST DUP5 ADD SWAP2 POP POP SWAP3 SWAP2 POP POP JUMP JUMPDEST PUSH1 0x0 PUSH1 0x80 DUP3 ADD SWAP1 POP PUSH2 0x5547 PUSH1 0x0 DUP4 ADD DUP8 PUSH2 0x3B85 JUMP JUMPDEST PUSH2 0x5554 PUSH1 0x20 DUP4 ADD DUP7 PUSH2 0x3B85 JUMP JUMPDEST PUSH2 0x5561 PUSH1 0x40 DUP4 ADD DUP6 PUSH2 0x3E0B JUMP JUMPDEST DUP2 DUP2 SUB PUSH1 0x60 DUP4 ADD MSTORE PUSH2 0x5573 DUP2 DUP5 PUSH2 0x54F9 JUMP JUMPDEST SWAP1 POP SWAP6 SWAP5 POP POP POP POP POP JUMP JUMPDEST PUSH1 0x0 DUP2 MLOAD SWAP1 POP PUSH2 0x558D DUP2 PUSH2 0x39AF JUMP JUMPDEST SWAP3 SWAP2 POP POP JUMP JUMPDEST PUSH1 0x0 PUSH1 0x20 DUP3 DUP5 SUB SLT ISZERO PUSH2 0x55A9 JUMPI PUSH2 0x55A8 PUSH2 0x3979 JUMP JUMPDEST JUMPDEST PUSH1 0x0 PUSH2 0x55B7 DUP5 DUP3 DUP6 ADD PUSH2 0x557E JUMP JUMPDEST SWAP2 POP POP SWAP3 SWAP2 POP POP JUMP JUMPDEST PUSH32 0x4E487B7100000000000000000000000000000000000000000000000000000000 PUSH1 0x0 MSTORE PUSH1 0x12 PUSH1 0x4 MSTORE PUSH1 0x24 PUSH1 0x0 REVERT JUMPDEST PUSH32 0x4E487B7100000000000000000000000000000000000000000000000000000000 PUSH1 0x0 MSTORE PUSH1 0x31 PUSH1 0x4 MSTORE PUSH1 0x24 PUSH1 0x0 REVERT INVALID LOG2 PUSH5 0x6970667358 0x22 SLT KECCAK256 0xF8 SWAP1 SWAP15 0xC0 DUP7 CHAINID 0xCC PUSH30 0x3ED81FB4539FB246750528B88CF40B7FB8864EEE5CB5627464736F6C6343 STOP ADDMOD SHR STOP CALLER "},"methodIdentifiers":{"approve(address,uint256)":"095ea7b3","balanceOf(address)":"70a08231","buyFraction(uint256,uint256)":"d40b0214","getAllListings()":"ae73ccec","getApproved(uint256)":"081812fc","getPropertyDetails(uint256)":"126dbe43","isApprovedForAll(address,address)":"e985e9c5","name()":"06fdde03","nextTokenId()":"75794a3c","owner()":"8da5cb5b","ownerOf(uint256)":"6352211e","properties(uint256)":"f7b10808","renounceOwnership()":"715018a6","safeTransferFrom(address,address,uint256)":"42842e0e","safeTransferFrom(address,address,uint256,bytes)":"b88d4fde","setApprovalForAll(address,bool)":"a22cb465","setVerificationFee(uint256)":"aae9d5f2","setVerifier(address)":"5437988d","submitPropertyForVerification(string,string,string,string,uint256,uint256)":"dd802c4c","supportsInterface(bytes4)":"01ffc9a7","symbol()":"95d89b41","tokenByIndex(uint256)":"4f6ccce7","tokenOfOwnerByIndex(address,uint256)":"2f745c59","tokenURI(uint256)":"c87b56dd","totalSupply()":"18160ddd","transferFrom(address,address,uint256)":"23b872dd","transferOwnership(address)":"f2fde38b","verificationFee()":"a8c278a2","verifier()":"2b7ac3f3","verifyProperty(uint256,bool)":"322bb116"}}}}}