{
  "_format": "hh-sol-artifact-1",
  "contractName": "FractionalNFTMarketplace",
  "sourceName": "contracts/FractionalNFTMarketplace.sol",
  "abi": [
    {
      "inputs": [],
      "stateMutability": "nonpayable",
      "type": "constructor"
    },
    {
      "inputs": [],
      "name": "ERC721EnumerableForbiddenBatchMint",
      "type": "error"
    },
    {
      "inputs": [
        {
          "internalType": "address",
          "name": "sender",
          "type": "address"
        },
        {
          "internalType": "uint256",
          "name": "tokenId",
          "type": "uint256"
        },
        {
          "internalType": "address",
          "name": "owner",
          "type": "address"
        }
      ],
      "name": "ERC721IncorrectOwner",
      "type": "error"
    },
    {
      "inputs": [
        {
          "internalType": "address",
          "name": "operator",
          "type": "address"
        },
        {
          "internalType": "uint256",
          "name": "tokenId",
          "type": "uint256"
        }
      ],
      "name": "ERC721InsufficientApproval",
      "type": "error"
    },
    {
      "inputs": [
        {
          "internalType": "address",
          "name": "approver",
          "type": "address"
        }
      ],
      "name": "ERC721InvalidApprover",
      "type": "error"
    },
    {
      "inputs": [
        {
          "internalType": "address",
          "name": "operator",
          "type": "address"
        }
      ],
      "name": "ERC721InvalidOperator",
      "type": "error"
    },
    {
      "inputs": [
        {
          "internalType": "address",
          "name": "owner",
          "type": "address"
        }
      ],
      "name": "ERC721InvalidOwner",
      "type": "error"
    },
    {
      "inputs": [
        {
          "internalType": "address",
          "name": "receiver",
          "type": "address"
        }
      ],
      "name": "ERC721InvalidReceiver",
      "type": "error"
    },
    {
      "inputs": [
        {
          "internalType": "address",
          "name": "sender",
          "type": "address"
        }
      ],
      "name": "ERC721InvalidSender",
      "type": "error"
    },
    {
      "inputs": [
        {
          "internalType": "uint256",
          "name": "tokenId",
          "type": "uint256"
        }
      ],
      "name": "ERC721NonexistentToken",
      "type": "error"
    },
    {
      "inputs": [
        {
          "internalType": "address",
          "name": "owner",
          "type": "address"
        },
        {
          "internalType": "uint256",
          "name": "index",
          "type": "uint256"
        }
      ],
      "name": "ERC721OutOfBoundsIndex",
      "type": "error"
    },
    {
      "inputs": [
        {
          "internalType": "address",
          "name": "owner",
          "type": "address"
        }
      ],
      "name": "OwnableInvalidOwner",
      "type": "error"
    },
    {
      "inputs": [
        {
          "internalType": "address",
          "name": "account",
          "type": "address"
        }
      ],
      "name": "OwnableUnauthorizedAccount",
      "type": "error"
    },
    {
      "anonymous": false,
      "inputs": [
        {
          "indexed": true,
          "internalType": "address",
          "name": "owner",
          "type": "address"
        },
        {
          "indexed": true,
          "internalType": "address",
          "name": "approved",
          "type": "address"
        },
        {
          "indexed": true,
          "internalType": "uint256",
          "name": "tokenId",
          "type": "uint256"
        }
      ],
      "name": "Approval",
      "type": "event"
    },
    {
      "anonymous": false,
      "inputs": [
        {
          "indexed": true,
          "internalType": "address",
          "name": "owner",
          "type": "address"
        },
        {
          "indexed": true,
          "internalType": "address",
          "name": "operator",
          "type": "address"
        },
        {
          "indexed": false,
          "internalType": "bool",
          "name": "approved",
          "type": "bool"
        }
      ],
      "name": "ApprovalForAll",
      "type": "event"
    },
    {
      "anonymous": false,
      "inputs": [
        {
          "indexed": false,
          "internalType": "uint256",
          "name": "tokenId",
          "type": "uint256"
        },
        {
          "indexed": false,
          "internalType": "address",
          "name": "buyer",
          "type": "address"
        },
        {
          "indexed": false,
          "internalType": "uint256",
          "name": "fractions",
          "type": "uint256"
        }
      ],
      "name": "FractionBought",
      "type": "event"
    },
    {
      "anonymous": false,
      "inputs": [
        {
          "indexed": false,
          "internalType": "uint256",
          "name": "tokenId",
          "type": "uint256"
        },
        {
          "indexed": false,
          "internalType": "address",
          "name": "seller",
          "type": "address"
        },
        {
          "indexed": false,
          "internalType": "uint256",
          "name": "fractions",
          "type": "uint256"
        },
        {
          "indexed": false,
          "internalType": "uint256",
          "name": "amount",
          "type": "uint256"
        }
      ],
      "name": "FractionSold",
      "type": "event"
    },
    {
      "anonymous": false,
      "inputs": [
        {
          "indexed": true,
          "internalType": "address",
          "name": "previousOwner",
          "type": "address"
        },
        {
          "indexed": true,
          "internalType": "address",
          "name": "newOwner",
          "type": "address"
        }
      ],
      "name": "OwnershipTransferred",
      "type": "event"
    },
    {
      "anonymous": false,
      "inputs": [
        {
          "indexed": false,
          "internalType": "uint256",
          "name": "tokenId",
          "type": "uint256"
        },
        {
          "indexed": false,
          "internalType": "address",
          "name": "owner",
          "type": "address"
        },
        {
          "indexed": false,
          "internalType": "uint256",
          "name": "fractions",
          "type": "uint256"
        },
        {
          "indexed": false,
          "internalType": "uint256",
          "name": "price",
          "type": "uint256"
        }
      ],
      "name": "PropertyListed",
      "type": "event"
    },
    {
      "anonymous": false,
      "inputs": [
        {
          "indexed": true,
          "internalType": "address",
          "name": "from",
          "type": "address"
        },
        {
          "indexed": true,
          "internalType": "address",
          "name": "to",
          "type": "address"
        },
        {
          "indexed": true,
          "internalType": "uint256",
          "name": "tokenId",
          "type": "uint256"
        }
      ],
      "name": "Transfer",
      "type": "event"
    },
    {
      "inputs": [
        {
          "internalType": "address",
          "name": "to",
          "type": "address"
        },
        {
          "internalType": "uint256",
          "name": "tokenId",
          "type": "uint256"
        }
      ],
      "name": "approve",
      "outputs": [],
      "stateMutability": "nonpayable",
      "type": "function"
    },
    {
      "inputs": [
        {
          "internalType": "address",
          "name": "owner",
          "type": "address"
        }
      ],
      "name": "balanceOf",
      "outputs": [
        {
          "internalType": "uint256",
          "name": "",
          "type": "uint256"
        }
      ],
      "stateMutability": "view",
      "type": "function"
    },
    {
      "inputs": [
        {
          "internalType": "uint256",
          "name": "tokenId",
          "type": "uint256"
        },
        {
          "internalType": "uint256",
          "name": "fractions",
          "type": "uint256"
        }
      ],
      "name": "buyFraction",
      "outputs": [],
      "stateMutability": "payable",
      "type": "function"
    },
    {
      "inputs": [
        {
          "internalType": "uint256",
          "name": "",
          "type": "uint256"
        },
        {
          "internalType": "address",
          "name": "",
          "type": "address"
        }
      ],
      "name": "fractionOwnership",
      "outputs": [
        {
          "internalType": "uint256",
          "name": "",
          "type": "uint256"
        }
      ],
      "stateMutability": "view",
      "type": "function"
    },
    {
      "inputs": [],
      "name": "getAllListings",
      "outputs": [
        {
          "components": [
            {
              "internalType": "uint256",
              "name": "tokenId",
              "type": "uint256"
            },
            {
              "internalType": "address",
              "name": "owner",
              "type": "address"
            },
            {
              "internalType": "uint256",
              "name": "totalFractions",
              "type": "uint256"
            },
            {
              "internalType": "uint256",
              "name": "pricePerFraction",
              "type": "uint256"
            },
            {
              "internalType": "uint256",
              "name": "availableFractions",
              "type": "uint256"
            }
          ],
          "internalType": "struct FractionalNFTMarketplace.Property[]",
          "name": "",
          "type": "tuple[]"
        }
      ],
      "stateMutability": "view",
      "type": "function"
    },
    {
      "inputs": [
        {
          "internalType": "uint256",
          "name": "tokenId",
          "type": "uint256"
        }
      ],
      "name": "getApproved",
      "outputs": [
        {
          "internalType": "address",
          "name": "",
          "type": "address"
        }
      ],
      "stateMutability": "view",
      "type": "function"
    },
    {
      "inputs": [
        {
          "internalType": "uint256",
          "name": "tokenId",
          "type": "uint256"
        },
        {
          "internalType": "address",
          "name": "user",
          "type": "address"
        }
      ],
      "name": "getUserFractions",
      "outputs": [
        {
          "internalType": "uint256",
          "name": "",
          "type": "uint256"
        }
      ],
      "stateMutability": "view",
      "type": "function"
    },
    {
      "inputs": [
        {
          "internalType": "address",
          "name": "owner",
          "type": "address"
        },
        {
          "internalType": "address",
          "name": "operator",
          "type": "address"
        }
      ],
      "name": "isApprovedForAll",
      "outputs": [
        {
          "internalType": "bool",
          "name": "",
          "type": "bool"
        }
      ],
      "stateMutability": "view",
      "type": "function"
    },
    {
      "inputs": [
        {
          "internalType": "uint256",
          "name": "totalFractions",
          "type": "uint256"
        },
        {
          "internalType": "uint256",
          "name": "pricePerFraction",
          "type": "uint256"
        }
      ],
      "name": "listProperty",
      "outputs": [],
      "stateMutability": "nonpayable",
      "type": "function"
    },
    {
      "inputs": [],
      "name": "name",
      "outputs": [
        {
          "internalType": "string",
          "name": "",
          "type": "string"
        }
      ],
      "stateMutability": "view",
      "type": "function"
    },
    {
      "inputs": [],
      "name": "nextTokenId",
      "outputs": [
        {
          "internalType": "uint256",
          "name": "",
          "type": "uint256"
        }
      ],
      "stateMutability": "view",
      "type": "function"
    },
    {
      "inputs": [],
      "name": "owner",
      "outputs": [
        {
          "internalType": "address",
          "name": "",
          "type": "address"
        }
      ],
      "stateMutability": "view",
      "type": "function"
    },
    {
      "inputs": [
        {
          "internalType": "uint256",
          "name": "tokenId",
          "type": "uint256"
        }
      ],
      "name": "ownerOf",
      "outputs": [
        {
          "internalType": "address",
          "name": "",
          "type": "address"
        }
      ],
      "stateMutability": "view",
      "type": "function"
    },
    {
      "inputs": [
        {
          "internalType": "uint256",
          "name": "",
          "type": "uint256"
        }
      ],
      "name": "properties",
      "outputs": [
        {
          "internalType": "uint256",
          "name": "tokenId",
          "type": "uint256"
        },
        {
          "internalType": "address",
          "name": "owner",
          "type": "address"
        },
        {
          "internalType": "uint256",
          "name": "totalFractions",
          "type": "uint256"
        },
        {
          "internalType": "uint256",
          "name": "pricePerFraction",
          "type": "uint256"
        },
        {
          "internalType": "uint256",
          "name": "availableFractions",
          "type": "uint256"
        }
      ],
      "stateMutability": "view",
      "type": "function"
    },
    {
      "inputs": [],
      "name": "renounceOwnership",
      "outputs": [],
      "stateMutability": "nonpayable",
      "type": "function"
    },
    {
      "inputs": [
        {
          "internalType": "address",
          "name": "from",
          "type": "address"
        },
        {
          "internalType": "address",
          "name": "to",
          "type": "address"
        },
        {
          "internalType": "uint256",
          "name": "tokenId",
          "type": "uint256"
        }
      ],
      "name": "safeTransferFrom",
      "outputs": [],
      "stateMutability": "nonpayable",
      "type": "function"
    },
    {
      "inputs": [
        {
          "internalType": "address",
          "name": "from",
          "type": "address"
        },
        {
          "internalType": "address",
          "name": "to",
          "type": "address"
        },
        {
          "internalType": "uint256",
          "name": "tokenId",
          "type": "uint256"
        },
        {
          "internalType": "bytes",
          "name": "data",
          "type": "bytes"
        }
      ],
      "name": "safeTransferFrom",
      "outputs": [],
      "stateMutability": "nonpayable",
      "type": "function"
    },
    {
      "inputs": [
        {
          "internalType": "uint256",
          "name": "tokenId",
          "type": "uint256"
        },
        {
          "internalType": "uint256",
          "name": "fractions",
          "type": "uint256"
        }
      ],
      "name": "sellFraction",
      "outputs": [],
      "stateMutability": "nonpayable",
      "type": "function"
    },
    {
      "inputs": [
        {
          "internalType": "address",
          "name": "operator",
          "type": "address"
        },
        {
          "internalType": "bool",
          "name": "approved",
          "type": "bool"
        }
      ],
      "name": "setApprovalForAll",
      "outputs": [],
      "stateMutability": "nonpayable",
      "type": "function"
    },
    {
      "inputs": [
        {
          "internalType": "bytes4",
          "name": "interfaceId",
          "type": "bytes4"
        }
      ],
      "name": "supportsInterface",
      "outputs": [
        {
          "internalType": "bool",
          "name": "",
          "type": "bool"
        }
      ],
      "stateMutability": "view",
      "type": "function"
    },
    {
      "inputs": [],
      "name": "symbol",
      "outputs": [
        {
          "internalType": "string",
          "name": "",
          "type": "string"
        }
      ],
      "stateMutability": "view",
      "type": "function"
    },
    {
      "inputs": [
        {
          "internalType": "uint256",
          "name": "index",
          "type": "uint256"
        }
      ],
      "name": "tokenByIndex",
      "outputs": [
        {
          "internalType": "uint256",
          "name": "",
          "type": "uint256"
        }
      ],
      "stateMutability": "view",
      "type": "function"
    },
    {
      "inputs": [
        {
          "internalType": "address",
          "name": "owner",
          "type": "address"
        },
        {
          "internalType": "uint256",
          "name": "index",
          "type": "uint256"
        }
      ],
      "name": "tokenOfOwnerByIndex",
      "outputs": [
        {
          "internalType": "uint256",
          "name": "",
          "type": "uint256"
        }
      ],
      "stateMutability": "view",
      "type": "function"
    },
    {
      "inputs": [
        {
          "internalType": "uint256",
          "name": "tokenId",
          "type": "uint256"
        }
      ],
      "name": "tokenURI",
      "outputs": [
        {
          "internalType": "string",
          "name": "",
          "type": "string"
        }
      ],
      "stateMutability": "view",
      "type": "function"
    },
    {
      "inputs": [],
      "name": "totalSupply",
      "outputs": [
        {
          "internalType": "uint256",
          "name": "",
          "type": "uint256"
        }
      ],
      "stateMutability": "view",
      "type": "function"
    },
    {
      "inputs": [
        {
          "internalType": "address",
          "name": "from",
          "type": "address"
        },
        {
          "internalType": "address",
          "name": "to",
          "type": "address"
        },
        {
          "internalType": "uint256",
          "name": "tokenId",
          "type": "uint256"
        }
      ],
      "name": "transferFrom",
      "outputs": [],
      "stateMutability": "nonpayable",
      "type": "function"
    },
    {
      "inputs": [
        {
          "internalType": "address",
          "name": "newOwner",
          "type": "address"
        }
      ],
      "name": "transferOwnership",
      "outputs": [],
      "stateMutability": "nonpayable",
      "type": "function"
    },
    {
      "stateMutability": "payable",
      "type": "receive"
    }
  ],
  "bytecode": "0x608060405234801561001057600080fd5b50336040518060400160405280600d81526020017f4672616374696f6e616c4e4654000000000000000000000000000000000000008152506040518060400160405280600481526020017f664e465400000000000000000000000000000000000000000000000000000000815250816000908161008d919061043d565b50806001908161009d919061043d565b505050600073ffffffffffffffffffffffffffffffffffffffff168173ffffffffffffffffffffffffffffffffffffffff16036101125760006040517f1e4fbdf70000000000000000000000000000000000000000000000000000000081526004016101099190610550565b60405180910390fd5b6101218161012760201b60201c565b5061056b565b6000600a60009054906101000a900473ffffffffffffffffffffffffffffffffffffffff16905081600a60006101000a81548173ffffffffffffffffffffffffffffffffffffffff021916908373ffffffffffffffffffffffffffffffffffffffff1602179055508173ffffffffffffffffffffffffffffffffffffffff168173ffffffffffffffffffffffffffffffffffffffff167f8be0079c531659141344cd1fd0a4f28419497f9722a3daafe3b4186f6b6457e060405160405180910390a35050565b600081519050919050565b7f4e487b7100000000000000000000000000000000000000000000000000000000600052604160045260246000fd5b7f4e487b7100000000000000000000000000000000000000000000000000000000600052602260045260246000fd5b6000600282049050600182168061026e57607f821691505b60208210810361028157610280610227565b5b50919050565b60008190508160005260206000209050919050565b60006020601f8301049050919050565b600082821b905092915050565b6000600883026102e97fffffffffffffffffffffffffffffffffffffffffffffffffffffffffffffffff826102ac565b6102f386836102ac565b95508019841693508086168417925050509392505050565b6000819050919050565b6000819050919050565b600061033a6103356103308461030b565b610315565b61030b565b9050919050565b6000819050919050565b6103548361031f565b61036861036082610341565b8484546102b9565b825550505050565b600090565b61037d610370565b61038881848461034b565b505050565b5b818110156103ac576103a1600082610375565b60018101905061038e565b5050565b601f8211156103f1576103c281610287565b6103cb8461029c565b810160208510156103da578190505b6103ee6103e68561029c565b83018261038d565b50505b505050565b600082821c905092915050565b6000610414600019846008026103f6565b1980831691505092915050565b600061042d8383610403565b9150826002028217905092915050565b610446826101ed565b67ffffffffffffffff81111561045f5761045e6101f8565b5b6104698254610256565b6104748282856103b0565b600060209050601f8311600181146104a75760008415610495578287015190505b61049f8582610421565b865550610507565b601f1984166104b586610287565b60005b828110156104dd578489015182556001820191506020850194506020810190506104b8565b868310156104fa57848901516104f6601f891682610403565b8355505b6001600288020188555050505b505050505050565b600073ffffffffffffffffffffffffffffffffffffffff82169050919050565b600061053a8261050f565b9050919050565b61054a8161052f565b82525050565b60006020820190506105656000830184610541565b92915050565b6137f28061057a6000396000f3fe6080604052600436106101a05760003560e01c806370b024d7116100ec578063b88d4fde1161008a578063d40b021411610064578063d40b021414610609578063e985e9c514610625578063f2fde38b14610662578063f7b108081461068b576101a7565b8063b88d4fde14610566578063c87b56dd1461058f578063ccae763a146105cc576101a7565b80638da5cb5b116100c65780638da5cb5b146104bc57806395d89b41146104e7578063a22cb46514610512578063ae73ccec1461053b576101a7565b806370b024d714610451578063715018a61461047a57806375794a3c14610491576101a7565b80632f745c59116101595780634f6ccce7116101335780634f6ccce71461035d5780636352211e1461039a57806367e827d0146103d757806370a0823114610414576101a7565b80632f745c59146102ce57806342842e0e1461030b5780634eda529b14610334576101a7565b806301ffc9a7146101ac57806306fdde03146101e9578063081812fc14610214578063095ea7b31461025157806318160ddd1461027a57806323b872dd146102a5576101a7565b366101a757005b600080fd5b3480156101b857600080fd5b506101d360048036038101906101ce91906129af565b6106cc565b6040516101e091906129f7565b60405180910390f35b3480156101f557600080fd5b506101fe610746565b60405161020b9190612aa2565b60405180910390f35b34801561022057600080fd5b5061023b60048036038101906102369190612afa565b6107d8565b6040516102489190612b68565b60405180910390f35b34801561025d57600080fd5b5061027860048036038101906102739190612baf565b6107f4565b005b34801561028657600080fd5b5061028f61080a565b60405161029c9190612bfe565b60405180910390f35b3480156102b157600080fd5b506102cc60048036038101906102c79190612c19565b610817565b005b3480156102da57600080fd5b506102f560048036038101906102f09190612baf565b610919565b6040516103029190612bfe565b60405180910390f35b34801561031757600080fd5b50610332600480360381019061032d9190612c19565b6109c2565b005b34801561034057600080fd5b5061035b60048036038101906103569190612c6c565b6109e2565b005b34801561036957600080fd5b50610384600480360381019061037f9190612afa565b610b0b565b6040516103919190612bfe565b60405180910390f35b3480156103a657600080fd5b506103c160048036038101906103bc9190612afa565b610b81565b6040516103ce9190612b68565b60405180910390f35b3480156103e357600080fd5b506103fe60048036038101906103f99190612cac565b610b93565b60405161040b9190612bfe565b60405180910390f35b34801561042057600080fd5b5061043b60048036038101906104369190612cec565b610bb8565b6040516104489190612bfe565b60405180910390f35b34801561045d57600080fd5b5061047860048036038101906104739190612c6c565b610c72565b005b34801561048657600080fd5b5061048f610ec2565b005b34801561049d57600080fd5b506104a6610ed6565b6040516104b39190612bfe565b60405180910390f35b3480156104c857600080fd5b506104d1610edc565b6040516104de9190612b68565b60405180910390f35b3480156104f357600080fd5b506104fc610f06565b6040516105099190612aa2565b60405180910390f35b34801561051e57600080fd5b5061053960048036038101906105349190612d45565b610f98565b005b34801561054757600080fd5b50610550610fae565b60405161055d9190612eba565b60405180910390f35b34801561057257600080fd5b5061058d60048036038101906105889190613011565b611169565b005b34801561059b57600080fd5b506105b660048036038101906105b19190612afa565b61118e565b6040516105c39190612aa2565b60405180910390f35b3480156105d857600080fd5b506105f360048036038101906105ee9190612cac565b6111f7565b6040516106009190612bfe565b60405180910390f35b610623600480360381019061061e9190612c6c565b611252565b005b34801561063157600080fd5b5061064c60048036038101906106479190613094565b611477565b60405161065991906129f7565b60405180910390f35b34801561066e57600080fd5b5061068960048036038101906106849190612cec565b61150b565b005b34801561069757600080fd5b506106b260048036038101906106ad9190612afa565b611591565b6040516106c39594939291906130d4565b60405180910390f35b60007f780e9d63000000000000000000000000000000000000000000000000000000007bffffffffffffffffffffffffffffffffffffffffffffffffffffffff1916827bffffffffffffffffffffffffffffffffffffffffffffffffffffffff1916148061073f575061073e826115e7565b5b9050919050565b60606000805461075590613156565b80601f016020809104026020016040519081016040528092919081815260200182805461078190613156565b80156107ce5780601f106107a3576101008083540402835291602001916107ce565b820191906000526020600020905b8154815290600101906020018083116107b157829003601f168201915b5050505050905090565b60006107e3826116c9565b506107ed82611751565b9050919050565b610806828261080161178e565b611796565b5050565b6000600880549050905090565b600073ffffffffffffffffffffffffffffffffffffffff168273ffffffffffffffffffffffffffffffffffffffff16036108895760006040517f64a0ae920000000000000000000000000000000000000000000000000000000081526004016108809190612b68565b60405180910390fd5b600061089d838361089861178e565b6117a8565b90508373ffffffffffffffffffffffffffffffffffffffff168173ffffffffffffffffffffffffffffffffffffffff1614610913578382826040517f64283d7b00000000000000000000000000000000000000000000000000000000815260040161090a93929190613187565b60405180910390fd5b50505050565b600061092483610bb8565b82106109695782826040517fa57d13dc0000000000000000000000000000000000000000000000000000000081526004016109609291906131be565b60405180910390fd5b600660008473ffffffffffffffffffffffffffffffffffffffff1673ffffffffffffffffffffffffffffffffffffffff168152602001908152602001600020600083815260200190815260200160002054905092915050565b6109dd83838360405180602001604052806000815250611169565b505050565b6000600b60008154809291906109f790613216565b9190505590506040518060a001604052808281526020013373ffffffffffffffffffffffffffffffffffffffff16815260200184815260200183815260200184815250600c60008381526020019081526020016000206000820151816000015560208201518160010160006101000a81548173ffffffffffffffffffffffffffffffffffffffff021916908373ffffffffffffffffffffffffffffffffffffffff160217905550604082015181600201556060820151816003015560808201518160040155905050610ac933826118c5565b7f2c479e2e638a3a97a6f194336f17f298b4ec7145f37c7d35ff6346f9cd4a003081338585604051610afe949392919061325e565b60405180910390a1505050565b6000610b1561080a565b8210610b5b576000826040517fa57d13dc000000000000000000000000000000000000000000000000000000008152600401610b529291906131be565b60405180910390fd5b60088281548110610b6f57610b6e6132a3565b5b90600052602060002001549050919050565b6000610b8c826116c9565b9050919050565b600d602052816000526040600020602052806000526040600020600091509150505481565b60008073ffffffffffffffffffffffffffffffffffffffff168273ffffffffffffffffffffffffffffffffffffffff1603610c2b5760006040517f89c62b64000000000000000000000000000000000000000000000000000000008152600401610c229190612b68565b60405180910390fd5b600360008373ffffffffffffffffffffffffffffffffffffffff1673ffffffffffffffffffffffffffffffffffffffff168152602001908152602001600020549050919050565b6000600c6000848152602001908152602001600020905060008211610ccc576040517f08c379a0000000000000000000000000000000000000000000000000000000008152600401610cc390613344565b60405180910390fd5b81600d600085815260200190815260200160002060003373ffffffffffffffffffffffffffffffffffffffff1673ffffffffffffffffffffffffffffffffffffffff168152602001908152602001600020541015610d5f576040517f08c379a0000000000000000000000000000000000000000000000000000000008152600401610d56906133b0565b60405180910390fd5b6000816003015483610d7191906133d0565b905080471015610db6576040517f08c379a0000000000000000000000000000000000000000000000000000000008152600401610dad90613484565b60405180910390fd5b82826004016000828254610dca91906134a4565b9250508190555082600d600086815260200190815260200160002060003373ffffffffffffffffffffffffffffffffffffffff1673ffffffffffffffffffffffffffffffffffffffff1681526020019081526020016000206000828254610e3191906134d8565b925050819055503373ffffffffffffffffffffffffffffffffffffffff166108fc829081150290604051600060405180830381858888f19350505050158015610e7e573d6000803e3d6000fd5b507f020b3b58be062ec1c9172f245d8d4ce46426e1d5afcea9019acac5786cdc269d84338584604051610eb4949392919061325e565b60405180910390a150505050565b610eca6119be565b610ed46000611a45565b565b600b5481565b6000600a60009054906101000a900473ffffffffffffffffffffffffffffffffffffffff16905090565b606060018054610f1590613156565b80601f0160208091040260200160405190810160405280929190818152602001828054610f4190613156565b8015610f8e5780601f10610f6357610100808354040283529160200191610f8e565b820191906000526020600020905b815481529060010190602001808311610f7157829003601f168201915b5050505050905090565b610faa610fa361178e565b8383611b0b565b5050565b60606000805b600b54811015610ff9576000600c6000838152602001908152602001600020600201541115610fec578180610fe890613216565b9250505b8080600101915050610fb4565b5060008167ffffffffffffffff81111561101657611015612ee6565b5b60405190808252806020026020018201604052801561104f57816020015b61103c6128fe565b8152602001906001900390816110345790505b5090506000821115611161576000805b600b5481101561115e576000600c600083815260200190815260200160002060020154111561115157600c60008281526020019081526020016000206040518060a0016040529081600082015481526020016001820160009054906101000a900473ffffffffffffffffffffffffffffffffffffffff1673ffffffffffffffffffffffffffffffffffffffff1673ffffffffffffffffffffffffffffffffffffffff1681526020016002820154815260200160038201548152602001600482015481525050838381518110611137576111366132a3565b5b6020026020010181905250818061114d90613216565b9250505b808060010191505061105f565b50505b809250505090565b611174848484610817565b61118861117f61178e565b85858585611c7a565b50505050565b6060611199826116c9565b5060006111a4611e2b565b905060008151116111c457604051806020016040528060008152506111ef565b806111ce84611e42565b6040516020016111df929190613548565b6040516020818303038152906040525b915050919050565b6000600d600084815260200190815260200160002060008373ffffffffffffffffffffffffffffffffffffffff1673ffffffffffffffffffffffffffffffffffffffff16815260200190815260200160002054905092915050565b6000600c60008481526020019081526020016000209050600082116112ac576040517f08c379a00000000000000000000000000000000000000000000000000000000081526004016112a390613344565b60405180910390fd5b80600401548211156112f3576040517f08c379a00000000000000000000000000000000000000000000000000000000081526004016112ea906135b8565b60405180910390fd5b600081600301548361130591906133d0565b9050803414611349576040517f08c379a000000000000000000000000000000000000000000000000000000000815260040161134090613624565b60405180910390fd5b8160010160009054906101000a900473ffffffffffffffffffffffffffffffffffffffff1673ffffffffffffffffffffffffffffffffffffffff166108fc829081150290604051600060405180830381858888f193505050501580156113b3573d6000803e3d6000fd5b50828260040160008282546113c891906134d8565b9250508190555082600d600086815260200190815260200160002060003373ffffffffffffffffffffffffffffffffffffffff1673ffffffffffffffffffffffffffffffffffffffff168152602001908152602001600020600082825461142f91906134a4565b925050819055507fa09ee622b528975b330f6a8b76649135b6cd75be9b28a394a116b8dadbda878084338560405161146993929190613644565b60405180910390a150505050565b6000600560008473ffffffffffffffffffffffffffffffffffffffff1673ffffffffffffffffffffffffffffffffffffffff16815260200190815260200160002060008373ffffffffffffffffffffffffffffffffffffffff1673ffffffffffffffffffffffffffffffffffffffff16815260200190815260200160002060009054906101000a900460ff16905092915050565b6115136119be565b600073ffffffffffffffffffffffffffffffffffffffff168173ffffffffffffffffffffffffffffffffffffffff16036115855760006040517f1e4fbdf700000000000000000000000000000000000000000000000000000000815260040161157c9190612b68565b60405180910390fd5b61158e81611a45565b50565b600c6020528060005260406000206000915090508060000154908060010160009054906101000a900473ffffffffffffffffffffffffffffffffffffffff16908060020154908060030154908060040154905085565b60007f80ac58cd000000000000000000000000000000000000000000000000000000007bffffffffffffffffffffffffffffffffffffffffffffffffffffffff1916827bffffffffffffffffffffffffffffffffffffffffffffffffffffffff191614806116b257507f5b5e139f000000000000000000000000000000000000000000000000000000007bffffffffffffffffffffffffffffffffffffffffffffffffffffffff1916827bffffffffffffffffffffffffffffffffffffffffffffffffffffffff1916145b806116c257506116c182611f10565b5b9050919050565b6000806116d583611f7a565b9050600073ffffffffffffffffffffffffffffffffffffffff168173ffffffffffffffffffffffffffffffffffffffff160361174857826040517f7e27328900000000000000000000000000000000000000000000000000000000815260040161173f9190612bfe565b60405180910390fd5b80915050919050565b60006004600083815260200190815260200160002060009054906101000a900473ffffffffffffffffffffffffffffffffffffffff169050919050565b600033905090565b6117a38383836001611fb7565b505050565b6000806117b685858561217c565b9050600073ffffffffffffffffffffffffffffffffffffffff168173ffffffffffffffffffffffffffffffffffffffff16036117fa576117f584612396565b611839565b8473ffffffffffffffffffffffffffffffffffffffff168173ffffffffffffffffffffffffffffffffffffffff16146118385761183781856123df565b5b5b600073ffffffffffffffffffffffffffffffffffffffff168573ffffffffffffffffffffffffffffffffffffffff160361187b57611876846124ca565b6118ba565b8473ffffffffffffffffffffffffffffffffffffffff168173ffffffffffffffffffffffffffffffffffffffff16146118b9576118b8858561259b565b5b5b809150509392505050565b600073ffffffffffffffffffffffffffffffffffffffff168273ffffffffffffffffffffffffffffffffffffffff16036119375760006040517f64a0ae9200000000000000000000000000000000000000000000000000000000815260040161192e9190612b68565b60405180910390fd5b6000611945838360006117a8565b9050600073ffffffffffffffffffffffffffffffffffffffff168173ffffffffffffffffffffffffffffffffffffffff16146119b95760006040517f73c6ac6e0000000000000000000000000000000000000000000000000000000081526004016119b09190612b68565b60405180910390fd5b505050565b6119c661178e565b73ffffffffffffffffffffffffffffffffffffffff166119e4610edc565b73ffffffffffffffffffffffffffffffffffffffff1614611a4357611a0761178e565b6040517f118cdaa7000000000000000000000000000000000000000000000000000000008152600401611a3a9190612b68565b60405180910390fd5b565b6000600a60009054906101000a900473ffffffffffffffffffffffffffffffffffffffff16905081600a60006101000a81548173ffffffffffffffffffffffffffffffffffffffff021916908373ffffffffffffffffffffffffffffffffffffffff1602179055508173ffffffffffffffffffffffffffffffffffffffff168173ffffffffffffffffffffffffffffffffffffffff167f8be0079c531659141344cd1fd0a4f28419497f9722a3daafe3b4186f6b6457e060405160405180910390a35050565b600073ffffffffffffffffffffffffffffffffffffffff168273ffffffffffffffffffffffffffffffffffffffff1603611b7c57816040517f5b08ba18000000000000000000000000000000000000000000000000000000008152600401611b739190612b68565b60405180910390fd5b80600560008573ffffffffffffffffffffffffffffffffffffffff1673ffffffffffffffffffffffffffffffffffffffff16815260200190815260200160002060008473ffffffffffffffffffffffffffffffffffffffff1673ffffffffffffffffffffffffffffffffffffffff16815260200190815260200160002060006101000a81548160ff0219169083151502179055508173ffffffffffffffffffffffffffffffffffffffff168373ffffffffffffffffffffffffffffffffffffffff167f17307eab39ab6107e8899845ad3d59bd9653f200f220920489ca2b5937696c3183604051611c6d91906129f7565b60405180910390a3505050565b60008373ffffffffffffffffffffffffffffffffffffffff163b1115611e24578273ffffffffffffffffffffffffffffffffffffffff1663150b7a02868685856040518563ffffffff1660e01b8152600401611cd994939291906136d0565b6020604051808303816000875af1925050508015611d1557506040513d601f19601f82011682018060405250810190611d129190613731565b60015b611d99573d8060008114611d45576040519150601f19603f3d011682016040523d82523d6000602084013e611d4a565b606091505b506000815103611d9157836040517f64a0ae92000000000000000000000000000000000000000000000000000000008152600401611d889190612b68565b60405180910390fd5b805181602001fd5b63150b7a0260e01b7bffffffffffffffffffffffffffffffffffffffffffffffffffffffff1916817bffffffffffffffffffffffffffffffffffffffffffffffffffffffff191614611e2257836040517f64a0ae92000000000000000000000000000000000000000000000000000000008152600401611e199190612b68565b60405180910390fd5b505b5050505050565b606060405180602001604052806000815250905090565b606060006001611e5184612626565b01905060008167ffffffffffffffff811115611e7057611e6f612ee6565b5b6040519080825280601f01601f191660200182016040528015611ea25781602001600182028036833780820191505090505b509050600082602001820190505b600115611f05578080600190039150507f3031323334353637383961626364656600000000000000000000000000000000600a86061a8153600a8581611ef957611ef861375e565b5b04945060008503611eb0575b819350505050919050565b60007f01ffc9a7000000000000000000000000000000000000000000000000000000007bffffffffffffffffffffffffffffffffffffffffffffffffffffffff1916827bffffffffffffffffffffffffffffffffffffffffffffffffffffffff1916149050919050565b60006002600083815260200190815260200160002060009054906101000a900473ffffffffffffffffffffffffffffffffffffffff169050919050565b8080611ff05750600073ffffffffffffffffffffffffffffffffffffffff168273ffffffffffffffffffffffffffffffffffffffff1614155b15612124576000612000846116c9565b9050600073ffffffffffffffffffffffffffffffffffffffff168373ffffffffffffffffffffffffffffffffffffffff161415801561206b57508273ffffffffffffffffffffffffffffffffffffffff168173ffffffffffffffffffffffffffffffffffffffff1614155b801561207e575061207c8184611477565b155b156120c057826040517fa9fbf51f0000000000000000000000000000000000000000000000000000000081526004016120b79190612b68565b60405180910390fd5b811561212257838573ffffffffffffffffffffffffffffffffffffffff168273ffffffffffffffffffffffffffffffffffffffff167f8c5be1e5ebec7d5bd14f71427d1e84f3dd0314c0f7b2291e5b200ac8c7c3b92560405160405180910390a45b505b836004600085815260200190815260200160002060006101000a81548173ffffffffffffffffffffffffffffffffffffffff021916908373ffffffffffffffffffffffffffffffffffffffff16021790555050505050565b60008061218884611f7a565b9050600073ffffffffffffffffffffffffffffffffffffffff168373ffffffffffffffffffffffffffffffffffffffff16146121ca576121c9818486612779565b5b600073ffffffffffffffffffffffffffffffffffffffff168173ffffffffffffffffffffffffffffffffffffffff161461225b5761220c600085600080611fb7565b6001600360008373ffffffffffffffffffffffffffffffffffffffff1673ffffffffffffffffffffffffffffffffffffffff168152602001908152602001600020600082825403925050819055505b600073ffffffffffffffffffffffffffffffffffffffff168573ffffffffffffffffffffffffffffffffffffffff16146122de576001600360008773ffffffffffffffffffffffffffffffffffffffff1673ffffffffffffffffffffffffffffffffffffffff168152602001908152602001600020600082825401925050819055505b846002600086815260200190815260200160002060006101000a81548173ffffffffffffffffffffffffffffffffffffffff021916908373ffffffffffffffffffffffffffffffffffffffff160217905550838573ffffffffffffffffffffffffffffffffffffffff168273ffffffffffffffffffffffffffffffffffffffff167fddf252ad1be2c89b69c2b068fc378daa952ba7f163c4a11628f55a4df523b3ef60405160405180910390a4809150509392505050565b6008805490506009600083815260200190815260200160002081905550600881908060018154018082558091505060019003906000526020600020016000909190919091505550565b60006123ea83610bb8565b90506000600760008481526020019081526020016000205490506000600660008673ffffffffffffffffffffffffffffffffffffffff1673ffffffffffffffffffffffffffffffffffffffff16815260200190815260200160002090508282146124965760008160008581526020019081526020016000205490508082600085815260200190815260200160002081905550826007600083815260200190815260200160002081905550505b6007600085815260200190815260200160002060009055806000848152602001908152602001600020600090555050505050565b600060016008805490506124de91906134d8565b905060006009600084815260200190815260200160002054905060006008838154811061250e5761250d6132a3565b5b9060005260206000200154905080600883815481106125305761252f6132a3565b5b90600052602060002001819055508160096000838152602001908152602001600020819055506009600085815260200190815260200160002060009055600880548061257f5761257e61378d565b5b6001900381819060005260206000200160009055905550505050565b600060016125a884610bb8565b6125b291906134d8565b905081600660008573ffffffffffffffffffffffffffffffffffffffff1673ffffffffffffffffffffffffffffffffffffffff168152602001908152602001600020600083815260200190815260200160002081905550806007600084815260200190815260200160002081905550505050565b600080600090507a184f03e93ff9f4daa797ed6e38ed64bf6a1f0100000000000000008310612684577a184f03e93ff9f4daa797ed6e38ed64bf6a1f010000000000000000838161267a5761267961375e565b5b0492506040810190505b6d04ee2d6d415b85acef810000000083106126c1576d04ee2d6d415b85acef810000000083816126b7576126b661375e565b5b0492506020810190505b662386f26fc1000083106126f057662386f26fc1000083816126e6576126e561375e565b5b0492506010810190505b6305f5e1008310612719576305f5e100838161270f5761270e61375e565b5b0492506008810190505b612710831061273e5761271083816127345761273361375e565b5b0492506004810190505b6064831061276157606483816127575761275661375e565b5b0492506002810190505b600a8310612770576001810190505b80915050919050565b61278483838361283d565b61283857600073ffffffffffffffffffffffffffffffffffffffff168373ffffffffffffffffffffffffffffffffffffffff16036127f957806040517f7e2732890000000000000000000000000000000000000000000000000000000081526004016127f09190612bfe565b60405180910390fd5b81816040517f177e802f00000000000000000000000000000000000000000000000000000000815260040161282f9291906131be565b60405180910390fd5b505050565b60008073ffffffffffffffffffffffffffffffffffffffff168373ffffffffffffffffffffffffffffffffffffffff16141580156128f557508273ffffffffffffffffffffffffffffffffffffffff168473ffffffffffffffffffffffffffffffffffffffff1614806128b657506128b58484611477565b5b806128f457508273ffffffffffffffffffffffffffffffffffffffff166128dc83611751565b73ffffffffffffffffffffffffffffffffffffffff16145b5b90509392505050565b6040518060a0016040528060008152602001600073ffffffffffffffffffffffffffffffffffffffff1681526020016000815260200160008152602001600081525090565b6000604051905090565b600080fd5b600080fd5b60007fffffffff0000000000000000000000000000000000000000000000000000000082169050919050565b61298c81612957565b811461299757600080fd5b50565b6000813590506129a981612983565b92915050565b6000602082840312156129c5576129c461294d565b5b60006129d38482850161299a565b91505092915050565b60008115159050919050565b6129f1816129dc565b82525050565b6000602082019050612a0c60008301846129e8565b92915050565b600081519050919050565b600082825260208201905092915050565b60005b83811015612a4c578082015181840152602081019050612a31565b60008484015250505050565b6000601f19601f8301169050919050565b6000612a7482612a12565b612a7e8185612a1d565b9350612a8e818560208601612a2e565b612a9781612a58565b840191505092915050565b60006020820190508181036000830152612abc8184612a69565b905092915050565b6000819050919050565b612ad781612ac4565b8114612ae257600080fd5b50565b600081359050612af481612ace565b92915050565b600060208284031215612b1057612b0f61294d565b5b6000612b1e84828501612ae5565b91505092915050565b600073ffffffffffffffffffffffffffffffffffffffff82169050919050565b6000612b5282612b27565b9050919050565b612b6281612b47565b82525050565b6000602082019050612b7d6000830184612b59565b92915050565b612b8c81612b47565b8114612b9757600080fd5b50565b600081359050612ba981612b83565b92915050565b60008060408385031215612bc657612bc561294d565b5b6000612bd485828601612b9a565b9250506020612be585828601612ae5565b9150509250929050565b612bf881612ac4565b82525050565b6000602082019050612c136000830184612bef565b92915050565b600080600060608486031215612c3257612c3161294d565b5b6000612c4086828701612b9a565b9350506020612c5186828701612b9a565b9250506040612c6286828701612ae5565b9150509250925092565b60008060408385031215612c8357612c8261294d565b5b6000612c9185828601612ae5565b9250506020612ca285828601612ae5565b9150509250929050565b60008060408385031215612cc357612cc261294d565b5b6000612cd185828601612ae5565b9250506020612ce285828601612b9a565b9150509250929050565b600060208284031215612d0257612d0161294d565b5b6000612d1084828501612b9a565b91505092915050565b612d22816129dc565b8114612d2d57600080fd5b50565b600081359050612d3f81612d19565b92915050565b60008060408385031215612d5c57612d5b61294d565b5b6000612d6a85828601612b9a565b9250506020612d7b85828601612d30565b9150509250929050565b600081519050919050565b600082825260208201905092915050565b6000819050602082019050919050565b612dba81612ac4565b82525050565b612dc981612b47565b82525050565b60a082016000820151612de56000850182612db1565b506020820151612df86020850182612dc0565b506040820151612e0b6040850182612db1565b506060820151612e1e6060850182612db1565b506080820151612e316080850182612db1565b50505050565b6000612e438383612dcf565b60a08301905092915050565b6000602082019050919050565b6000612e6782612d85565b612e718185612d90565b9350612e7c83612da1565b8060005b83811015612ead578151612e948882612e37565b9750612e9f83612e4f565b925050600181019050612e80565b5085935050505092915050565b60006020820190508181036000830152612ed48184612e5c565b905092915050565b600080fd5b600080fd5b7f4e487b7100000000000000000000000000000000000000000000000000000000600052604160045260246000fd5b612f1e82612a58565b810181811067ffffffffffffffff82111715612f3d57612f3c612ee6565b5b80604052505050565b6000612f50612943565b9050612f5c8282612f15565b919050565b600067ffffffffffffffff821115612f7c57612f7b612ee6565b5b612f8582612a58565b9050602081019050919050565b82818337600083830152505050565b6000612fb4612faf84612f61565b612f46565b905082815260208101848484011115612fd057612fcf612ee1565b5b612fdb848285612f92565b509392505050565b600082601f830112612ff857612ff7612edc565b5b8135613008848260208601612fa1565b91505092915050565b6000806000806080858703121561302b5761302a61294d565b5b600061303987828801612b9a565b945050602061304a87828801612b9a565b935050604061305b87828801612ae5565b925050606085013567ffffffffffffffff81111561307c5761307b612952565b5b61308887828801612fe3565b91505092959194509250565b600080604083850312156130ab576130aa61294d565b5b60006130b985828601612b9a565b92505060206130ca85828601612b9a565b9150509250929050565b600060a0820190506130e96000830188612bef565b6130f66020830187612b59565b6131036040830186612bef565b6131106060830185612bef565b61311d6080830184612bef565b9695505050505050565b7f4e487b7100000000000000000000000000000000000000000000000000000000600052602260045260246000fd5b6000600282049050600182168061316e57607f821691505b60208210810361318157613180613127565b5b50919050565b600060608201905061319c6000830186612b59565b6131a96020830185612bef565b6131b66040830184612b59565b949350505050565b60006040820190506131d36000830185612b59565b6131e06020830184612bef565b9392505050565b7f4e487b7100000000000000000000000000000000000000000000000000000000600052601160045260246000fd5b600061322182612ac4565b91507fffffffffffffffffffffffffffffffffffffffffffffffffffffffffffffffff8203613253576132526131e7565b5b600182019050919050565b60006080820190506132736000830187612bef565b6132806020830186612b59565b61328d6040830185612bef565b61329a6060830184612bef565b95945050505050565b7f4e487b7100000000000000000000000000000000000000000000000000000000600052603260045260246000fd5b7f4672616374696f6e73206d7573742062652067726561746572207468616e207a60008201527f65726f0000000000000000000000000000000000000000000000000000000000602082015250565b600061332e602383612a1d565b9150613339826132d2565b604082019050919050565b6000602082019050818103600083015261335d81613321565b9050919050565b7f596f7520646f6e2774206f776e20656e6f756768206672616374696f6e730000600082015250565b600061339a601e83612a1d565b91506133a582613364565b602082019050919050565b600060208201905081810360008301526133c98161338d565b9050919050565b60006133db82612ac4565b91506133e683612ac4565b92508282026133f481612ac4565b9150828204841483151761340b5761340a6131e7565b5b5092915050565b7f4d61726b6574706c6163652068617320696e73756666696369656e742066756e60008201527f6473000000000000000000000000000000000000000000000000000000000000602082015250565b600061346e602283612a1d565b915061347982613412565b604082019050919050565b6000602082019050818103600083015261349d81613461565b9050919050565b60006134af82612ac4565b91506134ba83612ac4565b92508282019050808211156134d2576134d16131e7565b5b92915050565b60006134e382612ac4565b91506134ee83612ac4565b9250828203905081811115613506576135056131e7565b5b92915050565b600081905092915050565b600061352282612a12565b61352c818561350c565b935061353c818560208601612a2e565b80840191505092915050565b60006135548285613517565b91506135608284613517565b91508190509392505050565b7f4e6f7420656e6f756768206672616374696f6e7320617661696c61626c650000600082015250565b60006135a2601e83612a1d565b91506135ad8261356c565b602082019050919050565b600060208201905081810360008301526135d181613595565b9050919050565b7f496e636f72726563742045746865722073656e74000000000000000000000000600082015250565b600061360e601483612a1d565b9150613619826135d8565b602082019050919050565b6000602082019050818103600083015261363d81613601565b9050919050565b60006060820190506136596000830186612bef565b6136666020830185612b59565b6136736040830184612bef565b949350505050565b600081519050919050565b600082825260208201905092915050565b60006136a28261367b565b6136ac8185613686565b93506136bc818560208601612a2e565b6136c581612a58565b840191505092915050565b60006080820190506136e56000830187612b59565b6136f26020830186612b59565b6136ff6040830185612bef565b81810360608301526137118184613697565b905095945050505050565b60008151905061372b81612983565b92915050565b6000602082840312156137475761374661294d565b5b60006137558482850161371c565b91505092915050565b7f4e487b7100000000000000000000000000000000000000000000000000000000600052601260045260246000fd5b7f4e487b7100000000000000000000000000000000000000000000000000000000600052603160045260246000fdfea26469706673582212207af3528975d188f10f868cec46e7fa893ae8f5b8c5cc06d8300a46498b5e6dcd64736f6c634300081c0033",
  "linkReferences": {},
  "deployedLinkReferences": {}
}